{
  "contractName": "Balancer",
  "abi": [
    {
      "inputs": [
        {
          "internalType": "address",
          "name": "_router",
          "type": "address"
        }
      ],
      "stateMutability": "nonpayable",
      "type": "constructor"
    },
    {
      "anonymous": false,
      "inputs": [
        {
          "indexed": false,
          "internalType": "address",
          "name": "assetAddress",
          "type": "address"
        }
      ],
      "name": "LogAllowedAssetAdded",
      "type": "event"
    },
    {
      "anonymous": false,
      "inputs": [
        {
          "indexed": false,
          "internalType": "address",
          "name": "accountAddress",
          "type": "address"
        },
        {
          "indexed": false,
          "internalType": "uint256",
          "name": "amount",
          "type": "uint256"
        }
      ],
      "name": "LogDepositMade",
      "type": "event"
    },
    {
      "anonymous": false,
      "inputs": [
        {
          "indexed": false,
          "internalType": "address",
          "name": "accountAddress",
          "type": "address"
        },
        {
          "indexed": false,
          "internalType": "address[]",
          "name": "assets",
          "type": "address[]"
        },
        {
          "indexed": false,
          "internalType": "uint256[]",
          "name": "percentages",
          "type": "uint256[]"
        }
      ],
      "name": "LogPortfolioCreated",
      "type": "event"
    },
    {
      "anonymous": false,
      "inputs": [
        {
          "indexed": false,
          "internalType": "address",
          "name": "accountAddress",
          "type": "address"
        }
      ],
      "name": "LogPortfolioDeleted",
      "type": "event"
    },
    {
      "anonymous": false,
      "inputs": [
        {
          "indexed": false,
          "internalType": "address",
          "name": "accountAddress",
          "type": "address"
        }
      ],
      "name": "LogPortfolioInitialized",
      "type": "event"
    },
    {
      "anonymous": false,
      "inputs": [
        {
          "indexed": false,
          "internalType": "address",
          "name": "accountAddress",
          "type": "address"
        }
      ],
      "name": "LogPortfolioRebalanced",
      "type": "event"
    },
    {
      "anonymous": false,
      "inputs": [
        {
          "indexed": false,
          "internalType": "address",
          "name": "accountAddress",
          "type": "address"
        },
        {
          "indexed": false,
          "internalType": "uint256",
          "name": "withdrawAmount",
          "type": "uint256"
        },
        {
          "indexed": false,
          "internalType": "uint256",
          "name": "newBalance",
          "type": "uint256"
        }
      ],
      "name": "LogWithdrawal",
      "type": "event"
    },
    {
      "anonymous": false,
      "inputs": [
        {
          "indexed": true,
          "internalType": "address",
          "name": "previousOwner",
          "type": "address"
        },
        {
          "indexed": true,
          "internalType": "address",
          "name": "newOwner",
          "type": "address"
        }
      ],
      "name": "OwnershipTransferred",
      "type": "event"
    },
    {
      "inputs": [],
      "name": "MAX_PORTFOLIO_ASSETS",
      "outputs": [
        {
          "internalType": "uint8",
          "name": "",
          "type": "uint8"
        }
      ],
      "stateMutability": "view",
      "type": "function",
      "constant": true
    },
    {
      "inputs": [],
      "name": "MIN_BALANCE_TO_CREATE_PORTFOLIO",
      "outputs": [
        {
          "internalType": "uint256",
          "name": "",
          "type": "uint256"
        }
      ],
      "stateMutability": "view",
      "type": "function",
      "constant": true
    },
    {
      "inputs": [],
      "name": "MIN_BALANCE_TO_INITIALIZE_PORTFOLIO",
      "outputs": [
        {
          "internalType": "uint256",
          "name": "",
          "type": "uint256"
        }
      ],
      "stateMutability": "view",
      "type": "function",
      "constant": true
    },
    {
      "inputs": [],
      "name": "MIN_BALANCE_TO_REBALANCE_PORTFOLIO",
      "outputs": [
        {
          "internalType": "uint256",
          "name": "",
          "type": "uint256"
        }
      ],
      "stateMutability": "view",
      "type": "function",
      "constant": true
    },
    {
      "inputs": [],
      "name": "PORTFOLIO_INITIAL_GAS_RESERVE",
      "outputs": [
        {
          "internalType": "uint256",
          "name": "",
          "type": "uint256"
        }
      ],
      "stateMutability": "view",
      "type": "function",
      "constant": true
    },
    {
      "inputs": [
        {
          "internalType": "uint256",
          "name": "",
          "type": "uint256"
        }
      ],
      "name": "allowedAssets",
      "outputs": [
        {
          "internalType": "address",
          "name": "",
          "type": "address"
        }
      ],
      "stateMutability": "view",
      "type": "function",
      "constant": true
    },
    {
      "inputs": [
        {
          "internalType": "address",
          "name": "",
          "type": "address"
        }
      ],
      "name": "assetPrices",
      "outputs": [
        {
          "internalType": "uint256",
          "name": "",
          "type": "uint256"
        }
      ],
      "stateMutability": "view",
      "type": "function",
      "constant": true
    },
    {
      "inputs": [
        {
          "internalType": "address",
          "name": "",
          "type": "address"
        }
      ],
      "name": "balances",
      "outputs": [
        {
          "internalType": "uint256",
          "name": "",
          "type": "uint256"
        }
      ],
      "stateMutability": "view",
      "type": "function",
      "constant": true
    },
    {
      "inputs": [],
      "name": "owner",
      "outputs": [
        {
          "internalType": "address",
          "name": "",
          "type": "address"
        }
      ],
      "stateMutability": "view",
      "type": "function",
      "constant": true
    },
    {
      "inputs": [
        {
          "internalType": "address",
          "name": "",
          "type": "address"
        }
      ],
      "name": "portfolios",
      "outputs": [
        {
          "internalType": "enum Balancer.State",
          "name": "status",
          "type": "uint8"
        }
      ],
      "stateMutability": "view",
      "type": "function",
      "constant": true
    },
    {
      "inputs": [],
      "name": "renounceOwnership",
      "outputs": [],
      "stateMutability": "nonpayable",
      "type": "function"
    },
    {
      "inputs": [],
      "name": "router",
      "outputs": [
        {
          "internalType": "contract IUniswapV2Router02",
          "name": "",
          "type": "address"
        }
      ],
      "stateMutability": "view",
      "type": "function",
      "constant": true
    },
    {
      "inputs": [
        {
          "internalType": "address",
          "name": "newOwner",
          "type": "address"
        }
      ],
      "name": "transferOwnership",
      "outputs": [],
      "stateMutability": "nonpayable",
      "type": "function"
    },
    {
      "stateMutability": "payable",
      "type": "receive",
      "payable": true
    },
    {
      "inputs": [
        {
          "internalType": "address",
          "name": "_assetAddress",
          "type": "address"
        }
      ],
      "name": "addAllowedAsset",
      "outputs": [],
      "stateMutability": "nonpayable",
      "type": "function"
    },
    {
      "inputs": [],
      "name": "allowedAssetsList",
      "outputs": [
        {
          "internalType": "address[]",
          "name": "",
          "type": "address[]"
        }
      ],
      "stateMutability": "view",
      "type": "function",
      "constant": true
    },
    {
      "inputs": [
        {
          "internalType": "address",
          "name": "_accountAddress",
          "type": "address"
        }
      ],
      "name": "fetchPortfolio",
      "outputs": [
        {
          "internalType": "enum Balancer.State",
          "name": "",
          "type": "uint8"
        },
        {
          "internalType": "address[]",
          "name": "",
          "type": "address[]"
        },
        {
          "internalType": "uint256[]",
          "name": "",
          "type": "uint256[]"
        },
        {
          "internalType": "uint256[]",
          "name": "",
          "type": "uint256[]"
        }
      ],
      "stateMutability": "view",
      "type": "function",
      "constant": true
    },
    {
      "inputs": [
        {
          "internalType": "address",
          "name": "_accountAddress",
          "type": "address"
        }
      ],
      "name": "getPortfolioStatus",
      "outputs": [
        {
          "internalType": "enum Balancer.State",
          "name": "",
          "type": "uint8"
        }
      ],
      "stateMutability": "view",
      "type": "function",
      "constant": true
    },
    {
      "inputs": [],
      "name": "deposit",
      "outputs": [
        {
          "internalType": "uint256",
          "name": "",
          "type": "uint256"
        }
      ],
      "stateMutability": "payable",
      "type": "function",
      "payable": true
    },
    {
      "inputs": [
        {
          "internalType": "uint256",
          "name": "_withdrawAmount",
          "type": "uint256"
        }
      ],
      "name": "withdraw",
      "outputs": [
        {
          "internalType": "uint256",
          "name": "",
          "type": "uint256"
        }
      ],
      "stateMutability": "nonpayable",
      "type": "function"
    },
    {
      "inputs": [
        {
          "internalType": "address[]",
          "name": "_assets",
          "type": "address[]"
        },
        {
          "internalType": "uint256[]",
          "name": "_percentages",
          "type": "uint256[]"
        }
      ],
      "name": "createPortfolio",
      "outputs": [],
      "stateMutability": "nonpayable",
      "type": "function"
    },
    {
      "inputs": [],
      "name": "deletePortfolio",
      "outputs": [],
      "stateMutability": "nonpayable",
      "type": "function"
    },
    {
      "inputs": [],
      "name": "runInitialPortfolioDistribution",
      "outputs": [],
      "stateMutability": "nonpayable",
      "type": "function"
    },
    {
      "inputs": [
        {
          "internalType": "address",
          "name": "_destTokenAddress",
          "type": "address"
        },
        {
          "internalType": "uint256",
          "name": "_amountIn",
          "type": "uint256"
        }
      ],
      "name": "swapETHForTokens",
      "outputs": [
        {
          "internalType": "uint256",
          "name": "",
          "type": "uint256"
        }
      ],
      "stateMutability": "nonpayable",
      "type": "function"
    },
    {
      "inputs": [
        {
          "internalType": "address",
          "name": "_origTokenAddress",
          "type": "address"
        },
        {
          "internalType": "uint256",
          "name": "_amountIn",
          "type": "uint256"
        }
      ],
      "name": "swapTokensForETH",
      "outputs": [
        {
          "internalType": "uint256",
          "name": "",
          "type": "uint256"
        }
      ],
      "stateMutability": "nonpayable",
      "type": "function"
    },
    {
      "inputs": [
        {
          "internalType": "address",
          "name": "_token",
          "type": "address"
        }
      ],
      "name": "getAssetPrice",
      "outputs": [
        {
          "internalType": "uint256",
          "name": "",
          "type": "uint256"
        }
      ],
      "stateMutability": "nonpayable",
      "type": "function"
    },
    {
      "inputs": [],
      "name": "runPortfolioRebalance",
      "outputs": [],
      "stateMutability": "nonpayable",
      "type": "function"
    },
    {
      "inputs": [],
      "name": "fetchAssetsPrices",
      "outputs": [
        {
          "internalType": "address[]",
          "name": "",
          "type": "address[]"
        },
        {
          "internalType": "uint256[]",
          "name": "",
          "type": "uint256[]"
        }
      ],
      "stateMutability": "view",
      "type": "function",
      "constant": true
    },
    {
      "inputs": [],
      "name": "updateAssetPrices",
      "outputs": [],
      "stateMutability": "nonpayable",
      "type": "function"
    }
  ],
  "bytecode": "0x60806040523480156200001157600080fd5b5060405162005ac638038062005ac6833981810160405281019062000037919062000182565b620000576200004b6200009f60201b60201c565b620000a760201b60201c565b80600160006101000a81548173ffffffffffffffffffffffffffffffffffffffff021916908373ffffffffffffffffffffffffffffffffffffffff1602179055505062000207565b600033905090565b60008060009054906101000a900473ffffffffffffffffffffffffffffffffffffffff169050816000806101000a81548173ffffffffffffffffffffffffffffffffffffffff021916908373ffffffffffffffffffffffffffffffffffffffff1602179055508173ffffffffffffffffffffffffffffffffffffffff168173ffffffffffffffffffffffffffffffffffffffff167f8be0079c531659141344cd1fd0a4f28419497f9722a3daafe3b4186f6b6457e060405160405180910390a35050565b6000815190506200017c81620001ed565b92915050565b6000602082840312156200019b576200019a620001e8565b5b6000620001ab848285016200016b565b91505092915050565b6000620001c182620001c8565b9050919050565b600073ffffffffffffffffffffffffffffffffffffffff82169050919050565b600080fd5b620001f881620001b4565b81146200020457600080fd5b50565b6158af80620002176000396000f3fe6080604052600436106101bb5760003560e01c80637ece3c38116100ec578063c538b1e61161008a578063dd0b3e8911610064578063dd0b3e8914610626578063f2fde38b1461063d578063f4d6ad4b14610666578063f887ea4014610691576101c2565b8063c538b1e6146105c5578063d0e30db0146105f1578063d1fd8d311461060f576101c2565b80638da5cb5b116100c65780638da5cb5b146104f757806398971f1414610522578063b3596f071461054b578063b6468a6114610588576101c2565b80637ece3c381461049e57806381251606146104b55780638d0ef596146104cc576101c2565b806351422e97116101595780635e9a523c116101335780635e9a523c146103e2578063715018a61461041f578063727840c9146104365780637baab3da14610461576101c2565b806351422e97146103515780635ced8e371461038e5780635de8dde0146103b7576101c2565b806327e235e31161019557806327e235e31461026c5780632e1a7d4d146102a957806343f09786146102e65780634e84eaaa14610326576101c2565b80630c8d9411146101c75780630ccd3ef9146102045780630dcf52dd14610241576101c2565b366101c257005b600080fd5b3480156101d357600080fd5b506101ee60048036038101906101e991906143b4565b6106bc565b6040516101fb9190614a8b565b60405180910390f35b34801561021057600080fd5b5061022b6004803603810190610226919061453c565b610715565b6040516102389190614957565b60405180910390f35b34801561024d57600080fd5b50610256610754565b6040516102639190614a17565b60405180910390f35b34801561027857600080fd5b50610293600480360381019061028e91906143b4565b6107e2565b6040516102a09190614d60565b60405180910390f35b3480156102b557600080fd5b506102d060048036038101906102cb919061453c565b6107fa565b6040516102dd9190614d60565b60405180910390f35b3480156102f257600080fd5b5061030d600480360381019061030891906143b4565b6109dc565b60405161031d9493929190614aa6565b60405180910390f35b34801561033257600080fd5b5061033b610da8565b6040516103489190614e51565b60405180910390f35b34801561035d57600080fd5b506103786004803603810190610373919061440e565b610dad565b6040516103859190614d60565b60405180910390f35b34801561039a57600080fd5b506103b560048036038101906103b0919061444e565b6111a0565b005b3480156103c357600080fd5b506103cc611764565b6040516103d99190614d60565b60405180910390f35b3480156103ee57600080fd5b50610409600480360381019061040491906143b4565b611770565b6040516104169190614d60565b60405180910390f35b34801561042b57600080fd5b50610434611788565b005b34801561044257600080fd5b5061044b611810565b6040516104589190614d60565b60405180910390f35b34801561046d57600080fd5b50610488600480360381019061048391906143b4565b61181b565b6040516104959190614a8b565b60405180910390f35b3480156104aa57600080fd5b506104b3611846565b005b3480156104c157600080fd5b506104ca611de8565b005b3480156104d857600080fd5b506104e1612b60565b6040516104ee9190614d60565b60405180910390f35b34801561050357600080fd5b5061050c612b6c565b6040516105199190614957565b60405180910390f35b34801561052e57600080fd5b50610549600480360381019061054491906143b4565b612b95565b005b34801561055757600080fd5b50610572600480360381019061056d91906143b4565b612d94565b60405161057f9190614d60565b60405180910390f35b34801561059457600080fd5b506105af60048036038101906105aa919061440e565b613172565b6040516105bc9190614d60565b60405180910390f35b3480156105d157600080fd5b506105da613566565b6040516105e8929190614a39565b60405180910390f35b6105f9613766565b6040516106069190614d60565b60405180910390f35b34801561061b57600080fd5b5061062461387e565b005b34801561063257600080fd5b5061063b61396c565b005b34801561064957600080fd5b50610664600480360381019061065f91906143b4565b613ed1565b005b34801561067257600080fd5b5061067b613fc9565b6040516106889190614d60565b60405180910390f35b34801561069d57600080fd5b506106a6613fd4565b6040516106b39190614a70565b60405180910390f35b6000600560008373ffffffffffffffffffffffffffffffffffffffff1673ffffffffffffffffffffffffffffffffffffffff16815260200190815260200160002060000160009054906101000a900460ff169050919050565b6003818154811061072557600080fd5b906000526020600020016000915054906101000a900473ffffffffffffffffffffffffffffffffffffffff1681565b606060038054806020026020016040519081016040528092919081815260200182805480156107d857602002820191906000526020600020905b8160009054906101000a900473ffffffffffffffffffffffffffffffffffffffff1673ffffffffffffffffffffffffffffffffffffffff168152602001906001019080831161078e575b5050505050905090565b60026020528060005260406000206000915090505481565b600081600260003373ffffffffffffffffffffffffffffffffffffffff1673ffffffffffffffffffffffffffffffffffffffff16815260200190815260200160002054101561087e576040517f08c379a000000000000000000000000000000000000000000000000000000000815260040161087590614b80565b60405180910390fd5b81600260003373ffffffffffffffffffffffffffffffffffffffff1673ffffffffffffffffffffffffffffffffffffffff16815260200190815260200160002060008282546108cd91906150e1565b925050819055503373ffffffffffffffffffffffffffffffffffffffff166108fc839081150290604051600060405180830381858888f1935050505015801561091a573d6000803e3d6000fd5b507ff9226daf630542048a23086c6af599511aac100ec8f532793cc9697d061bed7e3383600260003373ffffffffffffffffffffffffffffffffffffffff1673ffffffffffffffffffffffffffffffffffffffff1681526020019081526020016000205460405161098d939291906149e0565b60405180910390a1600260003373ffffffffffffffffffffffffffffffffffffffff1673ffffffffffffffffffffffffffffffffffffffff168152602001908152602001600020549050919050565b600060608060606000600560008773ffffffffffffffffffffffffffffffffffffffff1673ffffffffffffffffffffffffffffffffffffffff1681526020019081526020016000206003018054905090506000808267ffffffffffffffff811115610a4a57610a4961536b565b5b604051908082528060200260200182016040528015610a785781602001602082028036833780820191505090505b50905060008367ffffffffffffffff811115610a9757610a9661536b565b5b604051908082528060200260200182016040528015610ac55781602001602082028036833780820191505090505b50905060008467ffffffffffffffff811115610ae457610ae361536b565b5b604051908082528060200260200182016040528015610b125781602001602082028036833780820191505090505b50905060005b85811015610d4057600560008c73ffffffffffffffffffffffffffffffffffffffff1673ffffffffffffffffffffffffffffffffffffffff1681526020019081526020016000206003018181548110610b7457610b7361533c565b5b9060005260206000200160009054906101000a900473ffffffffffffffffffffffffffffffffffffffff16945084848281518110610bb557610bb461533c565b5b602002602001019073ffffffffffffffffffffffffffffffffffffffff16908173ffffffffffffffffffffffffffffffffffffffff1681525050600560008c73ffffffffffffffffffffffffffffffffffffffff1673ffffffffffffffffffffffffffffffffffffffff16815260200190815260200160002060010160008673ffffffffffffffffffffffffffffffffffffffff1673ffffffffffffffffffffffffffffffffffffffff16815260200190815260200160002054838281518110610c8257610c8161533c565b5b602002602001018181525050600560008c73ffffffffffffffffffffffffffffffffffffffff1673ffffffffffffffffffffffffffffffffffffffff16815260200190815260200160002060020160008673ffffffffffffffffffffffffffffffffffffffff1673ffffffffffffffffffffffffffffffffffffffff16815260200190815260200160002054828281518110610d2157610d2061533c565b5b6020026020010181815250508080610d38906151ee565b915050610b18565b50600560008b73ffffffffffffffffffffffffffffffffffffffff1673ffffffffffffffffffffffffffffffffffffffff16815260200190815260200160002060000160009054906101000a900460ff16838383985098509850985050505050509193509193565b600a81565b600080600160009054906101000a900473ffffffffffffffffffffffffffffffffffffffff1673ffffffffffffffffffffffffffffffffffffffff1663ad5c46486040518163ffffffff1660e01b815260040160206040518083038186803b158015610e1857600080fd5b505afa158015610e2c573d6000803e3d6000fd5b505050506040513d601f19601f82011682018060405250810190610e5091906143e1565b90506000600267ffffffffffffffff811115610e6f57610e6e61536b565b5b604051908082528060200260200182016040528015610e9d5781602001602082028036833780820191505090505b5090508181600081518110610eb557610eb461533c565b5b602002602001019073ffffffffffffffffffffffffffffffffffffffff16908173ffffffffffffffffffffffffffffffffffffffff16815250508481600181518110610f0457610f0361533c565b5b602002602001019073ffffffffffffffffffffffffffffffffffffffff16908173ffffffffffffffffffffffffffffffffffffffff16815250508173ffffffffffffffffffffffffffffffffffffffff1663095ea7b3600160009054906101000a900473ffffffffffffffffffffffffffffffffffffffff16866040518363ffffffff1660e01b8152600401610f9b9291906149b7565b602060405180830381600087803b158015610fb557600080fd5b505af1158015610fc9573d6000803e3d6000fd5b505050506040513d601f19601f82011682018060405250810190610fed919061450f565b506000600160009054906101000a900473ffffffffffffffffffffffffffffffffffffffff1673ffffffffffffffffffffffffffffffffffffffff1663d06ca61f86846040518363ffffffff1660e01b815260040161104d929190614d7b565b60006040518083038186803b15801561106557600080fd5b505afa158015611079573d6000803e3d6000fd5b505050506040513d6000823e3d601f19601f820116820180604052508101906110a291906144c6565b9050600160009054906101000a900473ffffffffffffffffffffffffffffffffffffffff1673ffffffffffffffffffffffffffffffffffffffff16637ff36ab586836001815181106110f7576110f661533c565b5b60200260200101518530426040518663ffffffff1660e01b81526004016111219493929190614dab565b6000604051808303818588803b15801561113a57600080fd5b505af115801561114e573d6000803e3d6000fd5b50505050506040513d6000823e3d601f19601f8201168201806040525081019061117891906144c6565b508060018151811061118d5761118c61533c565b5b6020026020010151935050505092915050565b6706f05b59d3b20000600260003373ffffffffffffffffffffffffffffffffffffffff1673ffffffffffffffffffffffffffffffffffffffff16815260200190815260200160002054101561122a576040517f08c379a000000000000000000000000000000000000000000000000000000000815260040161122190614b20565b60405180910390fd5b6000600381111561123e5761123d6152de565b5b600560003373ffffffffffffffffffffffffffffffffffffffff1673ffffffffffffffffffffffffffffffffffffffff16815260200190815260200160002060000160009054906101000a900460ff1660038111156112a05761129f6152de565b5b146112e0576040517f08c379a00000000000000000000000000000000000000000000000000000000081526004016112d790614ba0565b60405180910390fd5b600a60ff1682511115611328576040517f08c379a000000000000000000000000000000000000000000000000000000000815260040161131f90614c00565b60405180910390fd5b60028251101561136d576040517f08c379a000000000000000000000000000000000000000000000000000000000815260040161136490614d40565b60405180910390fd5b80518251146113b1576040517f08c379a00000000000000000000000000000000000000000000000000000000081526004016113a890614c40565b60405180910390fd5b6000805b825181101561147e5760018382815181106113d3576113d261533c565b5b602002602001015110158015611404575060638382815181106113f9576113f861533c565b5b602002602001015111155b611443576040517f08c379a000000000000000000000000000000000000000000000000000000000815260040161143a90614b00565b60405180910390fd5b8281815181106114565761145561533c565b5b6020026020010151826114699190614f6c565b91508080611476906151ee565b9150506113b5565b50606481146114c2576040517f08c379a00000000000000000000000000000000000000000000000000000000081526004016114b990614c60565b60405180910390fd5b60005b83518110156116b8576114f18482815181106114e4576114e361533c565b5b6020026020010151613ffa565b611530576040517f08c379a000000000000000000000000000000000000000000000000000000000815260040161152790614b60565b60405180910390fd5b8281815181106115435761154261533c565b5b6020026020010151600560003373ffffffffffffffffffffffffffffffffffffffff1673ffffffffffffffffffffffffffffffffffffffff16815260200190815260200160002060010160008684815181106115a2576115a161533c565b5b602002602001015173ffffffffffffffffffffffffffffffffffffffff1673ffffffffffffffffffffffffffffffffffffffff16815260200190815260200160002081905550600560003373ffffffffffffffffffffffffffffffffffffffff1673ffffffffffffffffffffffffffffffffffffffff16815260200190815260200160002060030184828151811061163d5761163c61533c565b5b60200260200101519080600181540180825580915050600190039060005260206000200160009091909190916101000a81548173ffffffffffffffffffffffffffffffffffffffff021916908373ffffffffffffffffffffffffffffffffffffffff16021790555080806116b0906151ee565b9150506114c5565b506001600560003373ffffffffffffffffffffffffffffffffffffffff1673ffffffffffffffffffffffffffffffffffffffff16815260200190815260200160002060000160006101000a81548160ff0219169083600381111561171f5761171e6152de565b5b02179055507f3f828ec947bbbb37da475df9242735a8e787ab05f8456beea990372be2af702d33848460405161175793929190614972565b60405180910390a1505050565b6706f05b59d3b2000081565b60046020528060005260406000206000915090505481565b6117906140a5565b73ffffffffffffffffffffffffffffffffffffffff166117ae612b6c565b73ffffffffffffffffffffffffffffffffffffffff1614611804576040517f08c379a00000000000000000000000000000000000000000000000000000000081526004016117fb90614d00565b60405180910390fd5b61180e60006140ad565b565b66470de4df82000081565b60056020528060005260406000206000915090508060000160009054906101000a900460ff16905081565b6706f05b59d3b20000600260003373ffffffffffffffffffffffffffffffffffffffff1673ffffffffffffffffffffffffffffffffffffffff1681526020019081526020016000205410156118d0576040517f08c379a00000000000000000000000000000000000000000000000000000000081526004016118c790614ca0565b60405180910390fd5b600160038111156118e4576118e36152de565b5b600560003373ffffffffffffffffffffffffffffffffffffffff1673ffffffffffffffffffffffffffffffffffffffff16815260200190815260200160002060000160009054906101000a900460ff166003811115611946576119456152de565b5b14611986576040517f08c379a000000000000000000000000000000000000000000000000000000000815260040161197d90614c20565b60405180910390fd5b6002600560003373ffffffffffffffffffffffffffffffffffffffff1673ffffffffffffffffffffffffffffffffffffffff16815260200190815260200160002060000160006101000a81548160ff021916908360038111156119ec576119eb6152de565b5b02179055506000666a94d74f430000600260003373ffffffffffffffffffffffffffffffffffffffff1673ffffffffffffffffffffffffffffffffffffffff16815260200190815260200160002054611a4591906150e1565b905060008060008060005b600560003373ffffffffffffffffffffffffffffffffffffffff1673ffffffffffffffffffffffffffffffffffffffff16815260200190815260200160002060030180549050811015611da957600560003373ffffffffffffffffffffffffffffffffffffffff1673ffffffffffffffffffffffffffffffffffffffff1681526020019081526020016000206003018181548110611af157611af061533c565b5b9060005260206000200160009054906101000a900473ffffffffffffffffffffffffffffffffffffffff169150600560003373ffffffffffffffffffffffffffffffffffffffff1673ffffffffffffffffffffffffffffffffffffffff16815260200190815260200160002060010160008373ffffffffffffffffffffffffffffffffffffffff1673ffffffffffffffffffffffffffffffffffffffff16815260200190815260200160002054945060648587611bae9190614ff3565b611bb89190614fc2565b9250600260003373ffffffffffffffffffffffffffffffffffffffff1673ffffffffffffffffffffffffffffffffffffffff16815260200190815260200160002054831115611c3c576040517f08c379a0000000000000000000000000000000000000000000000000000000008152600401611c3390614bc0565b60405180910390fd5b611c468284610dad565b93508383670de0b6b3a7640000611c5d9190614ff3565b611c679190614fc2565b600460008473ffffffffffffffffffffffffffffffffffffffff1673ffffffffffffffffffffffffffffffffffffffff1681526020019081526020016000208190555083600560003373ffffffffffffffffffffffffffffffffffffffff1673ffffffffffffffffffffffffffffffffffffffff16815260200190815260200160002060020160008473ffffffffffffffffffffffffffffffffffffffff1673ffffffffffffffffffffffffffffffffffffffff1681526020019081526020016000206000828254611d399190614f6c565b9250508190555082600260003373ffffffffffffffffffffffffffffffffffffffff1673ffffffffffffffffffffffffffffffffffffffff1681526020019081526020016000206000828254611d8f91906150e1565b925050819055508080611da1906151ee565b915050611a50565b507fd96c4cdad827acce23afcb802d114a22c28c04e378587c3d8a3acc9bd17f6c0733604051611dd99190614957565b60405180910390a15050505050565b66470de4df820000600260003373ffffffffffffffffffffffffffffffffffffffff1673ffffffffffffffffffffffffffffffffffffffff168152602001908152602001600020541015611e71576040517f08c379a0000000000000000000000000000000000000000000000000000000008152600401611e6890614ce0565b60405180910390fd5b60026003811115611e8557611e846152de565b5b600560003373ffffffffffffffffffffffffffffffffffffffff1673ffffffffffffffffffffffffffffffffffffffff16815260200190815260200160002060000160009054906101000a900460ff166003811115611ee757611ee66152de565b5b1480611f655750600380811115611f0157611f006152de565b5b600560003373ffffffffffffffffffffffffffffffffffffffff1673ffffffffffffffffffffffffffffffffffffffff16815260200190815260200160002060000160009054906101000a900460ff166003811115611f6357611f626152de565b5b145b611fa4576040517f08c379a0000000000000000000000000000000000000000000000000000000008152600401611f9b90614be0565b60405180910390fd5b6003600560003373ffffffffffffffffffffffffffffffffffffffff1673ffffffffffffffffffffffffffffffffffffffff16815260200190815260200160002060000160006101000a81548160ff0219169083600381111561200a576120096152de565b5b021790555060008060005b600560003373ffffffffffffffffffffffffffffffffffffffff1673ffffffffffffffffffffffffffffffffffffffff1681526020019081526020016000206003018054905081101561214257600560003373ffffffffffffffffffffffffffffffffffffffff1673ffffffffffffffffffffffffffffffffffffffff16815260200190815260200160002060030181815481106120b6576120b561533c565b5b9060005260206000200160009054906101000a900473ffffffffffffffffffffffffffffffffffffffff1692506120ec83612d94565b600460008573ffffffffffffffffffffffffffffffffffffffff1673ffffffffffffffffffffffffffffffffffffffff16815260200190815260200160002081905550808061213a906151ee565b915050612015565b50600080600560003373ffffffffffffffffffffffffffffffffffffffff1673ffffffffffffffffffffffffffffffffffffffff1681526020019081526020016000206003018054905067ffffffffffffffff8111156121a5576121a461536b565b5b6040519080825280602002602001820160405280156121d35781602001602082028036833780820191505090505b5090506000805b600560003373ffffffffffffffffffffffffffffffffffffffff1673ffffffffffffffffffffffffffffffffffffffff168152602001908152602001600020600301805490508110156123e257600560003373ffffffffffffffffffffffffffffffffffffffff1673ffffffffffffffffffffffffffffffffffffffff168152602001908152602001600020600301818154811061227b5761227a61533c565b5b9060005260206000200160009054906101000a900473ffffffffffffffffffffffffffffffffffffffff169550600560003373ffffffffffffffffffffffffffffffffffffffff1673ffffffffffffffffffffffffffffffffffffffff16815260200190815260200160002060020160008773ffffffffffffffffffffffffffffffffffffffff1673ffffffffffffffffffffffffffffffffffffffff168152602001908152602001600020549350670de0b6b3a764000084600460008973ffffffffffffffffffffffffffffffffffffffff1673ffffffffffffffffffffffffffffffffffffffff1681526020019081526020016000205461237e9190614ff3565b6123889190614fc2565b83828151811061239b5761239a61533c565b5b6020026020010181815250508281815181106123ba576123b961533c565b5b6020026020010151826123cd9190614f6c565b915080806123da906151ee565b9150506121da565b506000806000600560003373ffffffffffffffffffffffffffffffffffffffff1673ffffffffffffffffffffffffffffffffffffffff1681526020019081526020016000206003018054905067ffffffffffffffff8111156124475761244661536b565b5b6040519080825280602002602001820160405280156124755781602001602082028036833780820191505090505b5090506000600560003373ffffffffffffffffffffffffffffffffffffffff1673ffffffffffffffffffffffffffffffffffffffff1681526020019081526020016000206003018054905067ffffffffffffffff8111156124d9576124d861536b565b5b6040519080825280602002602001820160405280156125075781602001602082028036833780820191505090505b50905060005b600560003373ffffffffffffffffffffffffffffffffffffffff1673ffffffffffffffffffffffffffffffffffffffff1681526020019081526020016000206003018054905081101561270757600560003373ffffffffffffffffffffffffffffffffffffffff1673ffffffffffffffffffffffffffffffffffffffff16815260200190815260200160002060030181815481106125ae576125ad61533c565b5b9060005260206000200160009054906101000a900473ffffffffffffffffffffffffffffffffffffffff169950600560003373ffffffffffffffffffffffffffffffffffffffff1673ffffffffffffffffffffffffffffffffffffffff16815260200190815260200160002060010160008b73ffffffffffffffffffffffffffffffffffffffff1673ffffffffffffffffffffffffffffffffffffffff1681526020019081526020016000205494508681815181106126705761266f61533c565b5b6020026020010151606486886126869190614ff3565b6126909190614fc2565b61269a919061504d565b935060008413156126ca57838282815181106126b9576126b861533c565b5b6020026020010181815250506126f4565b836126d490615237565b8382815181106126e7576126e661533c565b5b6020026020010181815250505b80806126ff906151ee565b91505061250d565b50600080600090505b835181101561294357600084828151811061272e5761272d61533c565b5b6020026020010151111561293057600560003373ffffffffffffffffffffffffffffffffffffffff1673ffffffffffffffffffffffffffffffffffffffff16815260200190815260200160002060030181815481106127905761278f61533c565b5b9060005260206000200160009054906101000a900473ffffffffffffffffffffffffffffffffffffffff169a50600460008c73ffffffffffffffffffffffffffffffffffffffff1673ffffffffffffffffffffffffffffffffffffffff16815260200190815260200160002054670de0b6b3a76400008583815181106128195761281861533c565b5b602002602001015161282b9190614ff3565b6128359190614fc2565b91506128418b83613172565b995089600260003373ffffffffffffffffffffffffffffffffffffffff1673ffffffffffffffffffffffffffffffffffffffff16815260200190815260200160002060008282546128929190614f6c565b9250508190555081600560003373ffffffffffffffffffffffffffffffffffffffff1673ffffffffffffffffffffffffffffffffffffffff16815260200190815260200160002060020160008d73ffffffffffffffffffffffffffffffffffffffff1673ffffffffffffffffffffffffffffffffffffffff168152602001908152602001600020600082825461292891906150e1565b925050819055505b808061293b906151ee565b915050612710565b5060005b8251811015612b1d5760008382815181106129655761296461533c565b5b60200260200101511115612b0a57600560003373ffffffffffffffffffffffffffffffffffffffff1673ffffffffffffffffffffffffffffffffffffffff16815260200190815260200160002060030181815481106129c7576129c661533c565b5b9060005260206000200160009054906101000a900473ffffffffffffffffffffffffffffffffffffffff169a50828181518110612a0757612a0661533c565b5b60200260200101519150612a1b8b83610dad565b995089600560003373ffffffffffffffffffffffffffffffffffffffff1673ffffffffffffffffffffffffffffffffffffffff16815260200190815260200160002060020160008d73ffffffffffffffffffffffffffffffffffffffff1673ffffffffffffffffffffffffffffffffffffffff1681526020019081526020016000206000828254612aac9190614f6c565b9250508190555081600260003373ffffffffffffffffffffffffffffffffffffffff1673ffffffffffffffffffffffffffffffffffffffff1681526020019081526020016000206000828254612b0291906150e1565b925050819055505b8080612b15906151ee565b915050612947565b507e1e4429e0a5f966bd93a34d42b9d339b020f3d39203e59ca7377d875ed4e9d733604051612b4c9190614957565b60405180910390a150505050505050505050565b6706f05b59d3b2000081565b60008060009054906101000a900473ffffffffffffffffffffffffffffffffffffffff16905090565b808160006001905060005b600380549050811015612c37578273ffffffffffffffffffffffffffffffffffffffff1660038281548110612bd857612bd761533c565b5b9060005260206000200160009054906101000a900473ffffffffffffffffffffffffffffffffffffffff1673ffffffffffffffffffffffffffffffffffffffff161415612c2457600091505b8080612c2f906151ee565b915050612ba0565b5080612c78576040517f08c379a0000000000000000000000000000000000000000000000000000000008152600401612c6f90614d20565b60405180910390fd5b612c806140a5565b73ffffffffffffffffffffffffffffffffffffffff16612c9e612b6c565b73ffffffffffffffffffffffffffffffffffffffff1614612cf4576040517f08c379a0000000000000000000000000000000000000000000000000000000008152600401612ceb90614d00565b60405180910390fd5b6003849080600181540180825580915050600190039060005260206000200160009091909190916101000a81548173ffffffffffffffffffffffffffffffffffffffff021916908373ffffffffffffffffffffffffffffffffffffffff1602179055507ff59d0ae4e98bf93f09241ca4f8223fb0ecfebf4027c3087280ecec9c18d32f7584604051612d869190614957565b60405180910390a150505050565b600080670de0b6b3a764000090506000600267ffffffffffffffff811115612dbf57612dbe61536b565b5b604051908082528060200260200182016040528015612ded5781602001602082028036833780820191505090505b509050600160009054906101000a900473ffffffffffffffffffffffffffffffffffffffff1673ffffffffffffffffffffffffffffffffffffffff1663ad5c46486040518163ffffffff1660e01b815260040160206040518083038186803b158015612e5857600080fd5b505afa158015612e6c573d6000803e3d6000fd5b505050506040513d601f19601f82011682018060405250810190612e9091906143e1565b81600081518110612ea457612ea361533c565b5b602002602001019073ffffffffffffffffffffffffffffffffffffffff16908173ffffffffffffffffffffffffffffffffffffffff16815250508381600181518110612ef357612ef261533c565b5b602002602001019073ffffffffffffffffffffffffffffffffffffffff16908173ffffffffffffffffffffffffffffffffffffffff1681525050600160009054906101000a900473ffffffffffffffffffffffffffffffffffffffff1673ffffffffffffffffffffffffffffffffffffffff1663ad5c46486040518163ffffffff1660e01b815260040160206040518083038186803b158015612f9557600080fd5b505afa158015612fa9573d6000803e3d6000fd5b505050506040513d601f19601f82011682018060405250810190612fcd91906143e1565b73ffffffffffffffffffffffffffffffffffffffff1663095ea7b3600160009054906101000a900473ffffffffffffffffffffffffffffffffffffffff16846040518363ffffffff1660e01b81526004016130299291906149b7565b602060405180830381600087803b15801561304357600080fd5b505af1158015613057573d6000803e3d6000fd5b505050506040513d601f19601f8201168201806040525081019061307b919061450f565b506000600160009054906101000a900473ffffffffffffffffffffffffffffffffffffffff1673ffffffffffffffffffffffffffffffffffffffff1663d06ca61f84846040518363ffffffff1660e01b81526004016130db929190614d7b565b60006040518083038186803b1580156130f357600080fd5b505afa158015613107573d6000803e3d6000fd5b505050506040513d6000823e3d601f19601f8201168201806040525081019061313091906144c6565b6001815181106131435761314261533c565b5b60200260200101519050806ec097ce7bc90715b34b9f10000000006131689190614fc2565b9350505050919050565b600080600160009054906101000a900473ffffffffffffffffffffffffffffffffffffffff1673ffffffffffffffffffffffffffffffffffffffff1663ad5c46486040518163ffffffff1660e01b815260040160206040518083038186803b1580156131dd57600080fd5b505afa1580156131f1573d6000803e3d6000fd5b505050506040513d601f19601f8201168201806040525081019061321591906143e1565b90506000600267ffffffffffffffff8111156132345761323361536b565b5b6040519080825280602002602001820160405280156132625781602001602082028036833780820191505090505b509050848160008151811061327a5761327961533c565b5b602002602001019073ffffffffffffffffffffffffffffffffffffffff16908173ffffffffffffffffffffffffffffffffffffffff168152505081816001815181106132c9576132c861533c565b5b602002602001019073ffffffffffffffffffffffffffffffffffffffff16908173ffffffffffffffffffffffffffffffffffffffff16815250508473ffffffffffffffffffffffffffffffffffffffff1663095ea7b3600160009054906101000a900473ffffffffffffffffffffffffffffffffffffffff16866040518363ffffffff1660e01b81526004016133609291906149b7565b602060405180830381600087803b15801561337a57600080fd5b505af115801561338e573d6000803e3d6000fd5b505050506040513d601f19601f820116820180604052508101906133b2919061450f565b506000600160009054906101000a900473ffffffffffffffffffffffffffffffffffffffff1673ffffffffffffffffffffffffffffffffffffffff1663d06ca61f86846040518363ffffffff1660e01b8152600401613412929190614d7b565b60006040518083038186803b15801561342a57600080fd5b505afa15801561343e573d6000803e3d6000fd5b505050506040513d6000823e3d601f19601f8201168201806040525081019061346791906144c6565b9050600160009054906101000a900473ffffffffffffffffffffffffffffffffffffffff1673ffffffffffffffffffffffffffffffffffffffff166318cbafe586836001815181106134bc576134bb61533c565b5b60200260200101518530426040518663ffffffff1660e01b81526004016134e7959493929190614df7565b600060405180830381600087803b15801561350157600080fd5b505af1158015613515573d6000803e3d6000fd5b505050506040513d6000823e3d601f19601f8201168201806040525081019061353e91906144c6565b50806001815181106135535761355261533c565b5b6020026020010151935050505092915050565b606080600060038054905067ffffffffffffffff81111561358a5761358961536b565b5b6040519080825280602002602001820160405280156135b85781602001602082028036833780820191505090505b509050600060038054905067ffffffffffffffff8111156135dc576135db61536b565b5b60405190808252806020026020018201604052801561360a5781602001602082028036833780820191505090505b50905060005b60038054905081101561375957600381815481106136315761363061533c565b5b9060005260206000200160009054906101000a900473ffffffffffffffffffffffffffffffffffffffff1683828151811061366f5761366e61533c565b5b602002602001019073ffffffffffffffffffffffffffffffffffffffff16908173ffffffffffffffffffffffffffffffffffffffff168152505060046000600383815481106136c1576136c061533c565b5b9060005260206000200160009054906101000a900473ffffffffffffffffffffffffffffffffffffffff1673ffffffffffffffffffffffffffffffffffffffff1673ffffffffffffffffffffffffffffffffffffffff1681526020019081526020016000205482828151811061373a5761373961533c565b5b6020026020010181815250508080613751906151ee565b915050613610565b5081819350935050509091565b60008034116137aa576040517f08c379a00000000000000000000000000000000000000000000000000000000081526004016137a190614cc0565b60405180910390fd5b34600260003373ffffffffffffffffffffffffffffffffffffffff1673ffffffffffffffffffffffffffffffffffffffff16815260200190815260200160002060008282546137f99190614f6c565b925050819055507fa8126f7572bb1fdeae5b5aa9ec126438b91f658a07873f009d041ae690f3a19333346040516138319291906149b7565b60405180910390a1600260003373ffffffffffffffffffffffffffffffffffffffff1673ffffffffffffffffffffffffffffffffffffffff16815260200190815260200160002054905090565b60005b600380549050811015613969576138d5600382815481106138a5576138a461533c565b5b9060005260206000200160009054906101000a900473ffffffffffffffffffffffffffffffffffffffff16612d94565b60046000600384815481106138ed576138ec61533c565b5b9060005260206000200160009054906101000a900473ffffffffffffffffffffffffffffffffffffffff1673ffffffffffffffffffffffffffffffffffffffff1673ffffffffffffffffffffffffffffffffffffffff168152602001908152602001600020819055508080613961906151ee565b915050613881565b50565b600060038111156139805761397f6152de565b5b600560003373ffffffffffffffffffffffffffffffffffffffff1673ffffffffffffffffffffffffffffffffffffffff16815260200190815260200160002060000160009054906101000a900460ff1660038111156139e2576139e16152de565b5b1415613a23576040517f08c379a0000000000000000000000000000000000000000000000000000000008152600401613a1a90614c80565b60405180910390fd5b6000600560003373ffffffffffffffffffffffffffffffffffffffff1673ffffffffffffffffffffffffffffffffffffffff16815260200190815260200160002060030180549050905060008060005b83811015613d8357600560003373ffffffffffffffffffffffffffffffffffffffff1673ffffffffffffffffffffffffffffffffffffffff1681526020019081526020016000206003018181548110613acf57613ace61533c565b5b9060005260206000200160009054906101000a900473ffffffffffffffffffffffffffffffffffffffff1691506000600560003373ffffffffffffffffffffffffffffffffffffffff1673ffffffffffffffffffffffffffffffffffffffff16815260200190815260200160002060020160008473ffffffffffffffffffffffffffffffffffffffff1673ffffffffffffffffffffffffffffffffffffffff168152602001908152602001600020541115613ceb57613c0d82600560003373ffffffffffffffffffffffffffffffffffffffff1673ffffffffffffffffffffffffffffffffffffffff16815260200190815260200160002060020160008573ffffffffffffffffffffffffffffffffffffffff1673ffffffffffffffffffffffffffffffffffffffff16815260200190815260200160002054613172565b925082600260003373ffffffffffffffffffffffffffffffffffffffff1673ffffffffffffffffffffffffffffffffffffffff1681526020019081526020016000206000828254613c5e9190614f6c565b925050819055506000600560003373ffffffffffffffffffffffffffffffffffffffff1673ffffffffffffffffffffffffffffffffffffffff16815260200190815260200160002060020160008473ffffffffffffffffffffffffffffffffffffffff1673ffffffffffffffffffffffffffffffffffffffff168152602001908152602001600020819055505b6000600560003373ffffffffffffffffffffffffffffffffffffffff1673ffffffffffffffffffffffffffffffffffffffff16815260200190815260200160002060010160008473ffffffffffffffffffffffffffffffffffffffff1673ffffffffffffffffffffffffffffffffffffffff168152602001908152602001600020819055508080613d7b906151ee565b915050613a73565b5060005b83811015613e2957600560003373ffffffffffffffffffffffffffffffffffffffff1673ffffffffffffffffffffffffffffffffffffffff168152602001908152602001600020600301805480613de157613de061530d565b5b6001900381819060005260206000200160006101000a81549073ffffffffffffffffffffffffffffffffffffffff021916905590558080613e21906151ee565b915050613d87565b506000600560003373ffffffffffffffffffffffffffffffffffffffff1673ffffffffffffffffffffffffffffffffffffffff16815260200190815260200160002060000160006101000a81548160ff02191690836003811115613e9057613e8f6152de565b5b02179055507fb24dcbc2f0ea9133e820ca155e83232c8e2612051982b9edc7234fd0f3692cf933604051613ec49190614957565b60405180910390a1505050565b613ed96140a5565b73ffffffffffffffffffffffffffffffffffffffff16613ef7612b6c565b73ffffffffffffffffffffffffffffffffffffffff1614613f4d576040517f08c379a0000000000000000000000000000000000000000000000000000000008152600401613f4490614d00565b60405180910390fd5b600073ffffffffffffffffffffffffffffffffffffffff168173ffffffffffffffffffffffffffffffffffffffff161415613fbd576040517f08c379a0000000000000000000000000000000000000000000000000000000008152600401613fb490614b40565b60405180910390fd5b613fc6816140ad565b50565b666a94d74f43000081565b600160009054906101000a900473ffffffffffffffffffffffffffffffffffffffff1681565b6000805b60038054905081101561409a578273ffffffffffffffffffffffffffffffffffffffff16600382815481106140365761403561533c565b5b9060005260206000200160009054906101000a900473ffffffffffffffffffffffffffffffffffffffff1673ffffffffffffffffffffffffffffffffffffffff1614156140875760019150506140a0565b8080614092906151ee565b915050613ffe565b50600090505b919050565b600033905090565b60008060009054906101000a900473ffffffffffffffffffffffffffffffffffffffff169050816000806101000a81548173ffffffffffffffffffffffffffffffffffffffff021916908373ffffffffffffffffffffffffffffffffffffffff1602179055508173ffffffffffffffffffffffffffffffffffffffff168173ffffffffffffffffffffffffffffffffffffffff167f8be0079c531659141344cd1fd0a4f28419497f9722a3daafe3b4186f6b6457e060405160405180910390a35050565b600061418461417f84614e91565b614e6c565b905080838252602082019050828560208602820111156141a7576141a661539f565b5b60005b858110156141d757816141bd88826142c1565b8452602084019350602083019250506001810190506141aa565b5050509392505050565b60006141f46141ef84614ebd565b614e6c565b905080838252602082019050828560208602820111156142175761421661539f565b5b60005b85811015614247578161422d888261438a565b84526020840193506020830192505060018101905061421a565b5050509392505050565b600061426461425f84614ebd565b614e6c565b905080838252602082019050828560208602820111156142875761428661539f565b5b60005b858110156142b7578161429d888261439f565b84526020840193506020830192505060018101905061428a565b5050509392505050565b6000813590506142d081615834565b92915050565b6000815190506142e581615834565b92915050565b600082601f830112614300576142ff61539a565b5b8135614310848260208601614171565b91505092915050565b600082601f83011261432e5761432d61539a565b5b813561433e8482602086016141e1565b91505092915050565b600082601f83011261435c5761435b61539a565b5b815161436c848260208601614251565b91505092915050565b6000815190506143848161584b565b92915050565b60008135905061439981615862565b92915050565b6000815190506143ae81615862565b92915050565b6000602082840312156143ca576143c96153a9565b5b60006143d8848285016142c1565b91505092915050565b6000602082840312156143f7576143f66153a9565b5b6000614405848285016142d6565b91505092915050565b60008060408385031215614425576144246153a9565b5b6000614433858286016142c1565b92505060206144448582860161438a565b9150509250929050565b60008060408385031215614465576144646153a9565b5b600083013567ffffffffffffffff811115614483576144826153a4565b5b61448f858286016142eb565b925050602083013567ffffffffffffffff8111156144b0576144af6153a4565b5b6144bc85828601614319565b9150509250929050565b6000602082840312156144dc576144db6153a9565b5b600082015167ffffffffffffffff8111156144fa576144f96153a4565b5b61450684828501614347565b91505092915050565b600060208284031215614525576145246153a9565b5b600061453384828501614375565b91505092915050565b600060208284031215614552576145516153a9565b5b60006145608482850161438a565b91505092915050565b60006145758383614599565b60208301905092915050565b600061458d838361492a565b60208301905092915050565b6145a281615115565b82525050565b6145b181615115565b82525050565b60006145c282614f09565b6145cc8185614f39565b93506145d783614ee9565b8060005b838110156146085781516145ef8882614569565b97506145fa83614f1f565b9250506001810190506145db565b5085935050505092915050565b600061462082614f14565b61462a8185614f4a565b935061463583614ef9565b8060005b8381101561466657815161464d8882614581565b975061465883614f2c565b925050600181019050614639565b5085935050505092915050565b61467c81615187565b82525050565b61468b816151ab565b82525050565b600061469e602983614f5b565b91506146a9826153bf565b604082019050919050565b60006146c1602483614f5b565b91506146cc8261540e565b604082019050919050565b60006146e4602683614f5b565b91506146ef8261545d565b604082019050919050565b6000614707601e83614f5b565b9150614712826154ac565b602082019050919050565b600061472a601083614f5b565b9150614735826154d5565b602082019050919050565b600061474d601983614f5b565b9150614758826154fe565b602082019050919050565b6000614770601c83614f5b565b915061477b82615527565b602082019050919050565b6000614793601883614f5b565b915061479e82615550565b602082019050919050565b60006147b6601c83614f5b565b91506147c182615579565b602082019050919050565b60006147d9601883614f5b565b91506147e4826155a2565b602082019050919050565b60006147fc602783614f5b565b9150614807826155cb565b604082019050919050565b600061481f602d83614f5b565b915061482a8261561a565b604082019050919050565b6000614842601583614f5b565b915061484d82615669565b602082019050919050565b6000614865602883614f5b565b915061487082615692565b604082019050919050565b6000614888602683614f5b565b9150614893826156e1565b604082019050919050565b60006148ab602983614f5b565b91506148b682615730565b604082019050919050565b60006148ce602083614f5b565b91506148d98261577f565b602082019050919050565b60006148f1601883614f5b565b91506148fc826157a8565b602082019050919050565b6000614914602183614f5b565b915061491f826157d1565b604082019050919050565b61493381615170565b82525050565b61494281615170565b82525050565b6149518161517a565b82525050565b600060208201905061496c60008301846145a8565b92915050565b600060608201905061498760008301866145a8565b818103602083015261499981856145b7565b905081810360408301526149ad8184614615565b9050949350505050565b60006040820190506149cc60008301856145a8565b6149d96020830184614939565b9392505050565b60006060820190506149f560008301866145a8565b614a026020830185614939565b614a0f6040830184614939565b949350505050565b60006020820190508181036000830152614a3181846145b7565b905092915050565b60006040820190508181036000830152614a5381856145b7565b90508181036020830152614a678184614615565b90509392505050565b6000602082019050614a856000830184614673565b92915050565b6000602082019050614aa06000830184614682565b92915050565b6000608082019050614abb6000830187614682565b8181036020830152614acd81866145b7565b90508181036040830152614ae18185614615565b90508181036060830152614af58184614615565b905095945050505050565b60006020820190508181036000830152614b1981614691565b9050919050565b60006020820190508181036000830152614b39816146b4565b9050919050565b60006020820190508181036000830152614b59816146d7565b9050919050565b60006020820190508181036000830152614b79816146fa565b9050919050565b60006020820190508181036000830152614b998161471d565b9050919050565b60006020820190508181036000830152614bb981614740565b9050919050565b60006020820190508181036000830152614bd981614763565b9050919050565b60006020820190508181036000830152614bf981614786565b9050919050565b60006020820190508181036000830152614c19816147a9565b9050919050565b60006020820190508181036000830152614c39816147cc565b9050919050565b60006020820190508181036000830152614c59816147ef565b9050919050565b60006020820190508181036000830152614c7981614812565b9050919050565b60006020820190508181036000830152614c9981614835565b9050919050565b60006020820190508181036000830152614cb981614858565b9050919050565b60006020820190508181036000830152614cd98161487b565b9050919050565b60006020820190508181036000830152614cf98161489e565b9050919050565b60006020820190508181036000830152614d19816148c1565b9050919050565b60006020820190508181036000830152614d39816148e4565b9050919050565b60006020820190508181036000830152614d5981614907565b9050919050565b6000602082019050614d756000830184614939565b92915050565b6000604082019050614d906000830185614939565b8181036020830152614da281846145b7565b90509392505050565b6000608082019050614dc06000830187614939565b8181036020830152614dd281866145b7565b9050614de160408301856145a8565b614dee6060830184614939565b95945050505050565b600060a082019050614e0c6000830188614939565b614e196020830187614939565b8181036040830152614e2b81866145b7565b9050614e3a60608301856145a8565b614e476080830184614939565b9695505050505050565b6000602082019050614e666000830184614948565b92915050565b6000614e76614e87565b9050614e8282826151bd565b919050565b6000604051905090565b600067ffffffffffffffff821115614eac57614eab61536b565b5b602082029050602081019050919050565b600067ffffffffffffffff821115614ed857614ed761536b565b5b602082029050602081019050919050565b6000819050602082019050919050565b6000819050602082019050919050565b600081519050919050565b600081519050919050565b6000602082019050919050565b6000602082019050919050565b600082825260208201905092915050565b600082825260208201905092915050565b600082825260208201905092915050565b6000614f7782615170565b9150614f8283615170565b9250827fffffffffffffffffffffffffffffffffffffffffffffffffffffffffffffffff03821115614fb757614fb6615280565b5b828201905092915050565b6000614fcd82615170565b9150614fd883615170565b925082614fe857614fe76152af565b5b828204905092915050565b6000614ffe82615170565b915061500983615170565b9250817fffffffffffffffffffffffffffffffffffffffffffffffffffffffffffffffff048311821515161561504257615041615280565b5b828202905092915050565b600061505882615146565b915061506383615146565b9250827f80000000000000000000000000000000000000000000000000000000000000000182126000841215161561509e5761509d615280565b5b827f7fffffffffffffffffffffffffffffffffffffffffffffffffffffffffffffff0182136000841216156150d6576150d5615280565b5b828203905092915050565b60006150ec82615170565b91506150f783615170565b92508282101561510a57615109615280565b5b828203905092915050565b600061512082615150565b9050919050565b60008115159050919050565b600081905061514182615820565b919050565b6000819050919050565b600073ffffffffffffffffffffffffffffffffffffffff82169050919050565b6000819050919050565b600060ff82169050919050565b600061519282615199565b9050919050565b60006151a482615150565b9050919050565b60006151b682615133565b9050919050565b6151c6826153ae565b810181811067ffffffffffffffff821117156151e5576151e461536b565b5b80604052505050565b60006151f982615170565b91507fffffffffffffffffffffffffffffffffffffffffffffffffffffffffffffffff82141561522c5761522b615280565b5b600182019050919050565b600061524282615146565b91507f800000000000000000000000000000000000000000000000000000000000000082141561527557615274615280565b5b816000039050919050565b7f4e487b7100000000000000000000000000000000000000000000000000000000600052601160045260246000fd5b7f4e487b7100000000000000000000000000000000000000000000000000000000600052601260045260246000fd5b7f4e487b7100000000000000000000000000000000000000000000000000000000600052602160045260246000fd5b7f4e487b7100000000000000000000000000000000000000000000000000000000600052603160045260246000fd5b7f4e487b7100000000000000000000000000000000000000000000000000000000600052603260045260246000fd5b7f4e487b7100000000000000000000000000000000000000000000000000000000600052604160045260246000fd5b600080fd5b600080fd5b600080fd5b600080fd5b6000601f19601f8301169050919050565b7f5468652070657263656e746167652072616e676520706572206173736574206960008201527f73203120746f2039390000000000000000000000000000000000000000000000602082015250565b7f4e6f7420656e6f7567682066756e647320746f2063726561746520706f72746660008201527f6f6c696f00000000000000000000000000000000000000000000000000000000602082015250565b7f4f776e61626c653a206e6577206f776e657220697320746865207a65726f206160008201527f6464726573730000000000000000000000000000000000000000000000000000602082015250565b7f4173736574206e6f7420616c6c6f77656420696e20706f7274666f6c696f0000600082015250565b7f4e6f7420656e6f7567682066756e647300000000000000000000000000000000600082015250565b7f506f7274666f6c696f20616c7265616479206372656174656400000000000000600082015250565b7f52656163686564206d61782062616c616e636520746f207370656e6400000000600082015250565b7f506f7274666f6c696f206d757374206265206163746976650000000000000000600082015250565b7f4d617820616d6f756e74206f662061737365747320616c6c6f77656400000000600082015250565b7f506f7274666f6c696f206d757374206265207365616c65640000000000000000600082015250565b7f4d697373696e67206461746120666f722061737365747320616e64207065726360008201527f656e746167657300000000000000000000000000000000000000000000000000602082015250565b7f5468652073756d206f6620616c6c207468652070657263656e7461676573206d60008201527f75737420657175616c2031303000000000000000000000000000000000000000602082015250565b7f5468657265206973206e6f20706f7274666f6c696f0000000000000000000000600082015250565b7f4e6f7420656e6f7567682066756e647320746f20696e697469616c697a65207060008201527f6f7274666f6c696f000000000000000000000000000000000000000000000000602082015250565b7f4465706f7369742076616c7565206d757374206265206772617465722074686160008201527f6e207a65726f0000000000000000000000000000000000000000000000000000602082015250565b7f4e6f7420656e6f7567682062616c616e636520746f20726562616c616e63652060008201527f706f7274666f6c696f0000000000000000000000000000000000000000000000602082015250565b7f4f776e61626c653a2063616c6c6572206973206e6f7420746865206f776e6572600082015250565b7f417373657420697320616c6c6f77656420616c72656164790000000000000000600082015250565b7f546865206d696e696d756d20616d6f756e74206f66206173736574732069732060008201527f3200000000000000000000000000000000000000000000000000000000000000602082015250565b60048110615831576158306152de565b5b50565b61583d81615115565b811461584857600080fd5b50565b61585481615127565b811461585f57600080fd5b50565b61586b81615170565b811461587657600080fd5b5056fea264697066735822122065fcb818f92c1dcbb258e233b2e4e17d3b344de224756b5385c85447b32b762e64736f6c63430008060033",
  "immutableReferences": {},
  "source": "// SPDX-License-Identifier: MIT\npragma solidity 0.8.6;\n\nimport \"@openzeppelin/contracts/access/Ownable.sol\";\nimport './interfaces/IUniswapV2Router02.sol';\nimport './interfaces/IERC20.sol';\n\n/**\n * @title Hold a user portfolio with multiple assets\n * @author Gabriel R. Dias\n * @notice This is an experimental contract, don't use in production environment\n */\ncontract Balancer is Ownable {\n\n    // -----------------------------------------------\n    // Properties\n    // -----------------------------------------------\n\n    IUniswapV2Router02 public router;\n\n    /// @notice Holds an account balance in the contract (not assigned to any asset in a portfolio)\n    mapping(address => uint) public balances;\n\n    /// @notice allowed assets that can be part of a portfolio (to be edited only by contract owner)\n    address[] public allowedAssets;\n\n    // @notice local store of asset prices\n    mapping(address => uint) public assetPrices;\n\n    /// @notice the max amount of assets an account can add in a portfolio\n    uint8 public constant MAX_PORTFOLIO_ASSETS = 10;\n\n    struct Portfolio {\n        State status;\n        mapping(address => uint) assetPercentages;\n        mapping(address => uint) assetBalances;\n        /// @dev this array make it easy to iterate over the portfolio assets\n        address[] assets;\n    }\n\n    enum State { Empty, Sealed, Initialized, Running }\n\n    /// @notice Holds an account portfolio\n    mapping(address => Portfolio) public portfolios;\n\n    uint public constant MIN_BALANCE_TO_CREATE_PORTFOLIO = 500000000000000000; // 0.5 ether\n    uint public constant MIN_BALANCE_TO_INITIALIZE_PORTFOLIO = 500000000000000000; // 0.5 ether\n    uint public constant MIN_BALANCE_TO_REBALANCE_PORTFOLIO = 20000000000000000; // 0.02 ether\n\n    uint public constant PORTFOLIO_INITIAL_GAS_RESERVE = 30000000000000000; // 0.03 ether\n\n    // -----------------------------------------------\n    // Events\n    // -----------------------------------------------\n\n    /// @notice Emitted when a new allowed asset is added to the contract\n    /// @param assetAddress The asset address\n    event LogAllowedAssetAdded(address assetAddress);\n\n    /// @notice Emitted when a new deposit is made\n    /// @param accountAddress The deposit address\n    /// @param amount The deposit amount\n    event LogDepositMade(address accountAddress, uint amount);\n\n    /// @notice Emitted when a withdraw is made\n    /// @param accountAddress The withdraw address\n    /// @param withdrawAmount The withdraw amount\n    /// @param newBalance The new balance after the withdraw\n    event LogWithdrawal(\n        address accountAddress,\n        uint withdrawAmount,\n        uint newBalance\n    );\n\n    /// @notice Emitted when a new portfolio is created\n    /// @param accountAddress The withdraw address\n    /// @param assets The assets address\n    /// @param percentages The assigned percentage per asset (in order)\n    event LogPortfolioCreated(address accountAddress, address[] assets, uint[] percentages);\n\n    /// @notice Emitted when a portfolio is initialized\n    /// @param accountAddress The account which performed the operation\n    event LogPortfolioInitialized(address accountAddress);\n\n    /// @notice Emitted when a portfolio was rebalanced\n    /// @param accountAddress The account which performed the operation\n    event LogPortfolioRebalanced(address accountAddress);\n\n    /// @notice Emitted when a portfolio is deleted\n    /// @param accountAddress The account which performed the operation\n    event LogPortfolioDeleted(address accountAddress);\n\n    // -----------------------------------------------\n    // Modifiers\n    // -----------------------------------------------\n\n    /// @notice Check is a valid asset\n    /// @param _assetAddress The address of the asset to check\n    modifier isValidAsset(address _assetAddress) {\n        // TODO: check the address is a ERC20 token which supports 18 decimals\n        _;\n    }\n\n    /// @notice Check the asset is not already added to the allowed list\n    /// @param _assetAddress The address of the token to be added\n    modifier isNewAllowedAsset(address _assetAddress) {\n        bool isNew = true;\n        for (uint i; i < allowedAssets.length; i++) {\n            if (allowedAssets[i] == _assetAddress) {\n                isNew = false;\n            }\n        }\n        require(isNew, \"Asset is allowed already\");\n        _;\n    }\n\n    // -----------------------------------------------\n    // Methods\n    // -----------------------------------------------\n\n    constructor (address _router) {\n        // uniswap router\n        router = IUniswapV2Router02(_router);\n    }\n\n    // fallback method\n    receive() external payable {}\n\n    /// @notice Let the contract owner add new allowed tokens\n    /// @param _assetAddress Token address\n    function addAllowedAsset(address _assetAddress)\n    public\n    isValidAsset(_assetAddress)\n    isNewAllowedAsset(_assetAddress)\n    onlyOwner\n    {\n        allowedAssets.push(_assetAddress);\n        emit LogAllowedAssetAdded(_assetAddress);\n    }\n    \n    /// @return The allowed assets in the contract\n    function allowedAssetsList() public view returns (address[] memory) {\n        return allowedAssets;\n    }\n\n    /// @notice Reveal an account portfolio\n    /// @param _accountAddress The portfolio account\n    /// @return The account portfolio\n    function fetchPortfolio(address _accountAddress) public view returns\n    (\n        State,\n        address[] memory,\n        uint[] memory,\n        uint[] memory\n    ) {\n        uint count = portfolios[_accountAddress].assets.length;\n\n        address assetAddress;\n        address[] memory assets = new address[](count);\n        uint[] memory percentages = new uint[](count);\n        uint[] memory assetBalances = new uint[](count);\n\n        for (uint i = 0; i < count; i++) {\n            assetAddress = portfolios[_accountAddress].assets[i];\n            assets[i] = assetAddress;\n            percentages[i] = portfolios[_accountAddress].assetPercentages[assetAddress];\n            assetBalances[i] = portfolios[_accountAddress].assetBalances[assetAddress];\n        }\n\n        return (\n            portfolios[_accountAddress].status,\n            assets,\n            percentages,\n            assetBalances\n        );\n    }\n\n    /// @notice Fetch the portfolio status\n    /// @param _accountAddress The portfolio account\n    /// @return Returns the status\n    function getPortfolioStatus(address _accountAddress) public view returns (State) {\n        return portfolios[_accountAddress].status;\n    }\n\n    /// @notice Deposit ether in the contract\n    /// @return The balance of the account after the deposit is made\n    function deposit() public payable returns (uint) {\n        require(msg.value > 0, \"Deposit value must be grater than zero\");\n        balances[msg.sender] += msg.value;\n        emit LogDepositMade(msg.sender, msg.value);\n\n        return balances[msg.sender];\n    }\n\n    /// @notice Withdraw ether from the contract\n    /// @dev This does not return any excess ether sent to it\n    /// @param _withdrawAmount amount to withdraw\n    /// @return The balance remaining for the account performing the operation\n    function withdraw(uint _withdrawAmount) public returns (uint) {\n        require(balances[msg.sender] >= _withdrawAmount, \"Not enough funds\");\n        balances[msg.sender] -= _withdrawAmount;\n        payable(msg.sender).transfer(_withdrawAmount);\n\n        emit LogWithdrawal(msg.sender, _withdrawAmount, balances[msg.sender]);\n\n        return balances[msg.sender];\n    }\n\n    /// @notice Check if the asset is allowed for use in the contract\n    /// @param _assetAddress The address of the token to be added\n    function isAllowedAsset(address _assetAddress) private view returns (bool) {\n        for (uint i; i < allowedAssets.length; i++) {\n            if (allowedAssets[i] == _assetAddress) {\n                return true;\n            }\n        }\n\n        return false;\n    }\n\n    /// @notice Creates a portfolio and seal it (close it for changes)\n    /// @dev The order is relevant: each percentage will be associated with the corresponding asset by order\n    /// @param _assets Assets address (must be an allowed token)\n    /// @param _percentages The allocation percentage for each asset\n    function createPortfolio(\n        address[] memory _assets,\n        uint[] memory _percentages)\n    external {\n        require(balances[msg.sender] >= MIN_BALANCE_TO_CREATE_PORTFOLIO, \"Not enough funds to create portfolio\");\n        require(portfolios[msg.sender].status == State.Empty, \"Portfolio already created\");\n        require(_assets.length <= MAX_PORTFOLIO_ASSETS, \"Max amount of assets allowed\");\n        require(_assets.length >= 2, \"The minimum amount of assets is 2\");\n        require(_assets.length == _percentages.length, \"Missing data for assets and percentages\");\n\n        // check total percentage integrity\n        uint total = 0;\n        for (uint i = 0; i < _percentages.length; i++) {\n            require(_percentages[i] >= 1 && _percentages[i] <= 99, \"The percentage range per asset is 1 to 99\");\n            total += _percentages[i];\n        }\n\n        require(total == 100, \"The sum of all the percentages must equal 100\");\n\n        // check assets integrity and add them to the portfolio\n        for (uint i = 0; i < _assets.length; i++) {\n            require(isAllowedAsset(_assets[i]), \"Asset not allowed in portfolio\");\n            portfolios[msg.sender].assetPercentages[_assets[i]] = _percentages[i];\n            portfolios[msg.sender].assets.push(_assets[i]);\n        }\n\n        // finally, let's seal the portfolio\n        portfolios[msg.sender].status = State.Sealed;\n\n        emit LogPortfolioCreated(msg.sender, _assets, _percentages);\n    }\n\n    /// @notice Stop the portfolio rebalancing and return the assets balance to ether\n    function deletePortfolio() public {\n        require(portfolios[msg.sender].status != State.Empty, \"There is no portfolio\");\n\n        uint assetCount = portfolios[msg.sender].assets.length;\n        uint bought;\n        address assetAddress;\n        for (uint i = 0; i < assetCount; i++) {\n\n            assetAddress = portfolios[msg.sender].assets[i];\n            if (portfolios[msg.sender].assetBalances[assetAddress] > 0) {\n                bought = swapTokensForETH(\n                    assetAddress,\n                    portfolios[msg.sender].assetBalances[assetAddress]\n                );\n\n                // increment the account balance with the result of the assets sold\n                balances[msg.sender] += bought;\n                portfolios[msg.sender].assetBalances[assetAddress] = 0;\n            }\n\n            portfolios[msg.sender].assetPercentages[assetAddress] = 0;\n        }\n\n        // safely remove portfolio assets\n        for (uint i = 0; i < assetCount; i++) {\n            portfolios[msg.sender].assets.pop();\n        }\n\n        portfolios[msg.sender].status = State.Empty;\n\n        emit LogPortfolioDeleted(msg.sender);\n    }\n\n    /// @notice Run the first asset distribution once the portfolio is sealed\n    function runInitialPortfolioDistribution() public {\n        require(balances[msg.sender] >= MIN_BALANCE_TO_INITIALIZE_PORTFOLIO, \"Not enough funds to initialize portfolio\");\n        require(portfolios[msg.sender].status == State.Sealed, \"Portfolio must be sealed\");\n\n        // change the portfolio status to initialized\n        portfolios[msg.sender].status = State.Initialized;\n\n        uint initialBalance = balances[msg.sender] - PORTFOLIO_INITIAL_GAS_RESERVE;\n        uint percentage;\n        uint bought;\n        uint desiredAmountToSpend;\n        address _assetAddress;\n        for (uint i = 0; i < portfolios[msg.sender].assets.length; i++) {\n            _assetAddress = portfolios[msg.sender].assets[i];\n            percentage = portfolios[msg.sender].assetPercentages[_assetAddress];\n            desiredAmountToSpend = (initialBalance * percentage) / 100;\n\n            require(\n                desiredAmountToSpend <= balances[msg.sender],\n                \"Reached max balance to spend\"\n            );\n\n            bought = swapETHForTokens(_assetAddress, desiredAmountToSpend);\n\n            assetPrices[_assetAddress] = (10**18 * desiredAmountToSpend) / bought;\n            portfolios[msg.sender].assetBalances[_assetAddress] += bought;\n            balances[msg.sender] -= desiredAmountToSpend;\n        }\n\n        emit LogPortfolioInitialized(msg.sender);\n    }\n\n    /// @notice Swap ETH amount for tokens\n    /// @param _destTokenAddress The destination token address\n    /// @param _amountIn The amount of ETH to exchange\n    /// @return The amount of tokens bought\n    function swapETHForTokens(address _destTokenAddress, uint _amountIn)\n    public\n    returns (uint)\n    {\n        /// @dev When using ether in the path, the WETH token address is needed because there is no address for ether ;)\n        address origTokenAddress = router.WETH();\n\n        address[] memory path = new address[](2);\n        path[0] = origTokenAddress;\n        path[1] = _destTokenAddress;\n\n        IERC20(origTokenAddress).approve(address(router), _amountIn);\n\n        uint[] memory minOuts = router.getAmountsOut(_amountIn, path);\n\n        router.swapExactETHForTokens{value: _amountIn}(\n            minOuts[1],\n            path,\n            address(this),\n            block.timestamp\n        );\n\n        return minOuts[1];\n    }\n\n    /// @notice Swap tokens amount for ETH\n    /// @param _origTokenAddress The origin token address\n    /// @param _amountIn The amount of tokens to exchange\n    /// @return The amount of ETH bought\n    function swapTokensForETH(address _origTokenAddress, uint _amountIn)\n    public\n    returns (uint)\n    {\n        address destTokenAddress = router.WETH();\n\n        address[] memory path = new address[](2);\n        path[0] = _origTokenAddress;\n        path[1] = destTokenAddress;\n\n        IERC20(_origTokenAddress).approve(address(router), _amountIn);\n\n        uint[] memory minOuts = router.getAmountsOut(_amountIn, path);\n\n        router.swapExactTokensForETH(\n            _amountIn,\n            minOuts[1],\n            path,\n            address(this),\n            block.timestamp\n        );\n\n        return minOuts[1];\n    }\n\n    /// @notice Returns the price of a token\n    /// @dev TODO: check performance using uniswap factory and pair contracts to retrieve a token price.\n    /// @dev TODO: create an asset price cache\n    /// @param _token The asset address\n    /// @return The asset price in wei\n    function getAssetPrice(address _token) public returns (uint)\n    {\n        uint amount = 10**18;\n        address[] memory path = new address[](2);\n        path[0] = router.WETH();\n        path[1] = _token;\n\n        IERC20(router.WETH()).approve(address(router), amount);\n        uint estimatedBuy = router.getAmountsOut(amount, path)[1];\n\n        return (10**18 * 10**18) / estimatedBuy;\n    }\n\n    /// @notice Runs a full portfolio rebalance\n    function runPortfolioRebalance() external {\n        require(balances[msg.sender] >= MIN_BALANCE_TO_REBALANCE_PORTFOLIO, \"Not enough balance to rebalance portfolio\");\n        require(\n            portfolios[msg.sender].status == State.Initialized ||\n            portfolios[msg.sender].status == State.Running,\n            \"Portfolio must be active\"\n        );\n\n        // change the portfolio status to running\n        portfolios[msg.sender].status = State.Running;\n\n        // 1. update portfolio asset prices\n        address assetAddress;\n        uint bought;\n        for (uint i = 0; i < portfolios[msg.sender].assets.length; i++) {\n            assetAddress = portfolios[msg.sender].assets[i];\n            assetPrices[assetAddress] = getAssetPrice(assetAddress);\n        }\n\n        // 2. calculate the new portfolio total value\n        uint currentHolding;\n        uint[] memory newHoldingValue = new uint[](portfolios[msg.sender].assets.length);\n        uint newPortfolioTotalBalance = 0;\n        for (uint i = 0; i < portfolios[msg.sender].assets.length; i++) {\n            assetAddress = portfolios[msg.sender].assets[i];\n\n            // get the current holding for the coin\n            currentHolding = portfolios[msg.sender].assetBalances[assetAddress];\n\n            newHoldingValue[i] = (assetPrices[assetAddress] * currentHolding) / 10**18;\n            newPortfolioTotalBalance += newHoldingValue[i];\n        }\n\n        // 3. Prepare buy and sell orders\n        uint percentage;\n        int diff;\n        uint[] memory sellOrders = new uint[](portfolios[msg.sender].assets.length);\n        uint[] memory buyOrders = new uint[](portfolios[msg.sender].assets.length);\n        for (uint i = 0; i < portfolios[msg.sender].assets.length; i++) {\n            assetAddress = portfolios[msg.sender].assets[i];\n\n            // get current percentage\n            percentage = portfolios[msg.sender].assetPercentages[assetAddress];\n            diff =\n            int((newPortfolioTotalBalance * percentage) / 100) -\n            int(newHoldingValue[i]);\n\n            if (diff > 0) {\n                buyOrders[i] = uint(diff);\n            } else {\n                sellOrders[i] = uint(-diff);\n            }\n        }\n\n        // 4. Execute sell orders\n        uint amountToSwap;\n        for (uint i = 0; i < sellOrders.length; i++) {\n            // TODO: do we need to do anything if sell amount is lower than the gas that will consume the operation?\n            if (sellOrders[i] > 0) {\n                assetAddress = portfolios[msg.sender].assets[i];\n                amountToSwap = (sellOrders[i] * 10**18) / assetPrices[assetAddress];\n\n                bought = swapTokensForETH(assetAddress, amountToSwap);\n                balances[msg.sender] += bought;\n                portfolios[msg.sender].assetBalances[assetAddress] -= amountToSwap;\n            }\n        }\n\n        // 5. Execute buy orders\n        for (uint i = 0; i < buyOrders.length; i++) {\n            // TODO: do we need to do anything if buy amount is lower than the gas that will consume the operation?\n            if (buyOrders[i] > 0) {\n                assetAddress = portfolios[msg.sender].assets[i];\n                amountToSwap = buyOrders[i];\n\n                bought = swapETHForTokens(assetAddress, amountToSwap);\n\n                portfolios[msg.sender].assetBalances[assetAddress] += bought;\n                balances[msg.sender] -= amountToSwap;\n            }\n        }\n\n        // 6. Handle any remaining balance\n        // TODO: handle the gas reserve properly\n        //balances[msg.sender] += gasReserve;\n\n        emit LogPortfolioRebalanced(msg.sender);\n    }\n\n    function fetchAssetsPrices() external view returns (address[] memory, uint[] memory) {\n        address[] memory assets = new address[](allowedAssets.length);\n        uint[] memory prices = new uint[](allowedAssets.length);\n\n        for (uint i; i < allowedAssets.length; i++) {\n            assets[i] = allowedAssets[i];\n            prices[i] = assetPrices[allowedAssets[i]];\n        }\n\n        return (assets, prices);\n    }\n\n    function updateAssetPrices() external {\n        for (uint i = 0; i < allowedAssets.length; i++) {\n            assetPrices[allowedAssets[i]] = getAssetPrice(allowedAssets[i]);\n        }\n    }\n}\n",
  "sourcePath": "/Users/gabrieldias/code/bootcamp_consensys/blockchain-developer-bootcamp-final-project/contracts/Balancer.sol",
  "compiler": {
    "name": "solc",
    "version": "0.8.6+commit.11564f7e.Emscripten.clang"
  },
  "schemaVersion": "3.4.1",
  "updatedAt": "2021-11-29T10:55:19.556Z",
  "networkType": "ethereum",
  "devdoc": {
    "author": "Gabriel R. Dias",
    "events": {
      "LogAllowedAssetAdded(address)": {
        "params": {
          "assetAddress": "The asset address"
        }
      },
      "LogDepositMade(address,uint256)": {
        "params": {
          "accountAddress": "The deposit address",
          "amount": "The deposit amount"
        }
      },
      "LogPortfolioCreated(address,address[],uint256[])": {
        "params": {
          "accountAddress": "The withdraw address",
          "assets": "The assets address",
          "percentages": "The assigned percentage per asset (in order)"
        }
      },
      "LogPortfolioDeleted(address)": {
        "params": {
          "accountAddress": "The account which performed the operation"
        }
      },
      "LogPortfolioInitialized(address)": {
        "params": {
          "accountAddress": "The account which performed the operation"
        }
      },
      "LogPortfolioRebalanced(address)": {
        "params": {
          "accountAddress": "The account which performed the operation"
        }
      },
      "LogWithdrawal(address,uint256,uint256)": {
        "params": {
          "accountAddress": "The withdraw address",
          "newBalance": "The new balance after the withdraw",
          "withdrawAmount": "The withdraw amount"
        }
      }
    },
    "kind": "dev",
    "methods": {
      "addAllowedAsset(address)": {
        "params": {
          "_assetAddress": "Token address"
        }
      },
      "allowedAssetsList()": {
        "returns": {
          "_0": "The allowed assets in the contract"
        }
      },
      "createPortfolio(address[],uint256[])": {
        "details": "The order is relevant: each percentage will be associated with the corresponding asset by order",
        "params": {
          "_assets": "Assets address (must be an allowed token)",
          "_percentages": "The allocation percentage for each asset"
        }
      },
      "deposit()": {
        "returns": {
          "_0": "The balance of the account after the deposit is made"
        }
      },
      "fetchPortfolio(address)": {
        "params": {
          "_accountAddress": "The portfolio account"
        },
        "returns": {
          "_0": "The account portfolio"
        }
      },
      "getAssetPrice(address)": {
        "details": "TODO: check performance using uniswap factory and pair contracts to retrieve a token price.TODO: create an asset price cache",
        "params": {
          "_token": "The asset address"
        },
        "returns": {
          "_0": "The asset price in wei"
        }
      },
      "getPortfolioStatus(address)": {
        "params": {
          "_accountAddress": "The portfolio account"
        },
        "returns": {
          "_0": "Returns the status"
        }
      },
      "owner()": {
        "details": "Returns the address of the current owner."
      },
      "renounceOwnership()": {
        "details": "Leaves the contract without owner. It will not be possible to call `onlyOwner` functions anymore. Can only be called by the current owner. NOTE: Renouncing ownership will leave the contract without an owner, thereby removing any functionality that is only available to the owner."
      },
      "swapETHForTokens(address,uint256)": {
        "params": {
          "_amountIn": "The amount of ETH to exchange",
          "_destTokenAddress": "The destination token address"
        },
        "returns": {
          "_0": "The amount of tokens bought"
        }
      },
      "swapTokensForETH(address,uint256)": {
        "params": {
          "_amountIn": "The amount of tokens to exchange",
          "_origTokenAddress": "The origin token address"
        },
        "returns": {
          "_0": "The amount of ETH bought"
        }
      },
      "transferOwnership(address)": {
        "details": "Transfers ownership of the contract to a new account (`newOwner`). Can only be called by the current owner."
      },
      "withdraw(uint256)": {
        "details": "This does not return any excess ether sent to it",
        "params": {
          "_withdrawAmount": "amount to withdraw"
        },
        "returns": {
          "_0": "The balance remaining for the account performing the operation"
        }
      }
    },
    "title": "Hold a user portfolio with multiple assets",
    "version": 1
  },
  "userdoc": {
    "events": {
      "LogAllowedAssetAdded(address)": {
        "notice": "Emitted when a new allowed asset is added to the contract"
      },
      "LogDepositMade(address,uint256)": {
        "notice": "Emitted when a new deposit is made"
      },
      "LogPortfolioCreated(address,address[],uint256[])": {
        "notice": "Emitted when a new portfolio is created"
      },
      "LogPortfolioDeleted(address)": {
        "notice": "Emitted when a portfolio is deleted"
      },
      "LogPortfolioInitialized(address)": {
        "notice": "Emitted when a portfolio is initialized"
      },
      "LogPortfolioRebalanced(address)": {
        "notice": "Emitted when a portfolio was rebalanced"
      },
      "LogWithdrawal(address,uint256,uint256)": {
        "notice": "Emitted when a withdraw is made"
      }
    },
    "kind": "user",
    "methods": {
      "MAX_PORTFOLIO_ASSETS()": {
        "notice": "the max amount of assets an account can add in a portfolio"
      },
      "addAllowedAsset(address)": {
        "notice": "Let the contract owner add new allowed tokens"
      },
      "allowedAssets(uint256)": {
        "notice": "allowed assets that can be part of a portfolio (to be edited only by contract owner)"
      },
      "balances(address)": {
        "notice": "Holds an account balance in the contract (not assigned to any asset in a portfolio)"
      },
      "createPortfolio(address[],uint256[])": {
        "notice": "Creates a portfolio and seal it (close it for changes)"
      },
      "deletePortfolio()": {
        "notice": "Stop the portfolio rebalancing and return the assets balance to ether"
      },
      "deposit()": {
        "notice": "Deposit ether in the contract"
      },
      "fetchPortfolio(address)": {
        "notice": "Reveal an account portfolio"
      },
      "getAssetPrice(address)": {
        "notice": "Returns the price of a token"
      },
      "getPortfolioStatus(address)": {
        "notice": "Fetch the portfolio status"
      },
      "portfolios(address)": {
        "notice": "Holds an account portfolio"
      },
      "runInitialPortfolioDistribution()": {
        "notice": "Run the first asset distribution once the portfolio is sealed"
      },
      "runPortfolioRebalance()": {
        "notice": "Runs a full portfolio rebalance"
      },
      "swapETHForTokens(address,uint256)": {
        "notice": "Swap ETH amount for tokens"
      },
      "swapTokensForETH(address,uint256)": {
        "notice": "Swap tokens amount for ETH"
      },
      "withdraw(uint256)": {
        "notice": "Withdraw ether from the contract"
      }
    },
    "notice": "This is an experimental contract, don't use in production environment",
    "version": 1
  }
}