{
  "contractName": "Balancer",
  "abi": [
    {
      "inputs": [
        {
          "internalType": "address",
          "name": "_router",
          "type": "address"
        }
      ],
      "stateMutability": "nonpayable",
      "type": "constructor"
    },
    {
      "anonymous": false,
      "inputs": [
        {
          "indexed": false,
          "internalType": "address",
          "name": "assetAddress",
          "type": "address"
        }
      ],
      "name": "LogAllowedAssetAdded",
      "type": "event"
    },
    {
      "anonymous": false,
      "inputs": [
        {
          "indexed": false,
          "internalType": "address",
          "name": "accountAddress",
          "type": "address"
        },
        {
          "indexed": false,
          "internalType": "uint256",
          "name": "amount",
          "type": "uint256"
        }
      ],
      "name": "LogDepositMade",
      "type": "event"
    },
    {
      "anonymous": false,
      "inputs": [
        {
          "indexed": false,
          "internalType": "address",
          "name": "assetAddress",
          "type": "address"
        },
        {
          "indexed": false,
          "internalType": "uint256",
          "name": "percentage",
          "type": "uint256"
        }
      ],
      "name": "LogPortfolioAssetAdded",
      "type": "event"
    },
    {
      "anonymous": false,
      "inputs": [
        {
          "indexed": false,
          "internalType": "address",
          "name": "accountAddress",
          "type": "address"
        }
      ],
      "name": "LogPortfolioDeleted",
      "type": "event"
    },
    {
      "anonymous": false,
      "inputs": [
        {
          "indexed": false,
          "internalType": "address",
          "name": "accountAddress",
          "type": "address"
        }
      ],
      "name": "LogPortfolioSealed",
      "type": "event"
    },
    {
      "anonymous": false,
      "inputs": [
        {
          "indexed": false,
          "internalType": "address",
          "name": "accountAddress",
          "type": "address"
        },
        {
          "indexed": false,
          "internalType": "uint256",
          "name": "withdrawAmount",
          "type": "uint256"
        },
        {
          "indexed": false,
          "internalType": "uint256",
          "name": "newBalance",
          "type": "uint256"
        }
      ],
      "name": "LogWithdrawal",
      "type": "event"
    },
    {
      "anonymous": false,
      "inputs": [
        {
          "indexed": true,
          "internalType": "address",
          "name": "previousOwner",
          "type": "address"
        },
        {
          "indexed": true,
          "internalType": "address",
          "name": "newOwner",
          "type": "address"
        }
      ],
      "name": "OwnershipTransferred",
      "type": "event"
    },
    {
      "inputs": [],
      "name": "MAX_PORTFOLIO_ASSETS",
      "outputs": [
        {
          "internalType": "uint8",
          "name": "",
          "type": "uint8"
        }
      ],
      "stateMutability": "view",
      "type": "function",
      "constant": true
    },
    {
      "inputs": [
        {
          "internalType": "uint256",
          "name": "",
          "type": "uint256"
        }
      ],
      "name": "allowedAssets",
      "outputs": [
        {
          "internalType": "address",
          "name": "",
          "type": "address"
        }
      ],
      "stateMutability": "view",
      "type": "function",
      "constant": true
    },
    {
      "inputs": [
        {
          "internalType": "address",
          "name": "",
          "type": "address"
        }
      ],
      "name": "assetPrices",
      "outputs": [
        {
          "internalType": "uint256",
          "name": "",
          "type": "uint256"
        }
      ],
      "stateMutability": "view",
      "type": "function",
      "constant": true
    },
    {
      "inputs": [
        {
          "internalType": "address",
          "name": "",
          "type": "address"
        }
      ],
      "name": "balances",
      "outputs": [
        {
          "internalType": "uint256",
          "name": "",
          "type": "uint256"
        }
      ],
      "stateMutability": "view",
      "type": "function",
      "constant": true
    },
    {
      "inputs": [],
      "name": "owner",
      "outputs": [
        {
          "internalType": "address",
          "name": "",
          "type": "address"
        }
      ],
      "stateMutability": "view",
      "type": "function",
      "constant": true
    },
    {
      "inputs": [
        {
          "internalType": "address",
          "name": "",
          "type": "address"
        }
      ],
      "name": "portfolios",
      "outputs": [
        {
          "internalType": "bool",
          "name": "sealedPortfolio",
          "type": "bool"
        }
      ],
      "stateMutability": "view",
      "type": "function",
      "constant": true
    },
    {
      "inputs": [],
      "name": "renounceOwnership",
      "outputs": [],
      "stateMutability": "nonpayable",
      "type": "function"
    },
    {
      "inputs": [],
      "name": "router",
      "outputs": [
        {
          "internalType": "contract IUniswapV2Router02",
          "name": "",
          "type": "address"
        }
      ],
      "stateMutability": "view",
      "type": "function",
      "constant": true
    },
    {
      "inputs": [
        {
          "internalType": "address",
          "name": "newOwner",
          "type": "address"
        }
      ],
      "name": "transferOwnership",
      "outputs": [],
      "stateMutability": "nonpayable",
      "type": "function"
    },
    {
      "stateMutability": "payable",
      "type": "receive",
      "payable": true
    },
    {
      "inputs": [
        {
          "internalType": "address",
          "name": "_assetAddress",
          "type": "address"
        }
      ],
      "name": "addAllowedAsset",
      "outputs": [],
      "stateMutability": "nonpayable",
      "type": "function"
    },
    {
      "inputs": [],
      "name": "allowedAssetsList",
      "outputs": [
        {
          "internalType": "address[]",
          "name": "",
          "type": "address[]"
        }
      ],
      "stateMutability": "view",
      "type": "function",
      "constant": true
    },
    {
      "inputs": [
        {
          "internalType": "address",
          "name": "_accountAddress",
          "type": "address"
        }
      ],
      "name": "fetchPortfolio",
      "outputs": [
        {
          "internalType": "bool",
          "name": "",
          "type": "bool"
        },
        {
          "internalType": "address[]",
          "name": "",
          "type": "address[]"
        },
        {
          "internalType": "uint256[]",
          "name": "",
          "type": "uint256[]"
        },
        {
          "internalType": "uint256[]",
          "name": "",
          "type": "uint256[]"
        }
      ],
      "stateMutability": "view",
      "type": "function",
      "constant": true
    },
    {
      "inputs": [
        {
          "internalType": "address",
          "name": "_accountAddress",
          "type": "address"
        }
      ],
      "name": "isPortfolioSealed",
      "outputs": [
        {
          "internalType": "bool",
          "name": "",
          "type": "bool"
        }
      ],
      "stateMutability": "view",
      "type": "function",
      "constant": true
    },
    {
      "inputs": [],
      "name": "deposit",
      "outputs": [
        {
          "internalType": "uint256",
          "name": "",
          "type": "uint256"
        }
      ],
      "stateMutability": "payable",
      "type": "function",
      "payable": true
    },
    {
      "inputs": [
        {
          "internalType": "uint256",
          "name": "_withdrawAmount",
          "type": "uint256"
        }
      ],
      "name": "withdraw",
      "outputs": [
        {
          "internalType": "uint256",
          "name": "",
          "type": "uint256"
        }
      ],
      "stateMutability": "nonpayable",
      "type": "function"
    },
    {
      "inputs": [
        {
          "internalType": "address",
          "name": "_assetAddress",
          "type": "address"
        },
        {
          "internalType": "uint256",
          "name": "_percentage",
          "type": "uint256"
        }
      ],
      "name": "addPortfolioAsset",
      "outputs": [],
      "stateMutability": "nonpayable",
      "type": "function"
    },
    {
      "inputs": [],
      "name": "sealPortfolio",
      "outputs": [],
      "stateMutability": "nonpayable",
      "type": "function"
    },
    {
      "inputs": [
        {
          "internalType": "address[]",
          "name": "assets",
          "type": "address[]"
        },
        {
          "internalType": "uint256[]",
          "name": "percentages",
          "type": "uint256[]"
        }
      ],
      "name": "createFullPortfolio",
      "outputs": [],
      "stateMutability": "nonpayable",
      "type": "function"
    },
    {
      "inputs": [],
      "name": "deletePortfolio",
      "outputs": [],
      "stateMutability": "nonpayable",
      "type": "function"
    },
    {
      "inputs": [],
      "name": "runInitialPortfolioDistribution",
      "outputs": [],
      "stateMutability": "nonpayable",
      "type": "function"
    },
    {
      "inputs": [
        {
          "internalType": "address",
          "name": "_destTokenAddress",
          "type": "address"
        },
        {
          "internalType": "uint256",
          "name": "_amountIn",
          "type": "uint256"
        }
      ],
      "name": "swapETHForTokens",
      "outputs": [
        {
          "internalType": "uint256",
          "name": "",
          "type": "uint256"
        }
      ],
      "stateMutability": "nonpayable",
      "type": "function"
    },
    {
      "inputs": [
        {
          "internalType": "address",
          "name": "_origTokenAddress",
          "type": "address"
        },
        {
          "internalType": "uint256",
          "name": "_amountIn",
          "type": "uint256"
        }
      ],
      "name": "swapTokensForETH",
      "outputs": [
        {
          "internalType": "uint256",
          "name": "",
          "type": "uint256"
        }
      ],
      "stateMutability": "nonpayable",
      "type": "function"
    },
    {
      "inputs": [],
      "name": "fetchAssetsPrices",
      "outputs": [
        {
          "internalType": "address[]",
          "name": "",
          "type": "address[]"
        },
        {
          "internalType": "uint256[]",
          "name": "",
          "type": "uint256[]"
        }
      ],
      "stateMutability": "view",
      "type": "function",
      "constant": true
    },
    {
      "inputs": [],
      "name": "updateAssetPrices",
      "outputs": [],
      "stateMutability": "nonpayable",
      "type": "function"
    },
    {
      "inputs": [
        {
          "internalType": "address",
          "name": "token2",
          "type": "address"
        },
        {
          "internalType": "uint256",
          "name": "amount",
          "type": "uint256"
        }
      ],
      "name": "checkAmountOut",
      "outputs": [
        {
          "internalType": "uint256",
          "name": "",
          "type": "uint256"
        }
      ],
      "stateMutability": "nonpayable",
      "type": "function"
    },
    {
      "inputs": [],
      "name": "runPortfolioRebalance",
      "outputs": [],
      "stateMutability": "nonpayable",
      "type": "function"
    }
  ],
  "bytecode": "0x60806040523480156200001157600080fd5b5060405162005aa938038062005aa9833981810160405281019062000037919062000182565b620000576200004b6200009f60201b60201c565b620000a760201b60201c565b80600160006101000a81548173ffffffffffffffffffffffffffffffffffffffff021916908373ffffffffffffffffffffffffffffffffffffffff1602179055505062000207565b600033905090565b60008060009054906101000a900473ffffffffffffffffffffffffffffffffffffffff169050816000806101000a81548173ffffffffffffffffffffffffffffffffffffffff021916908373ffffffffffffffffffffffffffffffffffffffff1602179055508173ffffffffffffffffffffffffffffffffffffffff168173ffffffffffffffffffffffffffffffffffffffff167f8be0079c531659141344cd1fd0a4f28419497f9722a3daafe3b4186f6b6457e060405160405180910390a35050565b6000815190506200017c81620001ed565b92915050565b6000602082840312156200019b576200019a620001e8565b5b6000620001ab848285016200016b565b91505092915050565b6000620001c182620001c8565b9050919050565b600073ffffffffffffffffffffffffffffffffffffffff82169050919050565b600080fd5b620001f881620001b4565b81146200020457600080fd5b50565b61589280620002176000396000f3fe6080604052600436106101855760003560e01c80637ece3c38116100d1578063c538b1e61161008a578063dd0b3e8911610064578063dd0b3e8914610598578063dfa23ed2146105af578063f2fde38b146105c6578063f887ea40146105ef5761018c565b8063c538b1e614610537578063d0e30db014610563578063d1fd8d31146105815761018c565b80637ece3c381461043b57806381251606146104525780638da5cb5b1461046957806398971f1414610494578063abbc1c07146104bd578063b6468a61146104fa5761018c565b80634e84eaaa1161013e5780635e9a523c116101185780635e9a523c14610381578063715018a6146103be57806374f26610146103d55780637baab3da146103fe5761018c565b80634e84eaaa146102dc57806351422e971461030757806357fbbef0146103445761018c565b80630ccd3ef9146101915780630dcf52dd146101ce57806325b175c2146101f957806327e235e3146102225780632e1a7d4d1461025f57806343f097861461029c5761018c565b3661018c57005b600080fd5b34801561019d57600080fd5b506101b860048036038101906101b39190614540565b61061a565b6040516101c591906149a1565b60405180910390f35b3480156101da57600080fd5b506101e3610659565b6040516101f09190614a1c565b60405180910390f35b34801561020557600080fd5b50610220600480360381019061021b9190614452565b6106e7565b005b34801561022e57600080fd5b50610249600480360381019061024491906143b8565b61086d565b6040516102569190614da5565b60405180910390f35b34801561026b57600080fd5b5061028660048036038101906102819190614540565b610885565b6040516102939190614da5565b60405180910390f35b3480156102a857600080fd5b506102c360048036038101906102be91906143b8565b610a67565b6040516102d39493929190614a90565b60405180910390f35b3480156102e857600080fd5b506102f1610e33565b6040516102fe9190614e96565b60405180910390f35b34801561031357600080fd5b5061032e60048036038101906103299190614412565b610e38565b60405161033b9190614da5565b60405180910390f35b34801561035057600080fd5b5061036b60048036038101906103669190614412565b61122b565b6040516103789190614da5565b60405180910390f35b34801561038d57600080fd5b506103a860048036038101906103a391906143b8565b611549565b6040516103b59190614da5565b60405180910390f35b3480156103ca57600080fd5b506103d3611561565b005b3480156103e157600080fd5b506103fc60048036038101906103f79190614412565b6115e9565b005b34801561040a57600080fd5b50610425600480360381019061042091906143b8565b611be2565b6040516104329190614a75565b60405180910390f35b34801561044757600080fd5b50610450611c0d565b005b34801561045e57600080fd5b5061046761210a565b005b34801561047557600080fd5b5061047e612c66565b60405161048b91906149a1565b60405180910390f35b3480156104a057600080fd5b506104bb60048036038101906104b691906143b8565b612c8f565b005b3480156104c957600080fd5b506104e460048036038101906104df91906143b8565b612e8e565b6040516104f19190614a75565b60405180910390f35b34801561050657600080fd5b50610521600480360381019061051c9190614412565b612ee7565b60405161052e9190614da5565b60405180910390f35b34801561054357600080fd5b5061054c6132db565b60405161055a929190614a3e565b60405180910390f35b61056b6134db565b6040516105789190614da5565b60405180910390f35b34801561058d57600080fd5b506105966135f3565b005b3480156105a457600080fd5b506105ad61370d565b005b3480156105bb57600080fd5b506105c4613c15565b005b3480156105d257600080fd5b506105ed60048036038101906105e891906143b8565b613e0c565b005b3480156105fb57600080fd5b50610604613f04565b6040516106119190614aea565b60405180910390f35b6003818154811061062a57600080fd5b906000526020600020016000915054906101000a900473ffffffffffffffffffffffffffffffffffffffff1681565b606060038054806020026020016040519081016040528092919081815260200182805480156106dd57602002820191906000526020600020905b8160009054906101000a900473ffffffffffffffffffffffffffffffffffffffff1673ffffffffffffffffffffffffffffffffffffffff1681526020019060010190808311610693575b5050505050905090565b600460003373ffffffffffffffffffffffffffffffffffffffff1673ffffffffffffffffffffffffffffffffffffffff16815260200190815260200160002060000160009054906101000a900460ff1615610777576040517f08c379a000000000000000000000000000000000000000000000000000000000815260040161076e90614ca5565b60405180910390fd5b80518251146107bb576040517f08c379a00000000000000000000000000000000000000000000000000000000081526004016107b290614c25565b60405180910390fd5b600a60ff1682511115610803576040517f08c379a00000000000000000000000000000000000000000000000000000000081526004016107fa90614b45565b60405180910390fd5b60005b82518110156108605761084d8382815181106108255761082461532d565b5b60200260200101518383815181106108405761083f61532d565b5b60200260200101516115e9565b80806108589061520e565b915050610806565b50610869613c15565b5050565b60026020528060005260406000206000915090505481565b600081600260003373ffffffffffffffffffffffffffffffffffffffff1673ffffffffffffffffffffffffffffffffffffffff168152602001908152602001600020541015610909576040517f08c379a000000000000000000000000000000000000000000000000000000000815260040161090090614b25565b60405180910390fd5b81600260003373ffffffffffffffffffffffffffffffffffffffff1673ffffffffffffffffffffffffffffffffffffffff16815260200190815260200160002060008282546109589190615126565b925050819055503373ffffffffffffffffffffffffffffffffffffffff166108fc839081150290604051600060405180830381858888f193505050501580156109a5573d6000803e3d6000fd5b507ff9226daf630542048a23086c6af599511aac100ec8f532793cc9697d061bed7e3383600260003373ffffffffffffffffffffffffffffffffffffffff1673ffffffffffffffffffffffffffffffffffffffff16815260200190815260200160002054604051610a18939291906149e5565b60405180910390a1600260003373ffffffffffffffffffffffffffffffffffffffff1673ffffffffffffffffffffffffffffffffffffffff168152602001908152602001600020549050919050565b600060608060606000600460008773ffffffffffffffffffffffffffffffffffffffff1673ffffffffffffffffffffffffffffffffffffffff1681526020019081526020016000206003018054905090506000808267ffffffffffffffff811115610ad557610ad461535c565b5b604051908082528060200260200182016040528015610b035781602001602082028036833780820191505090505b50905060008367ffffffffffffffff811115610b2257610b2161535c565b5b604051908082528060200260200182016040528015610b505781602001602082028036833780820191505090505b50905060008467ffffffffffffffff811115610b6f57610b6e61535c565b5b604051908082528060200260200182016040528015610b9d5781602001602082028036833780820191505090505b50905060005b85811015610dcb57600460008c73ffffffffffffffffffffffffffffffffffffffff1673ffffffffffffffffffffffffffffffffffffffff1681526020019081526020016000206003018181548110610bff57610bfe61532d565b5b9060005260206000200160009054906101000a900473ffffffffffffffffffffffffffffffffffffffff16945084848281518110610c4057610c3f61532d565b5b602002602001019073ffffffffffffffffffffffffffffffffffffffff16908173ffffffffffffffffffffffffffffffffffffffff1681525050600460008c73ffffffffffffffffffffffffffffffffffffffff1673ffffffffffffffffffffffffffffffffffffffff16815260200190815260200160002060010160008673ffffffffffffffffffffffffffffffffffffffff1673ffffffffffffffffffffffffffffffffffffffff16815260200190815260200160002054838281518110610d0d57610d0c61532d565b5b602002602001018181525050600460008c73ffffffffffffffffffffffffffffffffffffffff1673ffffffffffffffffffffffffffffffffffffffff16815260200190815260200160002060020160008673ffffffffffffffffffffffffffffffffffffffff1673ffffffffffffffffffffffffffffffffffffffff16815260200190815260200160002054828281518110610dac57610dab61532d565b5b6020026020010181815250508080610dc39061520e565b915050610ba3565b50600460008b73ffffffffffffffffffffffffffffffffffffffff1673ffffffffffffffffffffffffffffffffffffffff16815260200190815260200160002060000160009054906101000a900460ff16838383985098509850985050505050509193509193565b600a81565b600080600160009054906101000a900473ffffffffffffffffffffffffffffffffffffffff1673ffffffffffffffffffffffffffffffffffffffff1663ad5c46486040518163ffffffff1660e01b815260040160206040518083038186803b158015610ea357600080fd5b505afa158015610eb7573d6000803e3d6000fd5b505050506040513d601f19601f82011682018060405250810190610edb91906143e5565b90506000600267ffffffffffffffff811115610efa57610ef961535c565b5b604051908082528060200260200182016040528015610f285781602001602082028036833780820191505090505b5090508181600081518110610f4057610f3f61532d565b5b602002602001019073ffffffffffffffffffffffffffffffffffffffff16908173ffffffffffffffffffffffffffffffffffffffff16815250508481600181518110610f8f57610f8e61532d565b5b602002602001019073ffffffffffffffffffffffffffffffffffffffff16908173ffffffffffffffffffffffffffffffffffffffff16815250508173ffffffffffffffffffffffffffffffffffffffff1663095ea7b3600160009054906101000a900473ffffffffffffffffffffffffffffffffffffffff16866040518363ffffffff1660e01b81526004016110269291906149bc565b602060405180830381600087803b15801561104057600080fd5b505af1158015611054573d6000803e3d6000fd5b505050506040513d601f19601f820116820180604052508101906110789190614513565b506000600160009054906101000a900473ffffffffffffffffffffffffffffffffffffffff1673ffffffffffffffffffffffffffffffffffffffff1663d06ca61f86846040518363ffffffff1660e01b81526004016110d8929190614dc0565b60006040518083038186803b1580156110f057600080fd5b505afa158015611104573d6000803e3d6000fd5b505050506040513d6000823e3d601f19601f8201168201806040525081019061112d91906144ca565b9050600160009054906101000a900473ffffffffffffffffffffffffffffffffffffffff1673ffffffffffffffffffffffffffffffffffffffff16637ff36ab586836001815181106111825761118161532d565b5b60200260200101518530426040518663ffffffff1660e01b81526004016111ac9493929190614df0565b6000604051808303818588803b1580156111c557600080fd5b505af11580156111d9573d6000803e3d6000fd5b50505050506040513d6000823e3d601f19601f8201168201806040525081019061120391906144ca565b50806001815181106112185761121761532d565b5b6020026020010151935050505092915050565b600080600160009054906101000a900473ffffffffffffffffffffffffffffffffffffffff1673ffffffffffffffffffffffffffffffffffffffff1663ad5c46486040518163ffffffff1660e01b815260040160206040518083038186803b15801561129657600080fd5b505afa1580156112aa573d6000803e3d6000fd5b505050506040513d601f19601f820116820180604052508101906112ce91906143e5565b90506000600267ffffffffffffffff8111156112ed576112ec61535c565b5b60405190808252806020026020018201604052801561131b5781602001602082028036833780820191505090505b50905081816000815181106113335761133261532d565b5b602002602001019073ffffffffffffffffffffffffffffffffffffffff16908173ffffffffffffffffffffffffffffffffffffffff168152505084816001815181106113825761138161532d565b5b602002602001019073ffffffffffffffffffffffffffffffffffffffff16908173ffffffffffffffffffffffffffffffffffffffff16815250508173ffffffffffffffffffffffffffffffffffffffff1663095ea7b3600160009054906101000a900473ffffffffffffffffffffffffffffffffffffffff16866040518363ffffffff1660e01b81526004016114199291906149bc565b602060405180830381600087803b15801561143357600080fd5b505af1158015611447573d6000803e3d6000fd5b505050506040513d601f19601f8201168201806040525081019061146b9190614513565b506000600160009054906101000a900473ffffffffffffffffffffffffffffffffffffffff1673ffffffffffffffffffffffffffffffffffffffff1663d06ca61f86846040518363ffffffff1660e01b81526004016114cb929190614dc0565b60006040518083038186803b1580156114e357600080fd5b505afa1580156114f7573d6000803e3d6000fd5b505050506040513d6000823e3d601f19601f8201168201806040525081019061152091906144ca565b9050806001815181106115365761153561532d565b5b6020026020010151935050505092915050565b60056020528060005260406000206000915090505481565b611569613f2a565b73ffffffffffffffffffffffffffffffffffffffff16611587612c66565b73ffffffffffffffffffffffffffffffffffffffff16146115dd576040517f08c379a00000000000000000000000000000000000000000000000000000000081526004016115d490614c85565b60405180910390fd5b6115e76000613f32565b565b816000805b600380549050811015611685578273ffffffffffffffffffffffffffffffffffffffff16600382815481106116265761162561532d565b5b9060005260206000200160009054906101000a900473ffffffffffffffffffffffffffffffffffffffff1673ffffffffffffffffffffffffffffffffffffffff16141561167257600191505b808061167d9061520e565b9150506115ee565b50806116c6576040517f08c379a00000000000000000000000000000000000000000000000000000000081526004016116bd90614cc5565b60405180910390fd5b600a60ff16600460003373ffffffffffffffffffffffffffffffffffffffff1673ffffffffffffffffffffffffffffffffffffffff1681526020019081526020016000206003018054905010611751576040517f08c379a000000000000000000000000000000000000000000000000000000000815260040161174890614bc5565b60405180910390fd5b6000600260003373ffffffffffffffffffffffffffffffffffffffff1673ffffffffffffffffffffffffffffffffffffffff16815260200190815260200160002054116117d3576040517f08c379a00000000000000000000000000000000000000000000000000000000081526004016117ca90614b65565b60405180910390fd5b60648310611816576040517f08c379a000000000000000000000000000000000000000000000000000000000815260040161180d90614ce5565b60405180910390fd5b60008311611859576040517f08c379a000000000000000000000000000000000000000000000000000000000815260040161185090614ba5565b60405180910390fd5b600460003373ffffffffffffffffffffffffffffffffffffffff1673ffffffffffffffffffffffffffffffffffffffff16815260200190815260200160002060000160009054906101000a900460ff16156118e9576040517f08c379a00000000000000000000000000000000000000000000000000000000081526004016118e090614d65565b60405180910390fd5b6000600460003373ffffffffffffffffffffffffffffffffffffffff1673ffffffffffffffffffffffffffffffffffffffff16815260200190815260200160002060010160008673ffffffffffffffffffffffffffffffffffffffff1673ffffffffffffffffffffffffffffffffffffffff16815260200190815260200160002054146119ab576040517f08c379a00000000000000000000000000000000000000000000000000000000081526004016119a290614d85565b60405180910390fd5b82600460003373ffffffffffffffffffffffffffffffffffffffff1673ffffffffffffffffffffffffffffffffffffffff16815260200190815260200160002060010160008673ffffffffffffffffffffffffffffffffffffffff1673ffffffffffffffffffffffffffffffffffffffff168152602001908152602001600020819055506064611a3a33613ff6565b1115611a7b576040517f08c379a0000000000000000000000000000000000000000000000000000000008152600401611a7290614d05565b60405180910390fd5b6000600460003373ffffffffffffffffffffffffffffffffffffffff1673ffffffffffffffffffffffffffffffffffffffff16815260200190815260200160002060020160008673ffffffffffffffffffffffffffffffffffffffff1673ffffffffffffffffffffffffffffffffffffffff16815260200190815260200160002081905550600460003373ffffffffffffffffffffffffffffffffffffffff1673ffffffffffffffffffffffffffffffffffffffff168152602001908152602001600020600301849080600181540180825580915050600190039060005260206000200160009091909190916101000a81548173ffffffffffffffffffffffffffffffffffffffff021916908373ffffffffffffffffffffffffffffffffffffffff1602179055507f74f265d2619fe6a0183c9524a5120afb2050287b300ca0770ae5834da23c20888484604051611bd49291906149bc565b60405180910390a150505050565b60046020528060005260406000206000915090508060000160009054906101000a900460ff16905081565b6000600260003373ffffffffffffffffffffffffffffffffffffffff1673ffffffffffffffffffffffffffffffffffffffff1681526020019081526020016000205411611c8f576040517f08c379a0000000000000000000000000000000000000000000000000000000008152600401611c8690614be5565b60405180910390fd5b600460003373ffffffffffffffffffffffffffffffffffffffff1673ffffffffffffffffffffffffffffffffffffffff16815260200190815260200160002060000160009054906101000a900460ff16611d1e576040517f08c379a0000000000000000000000000000000000000000000000000000000008152600401611d1590614c05565b60405180910390fd5b6000600260003373ffffffffffffffffffffffffffffffffffffffff1673ffffffffffffffffffffffffffffffffffffffff16815260200190815260200160002054905060008060008060005b600460003373ffffffffffffffffffffffffffffffffffffffff1673ffffffffffffffffffffffffffffffffffffffff1681526020019081526020016000206003018054905081101561210257600460003373ffffffffffffffffffffffffffffffffffffffff1673ffffffffffffffffffffffffffffffffffffffff1681526020019081526020016000206003018181548110611e0c57611e0b61532d565b5b9060005260206000200160009054906101000a900473ffffffffffffffffffffffffffffffffffffffff169150600460003373ffffffffffffffffffffffffffffffffffffffff1673ffffffffffffffffffffffffffffffffffffffff16815260200190815260200160002060010160008373ffffffffffffffffffffffffffffffffffffffff1673ffffffffffffffffffffffffffffffffffffffff16815260200190815260200160002054945060648587611ec99190615038565b611ed39190615007565b9250600260003373ffffffffffffffffffffffffffffffffffffffff1673ffffffffffffffffffffffffffffffffffffffff16815260200190815260200160002054831115611f57576040517f08c379a0000000000000000000000000000000000000000000000000000000008152600401611f4e90614b85565b60405180910390fd5b611f618284610e38565b93508383670de0b6b3a7640000611f789190615038565b611f829190615007565b6005600060038481548110611f9a57611f9961532d565b5b9060005260206000200160009054906101000a900473ffffffffffffffffffffffffffffffffffffffff1673ffffffffffffffffffffffffffffffffffffffff1673ffffffffffffffffffffffffffffffffffffffff1681526020019081526020016000208190555083600460003373ffffffffffffffffffffffffffffffffffffffff1673ffffffffffffffffffffffffffffffffffffffff16815260200190815260200160002060020160008473ffffffffffffffffffffffffffffffffffffffff1673ffffffffffffffffffffffffffffffffffffffff16815260200190815260200160002060008282546120929190614fb1565b9250508190555082600260003373ffffffffffffffffffffffffffffffffffffffff1673ffffffffffffffffffffffffffffffffffffffff16815260200190815260200160002060008282546120e89190615126565b9250508190555080806120fa9061520e565b915050611d6b565b505050505050565b60008060005b600460003373ffffffffffffffffffffffffffffffffffffffff1673ffffffffffffffffffffffffffffffffffffffff1681526020019081526020016000206003018054905081101561226357600460003373ffffffffffffffffffffffffffffffffffffffff1673ffffffffffffffffffffffffffffffffffffffff16815260200190815260200160002060030181815481106121b1576121b061532d565b5b9060005260206000200160009054906101000a900473ffffffffffffffffffffffffffffffffffffffff1692506121f083670de0b6b3a764000061122b565b9150816ec097ce7bc90715b34b9f100000000061220d9190615007565b600560008573ffffffffffffffffffffffffffffffffffffffff1673ffffffffffffffffffffffffffffffffffffffff16815260200190815260200160002081905550808061225b9061520e565b915050612110565b50600080600460003373ffffffffffffffffffffffffffffffffffffffff1673ffffffffffffffffffffffffffffffffffffffff1681526020019081526020016000206003018054905067ffffffffffffffff8111156122c6576122c561535c565b5b6040519080825280602002602001820160405280156122f45781602001602082028036833780820191505090505b5090506000805b600460003373ffffffffffffffffffffffffffffffffffffffff1673ffffffffffffffffffffffffffffffffffffffff1681526020019081526020016000206003018054905081101561250357600460003373ffffffffffffffffffffffffffffffffffffffff1673ffffffffffffffffffffffffffffffffffffffff168152602001908152602001600020600301818154811061239c5761239b61532d565b5b9060005260206000200160009054906101000a900473ffffffffffffffffffffffffffffffffffffffff169550600460003373ffffffffffffffffffffffffffffffffffffffff1673ffffffffffffffffffffffffffffffffffffffff16815260200190815260200160002060020160008773ffffffffffffffffffffffffffffffffffffffff1673ffffffffffffffffffffffffffffffffffffffff168152602001908152602001600020549350670de0b6b3a764000084600560008973ffffffffffffffffffffffffffffffffffffffff1673ffffffffffffffffffffffffffffffffffffffff1681526020019081526020016000205461249f9190615038565b6124a99190615007565b8382815181106124bc576124bb61532d565b5b6020026020010181815250508281815181106124db576124da61532d565b5b6020026020010151826124ee9190614fb1565b915080806124fb9061520e565b9150506122fb565b506000666a94d74f4300009050808261251c9190615126565b91506000806000600460003373ffffffffffffffffffffffffffffffffffffffff1673ffffffffffffffffffffffffffffffffffffffff1681526020019081526020016000206003018054905067ffffffffffffffff8111156125825761258161535c565b5b6040519080825280602002602001820160405280156125b05781602001602082028036833780820191505090505b5090506000600460003373ffffffffffffffffffffffffffffffffffffffff1673ffffffffffffffffffffffffffffffffffffffff1681526020019081526020016000206003018054905067ffffffffffffffff8111156126145761261361535c565b5b6040519080825280602002602001820160405280156126425781602001602082028036833780820191505090505b50905060005b600460003373ffffffffffffffffffffffffffffffffffffffff1673ffffffffffffffffffffffffffffffffffffffff1681526020019081526020016000206003018054905081101561284257600460003373ffffffffffffffffffffffffffffffffffffffff1673ffffffffffffffffffffffffffffffffffffffff16815260200190815260200160002060030181815481106126e9576126e861532d565b5b9060005260206000200160009054906101000a900473ffffffffffffffffffffffffffffffffffffffff169a50600460003373ffffffffffffffffffffffffffffffffffffffff1673ffffffffffffffffffffffffffffffffffffffff16815260200190815260200160002060010160008c73ffffffffffffffffffffffffffffffffffffffff1673ffffffffffffffffffffffffffffffffffffffff1681526020019081526020016000205494508781815181106127ab576127aa61532d565b5b6020026020010151606486896127c19190615038565b6127cb9190615007565b6127d59190615092565b9350600084131561280557838282815181106127f4576127f361532d565b5b60200260200101818152505061282f565b8361280f90615257565b8382815181106128225761282161532d565b5b6020026020010181815250505b808061283a9061520e565b915050612648565b50600080600090505b8351811015612a7e5760008482815181106128695761286861532d565b5b60200260200101511115612a6b57600460003373ffffffffffffffffffffffffffffffffffffffff1673ffffffffffffffffffffffffffffffffffffffff16815260200190815260200160002060030181815481106128cb576128ca61532d565b5b9060005260206000200160009054906101000a900473ffffffffffffffffffffffffffffffffffffffff169b50600560008d73ffffffffffffffffffffffffffffffffffffffff1673ffffffffffffffffffffffffffffffffffffffff16815260200190815260200160002054670de0b6b3a76400008583815181106129545761295361532d565b5b60200260200101516129669190615038565b6129709190615007565b915061297c8c83612ee7565b9a508a600260003373ffffffffffffffffffffffffffffffffffffffff1673ffffffffffffffffffffffffffffffffffffffff16815260200190815260200160002060008282546129cd9190614fb1565b9250508190555081600460003373ffffffffffffffffffffffffffffffffffffffff1673ffffffffffffffffffffffffffffffffffffffff16815260200190815260200160002060020160008e73ffffffffffffffffffffffffffffffffffffffff1673ffffffffffffffffffffffffffffffffffffffff1681526020019081526020016000206000828254612a639190615126565b925050819055505b8080612a769061520e565b91505061284b565b5060005b8251811015612c58576000838281518110612aa057612a9f61532d565b5b60200260200101511115612c4557600460003373ffffffffffffffffffffffffffffffffffffffff1673ffffffffffffffffffffffffffffffffffffffff1681526020019081526020016000206003018181548110612b0257612b0161532d565b5b9060005260206000200160009054906101000a900473ffffffffffffffffffffffffffffffffffffffff169b50828181518110612b4257612b4161532d565b5b60200260200101519150612b568c83610e38565b9a508a600460003373ffffffffffffffffffffffffffffffffffffffff1673ffffffffffffffffffffffffffffffffffffffff16815260200190815260200160002060020160008e73ffffffffffffffffffffffffffffffffffffffff1673ffffffffffffffffffffffffffffffffffffffff1681526020019081526020016000206000828254612be79190614fb1565b9250508190555081600260003373ffffffffffffffffffffffffffffffffffffffff1673ffffffffffffffffffffffffffffffffffffffff1681526020019081526020016000206000828254612c3d9190615126565b925050819055505b8080612c509061520e565b915050612a82565b505050505050505050505050565b60008060009054906101000a900473ffffffffffffffffffffffffffffffffffffffff16905090565b808160006001905060005b600380549050811015612d31578273ffffffffffffffffffffffffffffffffffffffff1660038281548110612cd257612cd161532d565b5b9060005260206000200160009054906101000a900473ffffffffffffffffffffffffffffffffffffffff1673ffffffffffffffffffffffffffffffffffffffff161415612d1e57600091505b8080612d299061520e565b915050612c9a565b5080612d72576040517f08c379a0000000000000000000000000000000000000000000000000000000008152600401612d6990614d25565b60405180910390fd5b612d7a613f2a565b73ffffffffffffffffffffffffffffffffffffffff16612d98612c66565b73ffffffffffffffffffffffffffffffffffffffff1614612dee576040517f08c379a0000000000000000000000000000000000000000000000000000000008152600401612de590614c85565b60405180910390fd5b6003849080600181540180825580915050600190039060005260206000200160009091909190916101000a81548173ffffffffffffffffffffffffffffffffffffffff021916908373ffffffffffffffffffffffffffffffffffffffff1602179055507ff59d0ae4e98bf93f09241ca4f8223fb0ecfebf4027c3087280ecec9c18d32f7584604051612e8091906149a1565b60405180910390a150505050565b6000600460008373ffffffffffffffffffffffffffffffffffffffff1673ffffffffffffffffffffffffffffffffffffffff16815260200190815260200160002060000160009054906101000a900460ff169050919050565b600080600160009054906101000a900473ffffffffffffffffffffffffffffffffffffffff1673ffffffffffffffffffffffffffffffffffffffff1663ad5c46486040518163ffffffff1660e01b815260040160206040518083038186803b158015612f5257600080fd5b505afa158015612f66573d6000803e3d6000fd5b505050506040513d601f19601f82011682018060405250810190612f8a91906143e5565b90506000600267ffffffffffffffff811115612fa957612fa861535c565b5b604051908082528060200260200182016040528015612fd75781602001602082028036833780820191505090505b5090508481600081518110612fef57612fee61532d565b5b602002602001019073ffffffffffffffffffffffffffffffffffffffff16908173ffffffffffffffffffffffffffffffffffffffff1681525050818160018151811061303e5761303d61532d565b5b602002602001019073ffffffffffffffffffffffffffffffffffffffff16908173ffffffffffffffffffffffffffffffffffffffff16815250508473ffffffffffffffffffffffffffffffffffffffff1663095ea7b3600160009054906101000a900473ffffffffffffffffffffffffffffffffffffffff16866040518363ffffffff1660e01b81526004016130d59291906149bc565b602060405180830381600087803b1580156130ef57600080fd5b505af1158015613103573d6000803e3d6000fd5b505050506040513d601f19601f820116820180604052508101906131279190614513565b506000600160009054906101000a900473ffffffffffffffffffffffffffffffffffffffff1673ffffffffffffffffffffffffffffffffffffffff1663d06ca61f86846040518363ffffffff1660e01b8152600401613187929190614dc0565b60006040518083038186803b15801561319f57600080fd5b505afa1580156131b3573d6000803e3d6000fd5b505050506040513d6000823e3d601f19601f820116820180604052508101906131dc91906144ca565b9050600160009054906101000a900473ffffffffffffffffffffffffffffffffffffffff1673ffffffffffffffffffffffffffffffffffffffff166318cbafe586836001815181106132315761323061532d565b5b60200260200101518530426040518663ffffffff1660e01b815260040161325c959493929190614e3c565b600060405180830381600087803b15801561327657600080fd5b505af115801561328a573d6000803e3d6000fd5b505050506040513d6000823e3d601f19601f820116820180604052508101906132b391906144ca565b50806001815181106132c8576132c761532d565b5b6020026020010151935050505092915050565b606080600060038054905067ffffffffffffffff8111156132ff576132fe61535c565b5b60405190808252806020026020018201604052801561332d5781602001602082028036833780820191505090505b509050600060038054905067ffffffffffffffff8111156133515761335061535c565b5b60405190808252806020026020018201604052801561337f5781602001602082028036833780820191505090505b50905060005b6003805490508110156134ce57600381815481106133a6576133a561532d565b5b9060005260206000200160009054906101000a900473ffffffffffffffffffffffffffffffffffffffff168382815181106133e4576133e361532d565b5b602002602001019073ffffffffffffffffffffffffffffffffffffffff16908173ffffffffffffffffffffffffffffffffffffffff168152505060056000600383815481106134365761343561532d565b5b9060005260206000200160009054906101000a900473ffffffffffffffffffffffffffffffffffffffff1673ffffffffffffffffffffffffffffffffffffffff1673ffffffffffffffffffffffffffffffffffffffff168152602001908152602001600020548282815181106134af576134ae61532d565b5b60200260200101818152505080806134c69061520e565b915050613385565b5081819350935050509091565b600080341161351f576040517f08c379a000000000000000000000000000000000000000000000000000000000815260040161351690614c65565b60405180910390fd5b34600260003373ffffffffffffffffffffffffffffffffffffffff1673ffffffffffffffffffffffffffffffffffffffff168152602001908152602001600020600082825461356e9190614fb1565b925050819055507fa8126f7572bb1fdeae5b5aa9ec126438b91f658a07873f009d041ae690f3a19333346040516135a69291906149bc565b60405180910390a1600260003373ffffffffffffffffffffffffffffffffffffffff1673ffffffffffffffffffffffffffffffffffffffff16815260200190815260200160002054905090565b600080600090505b600380549050811015613709576136586003828154811061361f5761361e61532d565b5b9060005260206000200160009054906101000a900473ffffffffffffffffffffffffffffffffffffffff16670de0b6b3a764000061122b565b9150816ec097ce7bc90715b34b9f10000000006136759190615007565b600560006003848154811061368d5761368c61532d565b5b9060005260206000200160009054906101000a900473ffffffffffffffffffffffffffffffffffffffff1673ffffffffffffffffffffffffffffffffffffffff1673ffffffffffffffffffffffffffffffffffffffff1681526020019081526020016000208190555080806137019061520e565b9150506135fb565b5050565b600460003373ffffffffffffffffffffffffffffffffffffffff1673ffffffffffffffffffffffffffffffffffffffff16815260200190815260200160002060000160009054906101000a900460ff1661379c576040517f08c379a000000000000000000000000000000000000000000000000000000000815260040161379390614c45565b60405180910390fd5b60008060005b600460003373ffffffffffffffffffffffffffffffffffffffff1673ffffffffffffffffffffffffffffffffffffffff16815260200190815260200160002060030180549050811015613b7e57600460003373ffffffffffffffffffffffffffffffffffffffff1673ffffffffffffffffffffffffffffffffffffffff16815260200190815260200160002060030181815481106138435761384261532d565b5b9060005260206000200160009054906101000a900473ffffffffffffffffffffffffffffffffffffffff1691506000600460003373ffffffffffffffffffffffffffffffffffffffff1673ffffffffffffffffffffffffffffffffffffffff16815260200190815260200160002060020160008473ffffffffffffffffffffffffffffffffffffffff1673ffffffffffffffffffffffffffffffffffffffff168152602001908152602001600020541115613ae45761398182600460003373ffffffffffffffffffffffffffffffffffffffff1673ffffffffffffffffffffffffffffffffffffffff16815260200190815260200160002060020160008573ffffffffffffffffffffffffffffffffffffffff1673ffffffffffffffffffffffffffffffffffffffff16815260200190815260200160002054612ee7565b925082600260003373ffffffffffffffffffffffffffffffffffffffff1673ffffffffffffffffffffffffffffffffffffffff16815260200190815260200160002060008282546139d29190614fb1565b925050819055506000600460003373ffffffffffffffffffffffffffffffffffffffff1673ffffffffffffffffffffffffffffffffffffffff16815260200190815260200160002060020160008473ffffffffffffffffffffffffffffffffffffffff1673ffffffffffffffffffffffffffffffffffffffff168152602001908152602001600020819055506000600460003373ffffffffffffffffffffffffffffffffffffffff1673ffffffffffffffffffffffffffffffffffffffff16815260200190815260200160002060010160008473ffffffffffffffffffffffffffffffffffffffff1673ffffffffffffffffffffffffffffffffffffffff168152602001908152602001600020819055505b600460003373ffffffffffffffffffffffffffffffffffffffff1673ffffffffffffffffffffffffffffffffffffffff168152602001908152602001600020600301805480613b3657613b356152fe565b5b6001900381819060005260206000200160006101000a81549073ffffffffffffffffffffffffffffffffffffffff021916905590558080613b769061520e565b9150506137a2565b506000600460003373ffffffffffffffffffffffffffffffffffffffff1673ffffffffffffffffffffffffffffffffffffffff16815260200190815260200160002060000160006101000a81548160ff0219169083151502179055507fb24dcbc2f0ea9133e820ca155e83232c8e2612051982b9edc7234fd0f3692cf933604051613c0991906149a1565b60405180910390a15050565b600460003373ffffffffffffffffffffffffffffffffffffffff1673ffffffffffffffffffffffffffffffffffffffff16815260200190815260200160002060000160009054906101000a900460ff1615613ca5576040517f08c379a0000000000000000000000000000000000000000000000000000000008152600401613c9c90614ca5565b60405180910390fd5b6001600460003373ffffffffffffffffffffffffffffffffffffffff1673ffffffffffffffffffffffffffffffffffffffff1681526020019081526020016000206003018054905011613d2d576040517f08c379a0000000000000000000000000000000000000000000000000000000008152600401613d2490614d45565b60405180910390fd5b6064613d3833613ff6565b14613d78576040517f08c379a0000000000000000000000000000000000000000000000000000000008152600401613d6f90614d05565b60405180910390fd5b6001600460003373ffffffffffffffffffffffffffffffffffffffff1673ffffffffffffffffffffffffffffffffffffffff16815260200190815260200160002060000160006101000a81548160ff0219169083151502179055507ff1ac3a3ea39c1e8920e24fd3e5dcf23814d0219a425b9bee1320a052696cb66f33604051613e0291906149a1565b60405180910390a1565b613e14613f2a565b73ffffffffffffffffffffffffffffffffffffffff16613e32612c66565b73ffffffffffffffffffffffffffffffffffffffff1614613e88576040517f08c379a0000000000000000000000000000000000000000000000000000000008152600401613e7f90614c85565b60405180910390fd5b600073ffffffffffffffffffffffffffffffffffffffff168173ffffffffffffffffffffffffffffffffffffffff161415613ef8576040517f08c379a0000000000000000000000000000000000000000000000000000000008152600401613eef90614b05565b60405180910390fd5b613f0181613f32565b50565b600160009054906101000a900473ffffffffffffffffffffffffffffffffffffffff1681565b600033905090565b60008060009054906101000a900473ffffffffffffffffffffffffffffffffffffffff169050816000806101000a81548173ffffffffffffffffffffffffffffffffffffffff021916908373ffffffffffffffffffffffffffffffffffffffff1602179055508173ffffffffffffffffffffffffffffffffffffffff168173ffffffffffffffffffffffffffffffffffffffff167f8be0079c531659141344cd1fd0a4f28419497f9722a3daafe3b4186f6b6457e060405160405180910390a35050565b6000806000905060005b600460008573ffffffffffffffffffffffffffffffffffffffff1673ffffffffffffffffffffffffffffffffffffffff1681526020019081526020016000206003018054905081101561416b57600460008573ffffffffffffffffffffffffffffffffffffffff1673ffffffffffffffffffffffffffffffffffffffff1681526020019081526020016000206001016000600460008773ffffffffffffffffffffffffffffffffffffffff1673ffffffffffffffffffffffffffffffffffffffff16815260200190815260200160002060030183815481106140e5576140e461532d565b5b9060005260206000200160009054906101000a900473ffffffffffffffffffffffffffffffffffffffff1673ffffffffffffffffffffffffffffffffffffffff1673ffffffffffffffffffffffffffffffffffffffff16815260200190815260200160002054826141569190614fb1565b915080806141639061520e565b915050614000565b5080915050919050565b600061418861418384614ed6565b614eb1565b905080838252602082019050828560208602820111156141ab576141aa615390565b5b60005b858110156141db57816141c188826142c5565b8452602084019350602083019250506001810190506141ae565b5050509392505050565b60006141f86141f384614f02565b614eb1565b9050808382526020820190508285602086028201111561421b5761421a615390565b5b60005b8581101561424b5781614231888261438e565b84526020840193506020830192505060018101905061421e565b5050509392505050565b600061426861426384614f02565b614eb1565b9050808382526020820190508285602086028201111561428b5761428a615390565b5b60005b858110156142bb57816142a188826143a3565b84526020840193506020830192505060018101905061428e565b5050509392505050565b6000813590506142d481615817565b92915050565b6000815190506142e981615817565b92915050565b600082601f8301126143045761430361538b565b5b8135614314848260208601614175565b91505092915050565b600082601f8301126143325761433161538b565b5b81356143428482602086016141e5565b91505092915050565b600082601f8301126143605761435f61538b565b5b8151614370848260208601614255565b91505092915050565b6000815190506143888161582e565b92915050565b60008135905061439d81615845565b92915050565b6000815190506143b281615845565b92915050565b6000602082840312156143ce576143cd61539a565b5b60006143dc848285016142c5565b91505092915050565b6000602082840312156143fb576143fa61539a565b5b6000614409848285016142da565b91505092915050565b600080604083850312156144295761442861539a565b5b6000614437858286016142c5565b92505060206144488582860161438e565b9150509250929050565b600080604083850312156144695761446861539a565b5b600083013567ffffffffffffffff81111561448757614486615395565b5b614493858286016142ef565b925050602083013567ffffffffffffffff8111156144b4576144b3615395565b5b6144c08582860161431d565b9150509250929050565b6000602082840312156144e0576144df61539a565b5b600082015167ffffffffffffffff8111156144fe576144fd615395565b5b61450a8482850161434b565b91505092915050565b6000602082840312156145295761452861539a565b5b600061453784828501614379565b91505092915050565b6000602082840312156145565761455561539a565b5b60006145648482850161438e565b91505092915050565b6000614579838361459d565b60208301905092915050565b60006145918383614974565b60208301905092915050565b6145a68161515a565b82525050565b6145b58161515a565b82525050565b60006145c682614f4e565b6145d08185614f7e565b93506145db83614f2e565b8060005b8381101561460c5781516145f3888261456d565b97506145fe83614f64565b9250506001810190506145df565b5085935050505092915050565b600061462482614f59565b61462e8185614f8f565b935061463983614f3e565b8060005b8381101561466a5781516146518882614585565b975061465c83614f71565b92505060018101905061463d565b5085935050505092915050565b6146808161516c565b82525050565b61468f816151b9565b82525050565b60006146a2602683614fa0565b91506146ad826153b0565b604082019050919050565b60006146c5601083614fa0565b91506146d0826153ff565b602082019050919050565b60006146e8601c83614fa0565b91506146f382615428565b602082019050919050565b600061470b601683614fa0565b915061471682615451565b602082019050919050565b600061472e601c83614fa0565b91506147398261547a565b602082019050919050565b6000614751602d83614fa0565b915061475c826154a3565b604082019050919050565b6000614774601c83614fa0565b915061477f826154f2565b602082019050919050565b6000614797601283614fa0565b91506147a28261551b565b602082019050919050565b60006147ba601883614fa0565b91506147c582615544565b602082019050919050565b60006147dd602783614fa0565b91506147e88261556d565b604082019050919050565b6000614800601583614fa0565b915061480b826155bc565b602082019050919050565b6000614823602683614fa0565b915061482e826155e5565b604082019050919050565b6000614846602083614fa0565b915061485182615634565b602082019050919050565b6000614869601883614fa0565b91506148748261565d565b602082019050919050565b600061488c601183614fa0565b915061489782615686565b602082019050919050565b60006148af602e83614fa0565b91506148ba826156af565b604082019050919050565b60006148d2601e83614fa0565b91506148dd826156fe565b602082019050919050565b60006148f5601883614fa0565b915061490082615727565b602082019050919050565b6000614918602883614fa0565b915061492382615750565b604082019050919050565b600061493b601e83614fa0565b91506149468261579f565b602082019050919050565b600061495e602b83614fa0565b9150614969826157c8565b604082019050919050565b61497d816151a2565b82525050565b61498c816151a2565b82525050565b61499b816151ac565b82525050565b60006020820190506149b660008301846145ac565b92915050565b60006040820190506149d160008301856145ac565b6149de6020830184614983565b9392505050565b60006060820190506149fa60008301866145ac565b614a076020830185614983565b614a146040830184614983565b949350505050565b60006020820190508181036000830152614a3681846145bb565b905092915050565b60006040820190508181036000830152614a5881856145bb565b90508181036020830152614a6c8184614619565b90509392505050565b6000602082019050614a8a6000830184614677565b92915050565b6000608082019050614aa56000830187614677565b8181036020830152614ab781866145bb565b90508181036040830152614acb8185614619565b90508181036060830152614adf8184614619565b905095945050505050565b6000602082019050614aff6000830184614686565b92915050565b60006020820190508181036000830152614b1e81614695565b9050919050565b60006020820190508181036000830152614b3e816146b8565b9050919050565b60006020820190508181036000830152614b5e816146db565b9050919050565b60006020820190508181036000830152614b7e816146fe565b9050919050565b60006020820190508181036000830152614b9e81614721565b9050919050565b60006020820190508181036000830152614bbe81614744565b9050919050565b60006020820190508181036000830152614bde81614767565b9050919050565b60006020820190508181036000830152614bfe8161478a565b9050919050565b60006020820190508181036000830152614c1e816147ad565b9050919050565b60006020820190508181036000830152614c3e816147d0565b9050919050565b60006020820190508181036000830152614c5e816147f3565b9050919050565b60006020820190508181036000830152614c7e81614816565b9050919050565b60006020820190508181036000830152614c9e81614839565b9050919050565b60006020820190508181036000830152614cbe8161485c565b9050919050565b60006020820190508181036000830152614cde8161487f565b9050919050565b60006020820190508181036000830152614cfe816148a2565b9050919050565b60006020820190508181036000830152614d1e816148c5565b9050919050565b60006020820190508181036000830152614d3e816148e8565b9050919050565b60006020820190508181036000830152614d5e8161490b565b9050919050565b60006020820190508181036000830152614d7e8161492e565b9050919050565b60006020820190508181036000830152614d9e81614951565b9050919050565b6000602082019050614dba6000830184614983565b92915050565b6000604082019050614dd56000830185614983565b8181036020830152614de781846145bb565b90509392505050565b6000608082019050614e056000830187614983565b8181036020830152614e1781866145bb565b9050614e2660408301856145ac565b614e336060830184614983565b95945050505050565b600060a082019050614e516000830188614983565b614e5e6020830187614983565b8181036040830152614e7081866145bb565b9050614e7f60608301856145ac565b614e8c6080830184614983565b9695505050505050565b6000602082019050614eab6000830184614992565b92915050565b6000614ebb614ecc565b9050614ec782826151dd565b919050565b6000604051905090565b600067ffffffffffffffff821115614ef157614ef061535c565b5b602082029050602081019050919050565b600067ffffffffffffffff821115614f1d57614f1c61535c565b5b602082029050602081019050919050565b6000819050602082019050919050565b6000819050602082019050919050565b600081519050919050565b600081519050919050565b6000602082019050919050565b6000602082019050919050565b600082825260208201905092915050565b600082825260208201905092915050565b600082825260208201905092915050565b6000614fbc826151a2565b9150614fc7836151a2565b9250827fffffffffffffffffffffffffffffffffffffffffffffffffffffffffffffffff03821115614ffc57614ffb6152a0565b5b828201905092915050565b6000615012826151a2565b915061501d836151a2565b92508261502d5761502c6152cf565b5b828204905092915050565b6000615043826151a2565b915061504e836151a2565b9250817fffffffffffffffffffffffffffffffffffffffffffffffffffffffffffffffff0483118215151615615087576150866152a0565b5b828202905092915050565b600061509d82615178565b91506150a883615178565b9250827f8000000000000000000000000000000000000000000000000000000000000000018212600084121516156150e3576150e26152a0565b5b827f7fffffffffffffffffffffffffffffffffffffffffffffffffffffffffffffff01821360008412161561511b5761511a6152a0565b5b828203905092915050565b6000615131826151a2565b915061513c836151a2565b92508282101561514f5761514e6152a0565b5b828203905092915050565b600061516582615182565b9050919050565b60008115159050919050565b6000819050919050565b600073ffffffffffffffffffffffffffffffffffffffff82169050919050565b6000819050919050565b600060ff82169050919050565b60006151c4826151cb565b9050919050565b60006151d682615182565b9050919050565b6151e68261539f565b810181811067ffffffffffffffff821117156152055761520461535c565b5b80604052505050565b6000615219826151a2565b91507fffffffffffffffffffffffffffffffffffffffffffffffffffffffffffffffff82141561524c5761524b6152a0565b5b600182019050919050565b600061526282615178565b91507f8000000000000000000000000000000000000000000000000000000000000000821415615295576152946152a0565b5b816000039050919050565b7f4e487b7100000000000000000000000000000000000000000000000000000000600052601160045260246000fd5b7f4e487b7100000000000000000000000000000000000000000000000000000000600052601260045260246000fd5b7f4e487b7100000000000000000000000000000000000000000000000000000000600052603160045260246000fd5b7f4e487b7100000000000000000000000000000000000000000000000000000000600052603260045260246000fd5b7f4e487b7100000000000000000000000000000000000000000000000000000000600052604160045260246000fd5b600080fd5b600080fd5b600080fd5b600080fd5b6000601f19601f8301169050919050565b7f4f776e61626c653a206e6577206f776e657220697320746865207a65726f206160008201527f6464726573730000000000000000000000000000000000000000000000000000602082015250565b7f4e6f7420656e6f7567682066756e647300000000000000000000000000000000600082015250565b7f4d617820616d6f756e74206f6620746f6b656e7320616c6c6f77656400000000600082015250565b7f41206465706f736974206d757374206265206d61646500000000000000000000600082015250565b7f52656163686564206d61782062616c616e636520746f207370656e6400000000600082015250565b7f546865206d696e696d756d2070657263656e7461676520666f7220612067697660008201527f656e206173736574206973203100000000000000000000000000000000000000602082015250565b7f4d617820616d6f756e74206f6620746f6b656e73207265616368656400000000600082015250565b7f4e6f7420656e6f7567682062616c616e63650000000000000000000000000000600082015250565b7f506f7274666f6c696f206d757374206265207365616c65640000000000000000600082015250565b7f4d697373696e67206461746120666f722061737365747320616e64207065726360008201527f656e746167657300000000000000000000000000000000000000000000000000602082015250565b7f5468657265206973206e6f20706f7274666f6c696f0000000000000000000000600082015250565b7f4465706f7369742076616c7565206d757374206265206772617465722074686160008201527f6e207a65726f0000000000000000000000000000000000000000000000000000602082015250565b7f4f776e61626c653a2063616c6c6572206973206e6f7420746865206f776e6572600082015250565b7f506f7274666f6c696f20616c7265616479207365616c65640000000000000000600082015250565b7f546f6b656e206e6f7420616c6c6f776564000000000000000000000000000000600082015250565b7f546865206d6178696d756d2070657263656e7461676520666f7220612067697660008201527f656e206173736574206973203939000000000000000000000000000000000000602082015250565b7f496e76616c696420706f7274666f6c696f20646973747269627574696f6e0000600082015250565b7f417373657420697320616c6c6f77656420616c72656164790000000000000000600082015250565b7f506f7274666f6c696f206d75737420636f6e7461696e206174206c656173742060008201527f3220617373657473000000000000000000000000000000000000000000000000602082015250565b7f506f7274666f6c696f206e6f74206f70656e20666f72206368616e6765730000600082015250565b7f506f7274666f6c696f20617373657420616c726561647920657869737473206960008201527f6e20706f7274666f6c696f000000000000000000000000000000000000000000602082015250565b6158208161515a565b811461582b57600080fd5b50565b6158378161516c565b811461584257600080fd5b50565b61584e816151a2565b811461585957600080fd5b5056fea2646970667358221220049bc393780339b4c220c8dc7c324243fa682772c81e2ee72293a20e827b180f64736f6c63430008060033",
  "immutableReferences": {},
  "source": "// SPDX-License-Identifier: MIT\npragma solidity 0.8.6;\n\nimport \"@openzeppelin/contracts/access/Ownable.sol\";\nimport './interfaces/IUniswapV2Router02.sol';\nimport './interfaces/IERC20.sol';\n\n/**\n * @title Hold a user portfolio with multiple assets\n * @author Gabriel R. Dias\n * @notice This is an experimental contract, don't use in production environment\n */\ncontract Balancer is Ownable {\n\n    // -----------------------------------------------\n    // Properties\n    // -----------------------------------------------\n\n    IUniswapV2Router02 public router;\n\n    /// @notice Holds an account balance in the contract (not assigned to any asset in a portfolio)\n    mapping(address => uint) public balances;\n\n    /// @notice allowed assets that can be part of a portfolio (to be edited only by contract owner)\n    address[] public allowedAssets;\n\n    /// @notice the max amount of assets an account can add in a portfolio\n    uint8 public constant MAX_PORTFOLIO_ASSETS = 10;\n\n    struct Portfolio {\n        /// @notice once a portfolio is sealed no more changes are allowed in it (it must be deleted)\n        /// @dev sealed is a reserved word\n        bool sealedPortfolio;\n        mapping(address => uint) assetPercentages;\n        mapping(address => uint) assetBalances;\n        /// @dev this array make it easy to iterate over the portfolio assets\n        address[] assets;\n    }\n\n    /// @notice Holds an account portfolio\n    mapping(address => Portfolio) public portfolios;\n\n    // -----------------------------------------------\n    // Events\n    // -----------------------------------------------\n\n    /// @notice Emitted when a new allowed asset is added to the contract\n    /// @param assetAddress The asset address\n    event LogAllowedAssetAdded(address assetAddress);\n\n    /// @notice Emitted when a new deposit is made\n    /// @param accountAddress The deposit address\n    /// @param amount The deposit amount\n    event LogDepositMade(address accountAddress, uint amount);\n\n    /// @notice Emitted when a withdraw is made\n    /// @param accountAddress The withdraw address\n    /// @param withdrawAmount The withdraw amount\n    /// @param newBalance The new balance after the withdraw\n    event LogWithdrawal(\n        address accountAddress,\n        uint withdrawAmount,\n        uint newBalance\n    );\n\n    /// @notice Emitted when a new asset is added to a portfolio\n    /// @param assetAddress The asset address\n    /// @param percentage The assigned percentage\n    event LogPortfolioAssetAdded(address assetAddress, uint percentage);\n\n    /// @notice Emitted when a portfolio is sealed\n    /// @param accountAddress The account which performed the operation\n    event LogPortfolioSealed(address accountAddress);\n\n    /// @notice Emitted when a portfolio is deleted\n    /// @param accountAddress The account which performed the operation\n    event LogPortfolioDeleted(address accountAddress);\n\n    // -----------------------------------------------\n    // Modifiers\n    // -----------------------------------------------\n\n    /// @notice Check is a valid asset\n    /// @param _assetAddress The address of the asset to check\n    modifier isValidAsset(address _assetAddress) {\n        // TODO: check the address is a ERC20 token which supports 18 decimals\n        _;\n    }\n\n    /// @notice Check the asset is not already added to the allowed list\n    /// @param _assetAddress The address of the token to be added\n    modifier isNewAllowedAsset(address _assetAddress) {\n        bool isNew = true;\n        for (uint i; i < allowedAssets.length; i++) {\n            if (allowedAssets[i] == _assetAddress) {\n                isNew = false;\n            }\n        }\n        require(isNew, \"Asset is allowed already\");\n        _;\n    }\n\n    /// @notice Check if the asset is allowed for use in the contract\n    /// @param _assetAddress The address of the token to be added\n    modifier isAllowedAsset(address _assetAddress) {\n        bool isAllowed = false;\n        for (uint i; i < allowedAssets.length; i++) {\n            if (allowedAssets[i] == _assetAddress) {\n                isAllowed = true;\n            }\n        }\n        require(isAllowed, \"Token not allowed\");\n        _;\n    }\n\n    // -----------------------------------------------\n    // Methods\n    // -----------------------------------------------\n\n    // constructor\n    constructor (address _router) {\n        // uniswap router\n        router = IUniswapV2Router02(_router);\n    }\n\n    // fallback method\n    receive() external payable {}\n\n    /// @notice Let the contract owner add new allowed tokens\n    /// @param _assetAddress Token address\n    function addAllowedAsset(address _assetAddress)\n    public\n    isValidAsset(_assetAddress)\n    isNewAllowedAsset(_assetAddress)\n    onlyOwner\n    {\n        allowedAssets.push(_assetAddress);\n\n        emit LogAllowedAssetAdded(_assetAddress);\n    }\n    \n    /// @return The allowed assets in the contract\n    function allowedAssetsList() public view returns (address[] memory) {\n        return allowedAssets;\n    }\n\n    /// @notice Reveal an account portfolio\n    /// @param _accountAddress The portfolio account\n    /// @return The account portfolio\n    function fetchPortfolio(address _accountAddress) public view returns\n    (\n        bool,\n        address[] memory,\n        uint[] memory,\n        uint[] memory\n    )\n    {\n        uint count = portfolios[_accountAddress].assets.length;\n\n        address assetAddress;\n        address[] memory assets = new address[](count);\n        uint[] memory percentages = new uint[](count);\n        uint[] memory assetBalances = new uint[](count);\n\n        for (uint i = 0; i < count; i++) {\n            assetAddress = portfolios[_accountAddress].assets[i];\n            assets[i] = assetAddress;\n            percentages[i] = portfolios[_accountAddress].assetPercentages[assetAddress];\n            assetBalances[i] = portfolios[_accountAddress].assetBalances[assetAddress];\n        }\n\n        return (\n            portfolios[_accountAddress].sealedPortfolio,\n            assets,\n            percentages,\n            assetBalances\n        );\n    }\n\n    /// @notice Determines whether a portfolio is sealed or not\n    /// @param _accountAddress The portfolio account\n    /// @return Returns boolean answering the question\n    function isPortfolioSealed(address _accountAddress) public view returns (bool) {\n        return portfolios[_accountAddress].sealedPortfolio;\n    }\n\n    /// @notice Deposit ether in the contract\n    /// @return The balance of the account after the deposit is made\n    function deposit() public payable returns (uint) {\n        require(msg.value > 0, \"Deposit value must be grater than zero\");\n        balances[msg.sender] += msg.value;\n        emit LogDepositMade(msg.sender, msg.value);\n\n        return balances[msg.sender];\n    }\n\n    /// @notice Withdraw ether from the contract\n    /// @dev This does not return any excess ether sent to it\n    /// @param _withdrawAmount amount to withdraw\n    /// @return The balance remaining for the account performing the operation\n    function withdraw(uint _withdrawAmount) public returns (uint) {\n        require(balances[msg.sender] >= _withdrawAmount, \"Not enough funds\");\n        balances[msg.sender] -= _withdrawAmount;\n\n        payable(msg.sender).transfer(_withdrawAmount);\n\n        emit LogWithdrawal(msg.sender, _withdrawAmount, balances[msg.sender]);\n\n        return balances[msg.sender];\n    }\n\n    /// @notice Calculate the sum af all asset percentages for a given account in a portfolio\n    /// @param _accountAddress The account address\n    /// @return The total sum\n    function calculatePortfolioTotalAssignments(address _accountAddress)\n    private\n    view\n    returns (uint)\n    {\n        uint total = 0;\n        for (uint i = 0; i < portfolios[_accountAddress].assets.length; i++) {\n            total += portfolios[_accountAddress].assetPercentages[portfolios[_accountAddress].assets[i]];\n        }\n\n        return total;\n    }\n\n    /// @notice Add one asset to the portfolio\n    /// @param _assetAddress Asset address (must be an allowed token)\n    /// @param _percentage The allocation percentage for the given asset\n    function addPortfolioAsset(address _assetAddress, uint _percentage)\n    public\n    isAllowedAsset(_assetAddress)\n    {\n        require(\n            portfolios[msg.sender].assets.length < MAX_PORTFOLIO_ASSETS,\n            \"Max amount of tokens reached\"\n        );\n        require(\n            balances[msg.sender] > 0,\n            \"A deposit must be made\"\n        );\n        require(\n            _percentage < 100,\n            \"The maximum percentage for a given asset is 99\"\n        );\n        require(\n            _percentage > 0,\n            \"The minimum percentage for a given asset is 1\"\n        );\n        require(\n            !portfolios[msg.sender].sealedPortfolio,\n            \"Portfolio not open for changes\"\n        );\n        require(\n            portfolios[msg.sender].assetPercentages[_assetAddress] == 0,\n            \"Portfolio asset already exists in portfolio\"\n        );\n\n        portfolios[msg.sender].assetPercentages[_assetAddress] = _percentage;\n        // NOTE: we might not reached the 100% of the portfolio assignments yet\n        require(calculatePortfolioTotalAssignments(msg.sender) <= 100, \"Invalid portfolio distribution\");\n\n        // NOTE: this is redundant because the default value should be zero anyway\n        portfolios[msg.sender].assetBalances[_assetAddress] = 0;\n        portfolios[msg.sender].assets.push(_assetAddress);\n\n        emit LogPortfolioAssetAdded(_assetAddress, _percentage);\n    }\n\n    /// @notice Check the portfolio integrity and close it for changes\n    function sealPortfolio() public {\n        require(!portfolios[msg.sender].sealedPortfolio, \"Portfolio already sealed\");\n        require(portfolios[msg.sender].assets.length > 1, \"Portfolio must contain at least 2 assets\");\n        require(calculatePortfolioTotalAssignments(msg.sender) == 100, \"Invalid portfolio distribution\");\n\n        portfolios[msg.sender].sealedPortfolio = true;\n        emit LogPortfolioSealed(msg.sender);\n    }\n\n    function createFullPortfolio(address[] memory assets, uint[] memory percentages) public {\n\n        require(!portfolios[msg.sender].sealedPortfolio, \"Portfolio already sealed\");\n        require(assets.length == percentages.length, \"Missing data for assets and percentages\");\n        require(assets.length <= MAX_PORTFOLIO_ASSETS, \"Max amount of tokens allowed\");\n\n        for (uint i = 0; i < assets.length; i++) {\n            addPortfolioAsset(assets[i], percentages[i]);\n        }\n\n        sealPortfolio();\n    }\n\n    /// @notice Stop the portfolio rebalancing and return the assets balance to ether\n    function deletePortfolio() public {\n        require(portfolios[msg.sender].sealedPortfolio, \"There is no portfolio\");\n\n        uint bought;\n        address assetAddress;\n        for (uint i = 0; i < portfolios[msg.sender].assets.length; i++) {\n\n            assetAddress = portfolios[msg.sender].assets[i];\n            if (portfolios[msg.sender].assetBalances[assetAddress] > 0) {\n                bought = swapTokensForETH(\n                    assetAddress,\n                    portfolios[msg.sender].assetBalances[assetAddress]\n                );\n\n                // increment the account balance with the result of the assets sold\n                balances[msg.sender] += bought;\n                portfolios[msg.sender].assetBalances[assetAddress] = 0;\n                portfolios[msg.sender].assetPercentages[assetAddress] = 0;\n            }\n\n            // delete the asset from the portfolio assets list\n            portfolios[msg.sender].assets.pop();\n        }\n\n        portfolios[msg.sender].sealedPortfolio = false;\n\n        emit LogPortfolioDeleted(msg.sender);\n    }\n\n    /// @notice Run the first asset distribution once the portfolio is sealed\n    function runInitialPortfolioDistribution() public {\n        require(balances[msg.sender] > 0, \"Not enough balance\");\n        require(portfolios[msg.sender].sealedPortfolio, \"Portfolio must be sealed\");\n\n        uint initialBalance = balances[msg.sender];\n        uint percentage;\n        uint bought;\n        uint desiredAmountToSpend;\n        address _assetAddress;\n        for (uint i = 0; i < portfolios[msg.sender].assets.length; i++) {\n            _assetAddress = portfolios[msg.sender].assets[i];\n            percentage = portfolios[msg.sender].assetPercentages[_assetAddress];\n            desiredAmountToSpend = (initialBalance * percentage) / 100;\n\n            require(\n                desiredAmountToSpend <= balances[msg.sender],\n                \"Reached max balance to spend\"\n            );\n\n            bought = swapETHForTokens(_assetAddress, desiredAmountToSpend);\n\n            assetPrices[allowedAssets[i]] = (10**18 * desiredAmountToSpend) / bought;\n            portfolios[msg.sender].assetBalances[_assetAddress] += bought;\n            balances[msg.sender] -= desiredAmountToSpend;\n        }\n    }\n\n    /// @notice Swap ETH amount for tokens\n    /// @param _destTokenAddress The destination token address\n    /// @param _amountIn The amount of ETH to exchange\n    /// @return The amount of tokens bought\n    function swapETHForTokens(address _destTokenAddress, uint _amountIn)\n    public\n    returns (uint)\n    {\n        /// @dev When using ether in the path, the WETH token address is needed because there is no address for ether ;)\n        address origTokenAddress = router.WETH();\n\n        address[] memory path = new address[](2);\n        path[0] = origTokenAddress;\n        path[1] = _destTokenAddress;\n\n        IERC20(origTokenAddress).approve(address(router), _amountIn);\n\n        uint[] memory minOuts = router.getAmountsOut(_amountIn, path);\n\n        router.swapExactETHForTokens{value: _amountIn}(\n            minOuts[1],\n            path,\n            address(this),\n            block.timestamp\n        );\n\n        return minOuts[1];\n    }\n\n    /// @notice Swap tokens amount for ETH\n    /// @param _origTokenAddress The origin token address\n    /// @param _amountIn The amount of tokens to exchange\n    /// @return The amount of ETH bought\n    function swapTokensForETH(address _origTokenAddress, uint _amountIn)\n    public\n    returns (uint)\n    {\n        address destTokenAddress = router.WETH();\n\n        address[] memory path = new address[](2);\n        path[0] = _origTokenAddress;\n        path[1] = destTokenAddress;\n\n        IERC20(_origTokenAddress).approve(address(router), _amountIn);\n\n        uint[] memory minOuts = router.getAmountsOut(_amountIn, path);\n\n        router.swapExactTokensForETH(\n            _amountIn,\n            minOuts[1],\n            path,\n            address(this),\n            block.timestamp\n        );\n\n        return minOuts[1];\n    }\n\n    // -----------------------------------------------\n    // Experimental\n    // -----------------------------------------------\n\n    // we need this to simulate a price change. We need a source to populate these values\n    mapping(address => uint) public assetPrices;\n\n    function fetchAssetsPrices() public view returns (address[] memory, uint[] memory) {\n        address[] memory assets = new address[](allowedAssets.length);\n        uint[] memory prices = new uint[](allowedAssets.length);\n\n        for (uint i; i < allowedAssets.length; i++) {\n            assets[i] = allowedAssets[i];\n            prices[i] = assetPrices[allowedAssets[i]];\n        }\n\n        return (assets, prices);\n    }\n\n    function updateAssetPrices() external {\n        uint bought;\n        for (uint i = 0; i < allowedAssets.length; i++) {\n            bought = checkAmountOut(allowedAssets[i], 10**18);\n            assetPrices[allowedAssets[i]] = (10**18 * 10**18) / bought;\n        }\n    }\n\n    function checkAmountOut(address token2, uint amount)\n    public\n    returns (uint)\n    {\n        address token1 = router.WETH();\n\n        address[] memory path = new address[](2);\n        path[0] = token1;\n        path[1] = token2;\n\n        IERC20(token1).approve(address(router), amount);\n\n        uint[] memory minOuts = router.getAmountsOut(amount, path);\n\n        return minOuts[1];\n    }\n\n    function runPortfolioRebalance() external {\n\n        // 1. update portfolio asset prices\n        address assetAddress;\n        uint bought;\n        for (uint i = 0; i < portfolios[msg.sender].assets.length; i++) {\n            assetAddress = portfolios[msg.sender].assets[i];\n            bought = checkAmountOut(assetAddress, 10**18);\n            assetPrices[assetAddress] = (10**18 * 10**18) / bought;\n        }\n\n        // 2. calculate the new portfolio total value\n        uint currentHolding;\n        uint[] memory newHoldingValue = new uint[](portfolios[msg.sender].assets.length);\n        uint newPortfolioTotalBalance = 0;\n        for (uint i = 0; i < portfolios[msg.sender].assets.length; i++) {\n            assetAddress = portfolios[msg.sender].assets[i];\n\n            // get the current holding for the coin\n            currentHolding = portfolios[msg.sender].assetBalances[assetAddress];\n\n            newHoldingValue[i] = (assetPrices[assetAddress] * currentHolding) / 10**18;\n            newPortfolioTotalBalance += newHoldingValue[i];\n        }\n\n        // TODO: is the new balance is not that grater than the old balance, then stop!\n\n        // 3. Prepare buy and sell orders\n        uint gasReserve = 30000000000000000;\n        newPortfolioTotalBalance = newPortfolioTotalBalance - gasReserve;\n\n        uint percentage;\n        int diff;\n        uint[] memory sellOrders = new uint[](portfolios[msg.sender].assets.length);\n        uint[] memory buyOrders = new uint[](portfolios[msg.sender].assets.length);\n        for (uint i = 0; i < portfolios[msg.sender].assets.length; i++) {\n            assetAddress = portfolios[msg.sender].assets[i];\n\n            // get current percentage\n            percentage = portfolios[msg.sender].assetPercentages[assetAddress];\n            diff =\n            int((newPortfolioTotalBalance * percentage) / 100) -\n            int(newHoldingValue[i]);\n\n            if (diff > 0) {\n                buyOrders[i] = uint(diff);\n            } else {\n                sellOrders[i] = uint(-diff);\n            }\n        }\n\n        // 4. Execute sell orders\n        uint amountToSwap;\n        for (uint i = 0; i < sellOrders.length; i++) {\n            if (sellOrders[i] > 0) {\n                assetAddress = portfolios[msg.sender].assets[i];\n                amountToSwap = (sellOrders[i] * 10**18) / assetPrices[assetAddress];\n\n                bought = swapTokensForETH(assetAddress, amountToSwap);\n                balances[msg.sender] += bought;\n                portfolios[msg.sender].assetBalances[assetAddress] -= amountToSwap;\n            }\n        }\n\n        // 5. Execute buy orders\n        for (uint i = 0; i < buyOrders.length; i++) {\n            if (buyOrders[i] > 0) {\n                assetAddress = portfolios[msg.sender].assets[i];\n                amountToSwap = buyOrders[i];\n\n                bought = swapETHForTokens(assetAddress, amountToSwap);\n\n                portfolios[msg.sender].assetBalances[assetAddress] += bought;\n                balances[msg.sender] -= amountToSwap;\n            }\n        }\n\n        // 6. Handle any remaining balance\n        // TODO: handle the gas reserve properly\n        //balances[msg.sender] += gasReserve;\n    }\n}\n",
  "sourcePath": "/Users/gabrieldias/code/bootcamp_consensys/blockchain-developer-bootcamp-final-project/contracts/Balancer.sol",
  "compiler": {
    "name": "solc",
    "version": "0.8.6+commit.11564f7e.Emscripten.clang"
  },
  "schemaVersion": "3.4.1",
  "updatedAt": "2021-11-28T08:20:26.357Z",
  "networkType": "ethereum",
  "devdoc": {
    "author": "Gabriel R. Dias",
    "events": {
      "LogAllowedAssetAdded(address)": {
        "params": {
          "assetAddress": "The asset address"
        }
      },
      "LogDepositMade(address,uint256)": {
        "params": {
          "accountAddress": "The deposit address",
          "amount": "The deposit amount"
        }
      },
      "LogPortfolioAssetAdded(address,uint256)": {
        "params": {
          "assetAddress": "The asset address",
          "percentage": "The assigned percentage"
        }
      },
      "LogPortfolioDeleted(address)": {
        "params": {
          "accountAddress": "The account which performed the operation"
        }
      },
      "LogPortfolioSealed(address)": {
        "params": {
          "accountAddress": "The account which performed the operation"
        }
      },
      "LogWithdrawal(address,uint256,uint256)": {
        "params": {
          "accountAddress": "The withdraw address",
          "newBalance": "The new balance after the withdraw",
          "withdrawAmount": "The withdraw amount"
        }
      }
    },
    "kind": "dev",
    "methods": {
      "addAllowedAsset(address)": {
        "params": {
          "_assetAddress": "Token address"
        }
      },
      "addPortfolioAsset(address,uint256)": {
        "params": {
          "_assetAddress": "Asset address (must be an allowed token)",
          "_percentage": "The allocation percentage for the given asset"
        }
      },
      "allowedAssetsList()": {
        "returns": {
          "_0": "The allowed assets in the contract"
        }
      },
      "deposit()": {
        "returns": {
          "_0": "The balance of the account after the deposit is made"
        }
      },
      "fetchPortfolio(address)": {
        "params": {
          "_accountAddress": "The portfolio account"
        },
        "returns": {
          "_0": "The account portfolio"
        }
      },
      "isPortfolioSealed(address)": {
        "params": {
          "_accountAddress": "The portfolio account"
        },
        "returns": {
          "_0": "Returns boolean answering the question"
        }
      },
      "owner()": {
        "details": "Returns the address of the current owner."
      },
      "renounceOwnership()": {
        "details": "Leaves the contract without owner. It will not be possible to call `onlyOwner` functions anymore. Can only be called by the current owner. NOTE: Renouncing ownership will leave the contract without an owner, thereby removing any functionality that is only available to the owner."
      },
      "swapETHForTokens(address,uint256)": {
        "params": {
          "_amountIn": "The amount of ETH to exchange",
          "_destTokenAddress": "The destination token address"
        },
        "returns": {
          "_0": "The amount of tokens bought"
        }
      },
      "swapTokensForETH(address,uint256)": {
        "params": {
          "_amountIn": "The amount of tokens to exchange",
          "_origTokenAddress": "The origin token address"
        },
        "returns": {
          "_0": "The amount of ETH bought"
        }
      },
      "transferOwnership(address)": {
        "details": "Transfers ownership of the contract to a new account (`newOwner`). Can only be called by the current owner."
      },
      "withdraw(uint256)": {
        "details": "This does not return any excess ether sent to it",
        "params": {
          "_withdrawAmount": "amount to withdraw"
        },
        "returns": {
          "_0": "The balance remaining for the account performing the operation"
        }
      }
    },
    "title": "Hold a user portfolio with multiple assets",
    "version": 1
  },
  "userdoc": {
    "events": {
      "LogAllowedAssetAdded(address)": {
        "notice": "Emitted when a new allowed asset is added to the contract"
      },
      "LogDepositMade(address,uint256)": {
        "notice": "Emitted when a new deposit is made"
      },
      "LogPortfolioAssetAdded(address,uint256)": {
        "notice": "Emitted when a new asset is added to a portfolio"
      },
      "LogPortfolioDeleted(address)": {
        "notice": "Emitted when a portfolio is deleted"
      },
      "LogPortfolioSealed(address)": {
        "notice": "Emitted when a portfolio is sealed"
      },
      "LogWithdrawal(address,uint256,uint256)": {
        "notice": "Emitted when a withdraw is made"
      }
    },
    "kind": "user",
    "methods": {
      "MAX_PORTFOLIO_ASSETS()": {
        "notice": "the max amount of assets an account can add in a portfolio"
      },
      "addAllowedAsset(address)": {
        "notice": "Let the contract owner add new allowed tokens"
      },
      "addPortfolioAsset(address,uint256)": {
        "notice": "Add one asset to the portfolio"
      },
      "allowedAssets(uint256)": {
        "notice": "allowed assets that can be part of a portfolio (to be edited only by contract owner)"
      },
      "balances(address)": {
        "notice": "Holds an account balance in the contract (not assigned to any asset in a portfolio)"
      },
      "deletePortfolio()": {
        "notice": "Stop the portfolio rebalancing and return the assets balance to ether"
      },
      "deposit()": {
        "notice": "Deposit ether in the contract"
      },
      "fetchPortfolio(address)": {
        "notice": "Reveal an account portfolio"
      },
      "isPortfolioSealed(address)": {
        "notice": "Determines whether a portfolio is sealed or not"
      },
      "portfolios(address)": {
        "notice": "Holds an account portfolio"
      },
      "runInitialPortfolioDistribution()": {
        "notice": "Run the first asset distribution once the portfolio is sealed"
      },
      "sealPortfolio()": {
        "notice": "Check the portfolio integrity and close it for changes"
      },
      "swapETHForTokens(address,uint256)": {
        "notice": "Swap ETH amount for tokens"
      },
      "swapTokensForETH(address,uint256)": {
        "notice": "Swap tokens amount for ETH"
      },
      "withdraw(uint256)": {
        "notice": "Withdraw ether from the contract"
      }
    },
    "notice": "This is an experimental contract, don't use in production environment",
    "version": 1
  }
}