{
  "contractName": "Balancer",
  "abi": [
    {
      "inputs": [
        {
          "internalType": "address",
          "name": "_router",
          "type": "address"
        }
      ],
      "stateMutability": "nonpayable",
      "type": "constructor"
    },
    {
      "anonymous": false,
      "inputs": [
        {
          "indexed": false,
          "internalType": "address",
          "name": "assetAddress",
          "type": "address"
        }
      ],
      "name": "LogAllowedAssetAdded",
      "type": "event"
    },
    {
      "anonymous": false,
      "inputs": [
        {
          "indexed": false,
          "internalType": "address",
          "name": "accountAddress",
          "type": "address"
        },
        {
          "indexed": false,
          "internalType": "uint256",
          "name": "amount",
          "type": "uint256"
        }
      ],
      "name": "LogDepositMade",
      "type": "event"
    },
    {
      "anonymous": false,
      "inputs": [
        {
          "indexed": false,
          "internalType": "address",
          "name": "accountAddress",
          "type": "address"
        },
        {
          "indexed": false,
          "internalType": "address[]",
          "name": "assets",
          "type": "address[]"
        },
        {
          "indexed": false,
          "internalType": "uint256[]",
          "name": "percentages",
          "type": "uint256[]"
        }
      ],
      "name": "LogPortfolioCreated",
      "type": "event"
    },
    {
      "anonymous": false,
      "inputs": [
        {
          "indexed": false,
          "internalType": "address",
          "name": "accountAddress",
          "type": "address"
        }
      ],
      "name": "LogPortfolioDeleted",
      "type": "event"
    },
    {
      "anonymous": false,
      "inputs": [
        {
          "indexed": false,
          "internalType": "address",
          "name": "accountAddress",
          "type": "address"
        }
      ],
      "name": "LogPortfolioInitialized",
      "type": "event"
    },
    {
      "anonymous": false,
      "inputs": [
        {
          "indexed": false,
          "internalType": "address",
          "name": "accountAddress",
          "type": "address"
        }
      ],
      "name": "LogPortfolioRebalanced",
      "type": "event"
    },
    {
      "anonymous": false,
      "inputs": [
        {
          "indexed": false,
          "internalType": "address",
          "name": "accountAddress",
          "type": "address"
        },
        {
          "indexed": false,
          "internalType": "uint256",
          "name": "withdrawAmount",
          "type": "uint256"
        },
        {
          "indexed": false,
          "internalType": "uint256",
          "name": "newBalance",
          "type": "uint256"
        }
      ],
      "name": "LogWithdrawal",
      "type": "event"
    },
    {
      "anonymous": false,
      "inputs": [
        {
          "indexed": true,
          "internalType": "address",
          "name": "previousOwner",
          "type": "address"
        },
        {
          "indexed": true,
          "internalType": "address",
          "name": "newOwner",
          "type": "address"
        }
      ],
      "name": "OwnershipTransferred",
      "type": "event"
    },
    {
      "inputs": [],
      "name": "MAX_PORTFOLIO_ASSETS",
      "outputs": [
        {
          "internalType": "uint8",
          "name": "",
          "type": "uint8"
        }
      ],
      "stateMutability": "view",
      "type": "function",
      "constant": true
    },
    {
      "inputs": [
        {
          "internalType": "uint256",
          "name": "",
          "type": "uint256"
        }
      ],
      "name": "allowedAssets",
      "outputs": [
        {
          "internalType": "address",
          "name": "",
          "type": "address"
        }
      ],
      "stateMutability": "view",
      "type": "function",
      "constant": true
    },
    {
      "inputs": [
        {
          "internalType": "address",
          "name": "",
          "type": "address"
        }
      ],
      "name": "assetPrices",
      "outputs": [
        {
          "internalType": "uint256",
          "name": "",
          "type": "uint256"
        }
      ],
      "stateMutability": "view",
      "type": "function",
      "constant": true
    },
    {
      "inputs": [
        {
          "internalType": "address",
          "name": "",
          "type": "address"
        }
      ],
      "name": "balances",
      "outputs": [
        {
          "internalType": "uint256",
          "name": "",
          "type": "uint256"
        }
      ],
      "stateMutability": "view",
      "type": "function",
      "constant": true
    },
    {
      "inputs": [],
      "name": "owner",
      "outputs": [
        {
          "internalType": "address",
          "name": "",
          "type": "address"
        }
      ],
      "stateMutability": "view",
      "type": "function",
      "constant": true
    },
    {
      "inputs": [
        {
          "internalType": "address",
          "name": "",
          "type": "address"
        }
      ],
      "name": "portfolios",
      "outputs": [
        {
          "internalType": "enum Balancer.State",
          "name": "status",
          "type": "uint8"
        }
      ],
      "stateMutability": "view",
      "type": "function",
      "constant": true
    },
    {
      "inputs": [],
      "name": "renounceOwnership",
      "outputs": [],
      "stateMutability": "nonpayable",
      "type": "function"
    },
    {
      "inputs": [],
      "name": "router",
      "outputs": [
        {
          "internalType": "contract IUniswapV2Router02",
          "name": "",
          "type": "address"
        }
      ],
      "stateMutability": "view",
      "type": "function",
      "constant": true
    },
    {
      "inputs": [
        {
          "internalType": "address",
          "name": "newOwner",
          "type": "address"
        }
      ],
      "name": "transferOwnership",
      "outputs": [],
      "stateMutability": "nonpayable",
      "type": "function"
    },
    {
      "stateMutability": "payable",
      "type": "receive",
      "payable": true
    },
    {
      "inputs": [
        {
          "internalType": "address",
          "name": "_assetAddress",
          "type": "address"
        }
      ],
      "name": "addAllowedAsset",
      "outputs": [],
      "stateMutability": "nonpayable",
      "type": "function"
    },
    {
      "inputs": [],
      "name": "allowedAssetsList",
      "outputs": [
        {
          "internalType": "address[]",
          "name": "",
          "type": "address[]"
        }
      ],
      "stateMutability": "view",
      "type": "function",
      "constant": true
    },
    {
      "inputs": [
        {
          "internalType": "address",
          "name": "_accountAddress",
          "type": "address"
        }
      ],
      "name": "fetchPortfolio",
      "outputs": [
        {
          "internalType": "enum Balancer.State",
          "name": "",
          "type": "uint8"
        },
        {
          "internalType": "address[]",
          "name": "",
          "type": "address[]"
        },
        {
          "internalType": "uint256[]",
          "name": "",
          "type": "uint256[]"
        },
        {
          "internalType": "uint256[]",
          "name": "",
          "type": "uint256[]"
        }
      ],
      "stateMutability": "view",
      "type": "function",
      "constant": true
    },
    {
      "inputs": [
        {
          "internalType": "address",
          "name": "_accountAddress",
          "type": "address"
        }
      ],
      "name": "getPortfolioStatus",
      "outputs": [
        {
          "internalType": "enum Balancer.State",
          "name": "",
          "type": "uint8"
        }
      ],
      "stateMutability": "view",
      "type": "function",
      "constant": true
    },
    {
      "inputs": [],
      "name": "deposit",
      "outputs": [
        {
          "internalType": "uint256",
          "name": "",
          "type": "uint256"
        }
      ],
      "stateMutability": "payable",
      "type": "function",
      "payable": true
    },
    {
      "inputs": [
        {
          "internalType": "uint256",
          "name": "_withdrawAmount",
          "type": "uint256"
        }
      ],
      "name": "withdraw",
      "outputs": [
        {
          "internalType": "uint256",
          "name": "",
          "type": "uint256"
        }
      ],
      "stateMutability": "nonpayable",
      "type": "function"
    },
    {
      "inputs": [
        {
          "internalType": "address[]",
          "name": "_assets",
          "type": "address[]"
        },
        {
          "internalType": "uint256[]",
          "name": "_percentages",
          "type": "uint256[]"
        }
      ],
      "name": "createPortfolio",
      "outputs": [],
      "stateMutability": "nonpayable",
      "type": "function"
    },
    {
      "inputs": [],
      "name": "deletePortfolio",
      "outputs": [],
      "stateMutability": "nonpayable",
      "type": "function"
    },
    {
      "inputs": [],
      "name": "runInitialPortfolioDistribution",
      "outputs": [],
      "stateMutability": "nonpayable",
      "type": "function"
    },
    {
      "inputs": [
        {
          "internalType": "address",
          "name": "_destTokenAddress",
          "type": "address"
        },
        {
          "internalType": "uint256",
          "name": "_amountIn",
          "type": "uint256"
        }
      ],
      "name": "swapETHForTokens",
      "outputs": [
        {
          "internalType": "uint256",
          "name": "",
          "type": "uint256"
        }
      ],
      "stateMutability": "nonpayable",
      "type": "function"
    },
    {
      "inputs": [
        {
          "internalType": "address",
          "name": "_origTokenAddress",
          "type": "address"
        },
        {
          "internalType": "uint256",
          "name": "_amountIn",
          "type": "uint256"
        }
      ],
      "name": "swapTokensForETH",
      "outputs": [
        {
          "internalType": "uint256",
          "name": "",
          "type": "uint256"
        }
      ],
      "stateMutability": "nonpayable",
      "type": "function"
    },
    {
      "inputs": [
        {
          "internalType": "address",
          "name": "_token",
          "type": "address"
        }
      ],
      "name": "getAssetPrice",
      "outputs": [
        {
          "internalType": "uint256",
          "name": "",
          "type": "uint256"
        }
      ],
      "stateMutability": "nonpayable",
      "type": "function"
    },
    {
      "inputs": [],
      "name": "runPortfolioRebalance",
      "outputs": [],
      "stateMutability": "nonpayable",
      "type": "function"
    },
    {
      "inputs": [],
      "name": "fetchAssetsPrices",
      "outputs": [
        {
          "internalType": "address[]",
          "name": "",
          "type": "address[]"
        },
        {
          "internalType": "uint256[]",
          "name": "",
          "type": "uint256[]"
        }
      ],
      "stateMutability": "view",
      "type": "function",
      "constant": true
    },
    {
      "inputs": [],
      "name": "updateAssetPrices",
      "outputs": [],
      "stateMutability": "nonpayable",
      "type": "function"
    }
  ],
  "bytecode": "0x60806040523480156200001157600080fd5b506040516200585738038062005857833981810160405281019062000037919062000182565b620000576200004b6200009f60201b60201c565b620000a760201b60201c565b80600160006101000a81548173ffffffffffffffffffffffffffffffffffffffff021916908373ffffffffffffffffffffffffffffffffffffffff1602179055505062000207565b600033905090565b60008060009054906101000a900473ffffffffffffffffffffffffffffffffffffffff169050816000806101000a81548173ffffffffffffffffffffffffffffffffffffffff021916908373ffffffffffffffffffffffffffffffffffffffff1602179055508173ffffffffffffffffffffffffffffffffffffffff168173ffffffffffffffffffffffffffffffffffffffff167f8be0079c531659141344cd1fd0a4f28419497f9722a3daafe3b4186f6b6457e060405160405180910390a35050565b6000815190506200017c81620001ed565b92915050565b6000602082840312156200019b576200019a620001e8565b5b6000620001ab848285016200016b565b91505092915050565b6000620001c182620001c8565b9050919050565b600073ffffffffffffffffffffffffffffffffffffffff82169050919050565b600080fd5b620001f881620001b4565b81146200020457600080fd5b50565b61564080620002176000396000f3fe60806040526004361061014f5760003560e01c80637ece3c38116100b6578063c538b1e61161006f578063c538b1e6146104d8578063d0e30db014610504578063d1fd8d3114610522578063dd0b3e8914610539578063f2fde38b14610550578063f887ea401461057957610156565b80637ece3c38146103dc57806381251606146103f35780638da5cb5b1461040a57806398971f1414610435578063b3596f071461045e578063b6468a611461049b57610156565b80634e84eaaa116101085780634e84eaaa146102ba57806351422e97146102e55780635ced8e37146103225780635e9a523c1461034b578063715018a6146103885780637baab3da1461039f57610156565b80630c8d94111461015b5780630ccd3ef9146101985780630dcf52dd146101d557806327e235e3146102005780632e1a7d4d1461023d57806343f097861461027a57610156565b3661015657005b600080fd5b34801561016757600080fd5b50610182600480360381019061017d919061428f565b6105a4565b60405161018f9190614920565b60405180910390f35b3480156101a457600080fd5b506101bf60048036038101906101ba9190614417565b6105fd565b6040516101cc91906147ec565b60405180910390f35b3480156101e157600080fd5b506101ea61063c565b6040516101f791906148ac565b60405180910390f35b34801561020c57600080fd5b506102276004803603810190610222919061428f565b6106ca565b6040516102349190614bb5565b60405180910390f35b34801561024957600080fd5b50610264600480360381019061025f9190614417565b6106e2565b6040516102719190614bb5565b60405180910390f35b34801561028657600080fd5b506102a1600480360381019061029c919061428f565b6108c4565b6040516102b1949392919061493b565b60405180910390f35b3480156102c657600080fd5b506102cf610c90565b6040516102dc9190614ca6565b60405180910390f35b3480156102f157600080fd5b5061030c600480360381019061030791906142e9565b610c95565b6040516103199190614bb5565b60405180910390f35b34801561032e57600080fd5b5061034960048036038101906103449190614329565b611088565b005b34801561035757600080fd5b50610372600480360381019061036d919061428f565b611644565b60405161037f9190614bb5565b60405180910390f35b34801561039457600080fd5b5061039d61165c565b005b3480156103ab57600080fd5b506103c660048036038101906103c1919061428f565b6116e4565b6040516103d39190614920565b60405180910390f35b3480156103e857600080fd5b506103f161170f565b005b3480156103ff57600080fd5b50610408611c97565b005b34801561041657600080fd5b5061041f6129a1565b60405161042c91906147ec565b60405180910390f35b34801561044157600080fd5b5061045c6004803603810190610457919061428f565b6129ca565b005b34801561046a57600080fd5b506104856004803603810190610480919061428f565b612bc9565b6040516104929190614bb5565b60405180910390f35b3480156104a757600080fd5b506104c260048036038101906104bd91906142e9565b612fa7565b6040516104cf9190614bb5565b60405180910390f35b3480156104e457600080fd5b506104ed61339b565b6040516104fb9291906148ce565b60405180910390f35b61050c61359b565b6040516105199190614bb5565b60405180910390f35b34801561052e57600080fd5b506105376136b3565b005b34801561054557600080fd5b5061054e6137a1565b005b34801561055c57600080fd5b506105776004803603810190610572919061428f565b613db7565b005b34801561058557600080fd5b5061058e613eaf565b60405161059b9190614905565b60405180910390f35b6000600560008373ffffffffffffffffffffffffffffffffffffffff1673ffffffffffffffffffffffffffffffffffffffff16815260200190815260200160002060000160009054906101000a900460ff169050919050565b6003818154811061060d57600080fd5b906000526020600020016000915054906101000a900473ffffffffffffffffffffffffffffffffffffffff1681565b606060038054806020026020016040519081016040528092919081815260200182805480156106c057602002820191906000526020600020905b8160009054906101000a900473ffffffffffffffffffffffffffffffffffffffff1673ffffffffffffffffffffffffffffffffffffffff1681526020019060010190808311610676575b5050505050905090565b60026020528060005260406000206000915090505481565b600081600260003373ffffffffffffffffffffffffffffffffffffffff1673ffffffffffffffffffffffffffffffffffffffff168152602001908152602001600020541015610766576040517f08c379a000000000000000000000000000000000000000000000000000000000815260040161075d906149f5565b60405180910390fd5b81600260003373ffffffffffffffffffffffffffffffffffffffff1673ffffffffffffffffffffffffffffffffffffffff16815260200190815260200160002060008282546107b59190614f36565b925050819055503373ffffffffffffffffffffffffffffffffffffffff166108fc839081150290604051600060405180830381858888f19350505050158015610802573d6000803e3d6000fd5b507ff9226daf630542048a23086c6af599511aac100ec8f532793cc9697d061bed7e3383600260003373ffffffffffffffffffffffffffffffffffffffff1673ffffffffffffffffffffffffffffffffffffffff1681526020019081526020016000205460405161087593929190614875565b60405180910390a1600260003373ffffffffffffffffffffffffffffffffffffffff1673ffffffffffffffffffffffffffffffffffffffff168152602001908152602001600020549050919050565b600060608060606000600560008773ffffffffffffffffffffffffffffffffffffffff1673ffffffffffffffffffffffffffffffffffffffff1681526020019081526020016000206003018054905090506000808267ffffffffffffffff811115610932576109316151c0565b5b6040519080825280602002602001820160405280156109605781602001602082028036833780820191505090505b50905060008367ffffffffffffffff81111561097f5761097e6151c0565b5b6040519080825280602002602001820160405280156109ad5781602001602082028036833780820191505090505b50905060008467ffffffffffffffff8111156109cc576109cb6151c0565b5b6040519080825280602002602001820160405280156109fa5781602001602082028036833780820191505090505b50905060005b85811015610c2857600560008c73ffffffffffffffffffffffffffffffffffffffff1673ffffffffffffffffffffffffffffffffffffffff1681526020019081526020016000206003018181548110610a5c57610a5b615191565b5b9060005260206000200160009054906101000a900473ffffffffffffffffffffffffffffffffffffffff16945084848281518110610a9d57610a9c615191565b5b602002602001019073ffffffffffffffffffffffffffffffffffffffff16908173ffffffffffffffffffffffffffffffffffffffff1681525050600560008c73ffffffffffffffffffffffffffffffffffffffff1673ffffffffffffffffffffffffffffffffffffffff16815260200190815260200160002060010160008673ffffffffffffffffffffffffffffffffffffffff1673ffffffffffffffffffffffffffffffffffffffff16815260200190815260200160002054838281518110610b6a57610b69615191565b5b602002602001018181525050600560008c73ffffffffffffffffffffffffffffffffffffffff1673ffffffffffffffffffffffffffffffffffffffff16815260200190815260200160002060020160008673ffffffffffffffffffffffffffffffffffffffff1673ffffffffffffffffffffffffffffffffffffffff16815260200190815260200160002054828281518110610c0957610c08615191565b5b6020026020010181815250508080610c2090615043565b915050610a00565b50600560008b73ffffffffffffffffffffffffffffffffffffffff1673ffffffffffffffffffffffffffffffffffffffff16815260200190815260200160002060000160009054906101000a900460ff16838383985098509850985050505050509193509193565b600a81565b600080600160009054906101000a900473ffffffffffffffffffffffffffffffffffffffff1673ffffffffffffffffffffffffffffffffffffffff1663ad5c46486040518163ffffffff1660e01b815260040160206040518083038186803b158015610d0057600080fd5b505afa158015610d14573d6000803e3d6000fd5b505050506040513d601f19601f82011682018060405250810190610d3891906142bc565b90506000600267ffffffffffffffff811115610d5757610d566151c0565b5b604051908082528060200260200182016040528015610d855781602001602082028036833780820191505090505b5090508181600081518110610d9d57610d9c615191565b5b602002602001019073ffffffffffffffffffffffffffffffffffffffff16908173ffffffffffffffffffffffffffffffffffffffff16815250508481600181518110610dec57610deb615191565b5b602002602001019073ffffffffffffffffffffffffffffffffffffffff16908173ffffffffffffffffffffffffffffffffffffffff16815250508173ffffffffffffffffffffffffffffffffffffffff1663095ea7b3600160009054906101000a900473ffffffffffffffffffffffffffffffffffffffff16866040518363ffffffff1660e01b8152600401610e8392919061484c565b602060405180830381600087803b158015610e9d57600080fd5b505af1158015610eb1573d6000803e3d6000fd5b505050506040513d601f19601f82011682018060405250810190610ed591906143ea565b506000600160009054906101000a900473ffffffffffffffffffffffffffffffffffffffff1673ffffffffffffffffffffffffffffffffffffffff1663d06ca61f86846040518363ffffffff1660e01b8152600401610f35929190614bd0565b60006040518083038186803b158015610f4d57600080fd5b505afa158015610f61573d6000803e3d6000fd5b505050506040513d6000823e3d601f19601f82011682018060405250810190610f8a91906143a1565b9050600160009054906101000a900473ffffffffffffffffffffffffffffffffffffffff1673ffffffffffffffffffffffffffffffffffffffff16637ff36ab58683600181518110610fdf57610fde615191565b5b60200260200101518530426040518663ffffffff1660e01b81526004016110099493929190614c00565b6000604051808303818588803b15801561102257600080fd5b505af1158015611036573d6000803e3d6000fd5b50505050506040513d6000823e3d601f19601f8201168201806040525081019061106091906143a1565b508060018151811061107557611074615191565b5b6020026020010151935050505092915050565b6000600260003373ffffffffffffffffffffffffffffffffffffffff1673ffffffffffffffffffffffffffffffffffffffff168152602001908152602001600020541161110a576040517f08c379a0000000000000000000000000000000000000000000000000000000008152600401611101906149f5565b60405180910390fd5b6000600381111561111e5761111d615133565b5b600560003373ffffffffffffffffffffffffffffffffffffffff1673ffffffffffffffffffffffffffffffffffffffff16815260200190815260200160002060000160009054906101000a900460ff1660038111156111805761117f615133565b5b146111c0576040517f08c379a00000000000000000000000000000000000000000000000000000000081526004016111b790614a15565b60405180910390fd5b600a60ff1682511115611208576040517f08c379a00000000000000000000000000000000000000000000000000000000081526004016111ff90614a95565b60405180910390fd5b60028251101561124d576040517f08c379a000000000000000000000000000000000000000000000000000000000815260040161124490614b95565b60405180910390fd5b8051825114611291576040517f08c379a000000000000000000000000000000000000000000000000000000000815260040161128890614ad5565b60405180910390fd5b6000805b825181101561135e5760018382815181106112b3576112b2615191565b5b6020026020010151101580156112e4575060638382815181106112d9576112d8615191565b5b602002602001015111155b611323576040517f08c379a000000000000000000000000000000000000000000000000000000000815260040161131a90614995565b60405180910390fd5b82818151811061133657611335615191565b5b6020026020010151826113499190614dc1565b9150808061135690615043565b915050611295565b50606481146113a2576040517f08c379a000000000000000000000000000000000000000000000000000000000815260040161139990614af5565b60405180910390fd5b60005b8351811015611598576113d18482815181106113c4576113c3615191565b5b6020026020010151613ed5565b611410576040517f08c379a0000000000000000000000000000000000000000000000000000000008152600401611407906149d5565b60405180910390fd5b82818151811061142357611422615191565b5b6020026020010151600560003373ffffffffffffffffffffffffffffffffffffffff1673ffffffffffffffffffffffffffffffffffffffff168152602001908152602001600020600101600086848151811061148257611481615191565b5b602002602001015173ffffffffffffffffffffffffffffffffffffffff1673ffffffffffffffffffffffffffffffffffffffff16815260200190815260200160002081905550600560003373ffffffffffffffffffffffffffffffffffffffff1673ffffffffffffffffffffffffffffffffffffffff16815260200190815260200160002060030184828151811061151d5761151c615191565b5b60200260200101519080600181540180825580915050600190039060005260206000200160009091909190916101000a81548173ffffffffffffffffffffffffffffffffffffffff021916908373ffffffffffffffffffffffffffffffffffffffff160217905550808061159090615043565b9150506113a5565b506001600560003373ffffffffffffffffffffffffffffffffffffffff1673ffffffffffffffffffffffffffffffffffffffff16815260200190815260200160002060000160006101000a81548160ff021916908360038111156115ff576115fe615133565b5b02179055507f3f828ec947bbbb37da475df9242735a8e787ab05f8456beea990372be2af702d33848460405161163793929190614807565b60405180910390a1505050565b60046020528060005260406000206000915090505481565b611664613f80565b73ffffffffffffffffffffffffffffffffffffffff166116826129a1565b73ffffffffffffffffffffffffffffffffffffffff16146116d8576040517f08c379a00000000000000000000000000000000000000000000000000000000081526004016116cf90614b55565b60405180910390fd5b6116e26000613f88565b565b60056020528060005260406000206000915090508060000160009054906101000a900460ff16905081565b6000600260003373ffffffffffffffffffffffffffffffffffffffff1673ffffffffffffffffffffffffffffffffffffffff1681526020019081526020016000205411611791576040517f08c379a000000000000000000000000000000000000000000000000000000000815260040161178890614a75565b60405180910390fd5b600160038111156117a5576117a4615133565b5b600560003373ffffffffffffffffffffffffffffffffffffffff1673ffffffffffffffffffffffffffffffffffffffff16815260200190815260200160002060000160009054906101000a900460ff16600381111561180757611806615133565b5b14611847576040517f08c379a000000000000000000000000000000000000000000000000000000000815260040161183e90614ab5565b60405180910390fd5b6002600560003373ffffffffffffffffffffffffffffffffffffffff1673ffffffffffffffffffffffffffffffffffffffff16815260200190815260200160002060000160006101000a81548160ff021916908360038111156118ad576118ac615133565b5b02179055506000600260003373ffffffffffffffffffffffffffffffffffffffff1673ffffffffffffffffffffffffffffffffffffffff16815260200190815260200160002054905060008060008060005b600560003373ffffffffffffffffffffffffffffffffffffffff1673ffffffffffffffffffffffffffffffffffffffff16815260200190815260200160002060030180549050811015611c5857600560003373ffffffffffffffffffffffffffffffffffffffff1673ffffffffffffffffffffffffffffffffffffffff16815260200190815260200160002060030181815481106119a05761199f615191565b5b9060005260206000200160009054906101000a900473ffffffffffffffffffffffffffffffffffffffff169150600560003373ffffffffffffffffffffffffffffffffffffffff1673ffffffffffffffffffffffffffffffffffffffff16815260200190815260200160002060010160008373ffffffffffffffffffffffffffffffffffffffff1673ffffffffffffffffffffffffffffffffffffffff16815260200190815260200160002054945060648587611a5d9190614e48565b611a679190614e17565b9250600260003373ffffffffffffffffffffffffffffffffffffffff1673ffffffffffffffffffffffffffffffffffffffff16815260200190815260200160002054831115611aeb576040517f08c379a0000000000000000000000000000000000000000000000000000000008152600401611ae290614a35565b60405180910390fd5b611af58284610c95565b93508383670de0b6b3a7640000611b0c9190614e48565b611b169190614e17565b600460008473ffffffffffffffffffffffffffffffffffffffff1673ffffffffffffffffffffffffffffffffffffffff1681526020019081526020016000208190555083600560003373ffffffffffffffffffffffffffffffffffffffff1673ffffffffffffffffffffffffffffffffffffffff16815260200190815260200160002060020160008473ffffffffffffffffffffffffffffffffffffffff1673ffffffffffffffffffffffffffffffffffffffff1681526020019081526020016000206000828254611be89190614dc1565b9250508190555082600260003373ffffffffffffffffffffffffffffffffffffffff1673ffffffffffffffffffffffffffffffffffffffff1681526020019081526020016000206000828254611c3e9190614f36565b925050819055508080611c5090615043565b9150506118ff565b507fd96c4cdad827acce23afcb802d114a22c28c04e378587c3d8a3acc9bd17f6c0733604051611c8891906147ec565b60405180910390a15050505050565b60026003811115611cab57611caa615133565b5b600560003373ffffffffffffffffffffffffffffffffffffffff1673ffffffffffffffffffffffffffffffffffffffff16815260200190815260200160002060000160009054906101000a900460ff166003811115611d0d57611d0c615133565b5b1480611d8b5750600380811115611d2757611d26615133565b5b600560003373ffffffffffffffffffffffffffffffffffffffff1673ffffffffffffffffffffffffffffffffffffffff16815260200190815260200160002060000160009054906101000a900460ff166003811115611d8957611d88615133565b5b145b611dca576040517f08c379a0000000000000000000000000000000000000000000000000000000008152600401611dc190614a55565b60405180910390fd5b6003600560003373ffffffffffffffffffffffffffffffffffffffff1673ffffffffffffffffffffffffffffffffffffffff16815260200190815260200160002060000160006101000a81548160ff02191690836003811115611e3057611e2f615133565b5b021790555060008060005b600560003373ffffffffffffffffffffffffffffffffffffffff1673ffffffffffffffffffffffffffffffffffffffff16815260200190815260200160002060030180549050811015611f6857600560003373ffffffffffffffffffffffffffffffffffffffff1673ffffffffffffffffffffffffffffffffffffffff1681526020019081526020016000206003018181548110611edc57611edb615191565b5b9060005260206000200160009054906101000a900473ffffffffffffffffffffffffffffffffffffffff169250611f1283612bc9565b600460008573ffffffffffffffffffffffffffffffffffffffff1673ffffffffffffffffffffffffffffffffffffffff168152602001908152602001600020819055508080611f6090615043565b915050611e3b565b50600080600560003373ffffffffffffffffffffffffffffffffffffffff1673ffffffffffffffffffffffffffffffffffffffff1681526020019081526020016000206003018054905067ffffffffffffffff811115611fcb57611fca6151c0565b5b604051908082528060200260200182016040528015611ff95781602001602082028036833780820191505090505b5090506000805b600560003373ffffffffffffffffffffffffffffffffffffffff1673ffffffffffffffffffffffffffffffffffffffff1681526020019081526020016000206003018054905081101561220857600560003373ffffffffffffffffffffffffffffffffffffffff1673ffffffffffffffffffffffffffffffffffffffff16815260200190815260200160002060030181815481106120a1576120a0615191565b5b9060005260206000200160009054906101000a900473ffffffffffffffffffffffffffffffffffffffff169550600560003373ffffffffffffffffffffffffffffffffffffffff1673ffffffffffffffffffffffffffffffffffffffff16815260200190815260200160002060020160008773ffffffffffffffffffffffffffffffffffffffff1673ffffffffffffffffffffffffffffffffffffffff168152602001908152602001600020549350670de0b6b3a764000084600460008973ffffffffffffffffffffffffffffffffffffffff1673ffffffffffffffffffffffffffffffffffffffff168152602001908152602001600020546121a49190614e48565b6121ae9190614e17565b8382815181106121c1576121c0615191565b5b6020026020010181815250508281815181106121e0576121df615191565b5b6020026020010151826121f39190614dc1565b9150808061220090615043565b915050612000565b506000666a94d74f430000905080826122219190614f36565b91506000806000600560003373ffffffffffffffffffffffffffffffffffffffff1673ffffffffffffffffffffffffffffffffffffffff1681526020019081526020016000206003018054905067ffffffffffffffff811115612287576122866151c0565b5b6040519080825280602002602001820160405280156122b55781602001602082028036833780820191505090505b5090506000600560003373ffffffffffffffffffffffffffffffffffffffff1673ffffffffffffffffffffffffffffffffffffffff1681526020019081526020016000206003018054905067ffffffffffffffff811115612319576123186151c0565b5b6040519080825280602002602001820160405280156123475781602001602082028036833780820191505090505b50905060005b600560003373ffffffffffffffffffffffffffffffffffffffff1673ffffffffffffffffffffffffffffffffffffffff1681526020019081526020016000206003018054905081101561254757600560003373ffffffffffffffffffffffffffffffffffffffff1673ffffffffffffffffffffffffffffffffffffffff16815260200190815260200160002060030181815481106123ee576123ed615191565b5b9060005260206000200160009054906101000a900473ffffffffffffffffffffffffffffffffffffffff169a50600560003373ffffffffffffffffffffffffffffffffffffffff1673ffffffffffffffffffffffffffffffffffffffff16815260200190815260200160002060010160008c73ffffffffffffffffffffffffffffffffffffffff1673ffffffffffffffffffffffffffffffffffffffff1681526020019081526020016000205494508781815181106124b0576124af615191565b5b6020026020010151606486896124c69190614e48565b6124d09190614e17565b6124da9190614ea2565b9350600084131561250a57838282815181106124f9576124f8615191565b5b602002602001018181525050612534565b836125149061508c565b83828151811061252757612526615191565b5b6020026020010181815250505b808061253f90615043565b91505061234d565b50600080600090505b835181101561278357600084828151811061256e5761256d615191565b5b6020026020010151111561277057600560003373ffffffffffffffffffffffffffffffffffffffff1673ffffffffffffffffffffffffffffffffffffffff16815260200190815260200160002060030181815481106125d0576125cf615191565b5b9060005260206000200160009054906101000a900473ffffffffffffffffffffffffffffffffffffffff169b50600460008d73ffffffffffffffffffffffffffffffffffffffff1673ffffffffffffffffffffffffffffffffffffffff16815260200190815260200160002054670de0b6b3a764000085838151811061265957612658615191565b5b602002602001015161266b9190614e48565b6126759190614e17565b91506126818c83612fa7565b9a508a600260003373ffffffffffffffffffffffffffffffffffffffff1673ffffffffffffffffffffffffffffffffffffffff16815260200190815260200160002060008282546126d29190614dc1565b9250508190555081600560003373ffffffffffffffffffffffffffffffffffffffff1673ffffffffffffffffffffffffffffffffffffffff16815260200190815260200160002060020160008e73ffffffffffffffffffffffffffffffffffffffff1673ffffffffffffffffffffffffffffffffffffffff16815260200190815260200160002060008282546127689190614f36565b925050819055505b808061277b90615043565b915050612550565b5060005b825181101561295d5760008382815181106127a5576127a4615191565b5b6020026020010151111561294a57600560003373ffffffffffffffffffffffffffffffffffffffff1673ffffffffffffffffffffffffffffffffffffffff168152602001908152602001600020600301818154811061280757612806615191565b5b9060005260206000200160009054906101000a900473ffffffffffffffffffffffffffffffffffffffff169b5082818151811061284757612846615191565b5b6020026020010151915061285b8c83610c95565b9a508a600560003373ffffffffffffffffffffffffffffffffffffffff1673ffffffffffffffffffffffffffffffffffffffff16815260200190815260200160002060020160008e73ffffffffffffffffffffffffffffffffffffffff1673ffffffffffffffffffffffffffffffffffffffff16815260200190815260200160002060008282546128ec9190614dc1565b9250508190555081600260003373ffffffffffffffffffffffffffffffffffffffff1673ffffffffffffffffffffffffffffffffffffffff16815260200190815260200160002060008282546129429190614f36565b925050819055505b808061295590615043565b915050612787565b507e1e4429e0a5f966bd93a34d42b9d339b020f3d39203e59ca7377d875ed4e9d73360405161298c91906147ec565b60405180910390a15050505050505050505050565b60008060009054906101000a900473ffffffffffffffffffffffffffffffffffffffff16905090565b808160006001905060005b600380549050811015612a6c578273ffffffffffffffffffffffffffffffffffffffff1660038281548110612a0d57612a0c615191565b5b9060005260206000200160009054906101000a900473ffffffffffffffffffffffffffffffffffffffff1673ffffffffffffffffffffffffffffffffffffffff161415612a5957600091505b8080612a6490615043565b9150506129d5565b5080612aad576040517f08c379a0000000000000000000000000000000000000000000000000000000008152600401612aa490614b75565b60405180910390fd5b612ab5613f80565b73ffffffffffffffffffffffffffffffffffffffff16612ad36129a1565b73ffffffffffffffffffffffffffffffffffffffff1614612b29576040517f08c379a0000000000000000000000000000000000000000000000000000000008152600401612b2090614b55565b60405180910390fd5b6003849080600181540180825580915050600190039060005260206000200160009091909190916101000a81548173ffffffffffffffffffffffffffffffffffffffff021916908373ffffffffffffffffffffffffffffffffffffffff1602179055507ff59d0ae4e98bf93f09241ca4f8223fb0ecfebf4027c3087280ecec9c18d32f7584604051612bbb91906147ec565b60405180910390a150505050565b600080670de0b6b3a764000090506000600267ffffffffffffffff811115612bf457612bf36151c0565b5b604051908082528060200260200182016040528015612c225781602001602082028036833780820191505090505b509050600160009054906101000a900473ffffffffffffffffffffffffffffffffffffffff1673ffffffffffffffffffffffffffffffffffffffff1663ad5c46486040518163ffffffff1660e01b815260040160206040518083038186803b158015612c8d57600080fd5b505afa158015612ca1573d6000803e3d6000fd5b505050506040513d601f19601f82011682018060405250810190612cc591906142bc565b81600081518110612cd957612cd8615191565b5b602002602001019073ffffffffffffffffffffffffffffffffffffffff16908173ffffffffffffffffffffffffffffffffffffffff16815250508381600181518110612d2857612d27615191565b5b602002602001019073ffffffffffffffffffffffffffffffffffffffff16908173ffffffffffffffffffffffffffffffffffffffff1681525050600160009054906101000a900473ffffffffffffffffffffffffffffffffffffffff1673ffffffffffffffffffffffffffffffffffffffff1663ad5c46486040518163ffffffff1660e01b815260040160206040518083038186803b158015612dca57600080fd5b505afa158015612dde573d6000803e3d6000fd5b505050506040513d601f19601f82011682018060405250810190612e0291906142bc565b73ffffffffffffffffffffffffffffffffffffffff1663095ea7b3600160009054906101000a900473ffffffffffffffffffffffffffffffffffffffff16846040518363ffffffff1660e01b8152600401612e5e92919061484c565b602060405180830381600087803b158015612e7857600080fd5b505af1158015612e8c573d6000803e3d6000fd5b505050506040513d601f19601f82011682018060405250810190612eb091906143ea565b506000600160009054906101000a900473ffffffffffffffffffffffffffffffffffffffff1673ffffffffffffffffffffffffffffffffffffffff1663d06ca61f84846040518363ffffffff1660e01b8152600401612f10929190614bd0565b60006040518083038186803b158015612f2857600080fd5b505afa158015612f3c573d6000803e3d6000fd5b505050506040513d6000823e3d601f19601f82011682018060405250810190612f6591906143a1565b600181518110612f7857612f77615191565b5b60200260200101519050806ec097ce7bc90715b34b9f1000000000612f9d9190614e17565b9350505050919050565b600080600160009054906101000a900473ffffffffffffffffffffffffffffffffffffffff1673ffffffffffffffffffffffffffffffffffffffff1663ad5c46486040518163ffffffff1660e01b815260040160206040518083038186803b15801561301257600080fd5b505afa158015613026573d6000803e3d6000fd5b505050506040513d601f19601f8201168201806040525081019061304a91906142bc565b90506000600267ffffffffffffffff811115613069576130686151c0565b5b6040519080825280602002602001820160405280156130975781602001602082028036833780820191505090505b50905084816000815181106130af576130ae615191565b5b602002602001019073ffffffffffffffffffffffffffffffffffffffff16908173ffffffffffffffffffffffffffffffffffffffff168152505081816001815181106130fe576130fd615191565b5b602002602001019073ffffffffffffffffffffffffffffffffffffffff16908173ffffffffffffffffffffffffffffffffffffffff16815250508473ffffffffffffffffffffffffffffffffffffffff1663095ea7b3600160009054906101000a900473ffffffffffffffffffffffffffffffffffffffff16866040518363ffffffff1660e01b815260040161319592919061484c565b602060405180830381600087803b1580156131af57600080fd5b505af11580156131c3573d6000803e3d6000fd5b505050506040513d601f19601f820116820180604052508101906131e791906143ea565b506000600160009054906101000a900473ffffffffffffffffffffffffffffffffffffffff1673ffffffffffffffffffffffffffffffffffffffff1663d06ca61f86846040518363ffffffff1660e01b8152600401613247929190614bd0565b60006040518083038186803b15801561325f57600080fd5b505afa158015613273573d6000803e3d6000fd5b505050506040513d6000823e3d601f19601f8201168201806040525081019061329c91906143a1565b9050600160009054906101000a900473ffffffffffffffffffffffffffffffffffffffff1673ffffffffffffffffffffffffffffffffffffffff166318cbafe586836001815181106132f1576132f0615191565b5b60200260200101518530426040518663ffffffff1660e01b815260040161331c959493929190614c4c565b600060405180830381600087803b15801561333657600080fd5b505af115801561334a573d6000803e3d6000fd5b505050506040513d6000823e3d601f19601f8201168201806040525081019061337391906143a1565b508060018151811061338857613387615191565b5b6020026020010151935050505092915050565b606080600060038054905067ffffffffffffffff8111156133bf576133be6151c0565b5b6040519080825280602002602001820160405280156133ed5781602001602082028036833780820191505090505b509050600060038054905067ffffffffffffffff811115613411576134106151c0565b5b60405190808252806020026020018201604052801561343f5781602001602082028036833780820191505090505b50905060005b60038054905081101561358e576003818154811061346657613465615191565b5b9060005260206000200160009054906101000a900473ffffffffffffffffffffffffffffffffffffffff168382815181106134a4576134a3615191565b5b602002602001019073ffffffffffffffffffffffffffffffffffffffff16908173ffffffffffffffffffffffffffffffffffffffff168152505060046000600383815481106134f6576134f5615191565b5b9060005260206000200160009054906101000a900473ffffffffffffffffffffffffffffffffffffffff1673ffffffffffffffffffffffffffffffffffffffff1673ffffffffffffffffffffffffffffffffffffffff1681526020019081526020016000205482828151811061356f5761356e615191565b5b602002602001018181525050808061358690615043565b915050613445565b5081819350935050509091565b60008034116135df576040517f08c379a00000000000000000000000000000000000000000000000000000000081526004016135d690614b35565b60405180910390fd5b34600260003373ffffffffffffffffffffffffffffffffffffffff1673ffffffffffffffffffffffffffffffffffffffff168152602001908152602001600020600082825461362e9190614dc1565b925050819055507fa8126f7572bb1fdeae5b5aa9ec126438b91f658a07873f009d041ae690f3a193333460405161366692919061484c565b60405180910390a1600260003373ffffffffffffffffffffffffffffffffffffffff1673ffffffffffffffffffffffffffffffffffffffff16815260200190815260200160002054905090565b60005b60038054905081101561379e5761370a600382815481106136da576136d9615191565b5b9060005260206000200160009054906101000a900473ffffffffffffffffffffffffffffffffffffffff16612bc9565b600460006003848154811061372257613721615191565b5b9060005260206000200160009054906101000a900473ffffffffffffffffffffffffffffffffffffffff1673ffffffffffffffffffffffffffffffffffffffff1673ffffffffffffffffffffffffffffffffffffffff16815260200190815260200160002081905550808061379690615043565b9150506136b6565b50565b600060038111156137b5576137b4615133565b5b600560003373ffffffffffffffffffffffffffffffffffffffff1673ffffffffffffffffffffffffffffffffffffffff16815260200190815260200160002060000160009054906101000a900460ff16600381111561381757613816615133565b5b1415613858576040517f08c379a000000000000000000000000000000000000000000000000000000000815260040161384f90614b15565b60405180910390fd5b60008060005b600560003373ffffffffffffffffffffffffffffffffffffffff1673ffffffffffffffffffffffffffffffffffffffff16815260200190815260200160002060030180549050811015613c3a57600560003373ffffffffffffffffffffffffffffffffffffffff1673ffffffffffffffffffffffffffffffffffffffff16815260200190815260200160002060030181815481106138ff576138fe615191565b5b9060005260206000200160009054906101000a900473ffffffffffffffffffffffffffffffffffffffff1691506000600560003373ffffffffffffffffffffffffffffffffffffffff1673ffffffffffffffffffffffffffffffffffffffff16815260200190815260200160002060020160008473ffffffffffffffffffffffffffffffffffffffff1673ffffffffffffffffffffffffffffffffffffffff168152602001908152602001600020541115613b1b57613a3d82600560003373ffffffffffffffffffffffffffffffffffffffff1673ffffffffffffffffffffffffffffffffffffffff16815260200190815260200160002060020160008573ffffffffffffffffffffffffffffffffffffffff1673ffffffffffffffffffffffffffffffffffffffff16815260200190815260200160002054612fa7565b925082600260003373ffffffffffffffffffffffffffffffffffffffff1673ffffffffffffffffffffffffffffffffffffffff1681526020019081526020016000206000828254613a8e9190614dc1565b925050819055506000600560003373ffffffffffffffffffffffffffffffffffffffff1673ffffffffffffffffffffffffffffffffffffffff16815260200190815260200160002060020160008473ffffffffffffffffffffffffffffffffffffffff1673ffffffffffffffffffffffffffffffffffffffff168152602001908152602001600020819055505b6000600560003373ffffffffffffffffffffffffffffffffffffffff1673ffffffffffffffffffffffffffffffffffffffff16815260200190815260200160002060010160008473ffffffffffffffffffffffffffffffffffffffff1673ffffffffffffffffffffffffffffffffffffffff16815260200190815260200160002081905550600560003373ffffffffffffffffffffffffffffffffffffffff1673ffffffffffffffffffffffffffffffffffffffff168152602001908152602001600020600301805480613bf257613bf1615162565b5b6001900381819060005260206000200160006101000a81549073ffffffffffffffffffffffffffffffffffffffff021916905590558080613c3290615043565b91505061385e565b506001600560003373ffffffffffffffffffffffffffffffffffffffff1673ffffffffffffffffffffffffffffffffffffffff168152602001908152602001600020600301805490501415613d1157600560003373ffffffffffffffffffffffffffffffffffffffff1673ffffffffffffffffffffffffffffffffffffffff168152602001908152602001600020600301805480613cdb57613cda615162565b5b6001900381819060005260206000200160006101000a81549073ffffffffffffffffffffffffffffffffffffffff021916905590555b6000600560003373ffffffffffffffffffffffffffffffffffffffff1673ffffffffffffffffffffffffffffffffffffffff16815260200190815260200160002060000160006101000a81548160ff02191690836003811115613d7757613d76615133565b5b02179055507fb24dcbc2f0ea9133e820ca155e83232c8e2612051982b9edc7234fd0f3692cf933604051613dab91906147ec565b60405180910390a15050565b613dbf613f80565b73ffffffffffffffffffffffffffffffffffffffff16613ddd6129a1565b73ffffffffffffffffffffffffffffffffffffffff1614613e33576040517f08c379a0000000000000000000000000000000000000000000000000000000008152600401613e2a90614b55565b60405180910390fd5b600073ffffffffffffffffffffffffffffffffffffffff168173ffffffffffffffffffffffffffffffffffffffff161415613ea3576040517f08c379a0000000000000000000000000000000000000000000000000000000008152600401613e9a906149b5565b60405180910390fd5b613eac81613f88565b50565b600160009054906101000a900473ffffffffffffffffffffffffffffffffffffffff1681565b6000805b600380549050811015613f75578273ffffffffffffffffffffffffffffffffffffffff1660038281548110613f1157613f10615191565b5b9060005260206000200160009054906101000a900473ffffffffffffffffffffffffffffffffffffffff1673ffffffffffffffffffffffffffffffffffffffff161415613f62576001915050613f7b565b8080613f6d90615043565b915050613ed9565b50600090505b919050565b600033905090565b60008060009054906101000a900473ffffffffffffffffffffffffffffffffffffffff169050816000806101000a81548173ffffffffffffffffffffffffffffffffffffffff021916908373ffffffffffffffffffffffffffffffffffffffff1602179055508173ffffffffffffffffffffffffffffffffffffffff168173ffffffffffffffffffffffffffffffffffffffff167f8be0079c531659141344cd1fd0a4f28419497f9722a3daafe3b4186f6b6457e060405160405180910390a35050565b600061405f61405a84614ce6565b614cc1565b90508083825260208201905082856020860282011115614082576140816151f4565b5b60005b858110156140b25781614098888261419c565b845260208401935060208301925050600181019050614085565b5050509392505050565b60006140cf6140ca84614d12565b614cc1565b905080838252602082019050828560208602820111156140f2576140f16151f4565b5b60005b8581101561412257816141088882614265565b8452602084019350602083019250506001810190506140f5565b5050509392505050565b600061413f61413a84614d12565b614cc1565b90508083825260208201905082856020860282011115614162576141616151f4565b5b60005b858110156141925781614178888261427a565b845260208401935060208301925050600181019050614165565b5050509392505050565b6000813590506141ab816155c5565b92915050565b6000815190506141c0816155c5565b92915050565b600082601f8301126141db576141da6151ef565b5b81356141eb84826020860161404c565b91505092915050565b600082601f830112614209576142086151ef565b5b81356142198482602086016140bc565b91505092915050565b600082601f830112614237576142366151ef565b5b815161424784826020860161412c565b91505092915050565b60008151905061425f816155dc565b92915050565b600081359050614274816155f3565b92915050565b600081519050614289816155f3565b92915050565b6000602082840312156142a5576142a46151fe565b5b60006142b38482850161419c565b91505092915050565b6000602082840312156142d2576142d16151fe565b5b60006142e0848285016141b1565b91505092915050565b60008060408385031215614300576142ff6151fe565b5b600061430e8582860161419c565b925050602061431f85828601614265565b9150509250929050565b600080604083850312156143405761433f6151fe565b5b600083013567ffffffffffffffff81111561435e5761435d6151f9565b5b61436a858286016141c6565b925050602083013567ffffffffffffffff81111561438b5761438a6151f9565b5b614397858286016141f4565b9150509250929050565b6000602082840312156143b7576143b66151fe565b5b600082015167ffffffffffffffff8111156143d5576143d46151f9565b5b6143e184828501614222565b91505092915050565b600060208284031215614400576143ff6151fe565b5b600061440e84828501614250565b91505092915050565b60006020828403121561442d5761442c6151fe565b5b600061443b84828501614265565b91505092915050565b60006144508383614474565b60208301905092915050565b600061446883836147bf565b60208301905092915050565b61447d81614f6a565b82525050565b61448c81614f6a565b82525050565b600061449d82614d5e565b6144a78185614d8e565b93506144b283614d3e565b8060005b838110156144e35781516144ca8882614444565b97506144d583614d74565b9250506001810190506144b6565b5085935050505092915050565b60006144fb82614d69565b6145058185614d9f565b935061451083614d4e565b8060005b83811015614541578151614528888261445c565b975061453383614d81565b925050600181019050614514565b5085935050505092915050565b61455781614fdc565b82525050565b61456681615000565b82525050565b6000614579602983614db0565b915061458482615214565b604082019050919050565b600061459c602683614db0565b91506145a782615263565b604082019050919050565b60006145bf601e83614db0565b91506145ca826152b2565b602082019050919050565b60006145e2601083614db0565b91506145ed826152db565b602082019050919050565b6000614605601983614db0565b915061461082615304565b602082019050919050565b6000614628601c83614db0565b91506146338261532d565b602082019050919050565b600061464b601883614db0565b915061465682615356565b602082019050919050565b600061466e601283614db0565b91506146798261537f565b602082019050919050565b6000614691601c83614db0565b915061469c826153a8565b602082019050919050565b60006146b4601883614db0565b91506146bf826153d1565b602082019050919050565b60006146d7602783614db0565b91506146e2826153fa565b604082019050919050565b60006146fa602d83614db0565b915061470582615449565b604082019050919050565b600061471d601583614db0565b915061472882615498565b602082019050919050565b6000614740602683614db0565b915061474b826154c1565b604082019050919050565b6000614763602083614db0565b915061476e82615510565b602082019050919050565b6000614786601883614db0565b915061479182615539565b602082019050919050565b60006147a9602183614db0565b91506147b482615562565b604082019050919050565b6147c881614fc5565b82525050565b6147d781614fc5565b82525050565b6147e681614fcf565b82525050565b60006020820190506148016000830184614483565b92915050565b600060608201905061481c6000830186614483565b818103602083015261482e8185614492565b9050818103604083015261484281846144f0565b9050949350505050565b60006040820190506148616000830185614483565b61486e60208301846147ce565b9392505050565b600060608201905061488a6000830186614483565b61489760208301856147ce565b6148a460408301846147ce565b949350505050565b600060208201905081810360008301526148c68184614492565b905092915050565b600060408201905081810360008301526148e88185614492565b905081810360208301526148fc81846144f0565b90509392505050565b600060208201905061491a600083018461454e565b92915050565b6000602082019050614935600083018461455d565b92915050565b6000608082019050614950600083018761455d565b81810360208301526149628186614492565b9050818103604083015261497681856144f0565b9050818103606083015261498a81846144f0565b905095945050505050565b600060208201905081810360008301526149ae8161456c565b9050919050565b600060208201905081810360008301526149ce8161458f565b9050919050565b600060208201905081810360008301526149ee816145b2565b9050919050565b60006020820190508181036000830152614a0e816145d5565b9050919050565b60006020820190508181036000830152614a2e816145f8565b9050919050565b60006020820190508181036000830152614a4e8161461b565b9050919050565b60006020820190508181036000830152614a6e8161463e565b9050919050565b60006020820190508181036000830152614a8e81614661565b9050919050565b60006020820190508181036000830152614aae81614684565b9050919050565b60006020820190508181036000830152614ace816146a7565b9050919050565b60006020820190508181036000830152614aee816146ca565b9050919050565b60006020820190508181036000830152614b0e816146ed565b9050919050565b60006020820190508181036000830152614b2e81614710565b9050919050565b60006020820190508181036000830152614b4e81614733565b9050919050565b60006020820190508181036000830152614b6e81614756565b9050919050565b60006020820190508181036000830152614b8e81614779565b9050919050565b60006020820190508181036000830152614bae8161479c565b9050919050565b6000602082019050614bca60008301846147ce565b92915050565b6000604082019050614be560008301856147ce565b8181036020830152614bf78184614492565b90509392505050565b6000608082019050614c1560008301876147ce565b8181036020830152614c278186614492565b9050614c366040830185614483565b614c4360608301846147ce565b95945050505050565b600060a082019050614c6160008301886147ce565b614c6e60208301876147ce565b8181036040830152614c808186614492565b9050614c8f6060830185614483565b614c9c60808301846147ce565b9695505050505050565b6000602082019050614cbb60008301846147dd565b92915050565b6000614ccb614cdc565b9050614cd78282615012565b919050565b6000604051905090565b600067ffffffffffffffff821115614d0157614d006151c0565b5b602082029050602081019050919050565b600067ffffffffffffffff821115614d2d57614d2c6151c0565b5b602082029050602081019050919050565b6000819050602082019050919050565b6000819050602082019050919050565b600081519050919050565b600081519050919050565b6000602082019050919050565b6000602082019050919050565b600082825260208201905092915050565b600082825260208201905092915050565b600082825260208201905092915050565b6000614dcc82614fc5565b9150614dd783614fc5565b9250827fffffffffffffffffffffffffffffffffffffffffffffffffffffffffffffffff03821115614e0c57614e0b6150d5565b5b828201905092915050565b6000614e2282614fc5565b9150614e2d83614fc5565b925082614e3d57614e3c615104565b5b828204905092915050565b6000614e5382614fc5565b9150614e5e83614fc5565b9250817fffffffffffffffffffffffffffffffffffffffffffffffffffffffffffffffff0483118215151615614e9757614e966150d5565b5b828202905092915050565b6000614ead82614f9b565b9150614eb883614f9b565b9250827f800000000000000000000000000000000000000000000000000000000000000001821260008412151615614ef357614ef26150d5565b5b827f7fffffffffffffffffffffffffffffffffffffffffffffffffffffffffffffff018213600084121615614f2b57614f2a6150d5565b5b828203905092915050565b6000614f4182614fc5565b9150614f4c83614fc5565b925082821015614f5f57614f5e6150d5565b5b828203905092915050565b6000614f7582614fa5565b9050919050565b60008115159050919050565b6000819050614f96826155b1565b919050565b6000819050919050565b600073ffffffffffffffffffffffffffffffffffffffff82169050919050565b6000819050919050565b600060ff82169050919050565b6000614fe782614fee565b9050919050565b6000614ff982614fa5565b9050919050565b600061500b82614f88565b9050919050565b61501b82615203565b810181811067ffffffffffffffff8211171561503a576150396151c0565b5b80604052505050565b600061504e82614fc5565b91507fffffffffffffffffffffffffffffffffffffffffffffffffffffffffffffffff821415615081576150806150d5565b5b600182019050919050565b600061509782614f9b565b91507f80000000000000000000000000000000000000000000000000000000000000008214156150ca576150c96150d5565b5b816000039050919050565b7f4e487b7100000000000000000000000000000000000000000000000000000000600052601160045260246000fd5b7f4e487b7100000000000000000000000000000000000000000000000000000000600052601260045260246000fd5b7f4e487b7100000000000000000000000000000000000000000000000000000000600052602160045260246000fd5b7f4e487b7100000000000000000000000000000000000000000000000000000000600052603160045260246000fd5b7f4e487b7100000000000000000000000000000000000000000000000000000000600052603260045260246000fd5b7f4e487b7100000000000000000000000000000000000000000000000000000000600052604160045260246000fd5b600080fd5b600080fd5b600080fd5b600080fd5b6000601f19601f8301169050919050565b7f5468652070657263656e746167652072616e676520706572206173736574206960008201527f73203120746f2039390000000000000000000000000000000000000000000000602082015250565b7f4f776e61626c653a206e6577206f776e657220697320746865207a65726f206160008201527f6464726573730000000000000000000000000000000000000000000000000000602082015250565b7f4173736574206e6f7420616c6c6f77656420696e20706f7274666f6c696f0000600082015250565b7f4e6f7420656e6f7567682066756e647300000000000000000000000000000000600082015250565b7f506f7274666f6c696f20616c7265616479206372656174656400000000000000600082015250565b7f52656163686564206d61782062616c616e636520746f207370656e6400000000600082015250565b7f506f7274666f6c696f206d757374206265206163746976650000000000000000600082015250565b7f4e6f7420656e6f7567682062616c616e63650000000000000000000000000000600082015250565b7f4d617820616d6f756e74206f662061737365747320616c6c6f77656400000000600082015250565b7f506f7274666f6c696f206d757374206265207365616c65640000000000000000600082015250565b7f4d697373696e67206461746120666f722061737365747320616e64207065726360008201527f656e746167657300000000000000000000000000000000000000000000000000602082015250565b7f5468652073756d206f6620616c6c207468652070657263656e7461676573206d60008201527f75737420657175616c2031303000000000000000000000000000000000000000602082015250565b7f5468657265206973206e6f20706f7274666f6c696f0000000000000000000000600082015250565b7f4465706f7369742076616c7565206d757374206265206772617465722074686160008201527f6e207a65726f0000000000000000000000000000000000000000000000000000602082015250565b7f4f776e61626c653a2063616c6c6572206973206e6f7420746865206f776e6572600082015250565b7f417373657420697320616c6c6f77656420616c72656164790000000000000000600082015250565b7f546865206d696e696d756d20616d6f756e74206f66206173736574732069732060008201527f3200000000000000000000000000000000000000000000000000000000000000602082015250565b600481106155c2576155c1615133565b5b50565b6155ce81614f6a565b81146155d957600080fd5b50565b6155e581614f7c565b81146155f057600080fd5b50565b6155fc81614fc5565b811461560757600080fd5b5056fea2646970667358221220606eeb71fdb65f6e947198cf37435c3d99be6f5695fe2fbac339737dca21f79764736f6c63430008060033",
  "immutableReferences": {},
  "source": "// SPDX-License-Identifier: MIT\npragma solidity 0.8.6;\n\nimport \"@openzeppelin/contracts/access/Ownable.sol\";\nimport './interfaces/IUniswapV2Router02.sol';\nimport './interfaces/IERC20.sol';\n\n/**\n * @title Hold a user portfolio with multiple assets\n * @author Gabriel R. Dias\n * @notice This is an experimental contract, don't use in production environment\n */\ncontract Balancer is Ownable {\n\n    // -----------------------------------------------\n    // Properties\n    // -----------------------------------------------\n\n    IUniswapV2Router02 public router;\n\n    /// @notice Holds an account balance in the contract (not assigned to any asset in a portfolio)\n    mapping(address => uint) public balances;\n\n    /// @notice allowed assets that can be part of a portfolio (to be edited only by contract owner)\n    address[] public allowedAssets;\n\n    // @notice local store of asset prices\n    mapping(address => uint) public assetPrices;\n\n    /// @notice the max amount of assets an account can add in a portfolio\n    uint8 public constant MAX_PORTFOLIO_ASSETS = 10;\n\n    struct Portfolio {\n        State status;\n        mapping(address => uint) assetPercentages;\n        mapping(address => uint) assetBalances;\n        /// @dev this array make it easy to iterate over the portfolio assets\n        address[] assets;\n    }\n\n    enum State { Empty, Sealed, Initialized, Running }\n\n    /// @notice Holds an account portfolio\n    mapping(address => Portfolio) public portfolios;\n\n    // -----------------------------------------------\n    // Events\n    // -----------------------------------------------\n\n    /// @notice Emitted when a new allowed asset is added to the contract\n    /// @param assetAddress The asset address\n    event LogAllowedAssetAdded(address assetAddress);\n\n    /// @notice Emitted when a new deposit is made\n    /// @param accountAddress The deposit address\n    /// @param amount The deposit amount\n    event LogDepositMade(address accountAddress, uint amount);\n\n    /// @notice Emitted when a withdraw is made\n    /// @param accountAddress The withdraw address\n    /// @param withdrawAmount The withdraw amount\n    /// @param newBalance The new balance after the withdraw\n    event LogWithdrawal(\n        address accountAddress,\n        uint withdrawAmount,\n        uint newBalance\n    );\n\n    /// @notice Emitted when a new portfolio is created\n    /// @param accountAddress The withdraw address\n    /// @param assets The assets address\n    /// @param percentages The assigned percentage per asset (in order)\n    event LogPortfolioCreated(address accountAddress, address[] assets, uint[] percentages);\n\n    /// @notice Emitted when a portfolio is initialized\n    /// @param accountAddress The account which performed the operation\n    event LogPortfolioInitialized(address accountAddress);\n\n    /// @notice Emitted when a portfolio was rebalanced\n    /// @param accountAddress The account which performed the operation\n    event LogPortfolioRebalanced(address accountAddress);\n\n    /// @notice Emitted when a portfolio is deleted\n    /// @param accountAddress The account which performed the operation\n    event LogPortfolioDeleted(address accountAddress);\n\n    // -----------------------------------------------\n    // Modifiers\n    // -----------------------------------------------\n\n    /// @notice Check is a valid asset\n    /// @param _assetAddress The address of the asset to check\n    modifier isValidAsset(address _assetAddress) {\n        // TODO: check the address is a ERC20 token which supports 18 decimals\n        _;\n    }\n\n    /// @notice Check the asset is not already added to the allowed list\n    /// @param _assetAddress The address of the token to be added\n    modifier isNewAllowedAsset(address _assetAddress) {\n        bool isNew = true;\n        for (uint i; i < allowedAssets.length; i++) {\n            if (allowedAssets[i] == _assetAddress) {\n                isNew = false;\n            }\n        }\n        require(isNew, \"Asset is allowed already\");\n        _;\n    }\n\n    // -----------------------------------------------\n    // Methods\n    // -----------------------------------------------\n\n    constructor (address _router) {\n        // uniswap router\n        router = IUniswapV2Router02(_router);\n    }\n\n    // fallback method\n    receive() external payable {}\n\n    /// @notice Let the contract owner add new allowed tokens\n    /// @param _assetAddress Token address\n    function addAllowedAsset(address _assetAddress)\n    public\n    isValidAsset(_assetAddress)\n    isNewAllowedAsset(_assetAddress)\n    onlyOwner\n    {\n        allowedAssets.push(_assetAddress);\n        emit LogAllowedAssetAdded(_assetAddress);\n    }\n    \n    /// @return The allowed assets in the contract\n    function allowedAssetsList() public view returns (address[] memory) {\n        return allowedAssets;\n    }\n\n    /// @notice Reveal an account portfolio\n    /// @param _accountAddress The portfolio account\n    /// @return The account portfolio\n    function fetchPortfolio(address _accountAddress) public view returns\n    (\n        State,\n        address[] memory,\n        uint[] memory,\n        uint[] memory\n    ) {\n        uint count = portfolios[_accountAddress].assets.length;\n\n        address assetAddress;\n        address[] memory assets = new address[](count);\n        uint[] memory percentages = new uint[](count);\n        uint[] memory assetBalances = new uint[](count);\n\n        for (uint i = 0; i < count; i++) {\n            assetAddress = portfolios[_accountAddress].assets[i];\n            assets[i] = assetAddress;\n            percentages[i] = portfolios[_accountAddress].assetPercentages[assetAddress];\n            assetBalances[i] = portfolios[_accountAddress].assetBalances[assetAddress];\n        }\n\n        return (\n            portfolios[_accountAddress].status,\n            assets,\n            percentages,\n            assetBalances\n        );\n    }\n\n    /// @notice Fetch the portfolio status\n    /// @param _accountAddress The portfolio account\n    /// @return Returns the status\n    function getPortfolioStatus(address _accountAddress) public view returns (State) {\n        return portfolios[_accountAddress].status;\n    }\n\n    /// @notice Deposit ether in the contract\n    /// @return The balance of the account after the deposit is made\n    function deposit() public payable returns (uint) {\n        require(msg.value > 0, \"Deposit value must be grater than zero\");\n        balances[msg.sender] += msg.value;\n        emit LogDepositMade(msg.sender, msg.value);\n\n        return balances[msg.sender];\n    }\n\n    /// @notice Withdraw ether from the contract\n    /// @dev This does not return any excess ether sent to it\n    /// @param _withdrawAmount amount to withdraw\n    /// @return The balance remaining for the account performing the operation\n    function withdraw(uint _withdrawAmount) public returns (uint) {\n        require(balances[msg.sender] >= _withdrawAmount, \"Not enough funds\");\n        balances[msg.sender] -= _withdrawAmount;\n        payable(msg.sender).transfer(_withdrawAmount);\n\n        emit LogWithdrawal(msg.sender, _withdrawAmount, balances[msg.sender]);\n\n        return balances[msg.sender];\n    }\n\n    /// @notice Check if the asset is allowed for use in the contract\n    /// @param _assetAddress The address of the token to be added\n    function isAllowedAsset(address _assetAddress) private view returns (bool) {\n        for (uint i; i < allowedAssets.length; i++) {\n            if (allowedAssets[i] == _assetAddress) {\n                return true;\n            }\n        }\n\n        return false;\n    }\n\n    /// @notice Creates a portfolio and seal it (close it for changes)\n    /// @dev The order is relevant: each percentage will be associated with the corresponding asset by order\n    /// @param _assets Assets address (must be an allowed token)\n    /// @param _percentages The allocation percentage for each asset\n    function createPortfolio(\n        address[] memory _assets,\n        uint[] memory _percentages)\n    external {\n        require(balances[msg.sender] > 0, \"Not enough funds\");\n        require(portfolios[msg.sender].status == State.Empty, \"Portfolio already created\");\n        require(_assets.length <= MAX_PORTFOLIO_ASSETS, \"Max amount of assets allowed\");\n        require(_assets.length >= 2, \"The minimum amount of assets is 2\");\n        require(_assets.length == _percentages.length, \"Missing data for assets and percentages\");\n\n        // check total percentage integrity\n        uint total = 0;\n        for (uint i = 0; i < _percentages.length; i++) {\n            require(_percentages[i] >= 1 && _percentages[i] <= 99, \"The percentage range per asset is 1 to 99\");\n            total += _percentages[i];\n        }\n\n        require(total == 100, \"The sum of all the percentages must equal 100\");\n\n        // check assets integrity and add them to the portfolio\n        for (uint i = 0; i < _assets.length; i++) {\n            require(isAllowedAsset(_assets[i]), \"Asset not allowed in portfolio\");\n            portfolios[msg.sender].assetPercentages[_assets[i]] = _percentages[i];\n            portfolios[msg.sender].assets.push(_assets[i]);\n        }\n\n        // finally, let's seal the portfolio\n        portfolios[msg.sender].status = State.Sealed;\n\n        emit LogPortfolioCreated(msg.sender, _assets, _percentages);\n    }\n\n    /// @notice Stop the portfolio rebalancing and return the assets balance to ether\n    function deletePortfolio() public {\n        require(portfolios[msg.sender].status != State.Empty, \"There is no portfolio\");\n\n        uint bought;\n        address assetAddress;\n        for (uint i = 0; i < portfolios[msg.sender].assets.length; i++) {\n\n            assetAddress = portfolios[msg.sender].assets[i];\n            if (portfolios[msg.sender].assetBalances[assetAddress] > 0) {\n                bought = swapTokensForETH(\n                    assetAddress,\n                    portfolios[msg.sender].assetBalances[assetAddress]\n                );\n\n                // increment the account balance with the result of the assets sold\n                balances[msg.sender] += bought;\n                portfolios[msg.sender].assetBalances[assetAddress] = 0;\n            }\n\n            portfolios[msg.sender].assetPercentages[assetAddress] = 0;\n\n            // delete the asset from the portfolio assets list\n            portfolios[msg.sender].assets.pop();\n        }\n\n        // this will make sure we don't have a remaining element\n        if (portfolios[msg.sender].assets.length == 1) {\n            portfolios[msg.sender].assets.pop();\n        }\n\n        portfolios[msg.sender].status = State.Empty;\n\n        emit LogPortfolioDeleted(msg.sender);\n    }\n\n    /// @notice Run the first asset distribution once the portfolio is sealed\n    function runInitialPortfolioDistribution() public {\n        require(balances[msg.sender] > 0, \"Not enough balance\");\n        require(portfolios[msg.sender].status == State.Sealed, \"Portfolio must be sealed\");\n\n        // change the portfolio status to initialized\n        portfolios[msg.sender].status = State.Initialized;\n\n        uint initialBalance = balances[msg.sender];\n        uint percentage;\n        uint bought;\n        uint desiredAmountToSpend;\n        address _assetAddress;\n        for (uint i = 0; i < portfolios[msg.sender].assets.length; i++) {\n            _assetAddress = portfolios[msg.sender].assets[i];\n            percentage = portfolios[msg.sender].assetPercentages[_assetAddress];\n            desiredAmountToSpend = (initialBalance * percentage) / 100;\n\n            require(\n                desiredAmountToSpend <= balances[msg.sender],\n                \"Reached max balance to spend\"\n            );\n\n            bought = swapETHForTokens(_assetAddress, desiredAmountToSpend);\n\n            assetPrices[_assetAddress] = (10**18 * desiredAmountToSpend) / bought;\n            portfolios[msg.sender].assetBalances[_assetAddress] += bought;\n            balances[msg.sender] -= desiredAmountToSpend;\n        }\n\n        emit LogPortfolioInitialized(msg.sender);\n    }\n\n    /// @notice Swap ETH amount for tokens\n    /// @param _destTokenAddress The destination token address\n    /// @param _amountIn The amount of ETH to exchange\n    /// @return The amount of tokens bought\n    function swapETHForTokens(address _destTokenAddress, uint _amountIn)\n    public\n    returns (uint)\n    {\n        /// @dev When using ether in the path, the WETH token address is needed because there is no address for ether ;)\n        address origTokenAddress = router.WETH();\n\n        address[] memory path = new address[](2);\n        path[0] = origTokenAddress;\n        path[1] = _destTokenAddress;\n\n        IERC20(origTokenAddress).approve(address(router), _amountIn);\n\n        uint[] memory minOuts = router.getAmountsOut(_amountIn, path);\n\n        router.swapExactETHForTokens{value: _amountIn}(\n            minOuts[1],\n            path,\n            address(this),\n            block.timestamp\n        );\n\n        return minOuts[1];\n    }\n\n    /// @notice Swap tokens amount for ETH\n    /// @param _origTokenAddress The origin token address\n    /// @param _amountIn The amount of tokens to exchange\n    /// @return The amount of ETH bought\n    function swapTokensForETH(address _origTokenAddress, uint _amountIn)\n    public\n    returns (uint)\n    {\n        address destTokenAddress = router.WETH();\n\n        address[] memory path = new address[](2);\n        path[0] = _origTokenAddress;\n        path[1] = destTokenAddress;\n\n        IERC20(_origTokenAddress).approve(address(router), _amountIn);\n\n        uint[] memory minOuts = router.getAmountsOut(_amountIn, path);\n\n        router.swapExactTokensForETH(\n            _amountIn,\n            minOuts[1],\n            path,\n            address(this),\n            block.timestamp\n        );\n\n        return minOuts[1];\n    }\n\n    /// @notice Returns the price of a token\n    /// @dev TODO: check performance using uniswap factory and pair contracts to retrieve a token price.\n    /// @dev TODO: create an asset price cache\n    /// @param _token The asset address\n    /// @return The asset price in wei\n    function getAssetPrice(address _token) public returns (uint)\n    {\n        uint amount = 10**18;\n        address[] memory path = new address[](2);\n        path[0] = router.WETH();\n        path[1] = _token;\n\n        IERC20(router.WETH()).approve(address(router), amount);\n        uint estimatedBuy = router.getAmountsOut(amount, path)[1];\n\n        return (10**18 * 10**18) / estimatedBuy;\n    }\n\n    /// @notice Runs a full portfolio rebalance\n    function runPortfolioRebalance() external {\n\n        require(\n            portfolios[msg.sender].status == State.Initialized ||\n            portfolios[msg.sender].status == State.Running,\n            \"Portfolio must be active\"\n        );\n\n        // change the portfolio status to running\n        portfolios[msg.sender].status = State.Running;\n\n        // 1. update portfolio asset prices\n        address assetAddress;\n        uint bought;\n        for (uint i = 0; i < portfolios[msg.sender].assets.length; i++) {\n            assetAddress = portfolios[msg.sender].assets[i];\n            assetPrices[assetAddress] = getAssetPrice(assetAddress);\n        }\n\n        // 2. calculate the new portfolio total value\n        uint currentHolding;\n        uint[] memory newHoldingValue = new uint[](portfolios[msg.sender].assets.length);\n        uint newPortfolioTotalBalance = 0;\n        for (uint i = 0; i < portfolios[msg.sender].assets.length; i++) {\n            assetAddress = portfolios[msg.sender].assets[i];\n\n            // get the current holding for the coin\n            currentHolding = portfolios[msg.sender].assetBalances[assetAddress];\n\n            newHoldingValue[i] = (assetPrices[assetAddress] * currentHolding) / 10**18;\n            newPortfolioTotalBalance += newHoldingValue[i];\n        }\n\n        // 3. Prepare buy and sell orders\n        uint gasReserve = 30000000000000000;\n        newPortfolioTotalBalance = newPortfolioTotalBalance - gasReserve;\n\n        uint percentage;\n        int diff;\n        uint[] memory sellOrders = new uint[](portfolios[msg.sender].assets.length);\n        uint[] memory buyOrders = new uint[](portfolios[msg.sender].assets.length);\n        for (uint i = 0; i < portfolios[msg.sender].assets.length; i++) {\n            assetAddress = portfolios[msg.sender].assets[i];\n\n            // get current percentage\n            percentage = portfolios[msg.sender].assetPercentages[assetAddress];\n            diff =\n            int((newPortfolioTotalBalance * percentage) / 100) -\n            int(newHoldingValue[i]);\n\n            if (diff > 0) {\n                buyOrders[i] = uint(diff);\n            } else {\n                sellOrders[i] = uint(-diff);\n            }\n        }\n\n        // 4. Execute sell orders\n        uint amountToSwap;\n        for (uint i = 0; i < sellOrders.length; i++) {\n            // TODO: do we need to do anything if sell amount is lower than the gas that will consume the operation?\n            if (sellOrders[i] > 0) {\n                assetAddress = portfolios[msg.sender].assets[i];\n                amountToSwap = (sellOrders[i] * 10**18) / assetPrices[assetAddress];\n\n                bought = swapTokensForETH(assetAddress, amountToSwap);\n                balances[msg.sender] += bought;\n                portfolios[msg.sender].assetBalances[assetAddress] -= amountToSwap;\n            }\n        }\n\n        // 5. Execute buy orders\n        for (uint i = 0; i < buyOrders.length; i++) {\n            // TODO: do we need to do anything if buy amount is lower than the gas that will consume the operation?\n            if (buyOrders[i] > 0) {\n                assetAddress = portfolios[msg.sender].assets[i];\n                amountToSwap = buyOrders[i];\n\n                bought = swapETHForTokens(assetAddress, amountToSwap);\n\n                portfolios[msg.sender].assetBalances[assetAddress] += bought;\n                balances[msg.sender] -= amountToSwap;\n            }\n        }\n\n        // 6. Handle any remaining balance\n        // TODO: handle the gas reserve properly\n        //balances[msg.sender] += gasReserve;\n\n        emit LogPortfolioRebalanced(msg.sender);\n    }\n\n    function fetchAssetsPrices() external view returns (address[] memory, uint[] memory) {\n        address[] memory assets = new address[](allowedAssets.length);\n        uint[] memory prices = new uint[](allowedAssets.length);\n\n        for (uint i; i < allowedAssets.length; i++) {\n            assets[i] = allowedAssets[i];\n            prices[i] = assetPrices[allowedAssets[i]];\n        }\n\n        return (assets, prices);\n    }\n\n    function updateAssetPrices() external {\n        for (uint i = 0; i < allowedAssets.length; i++) {\n            assetPrices[allowedAssets[i]] = getAssetPrice(allowedAssets[i]);\n        }\n    }\n}\n",
  "sourcePath": "/Users/gabrieldias/code/bootcamp_consensys/blockchain-developer-bootcamp-final-project/contracts/Balancer.sol",
  "compiler": {
    "name": "solc",
    "version": "0.8.6+commit.11564f7e.Emscripten.clang"
  },
  "schemaVersion": "3.4.1",
  "updatedAt": "2021-11-29T08:49:49.233Z",
  "networkType": "ethereum",
  "devdoc": {
    "author": "Gabriel R. Dias",
    "events": {
      "LogAllowedAssetAdded(address)": {
        "params": {
          "assetAddress": "The asset address"
        }
      },
      "LogDepositMade(address,uint256)": {
        "params": {
          "accountAddress": "The deposit address",
          "amount": "The deposit amount"
        }
      },
      "LogPortfolioCreated(address,address[],uint256[])": {
        "params": {
          "accountAddress": "The withdraw address",
          "assets": "The assets address",
          "percentages": "The assigned percentage per asset (in order)"
        }
      },
      "LogPortfolioDeleted(address)": {
        "params": {
          "accountAddress": "The account which performed the operation"
        }
      },
      "LogPortfolioInitialized(address)": {
        "params": {
          "accountAddress": "The account which performed the operation"
        }
      },
      "LogPortfolioRebalanced(address)": {
        "params": {
          "accountAddress": "The account which performed the operation"
        }
      },
      "LogWithdrawal(address,uint256,uint256)": {
        "params": {
          "accountAddress": "The withdraw address",
          "newBalance": "The new balance after the withdraw",
          "withdrawAmount": "The withdraw amount"
        }
      }
    },
    "kind": "dev",
    "methods": {
      "addAllowedAsset(address)": {
        "params": {
          "_assetAddress": "Token address"
        }
      },
      "allowedAssetsList()": {
        "returns": {
          "_0": "The allowed assets in the contract"
        }
      },
      "createPortfolio(address[],uint256[])": {
        "details": "The order is relevant: each percentage will be associated with the corresponding asset by order",
        "params": {
          "_assets": "Assets address (must be an allowed token)",
          "_percentages": "The allocation percentage for each asset"
        }
      },
      "deposit()": {
        "returns": {
          "_0": "The balance of the account after the deposit is made"
        }
      },
      "fetchPortfolio(address)": {
        "params": {
          "_accountAddress": "The portfolio account"
        },
        "returns": {
          "_0": "The account portfolio"
        }
      },
      "getAssetPrice(address)": {
        "details": "TODO: check performance using uniswap factory and pair contracts to retrieve a token price.TODO: create an asset price cache",
        "params": {
          "_token": "The asset address"
        },
        "returns": {
          "_0": "The asset price in wei"
        }
      },
      "getPortfolioStatus(address)": {
        "params": {
          "_accountAddress": "The portfolio account"
        },
        "returns": {
          "_0": "Returns the status"
        }
      },
      "owner()": {
        "details": "Returns the address of the current owner."
      },
      "renounceOwnership()": {
        "details": "Leaves the contract without owner. It will not be possible to call `onlyOwner` functions anymore. Can only be called by the current owner. NOTE: Renouncing ownership will leave the contract without an owner, thereby removing any functionality that is only available to the owner."
      },
      "swapETHForTokens(address,uint256)": {
        "params": {
          "_amountIn": "The amount of ETH to exchange",
          "_destTokenAddress": "The destination token address"
        },
        "returns": {
          "_0": "The amount of tokens bought"
        }
      },
      "swapTokensForETH(address,uint256)": {
        "params": {
          "_amountIn": "The amount of tokens to exchange",
          "_origTokenAddress": "The origin token address"
        },
        "returns": {
          "_0": "The amount of ETH bought"
        }
      },
      "transferOwnership(address)": {
        "details": "Transfers ownership of the contract to a new account (`newOwner`). Can only be called by the current owner."
      },
      "withdraw(uint256)": {
        "details": "This does not return any excess ether sent to it",
        "params": {
          "_withdrawAmount": "amount to withdraw"
        },
        "returns": {
          "_0": "The balance remaining for the account performing the operation"
        }
      }
    },
    "title": "Hold a user portfolio with multiple assets",
    "version": 1
  },
  "userdoc": {
    "events": {
      "LogAllowedAssetAdded(address)": {
        "notice": "Emitted when a new allowed asset is added to the contract"
      },
      "LogDepositMade(address,uint256)": {
        "notice": "Emitted when a new deposit is made"
      },
      "LogPortfolioCreated(address,address[],uint256[])": {
        "notice": "Emitted when a new portfolio is created"
      },
      "LogPortfolioDeleted(address)": {
        "notice": "Emitted when a portfolio is deleted"
      },
      "LogPortfolioInitialized(address)": {
        "notice": "Emitted when a portfolio is initialized"
      },
      "LogPortfolioRebalanced(address)": {
        "notice": "Emitted when a portfolio was rebalanced"
      },
      "LogWithdrawal(address,uint256,uint256)": {
        "notice": "Emitted when a withdraw is made"
      }
    },
    "kind": "user",
    "methods": {
      "MAX_PORTFOLIO_ASSETS()": {
        "notice": "the max amount of assets an account can add in a portfolio"
      },
      "addAllowedAsset(address)": {
        "notice": "Let the contract owner add new allowed tokens"
      },
      "allowedAssets(uint256)": {
        "notice": "allowed assets that can be part of a portfolio (to be edited only by contract owner)"
      },
      "balances(address)": {
        "notice": "Holds an account balance in the contract (not assigned to any asset in a portfolio)"
      },
      "createPortfolio(address[],uint256[])": {
        "notice": "Creates a portfolio and seal it (close it for changes)"
      },
      "deletePortfolio()": {
        "notice": "Stop the portfolio rebalancing and return the assets balance to ether"
      },
      "deposit()": {
        "notice": "Deposit ether in the contract"
      },
      "fetchPortfolio(address)": {
        "notice": "Reveal an account portfolio"
      },
      "getAssetPrice(address)": {
        "notice": "Returns the price of a token"
      },
      "getPortfolioStatus(address)": {
        "notice": "Fetch the portfolio status"
      },
      "portfolios(address)": {
        "notice": "Holds an account portfolio"
      },
      "runInitialPortfolioDistribution()": {
        "notice": "Run the first asset distribution once the portfolio is sealed"
      },
      "runPortfolioRebalance()": {
        "notice": "Runs a full portfolio rebalance"
      },
      "swapETHForTokens(address,uint256)": {
        "notice": "Swap ETH amount for tokens"
      },
      "swapTokensForETH(address,uint256)": {
        "notice": "Swap tokens amount for ETH"
      },
      "withdraw(uint256)": {
        "notice": "Withdraw ether from the contract"
      }
    },
    "notice": "This is an experimental contract, don't use in production environment",
    "version": 1
  }
}