{
  "contractName": "Balancer",
  "abi": [
    {
      "inputs": [],
      "stateMutability": "nonpayable",
      "type": "constructor"
    },
    {
      "anonymous": false,
      "inputs": [
        {
          "indexed": false,
          "internalType": "address",
          "name": "assetAddress",
          "type": "address"
        }
      ],
      "name": "LogAllowedAssetAdded",
      "type": "event"
    },
    {
      "anonymous": false,
      "inputs": [
        {
          "indexed": false,
          "internalType": "address",
          "name": "accountAddress",
          "type": "address"
        },
        {
          "indexed": false,
          "internalType": "uint256",
          "name": "amount",
          "type": "uint256"
        }
      ],
      "name": "LogDepositMade",
      "type": "event"
    },
    {
      "anonymous": false,
      "inputs": [
        {
          "indexed": false,
          "internalType": "address",
          "name": "assetAddress",
          "type": "address"
        },
        {
          "indexed": false,
          "internalType": "uint256",
          "name": "percentage",
          "type": "uint256"
        }
      ],
      "name": "LogPortfolioAssetAdded",
      "type": "event"
    },
    {
      "anonymous": false,
      "inputs": [
        {
          "indexed": false,
          "internalType": "address",
          "name": "accountAddress",
          "type": "address"
        }
      ],
      "name": "LogPortfolioDeleted",
      "type": "event"
    },
    {
      "anonymous": false,
      "inputs": [
        {
          "indexed": false,
          "internalType": "address",
          "name": "accountAddress",
          "type": "address"
        }
      ],
      "name": "LogPortfolioSealed",
      "type": "event"
    },
    {
      "anonymous": false,
      "inputs": [
        {
          "indexed": false,
          "internalType": "address",
          "name": "accountAddress",
          "type": "address"
        },
        {
          "indexed": false,
          "internalType": "uint256",
          "name": "withdrawAmount",
          "type": "uint256"
        },
        {
          "indexed": false,
          "internalType": "uint256",
          "name": "newBalance",
          "type": "uint256"
        }
      ],
      "name": "LogWithdrawal",
      "type": "event"
    },
    {
      "anonymous": false,
      "inputs": [
        {
          "indexed": true,
          "internalType": "address",
          "name": "previousOwner",
          "type": "address"
        },
        {
          "indexed": true,
          "internalType": "address",
          "name": "newOwner",
          "type": "address"
        }
      ],
      "name": "OwnershipTransferred",
      "type": "event"
    },
    {
      "inputs": [],
      "name": "MAX_PORTFOLIO_ASSETS",
      "outputs": [
        {
          "internalType": "uint8",
          "name": "",
          "type": "uint8"
        }
      ],
      "stateMutability": "view",
      "type": "function",
      "constant": true
    },
    {
      "inputs": [
        {
          "internalType": "uint256",
          "name": "",
          "type": "uint256"
        }
      ],
      "name": "allowedAssets",
      "outputs": [
        {
          "internalType": "address",
          "name": "",
          "type": "address"
        }
      ],
      "stateMutability": "view",
      "type": "function",
      "constant": true
    },
    {
      "inputs": [
        {
          "internalType": "address",
          "name": "",
          "type": "address"
        }
      ],
      "name": "assetPrices",
      "outputs": [
        {
          "internalType": "uint256",
          "name": "",
          "type": "uint256"
        }
      ],
      "stateMutability": "view",
      "type": "function",
      "constant": true
    },
    {
      "inputs": [
        {
          "internalType": "address",
          "name": "",
          "type": "address"
        }
      ],
      "name": "balances",
      "outputs": [
        {
          "internalType": "uint256",
          "name": "",
          "type": "uint256"
        }
      ],
      "stateMutability": "view",
      "type": "function",
      "constant": true
    },
    {
      "inputs": [],
      "name": "owner",
      "outputs": [
        {
          "internalType": "address",
          "name": "",
          "type": "address"
        }
      ],
      "stateMutability": "view",
      "type": "function",
      "constant": true
    },
    {
      "inputs": [
        {
          "internalType": "address",
          "name": "",
          "type": "address"
        }
      ],
      "name": "portfolios",
      "outputs": [
        {
          "internalType": "bool",
          "name": "sealedPortfolio",
          "type": "bool"
        }
      ],
      "stateMutability": "view",
      "type": "function",
      "constant": true
    },
    {
      "inputs": [],
      "name": "renounceOwnership",
      "outputs": [],
      "stateMutability": "nonpayable",
      "type": "function"
    },
    {
      "inputs": [
        {
          "internalType": "address",
          "name": "newOwner",
          "type": "address"
        }
      ],
      "name": "transferOwnership",
      "outputs": [],
      "stateMutability": "nonpayable",
      "type": "function"
    },
    {
      "stateMutability": "payable",
      "type": "receive",
      "payable": true
    },
    {
      "inputs": [
        {
          "internalType": "address",
          "name": "_assetAddress",
          "type": "address"
        }
      ],
      "name": "addAllowedAsset",
      "outputs": [],
      "stateMutability": "nonpayable",
      "type": "function"
    },
    {
      "inputs": [],
      "name": "allowedAssetsList",
      "outputs": [
        {
          "internalType": "address[]",
          "name": "",
          "type": "address[]"
        }
      ],
      "stateMutability": "view",
      "type": "function",
      "constant": true
    },
    {
      "inputs": [
        {
          "internalType": "address",
          "name": "_accountAddress",
          "type": "address"
        }
      ],
      "name": "fetchPortfolio",
      "outputs": [
        {
          "internalType": "bool",
          "name": "",
          "type": "bool"
        },
        {
          "internalType": "address[]",
          "name": "",
          "type": "address[]"
        },
        {
          "internalType": "uint256[]",
          "name": "",
          "type": "uint256[]"
        },
        {
          "internalType": "uint256[]",
          "name": "",
          "type": "uint256[]"
        }
      ],
      "stateMutability": "view",
      "type": "function",
      "constant": true
    },
    {
      "inputs": [
        {
          "internalType": "address",
          "name": "_accountAddress",
          "type": "address"
        }
      ],
      "name": "isPortfolioSealed",
      "outputs": [
        {
          "internalType": "bool",
          "name": "",
          "type": "bool"
        }
      ],
      "stateMutability": "view",
      "type": "function",
      "constant": true
    },
    {
      "inputs": [],
      "name": "deposit",
      "outputs": [
        {
          "internalType": "uint256",
          "name": "",
          "type": "uint256"
        }
      ],
      "stateMutability": "payable",
      "type": "function",
      "payable": true
    },
    {
      "inputs": [
        {
          "internalType": "uint256",
          "name": "_withdrawAmount",
          "type": "uint256"
        }
      ],
      "name": "withdraw",
      "outputs": [
        {
          "internalType": "uint256",
          "name": "",
          "type": "uint256"
        }
      ],
      "stateMutability": "nonpayable",
      "type": "function"
    },
    {
      "inputs": [
        {
          "internalType": "address",
          "name": "_assetAddress",
          "type": "address"
        },
        {
          "internalType": "uint256",
          "name": "_percentage",
          "type": "uint256"
        }
      ],
      "name": "addPortfolioAsset",
      "outputs": [],
      "stateMutability": "nonpayable",
      "type": "function"
    },
    {
      "inputs": [],
      "name": "sealPortfolio",
      "outputs": [],
      "stateMutability": "nonpayable",
      "type": "function"
    },
    {
      "inputs": [
        {
          "internalType": "address[]",
          "name": "assets",
          "type": "address[]"
        },
        {
          "internalType": "uint256[]",
          "name": "percentages",
          "type": "uint256[]"
        }
      ],
      "name": "createFullPortfolio",
      "outputs": [],
      "stateMutability": "nonpayable",
      "type": "function"
    },
    {
      "inputs": [],
      "name": "deletePortfolio",
      "outputs": [],
      "stateMutability": "nonpayable",
      "type": "function"
    },
    {
      "inputs": [],
      "name": "runInitialPortfolioDistribution",
      "outputs": [],
      "stateMutability": "nonpayable",
      "type": "function"
    },
    {
      "inputs": [
        {
          "internalType": "address",
          "name": "_destTokenAddress",
          "type": "address"
        },
        {
          "internalType": "uint256",
          "name": "_amountIn",
          "type": "uint256"
        }
      ],
      "name": "swapETHForTokens",
      "outputs": [
        {
          "internalType": "uint256",
          "name": "",
          "type": "uint256"
        }
      ],
      "stateMutability": "nonpayable",
      "type": "function"
    },
    {
      "inputs": [
        {
          "internalType": "address",
          "name": "_origTokenAddress",
          "type": "address"
        },
        {
          "internalType": "uint256",
          "name": "_amountIn",
          "type": "uint256"
        }
      ],
      "name": "swapTokensForETH",
      "outputs": [
        {
          "internalType": "uint256",
          "name": "",
          "type": "uint256"
        }
      ],
      "stateMutability": "nonpayable",
      "type": "function"
    },
    {
      "inputs": [],
      "name": "fetchAssetsPrices",
      "outputs": [
        {
          "internalType": "address[]",
          "name": "",
          "type": "address[]"
        },
        {
          "internalType": "uint256[]",
          "name": "",
          "type": "uint256[]"
        }
      ],
      "stateMutability": "view",
      "type": "function",
      "constant": true
    },
    {
      "inputs": [],
      "name": "updateAssetPrices",
      "outputs": [],
      "stateMutability": "nonpayable",
      "type": "function"
    },
    {
      "inputs": [
        {
          "internalType": "address",
          "name": "token2",
          "type": "address"
        },
        {
          "internalType": "uint256",
          "name": "amount",
          "type": "uint256"
        }
      ],
      "name": "checkAmountOut",
      "outputs": [
        {
          "internalType": "uint256",
          "name": "",
          "type": "uint256"
        }
      ],
      "stateMutability": "nonpayable",
      "type": "function"
    },
    {
      "inputs": [],
      "name": "runPortfolioRebalance",
      "outputs": [],
      "stateMutability": "nonpayable",
      "type": "function"
    }
  ],
  "bytecode": "0x6080604052737a250d5630b4cf539739df2c5dacb4c659f2488d600160006101000a81548173ffffffffffffffffffffffffffffffffffffffff021916908373ffffffffffffffffffffffffffffffffffffffff16021790555073c778417e063141139fce010982780140aa0cd5ab600260006101000a81548173ffffffffffffffffffffffffffffffffffffffff021916908373ffffffffffffffffffffffffffffffffffffffff160217905550348015620000bb57600080fd5b50620000dc620000d0620000e260201b60201c565b620000ea60201b60201c565b620001ae565b600033905090565b60008060009054906101000a900473ffffffffffffffffffffffffffffffffffffffff169050816000806101000a81548173ffffffffffffffffffffffffffffffffffffffff021916908373ffffffffffffffffffffffffffffffffffffffff1602179055508173ffffffffffffffffffffffffffffffffffffffff168173ffffffffffffffffffffffffffffffffffffffff167f8be0079c531659141344cd1fd0a4f28419497f9722a3daafe3b4186f6b6457e060405160405180910390a35050565b61561f80620001be6000396000f3fe60806040526004361061016a5760003560e01c80637baab3da116100d1578063b6468a611161008a578063d1fd8d3111610064578063d1fd8d3114610566578063dd0b3e891461057d578063dfa23ed214610594578063f2fde38b146105ab57610171565b8063b6468a61146104df578063c538b1e61461051c578063d0e30db01461054857610171565b80637baab3da146103e35780637ece3c381461042057806381251606146104375780638da5cb5b1461044e57806398971f1414610479578063abbc1c07146104a257610171565b80634e84eaaa116101235780634e84eaaa146102c157806351422e97146102ec57806357fbbef0146103295780635e9a523c14610366578063715018a6146103a357806374f26610146103ba57610171565b80630ccd3ef9146101765780630dcf52dd146101b357806325b175c2146101de57806327e235e3146102075780632e1a7d4d1461024457806343f097861461028157610171565b3661017157005b600080fd5b34801561018257600080fd5b5061019d6004803603810190610198919061431b565b6105d4565b6040516101aa919061476d565b60405180910390f35b3480156101bf57600080fd5b506101c8610613565b6040516101d591906147e8565b60405180910390f35b3480156101ea57600080fd5b506102056004803603810190610200919061422d565b6106a1565b005b34801561021357600080fd5b5061022e600480360381019061022991906141c0565b610827565b60405161023b9190614b56565b60405180910390f35b34801561025057600080fd5b5061026b6004803603810190610266919061431b565b61083f565b6040516102789190614b56565b60405180910390f35b34801561028d57600080fd5b506102a860048036038101906102a391906141c0565b610a21565b6040516102b8949392919061485c565b60405180910390f35b3480156102cd57600080fd5b506102d6610ded565b6040516102e39190614c47565b60405180910390f35b3480156102f857600080fd5b50610313600480360381019061030e91906141ed565b610df2565b6040516103209190614b56565b60405180910390f35b34801561033557600080fd5b50610350600480360381019061034b91906141ed565b611168565b60405161035d9190614b56565b60405180910390f35b34801561037257600080fd5b5061038d600480360381019061038891906141c0565b611409565b60405161039a9190614b56565b60405180910390f35b3480156103af57600080fd5b506103b8611421565b005b3480156103c657600080fd5b506103e160048036038101906103dc91906141ed565b6114a9565b005b3480156103ef57600080fd5b5061040a600480360381019061040591906141c0565b611aa2565b6040516104179190614841565b60405180910390f35b34801561042c57600080fd5b50610435611acd565b005b34801561044357600080fd5b5061044c611fca565b005b34801561045a57600080fd5b50610463612b26565b604051610470919061476d565b60405180910390f35b34801561048557600080fd5b506104a0600480360381019061049b91906141c0565b612b4f565b005b3480156104ae57600080fd5b506104c960048036038101906104c491906141c0565b612d4e565b6040516104d69190614841565b60405180910390f35b3480156104eb57600080fd5b50610506600480360381019061050191906141ed565b612da7565b6040516105139190614b56565b60405180910390f35b34801561052857600080fd5b5061053161311e565b60405161053f92919061480a565b60405180910390f35b61055061331e565b60405161055d9190614b56565b60405180910390f35b34801561057257600080fd5b5061057b613436565b005b34801561058957600080fd5b50610592613550565b005b3480156105a057600080fd5b506105a9613a58565b005b3480156105b757600080fd5b506105d260048036038101906105cd91906141c0565b613c4f565b005b600481815481106105e457600080fd5b906000526020600020016000915054906101000a900473ffffffffffffffffffffffffffffffffffffffff1681565b6060600480548060200260200160405190810160405280929190818152602001828054801561069757602002820191906000526020600020905b8160009054906101000a900473ffffffffffffffffffffffffffffffffffffffff1673ffffffffffffffffffffffffffffffffffffffff168152602001906001019080831161064d575b5050505050905090565b600560003373ffffffffffffffffffffffffffffffffffffffff1673ffffffffffffffffffffffffffffffffffffffff16815260200190815260200160002060000160009054906101000a900460ff1615610731576040517f08c379a000000000000000000000000000000000000000000000000000000000815260040161072890614a56565b60405180910390fd5b8051825114610775576040517f08c379a000000000000000000000000000000000000000000000000000000000815260040161076c906149d6565b60405180910390fd5b600a60ff16825111156107bd576040517f08c379a00000000000000000000000000000000000000000000000000000000081526004016107b4906148f6565b60405180910390fd5b60005b825181101561081a576108078382815181106107df576107de6150ba565b5b60200260200101518383815181106107fa576107f96150ba565b5b60200260200101516114a9565b808061081290614f9b565b9150506107c0565b50610823613a58565b5050565b60036020528060005260406000206000915090505481565b600081600360003373ffffffffffffffffffffffffffffffffffffffff1673ffffffffffffffffffffffffffffffffffffffff1681526020019081526020016000205410156108c3576040517f08c379a00000000000000000000000000000000000000000000000000000000081526004016108ba906148d6565b60405180910390fd5b81600360003373ffffffffffffffffffffffffffffffffffffffff1673ffffffffffffffffffffffffffffffffffffffff16815260200190815260200160002060008282546109129190614ed7565b925050819055503373ffffffffffffffffffffffffffffffffffffffff166108fc839081150290604051600060405180830381858888f1935050505015801561095f573d6000803e3d6000fd5b507ff9226daf630542048a23086c6af599511aac100ec8f532793cc9697d061bed7e3383600360003373ffffffffffffffffffffffffffffffffffffffff1673ffffffffffffffffffffffffffffffffffffffff168152602001908152602001600020546040516109d2939291906147b1565b60405180910390a1600360003373ffffffffffffffffffffffffffffffffffffffff1673ffffffffffffffffffffffffffffffffffffffff168152602001908152602001600020549050919050565b600060608060606000600560008773ffffffffffffffffffffffffffffffffffffffff1673ffffffffffffffffffffffffffffffffffffffff1681526020019081526020016000206003018054905090506000808267ffffffffffffffff811115610a8f57610a8e6150e9565b5b604051908082528060200260200182016040528015610abd5781602001602082028036833780820191505090505b50905060008367ffffffffffffffff811115610adc57610adb6150e9565b5b604051908082528060200260200182016040528015610b0a5781602001602082028036833780820191505090505b50905060008467ffffffffffffffff811115610b2957610b286150e9565b5b604051908082528060200260200182016040528015610b575781602001602082028036833780820191505090505b50905060005b85811015610d8557600560008c73ffffffffffffffffffffffffffffffffffffffff1673ffffffffffffffffffffffffffffffffffffffff1681526020019081526020016000206003018181548110610bb957610bb86150ba565b5b9060005260206000200160009054906101000a900473ffffffffffffffffffffffffffffffffffffffff16945084848281518110610bfa57610bf96150ba565b5b602002602001019073ffffffffffffffffffffffffffffffffffffffff16908173ffffffffffffffffffffffffffffffffffffffff1681525050600560008c73ffffffffffffffffffffffffffffffffffffffff1673ffffffffffffffffffffffffffffffffffffffff16815260200190815260200160002060010160008673ffffffffffffffffffffffffffffffffffffffff1673ffffffffffffffffffffffffffffffffffffffff16815260200190815260200160002054838281518110610cc757610cc66150ba565b5b602002602001018181525050600560008c73ffffffffffffffffffffffffffffffffffffffff1673ffffffffffffffffffffffffffffffffffffffff16815260200190815260200160002060020160008673ffffffffffffffffffffffffffffffffffffffff1673ffffffffffffffffffffffffffffffffffffffff16815260200190815260200160002054828281518110610d6657610d656150ba565b5b6020026020010181815250508080610d7d90614f9b565b915050610b5d565b50600560008b73ffffffffffffffffffffffffffffffffffffffff1673ffffffffffffffffffffffffffffffffffffffff16815260200190815260200160002060000160009054906101000a900460ff16838383985098509850985050505050509193509193565b600a81565b600080600260009054906101000a900473ffffffffffffffffffffffffffffffffffffffff1690506000600267ffffffffffffffff811115610e3757610e366150e9565b5b604051908082528060200260200182016040528015610e655781602001602082028036833780820191505090505b5090508181600081518110610e7d57610e7c6150ba565b5b602002602001019073ffffffffffffffffffffffffffffffffffffffff16908173ffffffffffffffffffffffffffffffffffffffff16815250508481600181518110610ecc57610ecb6150ba565b5b602002602001019073ffffffffffffffffffffffffffffffffffffffff16908173ffffffffffffffffffffffffffffffffffffffff16815250508173ffffffffffffffffffffffffffffffffffffffff1663095ea7b3600160009054906101000a900473ffffffffffffffffffffffffffffffffffffffff16866040518363ffffffff1660e01b8152600401610f63929190614788565b602060405180830381600087803b158015610f7d57600080fd5b505af1158015610f91573d6000803e3d6000fd5b505050506040513d601f19601f82011682018060405250810190610fb591906142ee565b506000600160009054906101000a900473ffffffffffffffffffffffffffffffffffffffff1673ffffffffffffffffffffffffffffffffffffffff1663d06ca61f86846040518363ffffffff1660e01b8152600401611015929190614b71565b60006040518083038186803b15801561102d57600080fd5b505afa158015611041573d6000803e3d6000fd5b505050506040513d6000823e3d601f19601f8201168201806040525081019061106a91906142a5565b9050600160009054906101000a900473ffffffffffffffffffffffffffffffffffffffff1673ffffffffffffffffffffffffffffffffffffffff16637ff36ab586836001815181106110bf576110be6150ba565b5b60200260200101518530426040518663ffffffff1660e01b81526004016110e99493929190614ba1565b6000604051808303818588803b15801561110257600080fd5b505af1158015611116573d6000803e3d6000fd5b50505050506040513d6000823e3d601f19601f8201168201806040525081019061114091906142a5565b5080600181518110611155576111546150ba565b5b6020026020010151935050505092915050565b600080600260009054906101000a900473ffffffffffffffffffffffffffffffffffffffff1690506000600267ffffffffffffffff8111156111ad576111ac6150e9565b5b6040519080825280602002602001820160405280156111db5781602001602082028036833780820191505090505b50905081816000815181106111f3576111f26150ba565b5b602002602001019073ffffffffffffffffffffffffffffffffffffffff16908173ffffffffffffffffffffffffffffffffffffffff16815250508481600181518110611242576112416150ba565b5b602002602001019073ffffffffffffffffffffffffffffffffffffffff16908173ffffffffffffffffffffffffffffffffffffffff16815250508173ffffffffffffffffffffffffffffffffffffffff1663095ea7b3600160009054906101000a900473ffffffffffffffffffffffffffffffffffffffff16866040518363ffffffff1660e01b81526004016112d9929190614788565b602060405180830381600087803b1580156112f357600080fd5b505af1158015611307573d6000803e3d6000fd5b505050506040513d601f19601f8201168201806040525081019061132b91906142ee565b506000600160009054906101000a900473ffffffffffffffffffffffffffffffffffffffff1673ffffffffffffffffffffffffffffffffffffffff1663d06ca61f86846040518363ffffffff1660e01b815260040161138b929190614b71565b60006040518083038186803b1580156113a357600080fd5b505afa1580156113b7573d6000803e3d6000fd5b505050506040513d6000823e3d601f19601f820116820180604052508101906113e091906142a5565b9050806001815181106113f6576113f56150ba565b5b6020026020010151935050505092915050565b60066020528060005260406000206000915090505481565b611429613d47565b73ffffffffffffffffffffffffffffffffffffffff16611447612b26565b73ffffffffffffffffffffffffffffffffffffffff161461149d576040517f08c379a000000000000000000000000000000000000000000000000000000000815260040161149490614a36565b60405180910390fd5b6114a76000613d4f565b565b816000805b600480549050811015611545578273ffffffffffffffffffffffffffffffffffffffff16600482815481106114e6576114e56150ba565b5b9060005260206000200160009054906101000a900473ffffffffffffffffffffffffffffffffffffffff1673ffffffffffffffffffffffffffffffffffffffff16141561153257600191505b808061153d90614f9b565b9150506114ae565b5080611586576040517f08c379a000000000000000000000000000000000000000000000000000000000815260040161157d90614a76565b60405180910390fd5b600a60ff16600560003373ffffffffffffffffffffffffffffffffffffffff1673ffffffffffffffffffffffffffffffffffffffff1681526020019081526020016000206003018054905010611611576040517f08c379a000000000000000000000000000000000000000000000000000000000815260040161160890614976565b60405180910390fd5b6000600360003373ffffffffffffffffffffffffffffffffffffffff1673ffffffffffffffffffffffffffffffffffffffff1681526020019081526020016000205411611693576040517f08c379a000000000000000000000000000000000000000000000000000000000815260040161168a90614916565b60405180910390fd5b606483106116d6576040517f08c379a00000000000000000000000000000000000000000000000000000000081526004016116cd90614a96565b60405180910390fd5b60008311611719576040517f08c379a000000000000000000000000000000000000000000000000000000000815260040161171090614956565b60405180910390fd5b600560003373ffffffffffffffffffffffffffffffffffffffff1673ffffffffffffffffffffffffffffffffffffffff16815260200190815260200160002060000160009054906101000a900460ff16156117a9576040517f08c379a00000000000000000000000000000000000000000000000000000000081526004016117a090614b16565b60405180910390fd5b6000600560003373ffffffffffffffffffffffffffffffffffffffff1673ffffffffffffffffffffffffffffffffffffffff16815260200190815260200160002060010160008673ffffffffffffffffffffffffffffffffffffffff1673ffffffffffffffffffffffffffffffffffffffff168152602001908152602001600020541461186b576040517f08c379a000000000000000000000000000000000000000000000000000000000815260040161186290614b36565b60405180910390fd5b82600560003373ffffffffffffffffffffffffffffffffffffffff1673ffffffffffffffffffffffffffffffffffffffff16815260200190815260200160002060010160008673ffffffffffffffffffffffffffffffffffffffff1673ffffffffffffffffffffffffffffffffffffffff1681526020019081526020016000208190555060646118fa33613e13565b111561193b576040517f08c379a000000000000000000000000000000000000000000000000000000000815260040161193290614ab6565b60405180910390fd5b6000600560003373ffffffffffffffffffffffffffffffffffffffff1673ffffffffffffffffffffffffffffffffffffffff16815260200190815260200160002060020160008673ffffffffffffffffffffffffffffffffffffffff1673ffffffffffffffffffffffffffffffffffffffff16815260200190815260200160002081905550600560003373ffffffffffffffffffffffffffffffffffffffff1673ffffffffffffffffffffffffffffffffffffffff168152602001908152602001600020600301849080600181540180825580915050600190039060005260206000200160009091909190916101000a81548173ffffffffffffffffffffffffffffffffffffffff021916908373ffffffffffffffffffffffffffffffffffffffff1602179055507f74f265d2619fe6a0183c9524a5120afb2050287b300ca0770ae5834da23c20888484604051611a94929190614788565b60405180910390a150505050565b60056020528060005260406000206000915090508060000160009054906101000a900460ff16905081565b6000600360003373ffffffffffffffffffffffffffffffffffffffff1673ffffffffffffffffffffffffffffffffffffffff1681526020019081526020016000205411611b4f576040517f08c379a0000000000000000000000000000000000000000000000000000000008152600401611b4690614996565b60405180910390fd5b600560003373ffffffffffffffffffffffffffffffffffffffff1673ffffffffffffffffffffffffffffffffffffffff16815260200190815260200160002060000160009054906101000a900460ff16611bde576040517f08c379a0000000000000000000000000000000000000000000000000000000008152600401611bd5906149b6565b60405180910390fd5b6000600360003373ffffffffffffffffffffffffffffffffffffffff1673ffffffffffffffffffffffffffffffffffffffff16815260200190815260200160002054905060008060008060005b600560003373ffffffffffffffffffffffffffffffffffffffff1673ffffffffffffffffffffffffffffffffffffffff16815260200190815260200160002060030180549050811015611fc257600560003373ffffffffffffffffffffffffffffffffffffffff1673ffffffffffffffffffffffffffffffffffffffff1681526020019081526020016000206003018181548110611ccc57611ccb6150ba565b5b9060005260206000200160009054906101000a900473ffffffffffffffffffffffffffffffffffffffff169150600560003373ffffffffffffffffffffffffffffffffffffffff1673ffffffffffffffffffffffffffffffffffffffff16815260200190815260200160002060010160008373ffffffffffffffffffffffffffffffffffffffff1673ffffffffffffffffffffffffffffffffffffffff16815260200190815260200160002054945060648587611d899190614de9565b611d939190614db8565b9250600360003373ffffffffffffffffffffffffffffffffffffffff1673ffffffffffffffffffffffffffffffffffffffff16815260200190815260200160002054831115611e17576040517f08c379a0000000000000000000000000000000000000000000000000000000008152600401611e0e90614936565b60405180910390fd5b611e218284610df2565b93508383670de0b6b3a7640000611e389190614de9565b611e429190614db8565b6006600060048481548110611e5a57611e596150ba565b5b9060005260206000200160009054906101000a900473ffffffffffffffffffffffffffffffffffffffff1673ffffffffffffffffffffffffffffffffffffffff1673ffffffffffffffffffffffffffffffffffffffff1681526020019081526020016000208190555083600560003373ffffffffffffffffffffffffffffffffffffffff1673ffffffffffffffffffffffffffffffffffffffff16815260200190815260200160002060020160008473ffffffffffffffffffffffffffffffffffffffff1673ffffffffffffffffffffffffffffffffffffffff1681526020019081526020016000206000828254611f529190614d62565b9250508190555082600360003373ffffffffffffffffffffffffffffffffffffffff1673ffffffffffffffffffffffffffffffffffffffff1681526020019081526020016000206000828254611fa89190614ed7565b925050819055508080611fba90614f9b565b915050611c2b565b505050505050565b60008060005b600560003373ffffffffffffffffffffffffffffffffffffffff1673ffffffffffffffffffffffffffffffffffffffff1681526020019081526020016000206003018054905081101561212357600560003373ffffffffffffffffffffffffffffffffffffffff1673ffffffffffffffffffffffffffffffffffffffff1681526020019081526020016000206003018181548110612071576120706150ba565b5b9060005260206000200160009054906101000a900473ffffffffffffffffffffffffffffffffffffffff1692506120b083670de0b6b3a7640000611168565b9150816ec097ce7bc90715b34b9f10000000006120cd9190614db8565b600660008573ffffffffffffffffffffffffffffffffffffffff1673ffffffffffffffffffffffffffffffffffffffff16815260200190815260200160002081905550808061211b90614f9b565b915050611fd0565b50600080600560003373ffffffffffffffffffffffffffffffffffffffff1673ffffffffffffffffffffffffffffffffffffffff1681526020019081526020016000206003018054905067ffffffffffffffff811115612186576121856150e9565b5b6040519080825280602002602001820160405280156121b45781602001602082028036833780820191505090505b5090506000805b600560003373ffffffffffffffffffffffffffffffffffffffff1673ffffffffffffffffffffffffffffffffffffffff168152602001908152602001600020600301805490508110156123c357600560003373ffffffffffffffffffffffffffffffffffffffff1673ffffffffffffffffffffffffffffffffffffffff168152602001908152602001600020600301818154811061225c5761225b6150ba565b5b9060005260206000200160009054906101000a900473ffffffffffffffffffffffffffffffffffffffff169550600560003373ffffffffffffffffffffffffffffffffffffffff1673ffffffffffffffffffffffffffffffffffffffff16815260200190815260200160002060020160008773ffffffffffffffffffffffffffffffffffffffff1673ffffffffffffffffffffffffffffffffffffffff168152602001908152602001600020549350670de0b6b3a764000084600660008973ffffffffffffffffffffffffffffffffffffffff1673ffffffffffffffffffffffffffffffffffffffff1681526020019081526020016000205461235f9190614de9565b6123699190614db8565b83828151811061237c5761237b6150ba565b5b60200260200101818152505082818151811061239b5761239a6150ba565b5b6020026020010151826123ae9190614d62565b915080806123bb90614f9b565b9150506121bb565b506000666a94d74f430000905080826123dc9190614ed7565b91506000806000600560003373ffffffffffffffffffffffffffffffffffffffff1673ffffffffffffffffffffffffffffffffffffffff1681526020019081526020016000206003018054905067ffffffffffffffff811115612442576124416150e9565b5b6040519080825280602002602001820160405280156124705781602001602082028036833780820191505090505b5090506000600560003373ffffffffffffffffffffffffffffffffffffffff1673ffffffffffffffffffffffffffffffffffffffff1681526020019081526020016000206003018054905067ffffffffffffffff8111156124d4576124d36150e9565b5b6040519080825280602002602001820160405280156125025781602001602082028036833780820191505090505b50905060005b600560003373ffffffffffffffffffffffffffffffffffffffff1673ffffffffffffffffffffffffffffffffffffffff1681526020019081526020016000206003018054905081101561270257600560003373ffffffffffffffffffffffffffffffffffffffff1673ffffffffffffffffffffffffffffffffffffffff16815260200190815260200160002060030181815481106125a9576125a86150ba565b5b9060005260206000200160009054906101000a900473ffffffffffffffffffffffffffffffffffffffff169a50600560003373ffffffffffffffffffffffffffffffffffffffff1673ffffffffffffffffffffffffffffffffffffffff16815260200190815260200160002060010160008c73ffffffffffffffffffffffffffffffffffffffff1673ffffffffffffffffffffffffffffffffffffffff16815260200190815260200160002054945087818151811061266b5761266a6150ba565b5b6020026020010151606486896126819190614de9565b61268b9190614db8565b6126959190614e43565b935060008413156126c557838282815181106126b4576126b36150ba565b5b6020026020010181815250506126ef565b836126cf90614fe4565b8382815181106126e2576126e16150ba565b5b6020026020010181815250505b80806126fa90614f9b565b915050612508565b50600080600090505b835181101561293e576000848281518110612729576127286150ba565b5b6020026020010151111561292b57600560003373ffffffffffffffffffffffffffffffffffffffff1673ffffffffffffffffffffffffffffffffffffffff168152602001908152602001600020600301818154811061278b5761278a6150ba565b5b9060005260206000200160009054906101000a900473ffffffffffffffffffffffffffffffffffffffff169b50600660008d73ffffffffffffffffffffffffffffffffffffffff1673ffffffffffffffffffffffffffffffffffffffff16815260200190815260200160002054670de0b6b3a7640000858381518110612814576128136150ba565b5b60200260200101516128269190614de9565b6128309190614db8565b915061283c8c83612da7565b9a508a600360003373ffffffffffffffffffffffffffffffffffffffff1673ffffffffffffffffffffffffffffffffffffffff168152602001908152602001600020600082825461288d9190614d62565b9250508190555081600560003373ffffffffffffffffffffffffffffffffffffffff1673ffffffffffffffffffffffffffffffffffffffff16815260200190815260200160002060020160008e73ffffffffffffffffffffffffffffffffffffffff1673ffffffffffffffffffffffffffffffffffffffff16815260200190815260200160002060008282546129239190614ed7565b925050819055505b808061293690614f9b565b91505061270b565b5060005b8251811015612b185760008382815181106129605761295f6150ba565b5b60200260200101511115612b0557600560003373ffffffffffffffffffffffffffffffffffffffff1673ffffffffffffffffffffffffffffffffffffffff16815260200190815260200160002060030181815481106129c2576129c16150ba565b5b9060005260206000200160009054906101000a900473ffffffffffffffffffffffffffffffffffffffff169b50828181518110612a0257612a016150ba565b5b60200260200101519150612a168c83610df2565b9a508a600560003373ffffffffffffffffffffffffffffffffffffffff1673ffffffffffffffffffffffffffffffffffffffff16815260200190815260200160002060020160008e73ffffffffffffffffffffffffffffffffffffffff1673ffffffffffffffffffffffffffffffffffffffff1681526020019081526020016000206000828254612aa79190614d62565b9250508190555081600360003373ffffffffffffffffffffffffffffffffffffffff1673ffffffffffffffffffffffffffffffffffffffff1681526020019081526020016000206000828254612afd9190614ed7565b925050819055505b8080612b1090614f9b565b915050612942565b505050505050505050505050565b60008060009054906101000a900473ffffffffffffffffffffffffffffffffffffffff16905090565b808160006001905060005b600480549050811015612bf1578273ffffffffffffffffffffffffffffffffffffffff1660048281548110612b9257612b916150ba565b5b9060005260206000200160009054906101000a900473ffffffffffffffffffffffffffffffffffffffff1673ffffffffffffffffffffffffffffffffffffffff161415612bde57600091505b8080612be990614f9b565b915050612b5a565b5080612c32576040517f08c379a0000000000000000000000000000000000000000000000000000000008152600401612c2990614ad6565b60405180910390fd5b612c3a613d47565b73ffffffffffffffffffffffffffffffffffffffff16612c58612b26565b73ffffffffffffffffffffffffffffffffffffffff1614612cae576040517f08c379a0000000000000000000000000000000000000000000000000000000008152600401612ca590614a36565b60405180910390fd5b6004849080600181540180825580915050600190039060005260206000200160009091909190916101000a81548173ffffffffffffffffffffffffffffffffffffffff021916908373ffffffffffffffffffffffffffffffffffffffff1602179055507ff59d0ae4e98bf93f09241ca4f8223fb0ecfebf4027c3087280ecec9c18d32f7584604051612d40919061476d565b60405180910390a150505050565b6000600560008373ffffffffffffffffffffffffffffffffffffffff1673ffffffffffffffffffffffffffffffffffffffff16815260200190815260200160002060000160009054906101000a900460ff169050919050565b600080600260009054906101000a900473ffffffffffffffffffffffffffffffffffffffff1690506000600267ffffffffffffffff811115612dec57612deb6150e9565b5b604051908082528060200260200182016040528015612e1a5781602001602082028036833780820191505090505b5090508481600081518110612e3257612e316150ba565b5b602002602001019073ffffffffffffffffffffffffffffffffffffffff16908173ffffffffffffffffffffffffffffffffffffffff16815250508181600181518110612e8157612e806150ba565b5b602002602001019073ffffffffffffffffffffffffffffffffffffffff16908173ffffffffffffffffffffffffffffffffffffffff16815250508473ffffffffffffffffffffffffffffffffffffffff1663095ea7b3600160009054906101000a900473ffffffffffffffffffffffffffffffffffffffff16866040518363ffffffff1660e01b8152600401612f18929190614788565b602060405180830381600087803b158015612f3257600080fd5b505af1158015612f46573d6000803e3d6000fd5b505050506040513d601f19601f82011682018060405250810190612f6a91906142ee565b506000600160009054906101000a900473ffffffffffffffffffffffffffffffffffffffff1673ffffffffffffffffffffffffffffffffffffffff1663d06ca61f86846040518363ffffffff1660e01b8152600401612fca929190614b71565b60006040518083038186803b158015612fe257600080fd5b505afa158015612ff6573d6000803e3d6000fd5b505050506040513d6000823e3d601f19601f8201168201806040525081019061301f91906142a5565b9050600160009054906101000a900473ffffffffffffffffffffffffffffffffffffffff1673ffffffffffffffffffffffffffffffffffffffff166318cbafe58683600181518110613074576130736150ba565b5b60200260200101518530426040518663ffffffff1660e01b815260040161309f959493929190614bed565b600060405180830381600087803b1580156130b957600080fd5b505af11580156130cd573d6000803e3d6000fd5b505050506040513d6000823e3d601f19601f820116820180604052508101906130f691906142a5565b508060018151811061310b5761310a6150ba565b5b6020026020010151935050505092915050565b606080600060048054905067ffffffffffffffff811115613142576131416150e9565b5b6040519080825280602002602001820160405280156131705781602001602082028036833780820191505090505b509050600060048054905067ffffffffffffffff811115613194576131936150e9565b5b6040519080825280602002602001820160405280156131c25781602001602082028036833780820191505090505b50905060005b60048054905081101561331157600481815481106131e9576131e86150ba565b5b9060005260206000200160009054906101000a900473ffffffffffffffffffffffffffffffffffffffff16838281518110613227576132266150ba565b5b602002602001019073ffffffffffffffffffffffffffffffffffffffff16908173ffffffffffffffffffffffffffffffffffffffff16815250506006600060048381548110613279576132786150ba565b5b9060005260206000200160009054906101000a900473ffffffffffffffffffffffffffffffffffffffff1673ffffffffffffffffffffffffffffffffffffffff1673ffffffffffffffffffffffffffffffffffffffff168152602001908152602001600020548282815181106132f2576132f16150ba565b5b602002602001018181525050808061330990614f9b565b9150506131c8565b5081819350935050509091565b6000803411613362576040517f08c379a000000000000000000000000000000000000000000000000000000000815260040161335990614a16565b60405180910390fd5b34600360003373ffffffffffffffffffffffffffffffffffffffff1673ffffffffffffffffffffffffffffffffffffffff16815260200190815260200160002060008282546133b19190614d62565b925050819055507fa8126f7572bb1fdeae5b5aa9ec126438b91f658a07873f009d041ae690f3a19333346040516133e9929190614788565b60405180910390a1600360003373ffffffffffffffffffffffffffffffffffffffff1673ffffffffffffffffffffffffffffffffffffffff16815260200190815260200160002054905090565b600080600090505b60048054905081101561354c5761349b60048281548110613462576134616150ba565b5b9060005260206000200160009054906101000a900473ffffffffffffffffffffffffffffffffffffffff16670de0b6b3a7640000611168565b9150816ec097ce7bc90715b34b9f10000000006134b89190614db8565b60066000600484815481106134d0576134cf6150ba565b5b9060005260206000200160009054906101000a900473ffffffffffffffffffffffffffffffffffffffff1673ffffffffffffffffffffffffffffffffffffffff1673ffffffffffffffffffffffffffffffffffffffff16815260200190815260200160002081905550808061354490614f9b565b91505061343e565b5050565b600560003373ffffffffffffffffffffffffffffffffffffffff1673ffffffffffffffffffffffffffffffffffffffff16815260200190815260200160002060000160009054906101000a900460ff166135df576040517f08c379a00000000000000000000000000000000000000000000000000000000081526004016135d6906149f6565b60405180910390fd5b60008060005b600560003373ffffffffffffffffffffffffffffffffffffffff1673ffffffffffffffffffffffffffffffffffffffff168152602001908152602001600020600301805490508110156139c157600560003373ffffffffffffffffffffffffffffffffffffffff1673ffffffffffffffffffffffffffffffffffffffff1681526020019081526020016000206003018181548110613686576136856150ba565b5b9060005260206000200160009054906101000a900473ffffffffffffffffffffffffffffffffffffffff1691506000600560003373ffffffffffffffffffffffffffffffffffffffff1673ffffffffffffffffffffffffffffffffffffffff16815260200190815260200160002060020160008473ffffffffffffffffffffffffffffffffffffffff1673ffffffffffffffffffffffffffffffffffffffff168152602001908152602001600020541115613927576137c482600560003373ffffffffffffffffffffffffffffffffffffffff1673ffffffffffffffffffffffffffffffffffffffff16815260200190815260200160002060020160008573ffffffffffffffffffffffffffffffffffffffff1673ffffffffffffffffffffffffffffffffffffffff16815260200190815260200160002054612da7565b925082600360003373ffffffffffffffffffffffffffffffffffffffff1673ffffffffffffffffffffffffffffffffffffffff16815260200190815260200160002060008282546138159190614d62565b925050819055506000600560003373ffffffffffffffffffffffffffffffffffffffff1673ffffffffffffffffffffffffffffffffffffffff16815260200190815260200160002060020160008473ffffffffffffffffffffffffffffffffffffffff1673ffffffffffffffffffffffffffffffffffffffff168152602001908152602001600020819055506000600560003373ffffffffffffffffffffffffffffffffffffffff1673ffffffffffffffffffffffffffffffffffffffff16815260200190815260200160002060010160008473ffffffffffffffffffffffffffffffffffffffff1673ffffffffffffffffffffffffffffffffffffffff168152602001908152602001600020819055505b600560003373ffffffffffffffffffffffffffffffffffffffff1673ffffffffffffffffffffffffffffffffffffffff1681526020019081526020016000206003018054806139795761397861508b565b5b6001900381819060005260206000200160006101000a81549073ffffffffffffffffffffffffffffffffffffffff0219169055905580806139b990614f9b565b9150506135e5565b506000600560003373ffffffffffffffffffffffffffffffffffffffff1673ffffffffffffffffffffffffffffffffffffffff16815260200190815260200160002060000160006101000a81548160ff0219169083151502179055507fb24dcbc2f0ea9133e820ca155e83232c8e2612051982b9edc7234fd0f3692cf933604051613a4c919061476d565b60405180910390a15050565b600560003373ffffffffffffffffffffffffffffffffffffffff1673ffffffffffffffffffffffffffffffffffffffff16815260200190815260200160002060000160009054906101000a900460ff1615613ae8576040517f08c379a0000000000000000000000000000000000000000000000000000000008152600401613adf90614a56565b60405180910390fd5b6001600560003373ffffffffffffffffffffffffffffffffffffffff1673ffffffffffffffffffffffffffffffffffffffff1681526020019081526020016000206003018054905011613b70576040517f08c379a0000000000000000000000000000000000000000000000000000000008152600401613b6790614af6565b60405180910390fd5b6064613b7b33613e13565b14613bbb576040517f08c379a0000000000000000000000000000000000000000000000000000000008152600401613bb290614ab6565b60405180910390fd5b6001600560003373ffffffffffffffffffffffffffffffffffffffff1673ffffffffffffffffffffffffffffffffffffffff16815260200190815260200160002060000160006101000a81548160ff0219169083151502179055507ff1ac3a3ea39c1e8920e24fd3e5dcf23814d0219a425b9bee1320a052696cb66f33604051613c45919061476d565b60405180910390a1565b613c57613d47565b73ffffffffffffffffffffffffffffffffffffffff16613c75612b26565b73ffffffffffffffffffffffffffffffffffffffff1614613ccb576040517f08c379a0000000000000000000000000000000000000000000000000000000008152600401613cc290614a36565b60405180910390fd5b600073ffffffffffffffffffffffffffffffffffffffff168173ffffffffffffffffffffffffffffffffffffffff161415613d3b576040517f08c379a0000000000000000000000000000000000000000000000000000000008152600401613d32906148b6565b60405180910390fd5b613d4481613d4f565b50565b600033905090565b60008060009054906101000a900473ffffffffffffffffffffffffffffffffffffffff169050816000806101000a81548173ffffffffffffffffffffffffffffffffffffffff021916908373ffffffffffffffffffffffffffffffffffffffff1602179055508173ffffffffffffffffffffffffffffffffffffffff168173ffffffffffffffffffffffffffffffffffffffff167f8be0079c531659141344cd1fd0a4f28419497f9722a3daafe3b4186f6b6457e060405160405180910390a35050565b6000806000905060005b600560008573ffffffffffffffffffffffffffffffffffffffff1673ffffffffffffffffffffffffffffffffffffffff16815260200190815260200160002060030180549050811015613f8857600560008573ffffffffffffffffffffffffffffffffffffffff1673ffffffffffffffffffffffffffffffffffffffff1681526020019081526020016000206001016000600560008773ffffffffffffffffffffffffffffffffffffffff1673ffffffffffffffffffffffffffffffffffffffff1681526020019081526020016000206003018381548110613f0257613f016150ba565b5b9060005260206000200160009054906101000a900473ffffffffffffffffffffffffffffffffffffffff1673ffffffffffffffffffffffffffffffffffffffff1673ffffffffffffffffffffffffffffffffffffffff1681526020019081526020016000205482613f739190614d62565b91508080613f8090614f9b565b915050613e1d565b5080915050919050565b6000613fa5613fa084614c87565b614c62565b90508083825260208201905082856020860282011115613fc857613fc761511d565b5b60005b85811015613ff85781613fde88826140e2565b845260208401935060208301925050600181019050613fcb565b5050509392505050565b600061401561401084614cb3565b614c62565b905080838252602082019050828560208602820111156140385761403761511d565b5b60005b85811015614068578161404e8882614196565b84526020840193506020830192505060018101905061403b565b5050509392505050565b600061408561408084614cb3565b614c62565b905080838252602082019050828560208602820111156140a8576140a761511d565b5b60005b858110156140d857816140be88826141ab565b8452602084019350602083019250506001810190506140ab565b5050509392505050565b6000813590506140f1816155a4565b92915050565b600082601f83011261410c5761410b615118565b5b813561411c848260208601613f92565b91505092915050565b600082601f83011261413a57614139615118565b5b813561414a848260208601614002565b91505092915050565b600082601f83011261416857614167615118565b5b8151614178848260208601614072565b91505092915050565b600081519050614190816155bb565b92915050565b6000813590506141a5816155d2565b92915050565b6000815190506141ba816155d2565b92915050565b6000602082840312156141d6576141d5615127565b5b60006141e4848285016140e2565b91505092915050565b6000806040838503121561420457614203615127565b5b6000614212858286016140e2565b925050602061422385828601614196565b9150509250929050565b6000806040838503121561424457614243615127565b5b600083013567ffffffffffffffff81111561426257614261615122565b5b61426e858286016140f7565b925050602083013567ffffffffffffffff81111561428f5761428e615122565b5b61429b85828601614125565b9150509250929050565b6000602082840312156142bb576142ba615127565b5b600082015167ffffffffffffffff8111156142d9576142d8615122565b5b6142e584828501614153565b91505092915050565b60006020828403121561430457614303615127565b5b600061431284828501614181565b91505092915050565b60006020828403121561433157614330615127565b5b600061433f84828501614196565b91505092915050565b60006143548383614378565b60208301905092915050565b600061436c8383614740565b60208301905092915050565b61438181614f0b565b82525050565b61439081614f0b565b82525050565b60006143a182614cff565b6143ab8185614d2f565b93506143b683614cdf565b8060005b838110156143e75781516143ce8882614348565b97506143d983614d15565b9250506001810190506143ba565b5085935050505092915050565b60006143ff82614d0a565b6144098185614d40565b935061441483614cef565b8060005b8381101561444557815161442c8882614360565b975061443783614d22565b925050600181019050614418565b5085935050505092915050565b61445b81614f1d565b82525050565b600061446e602683614d51565b91506144798261513d565b604082019050919050565b6000614491601083614d51565b915061449c8261518c565b602082019050919050565b60006144b4601c83614d51565b91506144bf826151b5565b602082019050919050565b60006144d7601683614d51565b91506144e2826151de565b602082019050919050565b60006144fa601c83614d51565b915061450582615207565b602082019050919050565b600061451d602d83614d51565b915061452882615230565b604082019050919050565b6000614540601c83614d51565b915061454b8261527f565b602082019050919050565b6000614563601283614d51565b915061456e826152a8565b602082019050919050565b6000614586601883614d51565b9150614591826152d1565b602082019050919050565b60006145a9602783614d51565b91506145b4826152fa565b604082019050919050565b60006145cc601583614d51565b91506145d782615349565b602082019050919050565b60006145ef602683614d51565b91506145fa82615372565b604082019050919050565b6000614612602083614d51565b915061461d826153c1565b602082019050919050565b6000614635601883614d51565b9150614640826153ea565b602082019050919050565b6000614658601183614d51565b915061466382615413565b602082019050919050565b600061467b602e83614d51565b91506146868261543c565b604082019050919050565b600061469e601e83614d51565b91506146a98261548b565b602082019050919050565b60006146c1601883614d51565b91506146cc826154b4565b602082019050919050565b60006146e4602883614d51565b91506146ef826154dd565b604082019050919050565b6000614707601e83614d51565b91506147128261552c565b602082019050919050565b600061472a602b83614d51565b915061473582615555565b604082019050919050565b61474981614f53565b82525050565b61475881614f53565b82525050565b61476781614f5d565b82525050565b60006020820190506147826000830184614387565b92915050565b600060408201905061479d6000830185614387565b6147aa602083018461474f565b9392505050565b60006060820190506147c66000830186614387565b6147d3602083018561474f565b6147e0604083018461474f565b949350505050565b600060208201905081810360008301526148028184614396565b905092915050565b600060408201905081810360008301526148248185614396565b9050818103602083015261483881846143f4565b90509392505050565b60006020820190506148566000830184614452565b92915050565b60006080820190506148716000830187614452565b81810360208301526148838186614396565b9050818103604083015261489781856143f4565b905081810360608301526148ab81846143f4565b905095945050505050565b600060208201905081810360008301526148cf81614461565b9050919050565b600060208201905081810360008301526148ef81614484565b9050919050565b6000602082019050818103600083015261490f816144a7565b9050919050565b6000602082019050818103600083015261492f816144ca565b9050919050565b6000602082019050818103600083015261494f816144ed565b9050919050565b6000602082019050818103600083015261496f81614510565b9050919050565b6000602082019050818103600083015261498f81614533565b9050919050565b600060208201905081810360008301526149af81614556565b9050919050565b600060208201905081810360008301526149cf81614579565b9050919050565b600060208201905081810360008301526149ef8161459c565b9050919050565b60006020820190508181036000830152614a0f816145bf565b9050919050565b60006020820190508181036000830152614a2f816145e2565b9050919050565b60006020820190508181036000830152614a4f81614605565b9050919050565b60006020820190508181036000830152614a6f81614628565b9050919050565b60006020820190508181036000830152614a8f8161464b565b9050919050565b60006020820190508181036000830152614aaf8161466e565b9050919050565b60006020820190508181036000830152614acf81614691565b9050919050565b60006020820190508181036000830152614aef816146b4565b9050919050565b60006020820190508181036000830152614b0f816146d7565b9050919050565b60006020820190508181036000830152614b2f816146fa565b9050919050565b60006020820190508181036000830152614b4f8161471d565b9050919050565b6000602082019050614b6b600083018461474f565b92915050565b6000604082019050614b86600083018561474f565b8181036020830152614b988184614396565b90509392505050565b6000608082019050614bb6600083018761474f565b8181036020830152614bc88186614396565b9050614bd76040830185614387565b614be4606083018461474f565b95945050505050565b600060a082019050614c02600083018861474f565b614c0f602083018761474f565b8181036040830152614c218186614396565b9050614c306060830185614387565b614c3d608083018461474f565b9695505050505050565b6000602082019050614c5c600083018461475e565b92915050565b6000614c6c614c7d565b9050614c788282614f6a565b919050565b6000604051905090565b600067ffffffffffffffff821115614ca257614ca16150e9565b5b602082029050602081019050919050565b600067ffffffffffffffff821115614cce57614ccd6150e9565b5b602082029050602081019050919050565b6000819050602082019050919050565b6000819050602082019050919050565b600081519050919050565b600081519050919050565b6000602082019050919050565b6000602082019050919050565b600082825260208201905092915050565b600082825260208201905092915050565b600082825260208201905092915050565b6000614d6d82614f53565b9150614d7883614f53565b9250827fffffffffffffffffffffffffffffffffffffffffffffffffffffffffffffffff03821115614dad57614dac61502d565b5b828201905092915050565b6000614dc382614f53565b9150614dce83614f53565b925082614dde57614ddd61505c565b5b828204905092915050565b6000614df482614f53565b9150614dff83614f53565b9250817fffffffffffffffffffffffffffffffffffffffffffffffffffffffffffffffff0483118215151615614e3857614e3761502d565b5b828202905092915050565b6000614e4e82614f29565b9150614e5983614f29565b9250827f800000000000000000000000000000000000000000000000000000000000000001821260008412151615614e9457614e9361502d565b5b827f7fffffffffffffffffffffffffffffffffffffffffffffffffffffffffffffff018213600084121615614ecc57614ecb61502d565b5b828203905092915050565b6000614ee282614f53565b9150614eed83614f53565b925082821015614f0057614eff61502d565b5b828203905092915050565b6000614f1682614f33565b9050919050565b60008115159050919050565b6000819050919050565b600073ffffffffffffffffffffffffffffffffffffffff82169050919050565b6000819050919050565b600060ff82169050919050565b614f738261512c565b810181811067ffffffffffffffff82111715614f9257614f916150e9565b5b80604052505050565b6000614fa682614f53565b91507fffffffffffffffffffffffffffffffffffffffffffffffffffffffffffffffff821415614fd957614fd861502d565b5b600182019050919050565b6000614fef82614f29565b91507f80000000000000000000000000000000000000000000000000000000000000008214156150225761502161502d565b5b816000039050919050565b7f4e487b7100000000000000000000000000000000000000000000000000000000600052601160045260246000fd5b7f4e487b7100000000000000000000000000000000000000000000000000000000600052601260045260246000fd5b7f4e487b7100000000000000000000000000000000000000000000000000000000600052603160045260246000fd5b7f4e487b7100000000000000000000000000000000000000000000000000000000600052603260045260246000fd5b7f4e487b7100000000000000000000000000000000000000000000000000000000600052604160045260246000fd5b600080fd5b600080fd5b600080fd5b600080fd5b6000601f19601f8301169050919050565b7f4f776e61626c653a206e6577206f776e657220697320746865207a65726f206160008201527f6464726573730000000000000000000000000000000000000000000000000000602082015250565b7f4e6f7420656e6f7567682066756e647300000000000000000000000000000000600082015250565b7f4d617820616d6f756e74206f6620746f6b656e7320616c6c6f77656400000000600082015250565b7f41206465706f736974206d757374206265206d61646500000000000000000000600082015250565b7f52656163686564206d61782062616c616e636520746f207370656e6400000000600082015250565b7f546865206d696e696d756d2070657263656e7461676520666f7220612067697660008201527f656e206173736574206973203100000000000000000000000000000000000000602082015250565b7f4d617820616d6f756e74206f6620746f6b656e73207265616368656400000000600082015250565b7f4e6f7420656e6f7567682062616c616e63650000000000000000000000000000600082015250565b7f506f7274666f6c696f206d757374206265207365616c65640000000000000000600082015250565b7f4d697373696e67206461746120666f722061737365747320616e64207065726360008201527f656e746167657300000000000000000000000000000000000000000000000000602082015250565b7f5468657265206973206e6f20706f7274666f6c696f0000000000000000000000600082015250565b7f4465706f7369742076616c7565206d757374206265206772617465722074686160008201527f6e207a65726f0000000000000000000000000000000000000000000000000000602082015250565b7f4f776e61626c653a2063616c6c6572206973206e6f7420746865206f776e6572600082015250565b7f506f7274666f6c696f20616c7265616479207365616c65640000000000000000600082015250565b7f546f6b656e206e6f7420616c6c6f776564000000000000000000000000000000600082015250565b7f546865206d6178696d756d2070657263656e7461676520666f7220612067697660008201527f656e206173736574206973203939000000000000000000000000000000000000602082015250565b7f496e76616c696420706f7274666f6c696f20646973747269627574696f6e0000600082015250565b7f417373657420697320616c6c6f77656420616c72656164790000000000000000600082015250565b7f506f7274666f6c696f206d75737420636f6e7461696e206174206c656173742060008201527f3220617373657473000000000000000000000000000000000000000000000000602082015250565b7f506f7274666f6c696f206e6f74206f70656e20666f72206368616e6765730000600082015250565b7f506f7274666f6c696f20617373657420616c726561647920657869737473206960008201527f6e20706f7274666f6c696f000000000000000000000000000000000000000000602082015250565b6155ad81614f0b565b81146155b857600080fd5b50565b6155c481614f1d565b81146155cf57600080fd5b50565b6155db81614f53565b81146155e657600080fd5b5056fea2646970667358221220ef3bc928fd734a4b150c7931a2d87242f4d1f5e2ac132b29376cc170f23a333864736f6c63430008060033",
  "immutableReferences": {},
  "source": "// SPDX-License-Identifier: MIT\npragma solidity 0.8.6;\n\nimport \"@openzeppelin/contracts/access/Ownable.sol\";\nimport \"@openzeppelin/contracts/token/ERC20/ERC20.sol\";\nimport \"./Router.sol\";\n\n/**\n * @title Hold a user portfolio with multiple assets\n * @author Gabriel R. Dias\n * @notice This is an experimental contract, don't use in production environment\n */\ncontract Balancer is Ownable {\n\n    // -----------------------------------------------\n    // Properties\n    // -----------------------------------------------\n\n    // Uniswap router v2 address in rinkeby\n    Router router = Router(0x7a250d5630B4cF539739dF2C5dAcb4c659F2488D);\n    // WETH address in rinkeby\n    ERC20 WETH_token = ERC20(0xc778417E063141139Fce010982780140Aa0cD5Ab);\n\n    /// @notice Holds an account balance in the contract (not assigned to any asset in a portfolio)\n    mapping(address => uint) public balances;\n\n    /// @notice allowed assets that can be part of a portfolio (to be edited only by contract owner)\n    address[] public allowedAssets;\n\n    /// @notice the max amount of assets an account can add in a portfolio\n    uint8 public constant MAX_PORTFOLIO_ASSETS = 10;\n\n    struct Portfolio {\n        /// @notice once a portfolio is sealed no more changes are allowed in it (it must be deleted)\n        /// @dev sealed is a reserved word\n        bool sealedPortfolio;\n        mapping(address => uint) assetPercentages;\n        mapping(address => uint) assetBalances;\n        /// @dev this array make it easy to iterate over the portfolio assets\n        address[] assets;\n    }\n\n    /// @notice Holds an account portfolio\n    mapping(address => Portfolio) public portfolios;\n\n    // -----------------------------------------------\n    // Events\n    // -----------------------------------------------\n\n    /// @notice Emitted when a new allowed asset is added to the contract\n    /// @param assetAddress The asset address\n    event LogAllowedAssetAdded(address assetAddress);\n\n    /// @notice Emitted when a new deposit is made\n    /// @param accountAddress The deposit address\n    /// @param amount The deposit amount\n    event LogDepositMade(address accountAddress, uint amount);\n\n    /// @notice Emitted when a withdraw is made\n    /// @param accountAddress The withdraw address\n    /// @param withdrawAmount The withdraw amount\n    /// @param newBalance The new balance after the withdraw\n    event LogWithdrawal(\n        address accountAddress,\n        uint withdrawAmount,\n        uint newBalance\n    );\n\n    /// @notice Emitted when a new asset is added to a portfolio\n    /// @param assetAddress The asset address\n    /// @param percentage The assigned percentage\n    event LogPortfolioAssetAdded(address assetAddress, uint percentage);\n\n    /// @notice Emitted when a portfolio is sealed\n    /// @param accountAddress The account which performed the operation\n    event LogPortfolioSealed(address accountAddress);\n\n    /// @notice Emitted when a portfolio is deleted\n    /// @param accountAddress The account which performed the operation\n    event LogPortfolioDeleted(address accountAddress);\n\n    // -----------------------------------------------\n    // Modifiers\n    // -----------------------------------------------\n\n    /// @notice Check is a valid asset\n    /// @param _assetAddress The address of the asset to check\n    modifier isValidAsset(address _assetAddress) {\n        // TODO: check the address is a ERC20 token which supports 18 decimals\n        _;\n    }\n\n    /// @notice Check the asset is not already added to the allowed list\n    /// @param _assetAddress The address of the token to be added\n    modifier isNewAllowedAsset(address _assetAddress) {\n        bool isNew = true;\n        for (uint i; i < allowedAssets.length; i++) {\n            if (allowedAssets[i] == _assetAddress) {\n                isNew = false;\n            }\n        }\n        require(isNew, \"Asset is allowed already\");\n        _;\n    }\n\n    /// @notice Check if the asset is allowed for use in the contract\n    /// @param _assetAddress The address of the token to be added\n    modifier isAllowedAsset(address _assetAddress) {\n        bool isAllowed = false;\n        for (uint i; i < allowedAssets.length; i++) {\n            if (allowedAssets[i] == _assetAddress) {\n                isAllowed = true;\n            }\n        }\n        require(isAllowed, \"Token not allowed\");\n        _;\n    }\n\n    // -----------------------------------------------\n    // Methods\n    // -----------------------------------------------\n\n    // constructor\n    constructor() {}\n\n    // fallback method\n    receive() external payable {}\n\n    /// @notice Let the contract owner add new allowed tokens\n    /// @param _assetAddress Token address\n    function addAllowedAsset(address _assetAddress)\n    public\n    isValidAsset(_assetAddress)\n    isNewAllowedAsset(_assetAddress)\n    onlyOwner\n    {\n        allowedAssets.push(_assetAddress);\n\n        emit LogAllowedAssetAdded(_assetAddress);\n    }\n    \n    /// @return The allowed assets in the contract\n    function allowedAssetsList() public view returns (address[] memory) {\n        return allowedAssets;\n    }\n\n    /// @notice Reveal an account portfolio\n    /// @param _accountAddress The portfolio account\n    /// @return The account portfolio\n    function fetchPortfolio(address _accountAddress) public view returns\n    (\n        bool,\n        address[] memory,\n        uint[] memory,\n        uint[] memory\n    )\n    {\n        uint count = portfolios[_accountAddress].assets.length;\n\n        address assetAddress;\n        address[] memory assets = new address[](count);\n        uint[] memory percentages = new uint[](count);\n        uint[] memory assetBalances = new uint[](count);\n\n        for (uint i = 0; i < count; i++) {\n            assetAddress = portfolios[_accountAddress].assets[i];\n            assets[i] = assetAddress;\n            percentages[i] = portfolios[_accountAddress].assetPercentages[assetAddress];\n            assetBalances[i] = portfolios[_accountAddress].assetBalances[assetAddress];\n        }\n\n        return (\n            portfolios[_accountAddress].sealedPortfolio,\n            assets,\n            percentages,\n            assetBalances\n        );\n    }\n\n    /// @notice Determines whether a portfolio is sealed or not\n    /// @param _accountAddress The portfolio account\n    /// @return Returns boolean answering the question\n    function isPortfolioSealed(address _accountAddress) public view returns (bool) {\n        return portfolios[_accountAddress].sealedPortfolio;\n    }\n\n    /// @notice Deposit ether in the contract\n    /// @return The balance of the account after the deposit is made\n    function deposit() public payable returns (uint) {\n        require(msg.value > 0, \"Deposit value must be grater than zero\");\n        balances[msg.sender] += msg.value;\n        emit LogDepositMade(msg.sender, msg.value);\n\n        return balances[msg.sender];\n    }\n\n    /// @notice Withdraw ether from the contract\n    /// @dev This does not return any excess ether sent to it\n    /// @param _withdrawAmount amount to withdraw\n    /// @return The balance remaining for the account performing the operation\n    function withdraw(uint _withdrawAmount) public returns (uint) {\n        require(balances[msg.sender] >= _withdrawAmount, \"Not enough funds\");\n        balances[msg.sender] -= _withdrawAmount;\n\n        payable(msg.sender).transfer(_withdrawAmount);\n\n        emit LogWithdrawal(msg.sender, _withdrawAmount, balances[msg.sender]);\n\n        return balances[msg.sender];\n    }\n\n    /// @notice Calculate the sum af all asset percentages for a given account in a portfolio\n    /// @param _accountAddress The account address\n    /// @return The total sum\n    function calculatePortfolioTotalAssignments(address _accountAddress)\n    private\n    view\n    returns (uint)\n    {\n        uint total = 0;\n        for (uint i = 0; i < portfolios[_accountAddress].assets.length; i++) {\n            total += portfolios[_accountAddress].assetPercentages[portfolios[_accountAddress].assets[i]];\n        }\n\n        return total;\n    }\n\n    /// @notice Add one asset to the portfolio\n    /// @param _assetAddress Asset address (must be an allowed token)\n    /// @param _percentage The allocation percentage for the given asset\n    function addPortfolioAsset(address _assetAddress, uint _percentage)\n    public\n    isAllowedAsset(_assetAddress)\n    {\n        require(\n            portfolios[msg.sender].assets.length < MAX_PORTFOLIO_ASSETS,\n            \"Max amount of tokens reached\"\n        );\n        require(\n            balances[msg.sender] > 0,\n            \"A deposit must be made\"\n        );\n        require(\n            _percentage < 100,\n            \"The maximum percentage for a given asset is 99\"\n        );\n        require(\n            _percentage > 0,\n            \"The minimum percentage for a given asset is 1\"\n        );\n        require(\n            !portfolios[msg.sender].sealedPortfolio,\n            \"Portfolio not open for changes\"\n        );\n        require(\n            portfolios[msg.sender].assetPercentages[_assetAddress] == 0,\n            \"Portfolio asset already exists in portfolio\"\n        );\n\n        portfolios[msg.sender].assetPercentages[_assetAddress] = _percentage;\n        // NOTE: we might not reached the 100% of the portfolio assignments yet\n        require(calculatePortfolioTotalAssignments(msg.sender) <= 100, \"Invalid portfolio distribution\");\n\n        // NOTE: this is redundant because the default value should be zero anyway\n        portfolios[msg.sender].assetBalances[_assetAddress] = 0;\n        portfolios[msg.sender].assets.push(_assetAddress);\n\n        emit LogPortfolioAssetAdded(_assetAddress, _percentage);\n    }\n\n    /// @notice Check the portfolio integrity and close it for changes\n    function sealPortfolio() public {\n        require(!portfolios[msg.sender].sealedPortfolio, \"Portfolio already sealed\");\n        require(portfolios[msg.sender].assets.length > 1, \"Portfolio must contain at least 2 assets\");\n        require(calculatePortfolioTotalAssignments(msg.sender) == 100, \"Invalid portfolio distribution\");\n\n        portfolios[msg.sender].sealedPortfolio = true;\n        emit LogPortfolioSealed(msg.sender);\n    }\n\n    function createFullPortfolio(address[] memory assets, uint[] memory percentages) public {\n\n        require(!portfolios[msg.sender].sealedPortfolio, \"Portfolio already sealed\");\n        require(assets.length == percentages.length, \"Missing data for assets and percentages\");\n        require(assets.length <= MAX_PORTFOLIO_ASSETS, \"Max amount of tokens allowed\");\n\n        for (uint i = 0; i < assets.length; i++) {\n            addPortfolioAsset(assets[i], percentages[i]);\n        }\n\n        sealPortfolio();\n    }\n\n    /// @notice Stop the portfolio rebalancing and return the assets balance to ether\n    function deletePortfolio() public {\n        require(portfolios[msg.sender].sealedPortfolio, \"There is no portfolio\");\n\n        uint bought;\n        address assetAddress;\n        for (uint i = 0; i < portfolios[msg.sender].assets.length; i++) {\n\n            assetAddress = portfolios[msg.sender].assets[i];\n            if (portfolios[msg.sender].assetBalances[assetAddress] > 0) {\n                bought = swapTokensForETH(\n                    assetAddress,\n                    portfolios[msg.sender].assetBalances[assetAddress]\n                );\n\n                // increment the account balance with the result of the assets sold\n                balances[msg.sender] += bought;\n                portfolios[msg.sender].assetBalances[assetAddress] = 0;\n                portfolios[msg.sender].assetPercentages[assetAddress] = 0;\n            }\n\n            // delete the asset from the portfolio assets list\n            portfolios[msg.sender].assets.pop();\n        }\n\n        portfolios[msg.sender].sealedPortfolio = false;\n\n        emit LogPortfolioDeleted(msg.sender);\n    }\n\n    /// @notice Run the first asset distribution once the portfolio is sealed\n    function runInitialPortfolioDistribution() public {\n        require(balances[msg.sender] > 0, \"Not enough balance\");\n        require(portfolios[msg.sender].sealedPortfolio, \"Portfolio must be sealed\");\n\n        uint initialBalance = balances[msg.sender];\n        uint percentage;\n        uint bought;\n        uint desiredAmountToSpend;\n        address _assetAddress;\n        for (uint i = 0; i < portfolios[msg.sender].assets.length; i++) {\n            _assetAddress = portfolios[msg.sender].assets[i];\n            percentage = portfolios[msg.sender].assetPercentages[_assetAddress];\n            desiredAmountToSpend = (initialBalance * percentage) / 100;\n\n            require(\n                desiredAmountToSpend <= balances[msg.sender],\n                \"Reached max balance to spend\"\n            );\n\n            bought = swapETHForTokens(_assetAddress, desiredAmountToSpend);\n\n            assetPrices[allowedAssets[i]] = (10**18 * desiredAmountToSpend) / bought;\n            portfolios[msg.sender].assetBalances[_assetAddress] += bought;\n            balances[msg.sender] -= desiredAmountToSpend;\n        }\n    }\n\n    /// @notice Swap ETH amount for tokens\n    /// @param _destTokenAddress The destination token address\n    /// @param _amountIn The amount of ETH to exchange\n    /// @return The amount of tokens bought\n    function swapETHForTokens(address _destTokenAddress, uint _amountIn)\n    public\n    returns (uint)\n    {\n        /// @dev When using ether in the path, the WETH token address is needed because there is no address for ether ;)\n        address origTokenAddress = address(WETH_token);\n\n        address[] memory path = new address[](2);\n        path[0] = origTokenAddress;\n        path[1] = _destTokenAddress;\n\n        ERC20(origTokenAddress).approve(address(router), _amountIn);\n\n        uint[] memory minOuts = router.getAmountsOut(_amountIn, path);\n\n        router.swapExactETHForTokens{value: _amountIn}(\n            minOuts[1],\n            path,\n            address(this),\n            block.timestamp\n        );\n\n        return minOuts[1];\n    }\n\n    /// @notice Swap tokens amount for ETH\n    /// @param _origTokenAddress The origin token address\n    /// @param _amountIn The amount of tokens to exchange\n    /// @return The amount of ETH bought\n    function swapTokensForETH(address _origTokenAddress, uint _amountIn)\n    public\n    returns (uint)\n    {\n        address destTokenAddress = address(WETH_token);\n\n        address[] memory path = new address[](2);\n        path[0] = _origTokenAddress;\n        path[1] = destTokenAddress;\n\n        ERC20(_origTokenAddress).approve(address(router), _amountIn);\n\n        uint[] memory minOuts = router.getAmountsOut(_amountIn, path);\n\n        router.swapExactTokensForETH(\n            _amountIn,\n            minOuts[1],\n            path,\n            address(this),\n            block.timestamp\n        );\n\n        return minOuts[1];\n    }\n\n    // -----------------------------------------------\n    // Experimental\n    // -----------------------------------------------\n\n    // we need this to simulate a price change. We need a source to populate these values\n    mapping(address => uint) public assetPrices;\n\n    function fetchAssetsPrices() public view returns (address[] memory, uint[] memory) {\n        address[] memory assets = new address[](allowedAssets.length);\n        uint[] memory prices = new uint[](allowedAssets.length);\n\n        for (uint i; i < allowedAssets.length; i++) {\n            assets[i] = allowedAssets[i];\n            prices[i] = assetPrices[allowedAssets[i]];\n        }\n\n        return (assets, prices);\n    }\n\n    function updateAssetPrices() external {\n        uint bought;\n        for (uint i = 0; i < allowedAssets.length; i++) {\n            bought = checkAmountOut(allowedAssets[i], 10**18);\n            assetPrices[allowedAssets[i]] = (10**18 * 10**18) / bought;\n        }\n    }\n\n    function checkAmountOut(address token2, uint amount)\n    public\n    returns (uint)\n    {\n        address token1 = address(WETH_token);\n\n        address[] memory path = new address[](2);\n        path[0] = token1;\n        path[1] = token2;\n\n        ERC20(token1).approve(address(router), amount);\n\n        uint[] memory minOuts = router.getAmountsOut(amount, path);\n\n        return minOuts[1];\n    }\n\n    function runPortfolioRebalance() external {\n\n        // 1. update portfolio asset prices\n        address assetAddress;\n        uint bought;\n        for (uint i = 0; i < portfolios[msg.sender].assets.length; i++) {\n            assetAddress = portfolios[msg.sender].assets[i];\n            bought = checkAmountOut(assetAddress, 10**18);\n            assetPrices[assetAddress] = (10**18 * 10**18) / bought;\n        }\n\n        // 2. calculate the new portfolio total value\n        uint currentHolding;\n        uint[] memory newHoldingValue = new uint[](portfolios[msg.sender].assets.length);\n        uint newPortfolioTotalBalance = 0;\n        for (uint i = 0; i < portfolios[msg.sender].assets.length; i++) {\n            assetAddress = portfolios[msg.sender].assets[i];\n\n            // get the current holding for the coin\n            currentHolding = portfolios[msg.sender].assetBalances[assetAddress];\n\n            newHoldingValue[i] = (assetPrices[assetAddress] * currentHolding) / 10**18;\n            newPortfolioTotalBalance += newHoldingValue[i];\n        }\n\n        // TODO: is the new balance is not that grater than the old balance, then stop!\n\n        // 3. Prepare buy and sell orders\n        uint gasReserve = 30000000000000000;\n        newPortfolioTotalBalance = newPortfolioTotalBalance - gasReserve;\n\n        uint percentage;\n        int diff;\n        uint[] memory sellOrders = new uint[](portfolios[msg.sender].assets.length);\n        uint[] memory buyOrders = new uint[](portfolios[msg.sender].assets.length);\n        for (uint i = 0; i < portfolios[msg.sender].assets.length; i++) {\n            assetAddress = portfolios[msg.sender].assets[i];\n\n            // get current percentage\n            percentage = portfolios[msg.sender].assetPercentages[assetAddress];\n            diff =\n            int((newPortfolioTotalBalance * percentage) / 100) -\n            int(newHoldingValue[i]);\n\n            if (diff > 0) {\n                buyOrders[i] = uint(diff);\n            } else {\n                sellOrders[i] = uint(-diff);\n            }\n        }\n\n        // 4. Execute sell orders\n        uint amountToSwap;\n        for (uint i = 0; i < sellOrders.length; i++) {\n            if (sellOrders[i] > 0) {\n                assetAddress = portfolios[msg.sender].assets[i];\n                amountToSwap = (sellOrders[i] * 10**18) / assetPrices[assetAddress];\n\n                bought = swapTokensForETH(assetAddress, amountToSwap);\n                balances[msg.sender] += bought;\n                portfolios[msg.sender].assetBalances[assetAddress] -= amountToSwap;\n            }\n        }\n\n        // 5. Execute buy orders\n        for (uint i = 0; i < buyOrders.length; i++) {\n            if (buyOrders[i] > 0) {\n                assetAddress = portfolios[msg.sender].assets[i];\n                amountToSwap = buyOrders[i];\n\n                bought = swapETHForTokens(assetAddress, amountToSwap);\n\n                portfolios[msg.sender].assetBalances[assetAddress] += bought;\n                balances[msg.sender] -= amountToSwap;\n            }\n        }\n\n        // 6. Handle any remaining balance\n        // TODO: handle the gas reserve properly\n        //balances[msg.sender] += gasReserve;\n    }\n}\n",
  "sourcePath": "/Users/gabrieldias/code/bootcamp_consensys/blockchain-developer-bootcamp-final-project/contracts/Balancer.sol",
  "compiler": {
    "name": "solc",
    "version": "0.8.6+commit.11564f7e.Emscripten.clang"
  },
  "schemaVersion": "3.4.1",
  "updatedAt": "2021-11-28T06:27:16.383Z",
  "networkType": "ethereum",
  "devdoc": {
    "author": "Gabriel R. Dias",
    "events": {
      "LogAllowedAssetAdded(address)": {
        "params": {
          "assetAddress": "The asset address"
        }
      },
      "LogDepositMade(address,uint256)": {
        "params": {
          "accountAddress": "The deposit address",
          "amount": "The deposit amount"
        }
      },
      "LogPortfolioAssetAdded(address,uint256)": {
        "params": {
          "assetAddress": "The asset address",
          "percentage": "The assigned percentage"
        }
      },
      "LogPortfolioDeleted(address)": {
        "params": {
          "accountAddress": "The account which performed the operation"
        }
      },
      "LogPortfolioSealed(address)": {
        "params": {
          "accountAddress": "The account which performed the operation"
        }
      },
      "LogWithdrawal(address,uint256,uint256)": {
        "params": {
          "accountAddress": "The withdraw address",
          "newBalance": "The new balance after the withdraw",
          "withdrawAmount": "The withdraw amount"
        }
      }
    },
    "kind": "dev",
    "methods": {
      "addAllowedAsset(address)": {
        "params": {
          "_assetAddress": "Token address"
        }
      },
      "addPortfolioAsset(address,uint256)": {
        "params": {
          "_assetAddress": "Asset address (must be an allowed token)",
          "_percentage": "The allocation percentage for the given asset"
        }
      },
      "allowedAssetsList()": {
        "returns": {
          "_0": "The allowed assets in the contract"
        }
      },
      "deposit()": {
        "returns": {
          "_0": "The balance of the account after the deposit is made"
        }
      },
      "fetchPortfolio(address)": {
        "params": {
          "_accountAddress": "The portfolio account"
        },
        "returns": {
          "_0": "The account portfolio"
        }
      },
      "isPortfolioSealed(address)": {
        "params": {
          "_accountAddress": "The portfolio account"
        },
        "returns": {
          "_0": "Returns boolean answering the question"
        }
      },
      "owner()": {
        "details": "Returns the address of the current owner."
      },
      "renounceOwnership()": {
        "details": "Leaves the contract without owner. It will not be possible to call `onlyOwner` functions anymore. Can only be called by the current owner. NOTE: Renouncing ownership will leave the contract without an owner, thereby removing any functionality that is only available to the owner."
      },
      "swapETHForTokens(address,uint256)": {
        "params": {
          "_amountIn": "The amount of ETH to exchange",
          "_destTokenAddress": "The destination token address"
        },
        "returns": {
          "_0": "The amount of tokens bought"
        }
      },
      "swapTokensForETH(address,uint256)": {
        "params": {
          "_amountIn": "The amount of tokens to exchange",
          "_origTokenAddress": "The origin token address"
        },
        "returns": {
          "_0": "The amount of ETH bought"
        }
      },
      "transferOwnership(address)": {
        "details": "Transfers ownership of the contract to a new account (`newOwner`). Can only be called by the current owner."
      },
      "withdraw(uint256)": {
        "details": "This does not return any excess ether sent to it",
        "params": {
          "_withdrawAmount": "amount to withdraw"
        },
        "returns": {
          "_0": "The balance remaining for the account performing the operation"
        }
      }
    },
    "title": "Hold a user portfolio with multiple assets",
    "version": 1
  },
  "userdoc": {
    "events": {
      "LogAllowedAssetAdded(address)": {
        "notice": "Emitted when a new allowed asset is added to the contract"
      },
      "LogDepositMade(address,uint256)": {
        "notice": "Emitted when a new deposit is made"
      },
      "LogPortfolioAssetAdded(address,uint256)": {
        "notice": "Emitted when a new asset is added to a portfolio"
      },
      "LogPortfolioDeleted(address)": {
        "notice": "Emitted when a portfolio is deleted"
      },
      "LogPortfolioSealed(address)": {
        "notice": "Emitted when a portfolio is sealed"
      },
      "LogWithdrawal(address,uint256,uint256)": {
        "notice": "Emitted when a withdraw is made"
      }
    },
    "kind": "user",
    "methods": {
      "MAX_PORTFOLIO_ASSETS()": {
        "notice": "the max amount of assets an account can add in a portfolio"
      },
      "addAllowedAsset(address)": {
        "notice": "Let the contract owner add new allowed tokens"
      },
      "addPortfolioAsset(address,uint256)": {
        "notice": "Add one asset to the portfolio"
      },
      "allowedAssets(uint256)": {
        "notice": "allowed assets that can be part of a portfolio (to be edited only by contract owner)"
      },
      "balances(address)": {
        "notice": "Holds an account balance in the contract (not assigned to any asset in a portfolio)"
      },
      "deletePortfolio()": {
        "notice": "Stop the portfolio rebalancing and return the assets balance to ether"
      },
      "deposit()": {
        "notice": "Deposit ether in the contract"
      },
      "fetchPortfolio(address)": {
        "notice": "Reveal an account portfolio"
      },
      "isPortfolioSealed(address)": {
        "notice": "Determines whether a portfolio is sealed or not"
      },
      "portfolios(address)": {
        "notice": "Holds an account portfolio"
      },
      "runInitialPortfolioDistribution()": {
        "notice": "Run the first asset distribution once the portfolio is sealed"
      },
      "sealPortfolio()": {
        "notice": "Check the portfolio integrity and close it for changes"
      },
      "swapETHForTokens(address,uint256)": {
        "notice": "Swap ETH amount for tokens"
      },
      "swapTokensForETH(address,uint256)": {
        "notice": "Swap tokens amount for ETH"
      },
      "withdraw(uint256)": {
        "notice": "Withdraw ether from the contract"
      }
    },
    "notice": "This is an experimental contract, don't use in production environment",
    "version": 1
  }
}