{
  "contractName": "Balancer",
  "abi": [
    {
      "inputs": [
        {
          "internalType": "address",
          "name": "_router",
          "type": "address"
        }
      ],
      "stateMutability": "nonpayable",
      "type": "constructor"
    },
    {
      "anonymous": false,
      "inputs": [
        {
          "indexed": false,
          "internalType": "address",
          "name": "assetAddress",
          "type": "address"
        }
      ],
      "name": "LogAllowedAssetAdded",
      "type": "event"
    },
    {
      "anonymous": false,
      "inputs": [
        {
          "indexed": false,
          "internalType": "address",
          "name": "accountAddress",
          "type": "address"
        },
        {
          "indexed": false,
          "internalType": "uint256",
          "name": "amount",
          "type": "uint256"
        }
      ],
      "name": "LogDepositMade",
      "type": "event"
    },
    {
      "anonymous": false,
      "inputs": [
        {
          "indexed": false,
          "internalType": "address[]",
          "name": "assets",
          "type": "address[]"
        },
        {
          "indexed": false,
          "internalType": "uint256[]",
          "name": "percentages",
          "type": "uint256[]"
        }
      ],
      "name": "LogPortfolioCreated",
      "type": "event"
    },
    {
      "anonymous": false,
      "inputs": [
        {
          "indexed": false,
          "internalType": "address",
          "name": "accountAddress",
          "type": "address"
        }
      ],
      "name": "LogPortfolioDeleted",
      "type": "event"
    },
    {
      "anonymous": false,
      "inputs": [
        {
          "indexed": false,
          "internalType": "address",
          "name": "accountAddress",
          "type": "address"
        },
        {
          "indexed": false,
          "internalType": "uint256",
          "name": "withdrawAmount",
          "type": "uint256"
        },
        {
          "indexed": false,
          "internalType": "uint256",
          "name": "newBalance",
          "type": "uint256"
        }
      ],
      "name": "LogWithdrawal",
      "type": "event"
    },
    {
      "anonymous": false,
      "inputs": [
        {
          "indexed": true,
          "internalType": "address",
          "name": "previousOwner",
          "type": "address"
        },
        {
          "indexed": true,
          "internalType": "address",
          "name": "newOwner",
          "type": "address"
        }
      ],
      "name": "OwnershipTransferred",
      "type": "event"
    },
    {
      "inputs": [],
      "name": "MAX_PORTFOLIO_ASSETS",
      "outputs": [
        {
          "internalType": "uint8",
          "name": "",
          "type": "uint8"
        }
      ],
      "stateMutability": "view",
      "type": "function"
    },
    {
      "inputs": [
        {
          "internalType": "uint256",
          "name": "",
          "type": "uint256"
        }
      ],
      "name": "allowedAssets",
      "outputs": [
        {
          "internalType": "address",
          "name": "",
          "type": "address"
        }
      ],
      "stateMutability": "view",
      "type": "function"
    },
    {
      "inputs": [
        {
          "internalType": "address",
          "name": "",
          "type": "address"
        }
      ],
      "name": "assetPrices",
      "outputs": [
        {
          "internalType": "uint256",
          "name": "",
          "type": "uint256"
        }
      ],
      "stateMutability": "view",
      "type": "function"
    },
    {
      "inputs": [
        {
          "internalType": "address",
          "name": "",
          "type": "address"
        }
      ],
      "name": "balances",
      "outputs": [
        {
          "internalType": "uint256",
          "name": "",
          "type": "uint256"
        }
      ],
      "stateMutability": "view",
      "type": "function"
    },
    {
      "inputs": [],
      "name": "owner",
      "outputs": [
        {
          "internalType": "address",
          "name": "",
          "type": "address"
        }
      ],
      "stateMutability": "view",
      "type": "function"
    },
    {
      "inputs": [
        {
          "internalType": "address",
          "name": "",
          "type": "address"
        }
      ],
      "name": "portfolios",
      "outputs": [
        {
          "internalType": "enum Balancer.State",
          "name": "status",
          "type": "uint8"
        }
      ],
      "stateMutability": "view",
      "type": "function"
    },
    {
      "inputs": [],
      "name": "renounceOwnership",
      "outputs": [],
      "stateMutability": "nonpayable",
      "type": "function"
    },
    {
      "inputs": [],
      "name": "router",
      "outputs": [
        {
          "internalType": "contract IUniswapV2Router02",
          "name": "",
          "type": "address"
        }
      ],
      "stateMutability": "view",
      "type": "function"
    },
    {
      "inputs": [
        {
          "internalType": "address",
          "name": "newOwner",
          "type": "address"
        }
      ],
      "name": "transferOwnership",
      "outputs": [],
      "stateMutability": "nonpayable",
      "type": "function"
    },
    {
      "stateMutability": "payable",
      "type": "receive"
    },
    {
      "inputs": [
        {
          "internalType": "address",
          "name": "_assetAddress",
          "type": "address"
        }
      ],
      "name": "addAllowedAsset",
      "outputs": [],
      "stateMutability": "nonpayable",
      "type": "function"
    },
    {
      "inputs": [],
      "name": "allowedAssetsList",
      "outputs": [
        {
          "internalType": "address[]",
          "name": "",
          "type": "address[]"
        }
      ],
      "stateMutability": "view",
      "type": "function"
    },
    {
      "inputs": [
        {
          "internalType": "address",
          "name": "_accountAddress",
          "type": "address"
        }
      ],
      "name": "fetchPortfolio",
      "outputs": [
        {
          "internalType": "enum Balancer.State",
          "name": "",
          "type": "uint8"
        },
        {
          "internalType": "address[]",
          "name": "",
          "type": "address[]"
        },
        {
          "internalType": "uint256[]",
          "name": "",
          "type": "uint256[]"
        },
        {
          "internalType": "uint256[]",
          "name": "",
          "type": "uint256[]"
        }
      ],
      "stateMutability": "view",
      "type": "function"
    },
    {
      "inputs": [
        {
          "internalType": "address",
          "name": "_accountAddress",
          "type": "address"
        }
      ],
      "name": "getPortfolioStatus",
      "outputs": [
        {
          "internalType": "enum Balancer.State",
          "name": "",
          "type": "uint8"
        }
      ],
      "stateMutability": "view",
      "type": "function"
    },
    {
      "inputs": [],
      "name": "deposit",
      "outputs": [
        {
          "internalType": "uint256",
          "name": "",
          "type": "uint256"
        }
      ],
      "stateMutability": "payable",
      "type": "function"
    },
    {
      "inputs": [
        {
          "internalType": "uint256",
          "name": "_withdrawAmount",
          "type": "uint256"
        }
      ],
      "name": "withdraw",
      "outputs": [
        {
          "internalType": "uint256",
          "name": "",
          "type": "uint256"
        }
      ],
      "stateMutability": "nonpayable",
      "type": "function"
    },
    {
      "inputs": [
        {
          "internalType": "address[]",
          "name": "_assets",
          "type": "address[]"
        },
        {
          "internalType": "uint256[]",
          "name": "_percentages",
          "type": "uint256[]"
        }
      ],
      "name": "createPortfolio",
      "outputs": [],
      "stateMutability": "nonpayable",
      "type": "function"
    },
    {
      "inputs": [],
      "name": "deletePortfolio",
      "outputs": [],
      "stateMutability": "nonpayable",
      "type": "function"
    },
    {
      "inputs": [],
      "name": "runInitialPortfolioDistribution",
      "outputs": [],
      "stateMutability": "nonpayable",
      "type": "function"
    },
    {
      "inputs": [
        {
          "internalType": "address",
          "name": "_destTokenAddress",
          "type": "address"
        },
        {
          "internalType": "uint256",
          "name": "_amountIn",
          "type": "uint256"
        }
      ],
      "name": "swapETHForTokens",
      "outputs": [
        {
          "internalType": "uint256",
          "name": "",
          "type": "uint256"
        }
      ],
      "stateMutability": "nonpayable",
      "type": "function"
    },
    {
      "inputs": [
        {
          "internalType": "address",
          "name": "_origTokenAddress",
          "type": "address"
        },
        {
          "internalType": "uint256",
          "name": "_amountIn",
          "type": "uint256"
        }
      ],
      "name": "swapTokensForETH",
      "outputs": [
        {
          "internalType": "uint256",
          "name": "",
          "type": "uint256"
        }
      ],
      "stateMutability": "nonpayable",
      "type": "function"
    },
    {
      "inputs": [
        {
          "internalType": "address",
          "name": "_token",
          "type": "address"
        }
      ],
      "name": "getAssetPrice",
      "outputs": [
        {
          "internalType": "uint256",
          "name": "",
          "type": "uint256"
        }
      ],
      "stateMutability": "nonpayable",
      "type": "function"
    },
    {
      "inputs": [],
      "name": "runPortfolioRebalance",
      "outputs": [],
      "stateMutability": "nonpayable",
      "type": "function"
    },
    {
      "inputs": [],
      "name": "fetchAssetsPrices",
      "outputs": [
        {
          "internalType": "address[]",
          "name": "",
          "type": "address[]"
        },
        {
          "internalType": "uint256[]",
          "name": "",
          "type": "uint256[]"
        }
      ],
      "stateMutability": "view",
      "type": "function"
    },
    {
      "inputs": [],
      "name": "updateAssetPrices",
      "outputs": [],
      "stateMutability": "nonpayable",
      "type": "function"
    }
  ],
  "bytecode": "0x60806040523480156200001157600080fd5b50604051620055b8380380620055b8833981810160405281019062000037919062000182565b620000576200004b6200009f60201b60201c565b620000a760201b60201c565b80600160006101000a81548173ffffffffffffffffffffffffffffffffffffffff021916908373ffffffffffffffffffffffffffffffffffffffff1602179055505062000207565b600033905090565b60008060009054906101000a900473ffffffffffffffffffffffffffffffffffffffff169050816000806101000a81548173ffffffffffffffffffffffffffffffffffffffff021916908373ffffffffffffffffffffffffffffffffffffffff1602179055508173ffffffffffffffffffffffffffffffffffffffff168173ffffffffffffffffffffffffffffffffffffffff167f8be0079c531659141344cd1fd0a4f28419497f9722a3daafe3b4186f6b6457e060405160405180910390a35050565b6000815190506200017c81620001ed565b92915050565b6000602082840312156200019b576200019a620001e8565b5b6000620001ab848285016200016b565b91505092915050565b6000620001c182620001c8565b9050919050565b600073ffffffffffffffffffffffffffffffffffffffff82169050919050565b600080fd5b620001f881620001b4565b81146200020457600080fd5b50565b6153a180620002176000396000f3fe60806040526004361061014f5760003560e01c80637ece3c38116100b6578063c538b1e61161006f578063c538b1e6146104d8578063d0e30db014610504578063d1fd8d3114610522578063dd0b3e8914610539578063f2fde38b14610550578063f887ea401461057957610156565b80637ece3c38146103dc57806381251606146103f35780638da5cb5b1461040a57806398971f1414610435578063b3596f071461045e578063b6468a611461049b57610156565b80634e84eaaa116101085780634e84eaaa146102ba57806351422e97146102e55780635ced8e37146103225780635e9a523c1461034b578063715018a6146103885780637baab3da1461039f57610156565b80630c8d94111461015b5780630ccd3ef9146101985780630dcf52dd146101d557806327e235e3146102005780632e1a7d4d1461023d57806343f097861461027a57610156565b3661015657005b600080fd5b34801561016757600080fd5b50610182600480360381019061017d9190614035565b6105a4565b60405161018f9190614681565b60405180910390f35b3480156101a457600080fd5b506101bf60048036038101906101ba91906141bd565b6105fd565b6040516101cc9190614592565b60405180910390f35b3480156101e157600080fd5b506101ea61063c565b6040516101f7919061460d565b60405180910390f35b34801561020c57600080fd5b5061022760048036038101906102229190614035565b6106ca565b6040516102349190614916565b60405180910390f35b34801561024957600080fd5b50610264600480360381019061025f91906141bd565b6106e2565b6040516102719190614916565b60405180910390f35b34801561028657600080fd5b506102a1600480360381019061029c9190614035565b6108c4565b6040516102b1949392919061469c565b60405180910390f35b3480156102c657600080fd5b506102cf610c90565b6040516102dc9190614a07565b60405180910390f35b3480156102f157600080fd5b5061030c6004803603810190610307919061408f565b610c95565b6040516103199190614916565b60405180910390f35b34801561032e57600080fd5b50610349600480360381019061034491906140cf565b611088565b005b34801561035757600080fd5b50610372600480360381019061036d9190614035565b611642565b60405161037f9190614916565b60405180910390f35b34801561039457600080fd5b5061039d61165a565b005b3480156103ab57600080fd5b506103c660048036038101906103c19190614035565b6116e2565b6040516103d39190614681565b60405180910390f35b3480156103e857600080fd5b506103f161170d565b005b3480156103ff57600080fd5b50610408611c31565b005b34801561041657600080fd5b5061041f61281d565b60405161042c9190614592565b60405180910390f35b34801561044157600080fd5b5061045c60048036038101906104579190614035565b612846565b005b34801561046a57600080fd5b5061048560048036038101906104809190614035565b612a45565b6040516104929190614916565b60405180910390f35b3480156104a757600080fd5b506104c260048036038101906104bd919061408f565b612e23565b6040516104cf9190614916565b60405180910390f35b3480156104e457600080fd5b506104ed613217565b6040516104fb92919061462f565b60405180910390f35b61050c613417565b6040516105199190614916565b60405180910390f35b34801561052e57600080fd5b5061053761352f565b005b34801561054557600080fd5b5061054e61361d565b005b34801561055c57600080fd5b5061057760048036038101906105729190614035565b613b5d565b005b34801561058557600080fd5b5061058e613c55565b60405161059b9190614666565b60405180910390f35b6000600560008373ffffffffffffffffffffffffffffffffffffffff1673ffffffffffffffffffffffffffffffffffffffff16815260200190815260200160002060000160009054906101000a900460ff169050919050565b6003818154811061060d57600080fd5b906000526020600020016000915054906101000a900473ffffffffffffffffffffffffffffffffffffffff1681565b606060038054806020026020016040519081016040528092919081815260200182805480156106c057602002820191906000526020600020905b8160009054906101000a900473ffffffffffffffffffffffffffffffffffffffff1673ffffffffffffffffffffffffffffffffffffffff1681526020019060010190808311610676575b5050505050905090565b60026020528060005260406000206000915090505481565b600081600260003373ffffffffffffffffffffffffffffffffffffffff1673ffffffffffffffffffffffffffffffffffffffff168152602001908152602001600020541015610766576040517f08c379a000000000000000000000000000000000000000000000000000000000815260040161075d90614756565b60405180910390fd5b81600260003373ffffffffffffffffffffffffffffffffffffffff1673ffffffffffffffffffffffffffffffffffffffff16815260200190815260200160002060008282546107b59190614c97565b925050819055503373ffffffffffffffffffffffffffffffffffffffff166108fc839081150290604051600060405180830381858888f19350505050158015610802573d6000803e3d6000fd5b507ff9226daf630542048a23086c6af599511aac100ec8f532793cc9697d061bed7e3383600260003373ffffffffffffffffffffffffffffffffffffffff1673ffffffffffffffffffffffffffffffffffffffff16815260200190815260200160002054604051610875939291906145d6565b60405180910390a1600260003373ffffffffffffffffffffffffffffffffffffffff1673ffffffffffffffffffffffffffffffffffffffff168152602001908152602001600020549050919050565b600060608060606000600560008773ffffffffffffffffffffffffffffffffffffffff1673ffffffffffffffffffffffffffffffffffffffff1681526020019081526020016000206003018054905090506000808267ffffffffffffffff81111561093257610931614f21565b5b6040519080825280602002602001820160405280156109605781602001602082028036833780820191505090505b50905060008367ffffffffffffffff81111561097f5761097e614f21565b5b6040519080825280602002602001820160405280156109ad5781602001602082028036833780820191505090505b50905060008467ffffffffffffffff8111156109cc576109cb614f21565b5b6040519080825280602002602001820160405280156109fa5781602001602082028036833780820191505090505b50905060005b85811015610c2857600560008c73ffffffffffffffffffffffffffffffffffffffff1673ffffffffffffffffffffffffffffffffffffffff1681526020019081526020016000206003018181548110610a5c57610a5b614ef2565b5b9060005260206000200160009054906101000a900473ffffffffffffffffffffffffffffffffffffffff16945084848281518110610a9d57610a9c614ef2565b5b602002602001019073ffffffffffffffffffffffffffffffffffffffff16908173ffffffffffffffffffffffffffffffffffffffff1681525050600560008c73ffffffffffffffffffffffffffffffffffffffff1673ffffffffffffffffffffffffffffffffffffffff16815260200190815260200160002060010160008673ffffffffffffffffffffffffffffffffffffffff1673ffffffffffffffffffffffffffffffffffffffff16815260200190815260200160002054838281518110610b6a57610b69614ef2565b5b602002602001018181525050600560008c73ffffffffffffffffffffffffffffffffffffffff1673ffffffffffffffffffffffffffffffffffffffff16815260200190815260200160002060020160008673ffffffffffffffffffffffffffffffffffffffff1673ffffffffffffffffffffffffffffffffffffffff16815260200190815260200160002054828281518110610c0957610c08614ef2565b5b6020026020010181815250508080610c2090614da4565b915050610a00565b50600560008b73ffffffffffffffffffffffffffffffffffffffff1673ffffffffffffffffffffffffffffffffffffffff16815260200190815260200160002060000160009054906101000a900460ff16838383985098509850985050505050509193509193565b600a81565b600080600160009054906101000a900473ffffffffffffffffffffffffffffffffffffffff1673ffffffffffffffffffffffffffffffffffffffff1663ad5c46486040518163ffffffff1660e01b815260040160206040518083038186803b158015610d0057600080fd5b505afa158015610d14573d6000803e3d6000fd5b505050506040513d601f19601f82011682018060405250810190610d389190614062565b90506000600267ffffffffffffffff811115610d5757610d56614f21565b5b604051908082528060200260200182016040528015610d855781602001602082028036833780820191505090505b5090508181600081518110610d9d57610d9c614ef2565b5b602002602001019073ffffffffffffffffffffffffffffffffffffffff16908173ffffffffffffffffffffffffffffffffffffffff16815250508481600181518110610dec57610deb614ef2565b5b602002602001019073ffffffffffffffffffffffffffffffffffffffff16908173ffffffffffffffffffffffffffffffffffffffff16815250508173ffffffffffffffffffffffffffffffffffffffff1663095ea7b3600160009054906101000a900473ffffffffffffffffffffffffffffffffffffffff16866040518363ffffffff1660e01b8152600401610e839291906145ad565b602060405180830381600087803b158015610e9d57600080fd5b505af1158015610eb1573d6000803e3d6000fd5b505050506040513d601f19601f82011682018060405250810190610ed59190614190565b506000600160009054906101000a900473ffffffffffffffffffffffffffffffffffffffff1673ffffffffffffffffffffffffffffffffffffffff1663d06ca61f86846040518363ffffffff1660e01b8152600401610f35929190614931565b60006040518083038186803b158015610f4d57600080fd5b505afa158015610f61573d6000803e3d6000fd5b505050506040513d6000823e3d601f19601f82011682018060405250810190610f8a9190614147565b9050600160009054906101000a900473ffffffffffffffffffffffffffffffffffffffff1673ffffffffffffffffffffffffffffffffffffffff16637ff36ab58683600181518110610fdf57610fde614ef2565b5b60200260200101518530426040518663ffffffff1660e01b81526004016110099493929190614961565b6000604051808303818588803b15801561102257600080fd5b505af1158015611036573d6000803e3d6000fd5b50505050506040513d6000823e3d601f19601f820116820180604052508101906110609190614147565b508060018151811061107557611074614ef2565b5b6020026020010151935050505092915050565b6000600260003373ffffffffffffffffffffffffffffffffffffffff1673ffffffffffffffffffffffffffffffffffffffff168152602001908152602001600020541161110a576040517f08c379a000000000000000000000000000000000000000000000000000000000815260040161110190614756565b60405180910390fd5b6000600381111561111e5761111d614e94565b5b600560003373ffffffffffffffffffffffffffffffffffffffff1673ffffffffffffffffffffffffffffffffffffffff16815260200190815260200160002060000160009054906101000a900460ff1660038111156111805761117f614e94565b5b146111c0576040517f08c379a00000000000000000000000000000000000000000000000000000000081526004016111b790614776565b60405180910390fd5b600a60ff1682511115611208576040517f08c379a00000000000000000000000000000000000000000000000000000000081526004016111ff906147d6565b60405180910390fd5b60028251101561124d576040517f08c379a0000000000000000000000000000000000000000000000000000000008152600401611244906148f6565b60405180910390fd5b8051825114611291576040517f08c379a000000000000000000000000000000000000000000000000000000000815260040161128890614816565b60405180910390fd5b6000805b825181101561135e5760018382815181106112b3576112b2614ef2565b5b6020026020010151101580156112e4575060638382815181106112d9576112d8614ef2565b5b602002602001015111155b611323576040517f08c379a000000000000000000000000000000000000000000000000000000000815260040161131a90614716565b60405180910390fd5b82818151811061133657611335614ef2565b5b6020026020010151826113499190614b22565b9150808061135690614da4565b915050611295565b50606481146113a2576040517f08c379a000000000000000000000000000000000000000000000000000000000815260040161139990614836565b60405180910390fd5b60005b8351811015611598576113d18482815181106113c4576113c3614ef2565b5b6020026020010151613c7b565b611410576040517f08c379a0000000000000000000000000000000000000000000000000000000008152600401611407906146f6565b60405180910390fd5b82818151811061142357611422614ef2565b5b6020026020010151600560003373ffffffffffffffffffffffffffffffffffffffff1673ffffffffffffffffffffffffffffffffffffffff168152602001908152602001600020600101600086848151811061148257611481614ef2565b5b602002602001015173ffffffffffffffffffffffffffffffffffffffff1673ffffffffffffffffffffffffffffffffffffffff16815260200190815260200160002081905550600560003373ffffffffffffffffffffffffffffffffffffffff1673ffffffffffffffffffffffffffffffffffffffff16815260200190815260200160002060030184828151811061151d5761151c614ef2565b5b60200260200101519080600181540180825580915050600190039060005260206000200160009091909190916101000a81548173ffffffffffffffffffffffffffffffffffffffff021916908373ffffffffffffffffffffffffffffffffffffffff160217905550808061159090614da4565b9150506113a5565b506001600560003373ffffffffffffffffffffffffffffffffffffffff1673ffffffffffffffffffffffffffffffffffffffff16815260200190815260200160002060000160006101000a81548160ff021916908360038111156115ff576115fe614e94565b5b02179055507ffd81611dac855213e752208be39bc53f2909b14f5ad8c5cdb1e30ea89285b56e838360405161163592919061462f565b60405180910390a1505050565b60046020528060005260406000206000915090505481565b611662613d26565b73ffffffffffffffffffffffffffffffffffffffff1661168061281d565b73ffffffffffffffffffffffffffffffffffffffff16146116d6576040517f08c379a00000000000000000000000000000000000000000000000000000000081526004016116cd90614896565b60405180910390fd5b6116e06000613d2e565b565b60056020528060005260406000206000915090508060000160009054906101000a900460ff16905081565b6000600260003373ffffffffffffffffffffffffffffffffffffffff1673ffffffffffffffffffffffffffffffffffffffff168152602001908152602001600020541161178f576040517f08c379a0000000000000000000000000000000000000000000000000000000008152600401611786906147b6565b60405180910390fd5b600160038111156117a3576117a2614e94565b5b600560003373ffffffffffffffffffffffffffffffffffffffff1673ffffffffffffffffffffffffffffffffffffffff16815260200190815260200160002060000160009054906101000a900460ff16600381111561180557611804614e94565b5b14611845576040517f08c379a000000000000000000000000000000000000000000000000000000000815260040161183c906147f6565b60405180910390fd5b6000600260003373ffffffffffffffffffffffffffffffffffffffff1673ffffffffffffffffffffffffffffffffffffffff16815260200190815260200160002054905060008060008060005b600560003373ffffffffffffffffffffffffffffffffffffffff1673ffffffffffffffffffffffffffffffffffffffff16815260200190815260200160002060030180549050811015611c2957600560003373ffffffffffffffffffffffffffffffffffffffff1673ffffffffffffffffffffffffffffffffffffffff168152602001908152602001600020600301818154811061193357611932614ef2565b5b9060005260206000200160009054906101000a900473ffffffffffffffffffffffffffffffffffffffff169150600560003373ffffffffffffffffffffffffffffffffffffffff1673ffffffffffffffffffffffffffffffffffffffff16815260200190815260200160002060010160008373ffffffffffffffffffffffffffffffffffffffff1673ffffffffffffffffffffffffffffffffffffffff168152602001908152602001600020549450606485876119f09190614ba9565b6119fa9190614b78565b9250600260003373ffffffffffffffffffffffffffffffffffffffff1673ffffffffffffffffffffffffffffffffffffffff16815260200190815260200160002054831115611a7e576040517f08c379a0000000000000000000000000000000000000000000000000000000008152600401611a7590614796565b60405180910390fd5b611a888284610c95565b93508383670de0b6b3a7640000611a9f9190614ba9565b611aa99190614b78565b6004600060038481548110611ac157611ac0614ef2565b5b9060005260206000200160009054906101000a900473ffffffffffffffffffffffffffffffffffffffff1673ffffffffffffffffffffffffffffffffffffffff1673ffffffffffffffffffffffffffffffffffffffff1681526020019081526020016000208190555083600560003373ffffffffffffffffffffffffffffffffffffffff1673ffffffffffffffffffffffffffffffffffffffff16815260200190815260200160002060020160008473ffffffffffffffffffffffffffffffffffffffff1673ffffffffffffffffffffffffffffffffffffffff1681526020019081526020016000206000828254611bb99190614b22565b9250508190555082600260003373ffffffffffffffffffffffffffffffffffffffff1673ffffffffffffffffffffffffffffffffffffffff1681526020019081526020016000206000828254611c0f9190614c97565b925050819055508080611c2190614da4565b915050611892565b505050505050565b60026003811115611c4557611c44614e94565b5b600560003373ffffffffffffffffffffffffffffffffffffffff1673ffffffffffffffffffffffffffffffffffffffff16815260200190815260200160002060000160009054906101000a900460ff166003811115611ca757611ca6614e94565b5b14611ce7576040517f08c379a0000000000000000000000000000000000000000000000000000000008152600401611cde906148b6565b60405180910390fd5b60008060005b600560003373ffffffffffffffffffffffffffffffffffffffff1673ffffffffffffffffffffffffffffffffffffffff16815260200190815260200160002060030180549050811015611e1a57600560003373ffffffffffffffffffffffffffffffffffffffff1673ffffffffffffffffffffffffffffffffffffffff1681526020019081526020016000206003018181548110611d8e57611d8d614ef2565b5b9060005260206000200160009054906101000a900473ffffffffffffffffffffffffffffffffffffffff169250611dc483612a45565b600460008573ffffffffffffffffffffffffffffffffffffffff1673ffffffffffffffffffffffffffffffffffffffff168152602001908152602001600020819055508080611e1290614da4565b915050611ced565b50600080600560003373ffffffffffffffffffffffffffffffffffffffff1673ffffffffffffffffffffffffffffffffffffffff1681526020019081526020016000206003018054905067ffffffffffffffff811115611e7d57611e7c614f21565b5b604051908082528060200260200182016040528015611eab5781602001602082028036833780820191505090505b5090506000805b600560003373ffffffffffffffffffffffffffffffffffffffff1673ffffffffffffffffffffffffffffffffffffffff168152602001908152602001600020600301805490508110156120ba57600560003373ffffffffffffffffffffffffffffffffffffffff1673ffffffffffffffffffffffffffffffffffffffff1681526020019081526020016000206003018181548110611f5357611f52614ef2565b5b9060005260206000200160009054906101000a900473ffffffffffffffffffffffffffffffffffffffff169550600560003373ffffffffffffffffffffffffffffffffffffffff1673ffffffffffffffffffffffffffffffffffffffff16815260200190815260200160002060020160008773ffffffffffffffffffffffffffffffffffffffff1673ffffffffffffffffffffffffffffffffffffffff168152602001908152602001600020549350670de0b6b3a764000084600460008973ffffffffffffffffffffffffffffffffffffffff1673ffffffffffffffffffffffffffffffffffffffff168152602001908152602001600020546120569190614ba9565b6120609190614b78565b83828151811061207357612072614ef2565b5b60200260200101818152505082818151811061209257612091614ef2565b5b6020026020010151826120a59190614b22565b915080806120b290614da4565b915050611eb2565b506000666a94d74f430000905080826120d39190614c97565b91506000806000600560003373ffffffffffffffffffffffffffffffffffffffff1673ffffffffffffffffffffffffffffffffffffffff1681526020019081526020016000206003018054905067ffffffffffffffff81111561213957612138614f21565b5b6040519080825280602002602001820160405280156121675781602001602082028036833780820191505090505b5090506000600560003373ffffffffffffffffffffffffffffffffffffffff1673ffffffffffffffffffffffffffffffffffffffff1681526020019081526020016000206003018054905067ffffffffffffffff8111156121cb576121ca614f21565b5b6040519080825280602002602001820160405280156121f95781602001602082028036833780820191505090505b50905060005b600560003373ffffffffffffffffffffffffffffffffffffffff1673ffffffffffffffffffffffffffffffffffffffff168152602001908152602001600020600301805490508110156123f957600560003373ffffffffffffffffffffffffffffffffffffffff1673ffffffffffffffffffffffffffffffffffffffff16815260200190815260200160002060030181815481106122a05761229f614ef2565b5b9060005260206000200160009054906101000a900473ffffffffffffffffffffffffffffffffffffffff169a50600560003373ffffffffffffffffffffffffffffffffffffffff1673ffffffffffffffffffffffffffffffffffffffff16815260200190815260200160002060010160008c73ffffffffffffffffffffffffffffffffffffffff1673ffffffffffffffffffffffffffffffffffffffff16815260200190815260200160002054945087818151811061236257612361614ef2565b5b6020026020010151606486896123789190614ba9565b6123829190614b78565b61238c9190614c03565b935060008413156123bc57838282815181106123ab576123aa614ef2565b5b6020026020010181815250506123e6565b836123c690614ded565b8382815181106123d9576123d8614ef2565b5b6020026020010181815250505b80806123f190614da4565b9150506121ff565b50600080600090505b83518110156126355760008482815181106124205761241f614ef2565b5b6020026020010151111561262257600560003373ffffffffffffffffffffffffffffffffffffffff1673ffffffffffffffffffffffffffffffffffffffff168152602001908152602001600020600301818154811061248257612481614ef2565b5b9060005260206000200160009054906101000a900473ffffffffffffffffffffffffffffffffffffffff169b50600460008d73ffffffffffffffffffffffffffffffffffffffff1673ffffffffffffffffffffffffffffffffffffffff16815260200190815260200160002054670de0b6b3a764000085838151811061250b5761250a614ef2565b5b602002602001015161251d9190614ba9565b6125279190614b78565b91506125338c83612e23565b9a508a600260003373ffffffffffffffffffffffffffffffffffffffff1673ffffffffffffffffffffffffffffffffffffffff16815260200190815260200160002060008282546125849190614b22565b9250508190555081600560003373ffffffffffffffffffffffffffffffffffffffff1673ffffffffffffffffffffffffffffffffffffffff16815260200190815260200160002060020160008e73ffffffffffffffffffffffffffffffffffffffff1673ffffffffffffffffffffffffffffffffffffffff168152602001908152602001600020600082825461261a9190614c97565b925050819055505b808061262d90614da4565b915050612402565b5060005b825181101561280f57600083828151811061265757612656614ef2565b5b602002602001015111156127fc57600560003373ffffffffffffffffffffffffffffffffffffffff1673ffffffffffffffffffffffffffffffffffffffff16815260200190815260200160002060030181815481106126b9576126b8614ef2565b5b9060005260206000200160009054906101000a900473ffffffffffffffffffffffffffffffffffffffff169b508281815181106126f9576126f8614ef2565b5b6020026020010151915061270d8c83610c95565b9a508a600560003373ffffffffffffffffffffffffffffffffffffffff1673ffffffffffffffffffffffffffffffffffffffff16815260200190815260200160002060020160008e73ffffffffffffffffffffffffffffffffffffffff1673ffffffffffffffffffffffffffffffffffffffff168152602001908152602001600020600082825461279e9190614b22565b9250508190555081600260003373ffffffffffffffffffffffffffffffffffffffff1673ffffffffffffffffffffffffffffffffffffffff16815260200190815260200160002060008282546127f49190614c97565b925050819055505b808061280790614da4565b915050612639565b505050505050505050505050565b60008060009054906101000a900473ffffffffffffffffffffffffffffffffffffffff16905090565b808160006001905060005b6003805490508110156128e8578273ffffffffffffffffffffffffffffffffffffffff166003828154811061288957612888614ef2565b5b9060005260206000200160009054906101000a900473ffffffffffffffffffffffffffffffffffffffff1673ffffffffffffffffffffffffffffffffffffffff1614156128d557600091505b80806128e090614da4565b915050612851565b5080612929576040517f08c379a0000000000000000000000000000000000000000000000000000000008152600401612920906148d6565b60405180910390fd5b612931613d26565b73ffffffffffffffffffffffffffffffffffffffff1661294f61281d565b73ffffffffffffffffffffffffffffffffffffffff16146129a5576040517f08c379a000000000000000000000000000000000000000000000000000000000815260040161299c90614896565b60405180910390fd5b6003849080600181540180825580915050600190039060005260206000200160009091909190916101000a81548173ffffffffffffffffffffffffffffffffffffffff021916908373ffffffffffffffffffffffffffffffffffffffff1602179055507ff59d0ae4e98bf93f09241ca4f8223fb0ecfebf4027c3087280ecec9c18d32f7584604051612a379190614592565b60405180910390a150505050565b600080670de0b6b3a764000090506000600267ffffffffffffffff811115612a7057612a6f614f21565b5b604051908082528060200260200182016040528015612a9e5781602001602082028036833780820191505090505b509050600160009054906101000a900473ffffffffffffffffffffffffffffffffffffffff1673ffffffffffffffffffffffffffffffffffffffff1663ad5c46486040518163ffffffff1660e01b815260040160206040518083038186803b158015612b0957600080fd5b505afa158015612b1d573d6000803e3d6000fd5b505050506040513d601f19601f82011682018060405250810190612b419190614062565b81600081518110612b5557612b54614ef2565b5b602002602001019073ffffffffffffffffffffffffffffffffffffffff16908173ffffffffffffffffffffffffffffffffffffffff16815250508381600181518110612ba457612ba3614ef2565b5b602002602001019073ffffffffffffffffffffffffffffffffffffffff16908173ffffffffffffffffffffffffffffffffffffffff1681525050600160009054906101000a900473ffffffffffffffffffffffffffffffffffffffff1673ffffffffffffffffffffffffffffffffffffffff1663ad5c46486040518163ffffffff1660e01b815260040160206040518083038186803b158015612c4657600080fd5b505afa158015612c5a573d6000803e3d6000fd5b505050506040513d601f19601f82011682018060405250810190612c7e9190614062565b73ffffffffffffffffffffffffffffffffffffffff1663095ea7b3600160009054906101000a900473ffffffffffffffffffffffffffffffffffffffff16846040518363ffffffff1660e01b8152600401612cda9291906145ad565b602060405180830381600087803b158015612cf457600080fd5b505af1158015612d08573d6000803e3d6000fd5b505050506040513d601f19601f82011682018060405250810190612d2c9190614190565b506000600160009054906101000a900473ffffffffffffffffffffffffffffffffffffffff1673ffffffffffffffffffffffffffffffffffffffff1663d06ca61f84846040518363ffffffff1660e01b8152600401612d8c929190614931565b60006040518083038186803b158015612da457600080fd5b505afa158015612db8573d6000803e3d6000fd5b505050506040513d6000823e3d601f19601f82011682018060405250810190612de19190614147565b600181518110612df457612df3614ef2565b5b60200260200101519050806ec097ce7bc90715b34b9f1000000000612e199190614b78565b9350505050919050565b600080600160009054906101000a900473ffffffffffffffffffffffffffffffffffffffff1673ffffffffffffffffffffffffffffffffffffffff1663ad5c46486040518163ffffffff1660e01b815260040160206040518083038186803b158015612e8e57600080fd5b505afa158015612ea2573d6000803e3d6000fd5b505050506040513d601f19601f82011682018060405250810190612ec69190614062565b90506000600267ffffffffffffffff811115612ee557612ee4614f21565b5b604051908082528060200260200182016040528015612f135781602001602082028036833780820191505090505b5090508481600081518110612f2b57612f2a614ef2565b5b602002602001019073ffffffffffffffffffffffffffffffffffffffff16908173ffffffffffffffffffffffffffffffffffffffff16815250508181600181518110612f7a57612f79614ef2565b5b602002602001019073ffffffffffffffffffffffffffffffffffffffff16908173ffffffffffffffffffffffffffffffffffffffff16815250508473ffffffffffffffffffffffffffffffffffffffff1663095ea7b3600160009054906101000a900473ffffffffffffffffffffffffffffffffffffffff16866040518363ffffffff1660e01b81526004016130119291906145ad565b602060405180830381600087803b15801561302b57600080fd5b505af115801561303f573d6000803e3d6000fd5b505050506040513d601f19601f820116820180604052508101906130639190614190565b506000600160009054906101000a900473ffffffffffffffffffffffffffffffffffffffff1673ffffffffffffffffffffffffffffffffffffffff1663d06ca61f86846040518363ffffffff1660e01b81526004016130c3929190614931565b60006040518083038186803b1580156130db57600080fd5b505afa1580156130ef573d6000803e3d6000fd5b505050506040513d6000823e3d601f19601f820116820180604052508101906131189190614147565b9050600160009054906101000a900473ffffffffffffffffffffffffffffffffffffffff1673ffffffffffffffffffffffffffffffffffffffff166318cbafe5868360018151811061316d5761316c614ef2565b5b60200260200101518530426040518663ffffffff1660e01b81526004016131989594939291906149ad565b600060405180830381600087803b1580156131b257600080fd5b505af11580156131c6573d6000803e3d6000fd5b505050506040513d6000823e3d601f19601f820116820180604052508101906131ef9190614147565b508060018151811061320457613203614ef2565b5b6020026020010151935050505092915050565b606080600060038054905067ffffffffffffffff81111561323b5761323a614f21565b5b6040519080825280602002602001820160405280156132695781602001602082028036833780820191505090505b509050600060038054905067ffffffffffffffff81111561328d5761328c614f21565b5b6040519080825280602002602001820160405280156132bb5781602001602082028036833780820191505090505b50905060005b60038054905081101561340a57600381815481106132e2576132e1614ef2565b5b9060005260206000200160009054906101000a900473ffffffffffffffffffffffffffffffffffffffff168382815181106133205761331f614ef2565b5b602002602001019073ffffffffffffffffffffffffffffffffffffffff16908173ffffffffffffffffffffffffffffffffffffffff1681525050600460006003838154811061337257613371614ef2565b5b9060005260206000200160009054906101000a900473ffffffffffffffffffffffffffffffffffffffff1673ffffffffffffffffffffffffffffffffffffffff1673ffffffffffffffffffffffffffffffffffffffff168152602001908152602001600020548282815181106133eb576133ea614ef2565b5b602002602001018181525050808061340290614da4565b9150506132c1565b5081819350935050509091565b600080341161345b576040517f08c379a000000000000000000000000000000000000000000000000000000000815260040161345290614876565b60405180910390fd5b34600260003373ffffffffffffffffffffffffffffffffffffffff1673ffffffffffffffffffffffffffffffffffffffff16815260200190815260200160002060008282546134aa9190614b22565b925050819055507fa8126f7572bb1fdeae5b5aa9ec126438b91f658a07873f009d041ae690f3a19333346040516134e29291906145ad565b60405180910390a1600260003373ffffffffffffffffffffffffffffffffffffffff1673ffffffffffffffffffffffffffffffffffffffff16815260200190815260200160002054905090565b60005b60038054905081101561361a576135866003828154811061355657613555614ef2565b5b9060005260206000200160009054906101000a900473ffffffffffffffffffffffffffffffffffffffff16612a45565b600460006003848154811061359e5761359d614ef2565b5b9060005260206000200160009054906101000a900473ffffffffffffffffffffffffffffffffffffffff1673ffffffffffffffffffffffffffffffffffffffff1673ffffffffffffffffffffffffffffffffffffffff16815260200190815260200160002081905550808061361290614da4565b915050613532565b50565b6000600381111561363157613630614e94565b5b600560003373ffffffffffffffffffffffffffffffffffffffff1673ffffffffffffffffffffffffffffffffffffffff16815260200190815260200160002060000160009054906101000a900460ff16600381111561369357613692614e94565b5b14156136d4576040517f08c379a00000000000000000000000000000000000000000000000000000000081526004016136cb90614856565b60405180910390fd5b60008060005b600560003373ffffffffffffffffffffffffffffffffffffffff1673ffffffffffffffffffffffffffffffffffffffff16815260200190815260200160002060030180549050811015613ab657600560003373ffffffffffffffffffffffffffffffffffffffff1673ffffffffffffffffffffffffffffffffffffffff168152602001908152602001600020600301818154811061377b5761377a614ef2565b5b9060005260206000200160009054906101000a900473ffffffffffffffffffffffffffffffffffffffff1691506000600560003373ffffffffffffffffffffffffffffffffffffffff1673ffffffffffffffffffffffffffffffffffffffff16815260200190815260200160002060020160008473ffffffffffffffffffffffffffffffffffffffff1673ffffffffffffffffffffffffffffffffffffffff168152602001908152602001600020541115613a1c576138b982600560003373ffffffffffffffffffffffffffffffffffffffff1673ffffffffffffffffffffffffffffffffffffffff16815260200190815260200160002060020160008573ffffffffffffffffffffffffffffffffffffffff1673ffffffffffffffffffffffffffffffffffffffff16815260200190815260200160002054612e23565b925082600260003373ffffffffffffffffffffffffffffffffffffffff1673ffffffffffffffffffffffffffffffffffffffff168152602001908152602001600020600082825461390a9190614b22565b925050819055506000600560003373ffffffffffffffffffffffffffffffffffffffff1673ffffffffffffffffffffffffffffffffffffffff16815260200190815260200160002060020160008473ffffffffffffffffffffffffffffffffffffffff1673ffffffffffffffffffffffffffffffffffffffff168152602001908152602001600020819055506000600560003373ffffffffffffffffffffffffffffffffffffffff1673ffffffffffffffffffffffffffffffffffffffff16815260200190815260200160002060010160008473ffffffffffffffffffffffffffffffffffffffff1673ffffffffffffffffffffffffffffffffffffffff168152602001908152602001600020819055505b600560003373ffffffffffffffffffffffffffffffffffffffff1673ffffffffffffffffffffffffffffffffffffffff168152602001908152602001600020600301805480613a6e57613a6d614ec3565b5b6001900381819060005260206000200160006101000a81549073ffffffffffffffffffffffffffffffffffffffff021916905590558080613aae90614da4565b9150506136da565b506000600560003373ffffffffffffffffffffffffffffffffffffffff1673ffffffffffffffffffffffffffffffffffffffff16815260200190815260200160002060000160006101000a81548160ff02191690836003811115613b1d57613b1c614e94565b5b02179055507fb24dcbc2f0ea9133e820ca155e83232c8e2612051982b9edc7234fd0f3692cf933604051613b519190614592565b60405180910390a15050565b613b65613d26565b73ffffffffffffffffffffffffffffffffffffffff16613b8361281d565b73ffffffffffffffffffffffffffffffffffffffff1614613bd9576040517f08c379a0000000000000000000000000000000000000000000000000000000008152600401613bd090614896565b60405180910390fd5b600073ffffffffffffffffffffffffffffffffffffffff168173ffffffffffffffffffffffffffffffffffffffff161415613c49576040517f08c379a0000000000000000000000000000000000000000000000000000000008152600401613c4090614736565b60405180910390fd5b613c5281613d2e565b50565b600160009054906101000a900473ffffffffffffffffffffffffffffffffffffffff1681565b6000805b600380549050811015613d1b578273ffffffffffffffffffffffffffffffffffffffff1660038281548110613cb757613cb6614ef2565b5b9060005260206000200160009054906101000a900473ffffffffffffffffffffffffffffffffffffffff1673ffffffffffffffffffffffffffffffffffffffff161415613d08576001915050613d21565b8080613d1390614da4565b915050613c7f565b50600090505b919050565b600033905090565b60008060009054906101000a900473ffffffffffffffffffffffffffffffffffffffff169050816000806101000a81548173ffffffffffffffffffffffffffffffffffffffff021916908373ffffffffffffffffffffffffffffffffffffffff1602179055508173ffffffffffffffffffffffffffffffffffffffff168173ffffffffffffffffffffffffffffffffffffffff167f8be0079c531659141344cd1fd0a4f28419497f9722a3daafe3b4186f6b6457e060405160405180910390a35050565b6000613e05613e0084614a47565b614a22565b90508083825260208201905082856020860282011115613e2857613e27614f55565b5b60005b85811015613e585781613e3e8882613f42565b845260208401935060208301925050600181019050613e2b565b5050509392505050565b6000613e75613e7084614a73565b614a22565b90508083825260208201905082856020860282011115613e9857613e97614f55565b5b60005b85811015613ec85781613eae888261400b565b845260208401935060208301925050600181019050613e9b565b5050509392505050565b6000613ee5613ee084614a73565b614a22565b90508083825260208201905082856020860282011115613f0857613f07614f55565b5b60005b85811015613f385781613f1e8882614020565b845260208401935060208301925050600181019050613f0b565b5050509392505050565b600081359050613f5181615326565b92915050565b600081519050613f6681615326565b92915050565b600082601f830112613f8157613f80614f50565b5b8135613f91848260208601613df2565b91505092915050565b600082601f830112613faf57613fae614f50565b5b8135613fbf848260208601613e62565b91505092915050565b600082601f830112613fdd57613fdc614f50565b5b8151613fed848260208601613ed2565b91505092915050565b6000815190506140058161533d565b92915050565b60008135905061401a81615354565b92915050565b60008151905061402f81615354565b92915050565b60006020828403121561404b5761404a614f5f565b5b600061405984828501613f42565b91505092915050565b60006020828403121561407857614077614f5f565b5b600061408684828501613f57565b91505092915050565b600080604083850312156140a6576140a5614f5f565b5b60006140b485828601613f42565b92505060206140c58582860161400b565b9150509250929050565b600080604083850312156140e6576140e5614f5f565b5b600083013567ffffffffffffffff81111561410457614103614f5a565b5b61411085828601613f6c565b925050602083013567ffffffffffffffff81111561413157614130614f5a565b5b61413d85828601613f9a565b9150509250929050565b60006020828403121561415d5761415c614f5f565b5b600082015167ffffffffffffffff81111561417b5761417a614f5a565b5b61418784828501613fc8565b91505092915050565b6000602082840312156141a6576141a5614f5f565b5b60006141b484828501613ff6565b91505092915050565b6000602082840312156141d3576141d2614f5f565b5b60006141e18482850161400b565b91505092915050565b60006141f6838361421a565b60208301905092915050565b600061420e8383614565565b60208301905092915050565b61422381614ccb565b82525050565b61423281614ccb565b82525050565b600061424382614abf565b61424d8185614aef565b935061425883614a9f565b8060005b8381101561428957815161427088826141ea565b975061427b83614ad5565b92505060018101905061425c565b5085935050505092915050565b60006142a182614aca565b6142ab8185614b00565b93506142b683614aaf565b8060005b838110156142e75781516142ce8882614202565b97506142d983614ae2565b9250506001810190506142ba565b5085935050505092915050565b6142fd81614d3d565b82525050565b61430c81614d61565b82525050565b600061431f601183614b11565b915061432a82614f75565b602082019050919050565b6000614342602983614b11565b915061434d82614f9e565b604082019050919050565b6000614365602683614b11565b915061437082614fed565b604082019050919050565b6000614388601083614b11565b91506143938261503c565b602082019050919050565b60006143ab601983614b11565b91506143b682615065565b602082019050919050565b60006143ce601c83614b11565b91506143d98261508e565b602082019050919050565b60006143f1601283614b11565b91506143fc826150b7565b602082019050919050565b6000614414601c83614b11565b915061441f826150e0565b602082019050919050565b6000614437601883614b11565b915061444282615109565b602082019050919050565b600061445a602783614b11565b915061446582615132565b604082019050919050565b600061447d602d83614b11565b915061448882615181565b604082019050919050565b60006144a0601583614b11565b91506144ab826151d0565b602082019050919050565b60006144c3602683614b11565b91506144ce826151f9565b604082019050919050565b60006144e6602083614b11565b91506144f182615248565b602082019050919050565b6000614509601d83614b11565b915061451482615271565b602082019050919050565b600061452c601883614b11565b91506145378261529a565b602082019050919050565b600061454f602183614b11565b915061455a826152c3565b604082019050919050565b61456e81614d26565b82525050565b61457d81614d26565b82525050565b61458c81614d30565b82525050565b60006020820190506145a76000830184614229565b92915050565b60006040820190506145c26000830185614229565b6145cf6020830184614574565b9392505050565b60006060820190506145eb6000830186614229565b6145f86020830185614574565b6146056040830184614574565b949350505050565b600060208201905081810360008301526146278184614238565b905092915050565b600060408201905081810360008301526146498185614238565b9050818103602083015261465d8184614296565b90509392505050565b600060208201905061467b60008301846142f4565b92915050565b60006020820190506146966000830184614303565b92915050565b60006080820190506146b16000830187614303565b81810360208301526146c38186614238565b905081810360408301526146d78185614296565b905081810360608301526146eb8184614296565b905095945050505050565b6000602082019050818103600083015261470f81614312565b9050919050565b6000602082019050818103600083015261472f81614335565b9050919050565b6000602082019050818103600083015261474f81614358565b9050919050565b6000602082019050818103600083015261476f8161437b565b9050919050565b6000602082019050818103600083015261478f8161439e565b9050919050565b600060208201905081810360008301526147af816143c1565b9050919050565b600060208201905081810360008301526147cf816143e4565b9050919050565b600060208201905081810360008301526147ef81614407565b9050919050565b6000602082019050818103600083015261480f8161442a565b9050919050565b6000602082019050818103600083015261482f8161444d565b9050919050565b6000602082019050818103600083015261484f81614470565b9050919050565b6000602082019050818103600083015261486f81614493565b9050919050565b6000602082019050818103600083015261488f816144b6565b9050919050565b600060208201905081810360008301526148af816144d9565b9050919050565b600060208201905081810360008301526148cf816144fc565b9050919050565b600060208201905081810360008301526148ef8161451f565b9050919050565b6000602082019050818103600083015261490f81614542565b9050919050565b600060208201905061492b6000830184614574565b92915050565b60006040820190506149466000830185614574565b81810360208301526149588184614238565b90509392505050565b60006080820190506149766000830187614574565b81810360208301526149888186614238565b90506149976040830185614229565b6149a46060830184614574565b95945050505050565b600060a0820190506149c26000830188614574565b6149cf6020830187614574565b81810360408301526149e18186614238565b90506149f06060830185614229565b6149fd6080830184614574565b9695505050505050565b6000602082019050614a1c6000830184614583565b92915050565b6000614a2c614a3d565b9050614a388282614d73565b919050565b6000604051905090565b600067ffffffffffffffff821115614a6257614a61614f21565b5b602082029050602081019050919050565b600067ffffffffffffffff821115614a8e57614a8d614f21565b5b602082029050602081019050919050565b6000819050602082019050919050565b6000819050602082019050919050565b600081519050919050565b600081519050919050565b6000602082019050919050565b6000602082019050919050565b600082825260208201905092915050565b600082825260208201905092915050565b600082825260208201905092915050565b6000614b2d82614d26565b9150614b3883614d26565b9250827fffffffffffffffffffffffffffffffffffffffffffffffffffffffffffffffff03821115614b6d57614b6c614e36565b5b828201905092915050565b6000614b8382614d26565b9150614b8e83614d26565b925082614b9e57614b9d614e65565b5b828204905092915050565b6000614bb482614d26565b9150614bbf83614d26565b9250817fffffffffffffffffffffffffffffffffffffffffffffffffffffffffffffffff0483118215151615614bf857614bf7614e36565b5b828202905092915050565b6000614c0e82614cfc565b9150614c1983614cfc565b9250827f800000000000000000000000000000000000000000000000000000000000000001821260008412151615614c5457614c53614e36565b5b827f7fffffffffffffffffffffffffffffffffffffffffffffffffffffffffffffff018213600084121615614c8c57614c8b614e36565b5b828203905092915050565b6000614ca282614d26565b9150614cad83614d26565b925082821015614cc057614cbf614e36565b5b828203905092915050565b6000614cd682614d06565b9050919050565b60008115159050919050565b6000819050614cf782615312565b919050565b6000819050919050565b600073ffffffffffffffffffffffffffffffffffffffff82169050919050565b6000819050919050565b600060ff82169050919050565b6000614d4882614d4f565b9050919050565b6000614d5a82614d06565b9050919050565b6000614d6c82614ce9565b9050919050565b614d7c82614f64565b810181811067ffffffffffffffff82111715614d9b57614d9a614f21565b5b80604052505050565b6000614daf82614d26565b91507fffffffffffffffffffffffffffffffffffffffffffffffffffffffffffffffff821415614de257614de1614e36565b5b600182019050919050565b6000614df882614cfc565b91507f8000000000000000000000000000000000000000000000000000000000000000821415614e2b57614e2a614e36565b5b816000039050919050565b7f4e487b7100000000000000000000000000000000000000000000000000000000600052601160045260246000fd5b7f4e487b7100000000000000000000000000000000000000000000000000000000600052601260045260246000fd5b7f4e487b7100000000000000000000000000000000000000000000000000000000600052602160045260246000fd5b7f4e487b7100000000000000000000000000000000000000000000000000000000600052603160045260246000fd5b7f4e487b7100000000000000000000000000000000000000000000000000000000600052603260045260246000fd5b7f4e487b7100000000000000000000000000000000000000000000000000000000600052604160045260246000fd5b600080fd5b600080fd5b600080fd5b600080fd5b6000601f19601f8301169050919050565b7f4173736574206e6f7420616c6c6f776564000000000000000000000000000000600082015250565b7f5468652070657263656e746167652072616e676520706572206173736574206960008201527f73203120746f2039390000000000000000000000000000000000000000000000602082015250565b7f4f776e61626c653a206e6577206f776e657220697320746865207a65726f206160008201527f6464726573730000000000000000000000000000000000000000000000000000602082015250565b7f4e6f7420656e6f7567682066756e647300000000000000000000000000000000600082015250565b7f506f7274666f6c696f20616c7265616479206372656174656400000000000000600082015250565b7f52656163686564206d61782062616c616e636520746f207370656e6400000000600082015250565b7f4e6f7420656e6f7567682062616c616e63650000000000000000000000000000600082015250565b7f4d617820616d6f756e74206f662061737365747320616c6c6f77656400000000600082015250565b7f506f7274666f6c696f206d757374206265207365616c65640000000000000000600082015250565b7f4d697373696e67206461746120666f722061737365747320616e64207065726360008201527f656e746167657300000000000000000000000000000000000000000000000000602082015250565b7f5468652073756d206f6620616c6c207468652070657263656e7461676573206d60008201527f75737420657175616c2031303000000000000000000000000000000000000000602082015250565b7f5468657265206973206e6f20706f7274666f6c696f0000000000000000000000600082015250565b7f4465706f7369742076616c7565206d757374206265206772617465722074686160008201527f6e207a65726f0000000000000000000000000000000000000000000000000000602082015250565b7f4f776e61626c653a2063616c6c6572206973206e6f7420746865206f776e6572600082015250565b7f506f7274666f6c696f206d75737420626520696e697469616c697a6564000000600082015250565b7f417373657420697320616c6c6f77656420616c72656164790000000000000000600082015250565b7f546865206d696e696d756d20616d6f756e74206f66206173736574732069732060008201527f3200000000000000000000000000000000000000000000000000000000000000602082015250565b6004811061532357615322614e94565b5b50565b61532f81614ccb565b811461533a57600080fd5b50565b61534681614cdd565b811461535157600080fd5b50565b61535d81614d26565b811461536857600080fd5b5056fea2646970667358221220c58e5a3705e6d8528b2c0b9dab20a8e333f395db18ecc09fd68a60c237dd131b64736f6c63430008060033",
  "immutableReferences": {},
  "source": "// SPDX-License-Identifier: MIT\npragma solidity 0.8.6;\n\nimport \"@openzeppelin/contracts/access/Ownable.sol\";\nimport './interfaces/IUniswapV2Router02.sol';\nimport './interfaces/IERC20.sol';\n\n/**\n * @title Hold a user portfolio with multiple assets\n * @author Gabriel R. Dias\n * @notice This is an experimental contract, don't use in production environment\n */\ncontract Balancer is Ownable {\n\n    // -----------------------------------------------\n    // Properties\n    // -----------------------------------------------\n\n    IUniswapV2Router02 public router;\n\n    /// @notice Holds an account balance in the contract (not assigned to any asset in a portfolio)\n    mapping(address => uint) public balances;\n\n    /// @notice allowed assets that can be part of a portfolio (to be edited only by contract owner)\n    address[] public allowedAssets;\n\n    // @notice local store of asset prices\n    mapping(address => uint) public assetPrices;\n\n    /// @notice the max amount of assets an account can add in a portfolio\n    uint8 public constant MAX_PORTFOLIO_ASSETS = 10;\n\n    struct Portfolio {\n        State status;\n        mapping(address => uint) assetPercentages;\n        mapping(address => uint) assetBalances;\n        /// @dev this array make it easy to iterate over the portfolio assets\n        address[] assets;\n    }\n\n    enum State { Empty, Sealed, Initialized, Running }\n\n    /// @notice Holds an account portfolio\n    mapping(address => Portfolio) public portfolios;\n\n    // -----------------------------------------------\n    // Events\n    // -----------------------------------------------\n\n    /// @notice Emitted when a new allowed asset is added to the contract\n    /// @param assetAddress The asset address\n    event LogAllowedAssetAdded(address assetAddress);\n\n    /// @notice Emitted when a new deposit is made\n    /// @param accountAddress The deposit address\n    /// @param amount The deposit amount\n    event LogDepositMade(address accountAddress, uint amount);\n\n    /// @notice Emitted when a withdraw is made\n    /// @param accountAddress The withdraw address\n    /// @param withdrawAmount The withdraw amount\n    /// @param newBalance The new balance after the withdraw\n    event LogWithdrawal(\n        address accountAddress,\n        uint withdrawAmount,\n        uint newBalance\n    );\n\n    /// @notice Emitted when a new portfolio is created\n    /// @param assets The assets address\n    /// @param percentages The assigned percentage per asset (in order)\n    event LogPortfolioCreated(address[] assets, uint[] percentages);\n\n    /// @notice Emitted when a portfolio is deleted\n    /// @param accountAddress The account which performed the operation\n    event LogPortfolioDeleted(address accountAddress);\n\n    // -----------------------------------------------\n    // Modifiers\n    // -----------------------------------------------\n\n    /// @notice Check is a valid asset\n    /// @param _assetAddress The address of the asset to check\n    modifier isValidAsset(address _assetAddress) {\n        // TODO: check the address is a ERC20 token which supports 18 decimals\n        _;\n    }\n\n    /// @notice Check the asset is not already added to the allowed list\n    /// @param _assetAddress The address of the token to be added\n    modifier isNewAllowedAsset(address _assetAddress) {\n        bool isNew = true;\n        for (uint i; i < allowedAssets.length; i++) {\n            if (allowedAssets[i] == _assetAddress) {\n                isNew = false;\n            }\n        }\n        require(isNew, \"Asset is allowed already\");\n        _;\n    }\n\n    // -----------------------------------------------\n    // Methods\n    // -----------------------------------------------\n\n    constructor (address _router) {\n        // uniswap router\n        router = IUniswapV2Router02(_router);\n    }\n\n    // fallback method\n    receive() external payable {}\n\n    /// @notice Let the contract owner add new allowed tokens\n    /// @param _assetAddress Token address\n    function addAllowedAsset(address _assetAddress)\n    public\n    isValidAsset(_assetAddress)\n    isNewAllowedAsset(_assetAddress)\n    onlyOwner\n    {\n        allowedAssets.push(_assetAddress);\n\n        emit LogAllowedAssetAdded(_assetAddress);\n    }\n    \n    /// @return The allowed assets in the contract\n    function allowedAssetsList() public view returns (address[] memory) {\n        return allowedAssets;\n    }\n\n    /// @notice Reveal an account portfolio\n    /// @param _accountAddress The portfolio account\n    /// @return The account portfolio\n    function fetchPortfolio(address _accountAddress) public view returns\n    (\n        State,\n        address[] memory,\n        uint[] memory,\n        uint[] memory\n    )\n    {\n        uint count = portfolios[_accountAddress].assets.length;\n\n        address assetAddress;\n        address[] memory assets = new address[](count);\n        uint[] memory percentages = new uint[](count);\n        uint[] memory assetBalances = new uint[](count);\n\n        for (uint i = 0; i < count; i++) {\n            assetAddress = portfolios[_accountAddress].assets[i];\n            assets[i] = assetAddress;\n            percentages[i] = portfolios[_accountAddress].assetPercentages[assetAddress];\n            assetBalances[i] = portfolios[_accountAddress].assetBalances[assetAddress];\n        }\n\n        return (\n            portfolios[_accountAddress].status,\n            assets,\n            percentages,\n            assetBalances\n        );\n    }\n\n    /// @notice Fetch the portfolio status\n    /// @param _accountAddress The portfolio account\n    /// @return Returns the status\n    function getPortfolioStatus(address _accountAddress) public view returns (State) {\n        return portfolios[_accountAddress].status;\n    }\n\n    /// @notice Deposit ether in the contract\n    /// @return The balance of the account after the deposit is made\n    function deposit() public payable returns (uint) {\n        require(msg.value > 0, \"Deposit value must be grater than zero\");\n        balances[msg.sender] += msg.value;\n        emit LogDepositMade(msg.sender, msg.value);\n\n        return balances[msg.sender];\n    }\n\n    /// @notice Withdraw ether from the contract\n    /// @dev This does not return any excess ether sent to it\n    /// @param _withdrawAmount amount to withdraw\n    /// @return The balance remaining for the account performing the operation\n    function withdraw(uint _withdrawAmount) public returns (uint) {\n        require(balances[msg.sender] >= _withdrawAmount, \"Not enough funds\");\n        balances[msg.sender] -= _withdrawAmount;\n\n        payable(msg.sender).transfer(_withdrawAmount);\n\n        emit LogWithdrawal(msg.sender, _withdrawAmount, balances[msg.sender]);\n\n        return balances[msg.sender];\n    }\n\n    /// @notice Check if the asset is allowed for use in the contract\n    /// @param _assetAddress The address of the token to be added\n    function isAllowedAsset(address _assetAddress) private view returns (bool) {\n        for (uint i; i < allowedAssets.length; i++) {\n            if (allowedAssets[i] == _assetAddress) {\n                return true;\n            }\n        }\n\n        return false;\n    }\n\n    /// @notice Creates a portfolio and seal it (close it for changes)\n    /// @dev The order is relevant: each percentage will be associated with the corresponding asset by order\n    /// @param _assets Assets address (must be an allowed token)\n    /// @param _percentages The allocation percentage for each asset\n    function createPortfolio(\n        address[] memory _assets,\n        uint[] memory _percentages)\n    external {\n        require(balances[msg.sender] > 0, \"Not enough funds\");\n        require(portfolios[msg.sender].status == State.Empty, \"Portfolio already created\");\n        require(_assets.length <= MAX_PORTFOLIO_ASSETS, \"Max amount of assets allowed\");\n        require(_assets.length >= 2, \"The minimum amount of assets is 2\");\n        require(_assets.length == _percentages.length, \"Missing data for assets and percentages\");\n\n        // check total percentage integrity\n        uint total = 0;\n        for (uint i = 0; i < _percentages.length; i++) {\n            require(_percentages[i] >= 1 && _percentages[i] <= 99, \"The percentage range per asset is 1 to 99\");\n            total += _percentages[i];\n        }\n\n        require(total == 100, \"The sum of all the percentages must equal 100\");\n\n        // check assets integrity and add them to the portfolio\n        for (uint i = 0; i < _assets.length; i++) {\n            require(isAllowedAsset(_assets[i]), \"Asset not allowed\");\n            portfolios[msg.sender].assetPercentages[_assets[i]] = _percentages[i];\n            portfolios[msg.sender].assets.push(_assets[i]);\n        }\n\n        // finally, let's seal the portfolio\n        portfolios[msg.sender].status = State.Sealed;\n\n        emit LogPortfolioCreated(_assets, _percentages);\n    }\n\n    /// @notice Stop the portfolio rebalancing and return the assets balance to ether\n    function deletePortfolio() public {\n        require(portfolios[msg.sender].status != State.Empty, \"There is no portfolio\");\n\n        uint bought;\n        address assetAddress;\n        for (uint i = 0; i < portfolios[msg.sender].assets.length; i++) {\n\n            assetAddress = portfolios[msg.sender].assets[i];\n            if (portfolios[msg.sender].assetBalances[assetAddress] > 0) {\n                bought = swapTokensForETH(\n                    assetAddress,\n                    portfolios[msg.sender].assetBalances[assetAddress]\n                );\n\n                // increment the account balance with the result of the assets sold\n                balances[msg.sender] += bought;\n                portfolios[msg.sender].assetBalances[assetAddress] = 0;\n                portfolios[msg.sender].assetPercentages[assetAddress] = 0;\n            }\n\n            // delete the asset from the portfolio assets list\n            portfolios[msg.sender].assets.pop();\n        }\n\n        portfolios[msg.sender].status = State.Empty;\n\n        emit LogPortfolioDeleted(msg.sender);\n    }\n\n    /// @notice Run the first asset distribution once the portfolio is sealed\n    function runInitialPortfolioDistribution() public {\n        require(balances[msg.sender] > 0, \"Not enough balance\");\n        require(portfolios[msg.sender].status == State.Sealed, \"Portfolio must be sealed\");\n\n        uint initialBalance = balances[msg.sender];\n        uint percentage;\n        uint bought;\n        uint desiredAmountToSpend;\n        address _assetAddress;\n        for (uint i = 0; i < portfolios[msg.sender].assets.length; i++) {\n            _assetAddress = portfolios[msg.sender].assets[i];\n            percentage = portfolios[msg.sender].assetPercentages[_assetAddress];\n            desiredAmountToSpend = (initialBalance * percentage) / 100;\n\n            require(\n                desiredAmountToSpend <= balances[msg.sender],\n                \"Reached max balance to spend\"\n            );\n\n            bought = swapETHForTokens(_assetAddress, desiredAmountToSpend);\n\n            assetPrices[allowedAssets[i]] = (10**18 * desiredAmountToSpend) / bought;\n            portfolios[msg.sender].assetBalances[_assetAddress] += bought;\n            balances[msg.sender] -= desiredAmountToSpend;\n        }\n    }\n\n    /// @notice Swap ETH amount for tokens\n    /// @param _destTokenAddress The destination token address\n    /// @param _amountIn The amount of ETH to exchange\n    /// @return The amount of tokens bought\n    function swapETHForTokens(address _destTokenAddress, uint _amountIn)\n    public\n    returns (uint)\n    {\n        /// @dev When using ether in the path, the WETH token address is needed because there is no address for ether ;)\n        address origTokenAddress = router.WETH();\n\n        address[] memory path = new address[](2);\n        path[0] = origTokenAddress;\n        path[1] = _destTokenAddress;\n\n        IERC20(origTokenAddress).approve(address(router), _amountIn);\n\n        uint[] memory minOuts = router.getAmountsOut(_amountIn, path);\n\n        router.swapExactETHForTokens{value: _amountIn}(\n            minOuts[1],\n            path,\n            address(this),\n            block.timestamp\n        );\n\n        return minOuts[1];\n    }\n\n    /// @notice Swap tokens amount for ETH\n    /// @param _origTokenAddress The origin token address\n    /// @param _amountIn The amount of tokens to exchange\n    /// @return The amount of ETH bought\n    function swapTokensForETH(address _origTokenAddress, uint _amountIn)\n    public\n    returns (uint)\n    {\n        address destTokenAddress = router.WETH();\n\n        address[] memory path = new address[](2);\n        path[0] = _origTokenAddress;\n        path[1] = destTokenAddress;\n\n        IERC20(_origTokenAddress).approve(address(router), _amountIn);\n\n        uint[] memory minOuts = router.getAmountsOut(_amountIn, path);\n\n        router.swapExactTokensForETH(\n            _amountIn,\n            minOuts[1],\n            path,\n            address(this),\n            block.timestamp\n        );\n\n        return minOuts[1];\n    }\n\n    /// @notice Returns the price of a token\n    /// @dev TODO: check performance using uniswap factory and pair contracts to retrieve a token price.\n    /// @dev TODO: create an asset price cache\n    /// @param _token The asset address\n    /// @return The asset price in wei\n    function getAssetPrice(address _token) public returns (uint)\n    {\n        uint amount = 10**18;\n        address[] memory path = new address[](2);\n        path[0] = router.WETH();\n        path[1] = _token;\n\n        IERC20(router.WETH()).approve(address(router), amount);\n        uint estimatedBuy = router.getAmountsOut(amount, path)[1];\n\n        return (10**18 * 10**18) / estimatedBuy;\n    }\n\n    function runPortfolioRebalance() external {\n\n        require(portfolios[msg.sender].status == State.Initialized, \"Portfolio must be initialized\");\n\n        // 1. update portfolio asset prices\n        address assetAddress;\n        uint bought;\n        for (uint i = 0; i < portfolios[msg.sender].assets.length; i++) {\n            assetAddress = portfolios[msg.sender].assets[i];\n            assetPrices[assetAddress] = getAssetPrice(assetAddress);\n        }\n\n        // 2. calculate the new portfolio total value\n        uint currentHolding;\n        uint[] memory newHoldingValue = new uint[](portfolios[msg.sender].assets.length);\n        uint newPortfolioTotalBalance = 0;\n        for (uint i = 0; i < portfolios[msg.sender].assets.length; i++) {\n            assetAddress = portfolios[msg.sender].assets[i];\n\n            // get the current holding for the coin\n            currentHolding = portfolios[msg.sender].assetBalances[assetAddress];\n\n            newHoldingValue[i] = (assetPrices[assetAddress] * currentHolding) / 10**18;\n            newPortfolioTotalBalance += newHoldingValue[i];\n        }\n\n        // TODO: is the new balance is not that grater than the old balance, then stop!\n\n        // 3. Prepare buy and sell orders\n        uint gasReserve = 30000000000000000;\n        newPortfolioTotalBalance = newPortfolioTotalBalance - gasReserve;\n\n        uint percentage;\n        int diff;\n        uint[] memory sellOrders = new uint[](portfolios[msg.sender].assets.length);\n        uint[] memory buyOrders = new uint[](portfolios[msg.sender].assets.length);\n        for (uint i = 0; i < portfolios[msg.sender].assets.length; i++) {\n            assetAddress = portfolios[msg.sender].assets[i];\n\n            // get current percentage\n            percentage = portfolios[msg.sender].assetPercentages[assetAddress];\n            diff =\n            int((newPortfolioTotalBalance * percentage) / 100) -\n            int(newHoldingValue[i]);\n\n            if (diff > 0) {\n                buyOrders[i] = uint(diff);\n            } else {\n                sellOrders[i] = uint(-diff);\n            }\n        }\n\n        // 4. Execute sell orders\n        uint amountToSwap;\n        for (uint i = 0; i < sellOrders.length; i++) {\n            if (sellOrders[i] > 0) {\n                assetAddress = portfolios[msg.sender].assets[i];\n                amountToSwap = (sellOrders[i] * 10**18) / assetPrices[assetAddress];\n\n                bought = swapTokensForETH(assetAddress, amountToSwap);\n                balances[msg.sender] += bought;\n                portfolios[msg.sender].assetBalances[assetAddress] -= amountToSwap;\n            }\n        }\n\n        // 5. Execute buy orders\n        for (uint i = 0; i < buyOrders.length; i++) {\n            if (buyOrders[i] > 0) {\n                assetAddress = portfolios[msg.sender].assets[i];\n                amountToSwap = buyOrders[i];\n\n                bought = swapETHForTokens(assetAddress, amountToSwap);\n\n                portfolios[msg.sender].assetBalances[assetAddress] += bought;\n                balances[msg.sender] -= amountToSwap;\n            }\n        }\n\n        // 6. Handle any remaining balance\n        // TODO: handle the gas reserve properly\n        //balances[msg.sender] += gasReserve;\n    }\n\n\n    // TO DELETE\n\n    function fetchAssetsPrices() public view returns (address[] memory, uint[] memory) {\n        address[] memory assets = new address[](allowedAssets.length);\n        uint[] memory prices = new uint[](allowedAssets.length);\n\n        for (uint i; i < allowedAssets.length; i++) {\n            assets[i] = allowedAssets[i];\n            prices[i] = assetPrices[allowedAssets[i]];\n        }\n\n        return (assets, prices);\n    }\n\n    function updateAssetPrices() external {\n        for (uint i = 0; i < allowedAssets.length; i++) {\n            assetPrices[allowedAssets[i]] = getAssetPrice(allowedAssets[i]);\n        }\n    }\n}\n",
  "sourcePath": "/Users/gabrieldias/code/bootcamp_consensys/blockchain-developer-bootcamp-final-project/contracts/Balancer.sol",
  "compiler": {
    "name": "solc",
    "version": "0.8.6+commit.11564f7e.Emscripten.clang"
  },
  "schemaVersion": "3.4.1",
  "updatedAt": "2021-11-28T10:44:46.342Z",
  "devdoc": {
    "author": "Gabriel R. Dias",
    "events": {
      "LogAllowedAssetAdded(address)": {
        "params": {
          "assetAddress": "The asset address"
        }
      },
      "LogDepositMade(address,uint256)": {
        "params": {
          "accountAddress": "The deposit address",
          "amount": "The deposit amount"
        }
      },
      "LogPortfolioCreated(address[],uint256[])": {
        "params": {
          "assets": "The assets address",
          "percentages": "The assigned percentage per asset (in order)"
        }
      },
      "LogPortfolioDeleted(address)": {
        "params": {
          "accountAddress": "The account which performed the operation"
        }
      },
      "LogWithdrawal(address,uint256,uint256)": {
        "params": {
          "accountAddress": "The withdraw address",
          "newBalance": "The new balance after the withdraw",
          "withdrawAmount": "The withdraw amount"
        }
      }
    },
    "kind": "dev",
    "methods": {
      "addAllowedAsset(address)": {
        "params": {
          "_assetAddress": "Token address"
        }
      },
      "allowedAssetsList()": {
        "returns": {
          "_0": "The allowed assets in the contract"
        }
      },
      "createPortfolio(address[],uint256[])": {
        "details": "The order is relevant: each percentage will be associated with the corresponding asset by order",
        "params": {
          "_assets": "Assets address (must be an allowed token)",
          "_percentages": "The allocation percentage for each asset"
        }
      },
      "deposit()": {
        "returns": {
          "_0": "The balance of the account after the deposit is made"
        }
      },
      "fetchPortfolio(address)": {
        "params": {
          "_accountAddress": "The portfolio account"
        },
        "returns": {
          "_0": "The account portfolio"
        }
      },
      "getAssetPrice(address)": {
        "details": "TODO: check performance using uniswap factory and pair contracts to retrieve a token price.TODO: create an asset price cache",
        "params": {
          "_token": "The asset address"
        },
        "returns": {
          "_0": "The asset price in wei"
        }
      },
      "getPortfolioStatus(address)": {
        "params": {
          "_accountAddress": "The portfolio account"
        },
        "returns": {
          "_0": "Returns the status"
        }
      },
      "owner()": {
        "details": "Returns the address of the current owner."
      },
      "renounceOwnership()": {
        "details": "Leaves the contract without owner. It will not be possible to call `onlyOwner` functions anymore. Can only be called by the current owner. NOTE: Renouncing ownership will leave the contract without an owner, thereby removing any functionality that is only available to the owner."
      },
      "swapETHForTokens(address,uint256)": {
        "params": {
          "_amountIn": "The amount of ETH to exchange",
          "_destTokenAddress": "The destination token address"
        },
        "returns": {
          "_0": "The amount of tokens bought"
        }
      },
      "swapTokensForETH(address,uint256)": {
        "params": {
          "_amountIn": "The amount of tokens to exchange",
          "_origTokenAddress": "The origin token address"
        },
        "returns": {
          "_0": "The amount of ETH bought"
        }
      },
      "transferOwnership(address)": {
        "details": "Transfers ownership of the contract to a new account (`newOwner`). Can only be called by the current owner."
      },
      "withdraw(uint256)": {
        "details": "This does not return any excess ether sent to it",
        "params": {
          "_withdrawAmount": "amount to withdraw"
        },
        "returns": {
          "_0": "The balance remaining for the account performing the operation"
        }
      }
    },
    "title": "Hold a user portfolio with multiple assets",
    "version": 1
  },
  "userdoc": {
    "events": {
      "LogAllowedAssetAdded(address)": {
        "notice": "Emitted when a new allowed asset is added to the contract"
      },
      "LogDepositMade(address,uint256)": {
        "notice": "Emitted when a new deposit is made"
      },
      "LogPortfolioCreated(address[],uint256[])": {
        "notice": "Emitted when a new portfolio is created"
      },
      "LogPortfolioDeleted(address)": {
        "notice": "Emitted when a portfolio is deleted"
      },
      "LogWithdrawal(address,uint256,uint256)": {
        "notice": "Emitted when a withdraw is made"
      }
    },
    "kind": "user",
    "methods": {
      "MAX_PORTFOLIO_ASSETS()": {
        "notice": "the max amount of assets an account can add in a portfolio"
      },
      "addAllowedAsset(address)": {
        "notice": "Let the contract owner add new allowed tokens"
      },
      "allowedAssets(uint256)": {
        "notice": "allowed assets that can be part of a portfolio (to be edited only by contract owner)"
      },
      "balances(address)": {
        "notice": "Holds an account balance in the contract (not assigned to any asset in a portfolio)"
      },
      "createPortfolio(address[],uint256[])": {
        "notice": "Creates a portfolio and seal it (close it for changes)"
      },
      "deletePortfolio()": {
        "notice": "Stop the portfolio rebalancing and return the assets balance to ether"
      },
      "deposit()": {
        "notice": "Deposit ether in the contract"
      },
      "fetchPortfolio(address)": {
        "notice": "Reveal an account portfolio"
      },
      "getAssetPrice(address)": {
        "notice": "Returns the price of a token"
      },
      "getPortfolioStatus(address)": {
        "notice": "Fetch the portfolio status"
      },
      "portfolios(address)": {
        "notice": "Holds an account portfolio"
      },
      "runInitialPortfolioDistribution()": {
        "notice": "Run the first asset distribution once the portfolio is sealed"
      },
      "swapETHForTokens(address,uint256)": {
        "notice": "Swap ETH amount for tokens"
      },
      "swapTokensForETH(address,uint256)": {
        "notice": "Swap tokens amount for ETH"
      },
      "withdraw(uint256)": {
        "notice": "Withdraw ether from the contract"
      }
    },
    "notice": "This is an experimental contract, don't use in production environment",
    "version": 1
  }
}