{
  "contractName": "Balancer",
  "abi": [
    {
      "inputs": [
        {
          "internalType": "address",
          "name": "_router",
          "type": "address"
        }
      ],
      "stateMutability": "nonpayable",
      "type": "constructor"
    },
    {
      "anonymous": false,
      "inputs": [
        {
          "indexed": false,
          "internalType": "address",
          "name": "assetAddress",
          "type": "address"
        }
      ],
      "name": "LogAllowedAssetAdded",
      "type": "event"
    },
    {
      "anonymous": false,
      "inputs": [
        {
          "indexed": false,
          "internalType": "address",
          "name": "accountAddress",
          "type": "address"
        },
        {
          "indexed": false,
          "internalType": "uint256",
          "name": "amount",
          "type": "uint256"
        }
      ],
      "name": "LogDepositMade",
      "type": "event"
    },
    {
      "anonymous": false,
      "inputs": [
        {
          "indexed": false,
          "internalType": "address[]",
          "name": "assets",
          "type": "address[]"
        },
        {
          "indexed": false,
          "internalType": "uint256[]",
          "name": "percentages",
          "type": "uint256[]"
        }
      ],
      "name": "LogPortfolioCreated",
      "type": "event"
    },
    {
      "anonymous": false,
      "inputs": [
        {
          "indexed": false,
          "internalType": "address",
          "name": "accountAddress",
          "type": "address"
        }
      ],
      "name": "LogPortfolioDeleted",
      "type": "event"
    },
    {
      "anonymous": false,
      "inputs": [
        {
          "indexed": false,
          "internalType": "address",
          "name": "accountAddress",
          "type": "address"
        },
        {
          "indexed": false,
          "internalType": "uint256",
          "name": "withdrawAmount",
          "type": "uint256"
        },
        {
          "indexed": false,
          "internalType": "uint256",
          "name": "newBalance",
          "type": "uint256"
        }
      ],
      "name": "LogWithdrawal",
      "type": "event"
    },
    {
      "anonymous": false,
      "inputs": [
        {
          "indexed": true,
          "internalType": "address",
          "name": "previousOwner",
          "type": "address"
        },
        {
          "indexed": true,
          "internalType": "address",
          "name": "newOwner",
          "type": "address"
        }
      ],
      "name": "OwnershipTransferred",
      "type": "event"
    },
    {
      "inputs": [],
      "name": "MAX_PORTFOLIO_ASSETS",
      "outputs": [
        {
          "internalType": "uint8",
          "name": "",
          "type": "uint8"
        }
      ],
      "stateMutability": "view",
      "type": "function"
    },
    {
      "inputs": [
        {
          "internalType": "uint256",
          "name": "",
          "type": "uint256"
        }
      ],
      "name": "allowedAssets",
      "outputs": [
        {
          "internalType": "address",
          "name": "",
          "type": "address"
        }
      ],
      "stateMutability": "view",
      "type": "function"
    },
    {
      "inputs": [
        {
          "internalType": "address",
          "name": "",
          "type": "address"
        }
      ],
      "name": "assetPrices",
      "outputs": [
        {
          "internalType": "uint256",
          "name": "",
          "type": "uint256"
        }
      ],
      "stateMutability": "view",
      "type": "function"
    },
    {
      "inputs": [
        {
          "internalType": "address",
          "name": "",
          "type": "address"
        }
      ],
      "name": "balances",
      "outputs": [
        {
          "internalType": "uint256",
          "name": "",
          "type": "uint256"
        }
      ],
      "stateMutability": "view",
      "type": "function"
    },
    {
      "inputs": [],
      "name": "owner",
      "outputs": [
        {
          "internalType": "address",
          "name": "",
          "type": "address"
        }
      ],
      "stateMutability": "view",
      "type": "function"
    },
    {
      "inputs": [
        {
          "internalType": "address",
          "name": "",
          "type": "address"
        }
      ],
      "name": "portfolios",
      "outputs": [
        {
          "internalType": "bool",
          "name": "sealedPortfolio",
          "type": "bool"
        }
      ],
      "stateMutability": "view",
      "type": "function"
    },
    {
      "inputs": [],
      "name": "renounceOwnership",
      "outputs": [],
      "stateMutability": "nonpayable",
      "type": "function"
    },
    {
      "inputs": [],
      "name": "router",
      "outputs": [
        {
          "internalType": "contract IUniswapV2Router02",
          "name": "",
          "type": "address"
        }
      ],
      "stateMutability": "view",
      "type": "function"
    },
    {
      "inputs": [
        {
          "internalType": "address",
          "name": "newOwner",
          "type": "address"
        }
      ],
      "name": "transferOwnership",
      "outputs": [],
      "stateMutability": "nonpayable",
      "type": "function"
    },
    {
      "stateMutability": "payable",
      "type": "receive"
    },
    {
      "inputs": [
        {
          "internalType": "address",
          "name": "_assetAddress",
          "type": "address"
        }
      ],
      "name": "addAllowedAsset",
      "outputs": [],
      "stateMutability": "nonpayable",
      "type": "function"
    },
    {
      "inputs": [],
      "name": "allowedAssetsList",
      "outputs": [
        {
          "internalType": "address[]",
          "name": "",
          "type": "address[]"
        }
      ],
      "stateMutability": "view",
      "type": "function"
    },
    {
      "inputs": [
        {
          "internalType": "address",
          "name": "_accountAddress",
          "type": "address"
        }
      ],
      "name": "fetchPortfolio",
      "outputs": [
        {
          "internalType": "bool",
          "name": "",
          "type": "bool"
        },
        {
          "internalType": "address[]",
          "name": "",
          "type": "address[]"
        },
        {
          "internalType": "uint256[]",
          "name": "",
          "type": "uint256[]"
        },
        {
          "internalType": "uint256[]",
          "name": "",
          "type": "uint256[]"
        }
      ],
      "stateMutability": "view",
      "type": "function"
    },
    {
      "inputs": [
        {
          "internalType": "address",
          "name": "_accountAddress",
          "type": "address"
        }
      ],
      "name": "isPortfolioSealed",
      "outputs": [
        {
          "internalType": "bool",
          "name": "",
          "type": "bool"
        }
      ],
      "stateMutability": "view",
      "type": "function"
    },
    {
      "inputs": [],
      "name": "deposit",
      "outputs": [
        {
          "internalType": "uint256",
          "name": "",
          "type": "uint256"
        }
      ],
      "stateMutability": "payable",
      "type": "function"
    },
    {
      "inputs": [
        {
          "internalType": "uint256",
          "name": "_withdrawAmount",
          "type": "uint256"
        }
      ],
      "name": "withdraw",
      "outputs": [
        {
          "internalType": "uint256",
          "name": "",
          "type": "uint256"
        }
      ],
      "stateMutability": "nonpayable",
      "type": "function"
    },
    {
      "inputs": [
        {
          "internalType": "address[]",
          "name": "_assets",
          "type": "address[]"
        },
        {
          "internalType": "uint256[]",
          "name": "_percentages",
          "type": "uint256[]"
        }
      ],
      "name": "createPortfolio",
      "outputs": [],
      "stateMutability": "nonpayable",
      "type": "function"
    },
    {
      "inputs": [],
      "name": "deletePortfolio",
      "outputs": [],
      "stateMutability": "nonpayable",
      "type": "function"
    },
    {
      "inputs": [],
      "name": "runInitialPortfolioDistribution",
      "outputs": [],
      "stateMutability": "nonpayable",
      "type": "function"
    },
    {
      "inputs": [
        {
          "internalType": "address",
          "name": "_destTokenAddress",
          "type": "address"
        },
        {
          "internalType": "uint256",
          "name": "_amountIn",
          "type": "uint256"
        }
      ],
      "name": "swapETHForTokens",
      "outputs": [
        {
          "internalType": "uint256",
          "name": "",
          "type": "uint256"
        }
      ],
      "stateMutability": "nonpayable",
      "type": "function"
    },
    {
      "inputs": [
        {
          "internalType": "address",
          "name": "_origTokenAddress",
          "type": "address"
        },
        {
          "internalType": "uint256",
          "name": "_amountIn",
          "type": "uint256"
        }
      ],
      "name": "swapTokensForETH",
      "outputs": [
        {
          "internalType": "uint256",
          "name": "",
          "type": "uint256"
        }
      ],
      "stateMutability": "nonpayable",
      "type": "function"
    },
    {
      "inputs": [],
      "name": "fetchAssetsPrices",
      "outputs": [
        {
          "internalType": "address[]",
          "name": "",
          "type": "address[]"
        },
        {
          "internalType": "uint256[]",
          "name": "",
          "type": "uint256[]"
        }
      ],
      "stateMutability": "view",
      "type": "function"
    },
    {
      "inputs": [],
      "name": "updateAssetPrices",
      "outputs": [],
      "stateMutability": "nonpayable",
      "type": "function"
    },
    {
      "inputs": [
        {
          "internalType": "address",
          "name": "token2",
          "type": "address"
        },
        {
          "internalType": "uint256",
          "name": "amount",
          "type": "uint256"
        }
      ],
      "name": "checkAmountOut",
      "outputs": [
        {
          "internalType": "uint256",
          "name": "",
          "type": "uint256"
        }
      ],
      "stateMutability": "nonpayable",
      "type": "function"
    },
    {
      "inputs": [],
      "name": "runPortfolioRebalance",
      "outputs": [],
      "stateMutability": "nonpayable",
      "type": "function"
    }
  ],
  "bytecode": "0x60806040523480156200001157600080fd5b506040516200532938038062005329833981810160405281019062000037919062000182565b620000576200004b6200009f60201b60201c565b620000a760201b60201c565b80600160006101000a81548173ffffffffffffffffffffffffffffffffffffffff021916908373ffffffffffffffffffffffffffffffffffffffff1602179055505062000207565b600033905090565b60008060009054906101000a900473ffffffffffffffffffffffffffffffffffffffff169050816000806101000a81548173ffffffffffffffffffffffffffffffffffffffff021916908373ffffffffffffffffffffffffffffffffffffffff1602179055508173ffffffffffffffffffffffffffffffffffffffff168173ffffffffffffffffffffffffffffffffffffffff167f8be0079c531659141344cd1fd0a4f28419497f9722a3daafe3b4186f6b6457e060405160405180910390a35050565b6000815190506200017c81620001ed565b92915050565b6000602082840312156200019b576200019a620001e8565b5b6000620001ab848285016200016b565b91505092915050565b6000620001c182620001c8565b9050919050565b600073ffffffffffffffffffffffffffffffffffffffff82169050919050565b600080fd5b620001f881620001b4565b81146200020457600080fd5b50565b61511280620002176000396000f3fe60806040526004361061014f5760003560e01c80637ece3c38116100b6578063c538b1e61161006f578063c538b1e6146104d8578063d0e30db014610504578063d1fd8d3114610522578063dd0b3e8914610539578063f2fde38b14610550578063f887ea401461057957610156565b80637ece3c38146103dc57806381251606146103f35780638da5cb5b1461040a57806398971f1414610435578063abbc1c071461045e578063b6468a611461049b57610156565b806351422e971161010857806351422e97146102a857806357fbbef0146102e55780635ced8e37146103225780635e9a523c1461034b578063715018a6146103885780637baab3da1461039f57610156565b80630ccd3ef91461015b5780630dcf52dd1461019857806327e235e3146101c35780632e1a7d4d1461020057806343f097861461023d5780634e84eaaa1461027d57610156565b3661015657005b600080fd5b34801561016757600080fd5b50610182600480360381019061017d9190614002565b6105a4565b60405161018f91906143b4565b60405180910390f35b3480156101a457600080fd5b506101ad6105e3565b6040516101ba919061442f565b60405180910390f35b3480156101cf57600080fd5b506101ea60048036038101906101e59190613e7a565b610671565b6040516101f79190614718565b60405180910390f35b34801561020c57600080fd5b5061022760048036038101906102229190614002565b610689565b6040516102349190614718565b60405180910390f35b34801561024957600080fd5b50610264600480360381019061025f9190613e7a565b61086b565b60405161027494939291906144a3565b60405180910390f35b34801561028957600080fd5b50610292610c37565b60405161029f9190614809565b60405180910390f35b3480156102b457600080fd5b506102cf60048036038101906102ca9190613ed4565b610c3c565b6040516102dc9190614718565b60405180910390f35b3480156102f157600080fd5b5061030c60048036038101906103079190613ed4565b61102f565b6040516103199190614718565b60405180910390f35b34801561032e57600080fd5b5061034960048036038101906103449190613f14565b61134d565b005b34801561035757600080fd5b50610372600480360381019061036d9190613e7a565b6118cf565b60405161037f9190614718565b60405180910390f35b34801561039457600080fd5b5061039d6118e7565b005b3480156103ab57600080fd5b506103c660048036038101906103c19190613e7a565b61196f565b6040516103d39190614488565b60405180910390f35b3480156103e857600080fd5b506103f161199a565b005b3480156103ff57600080fd5b50610408611e97565b005b34801561041657600080fd5b5061041f6129f3565b60405161042c91906143b4565b60405180910390f35b34801561044157600080fd5b5061045c60048036038101906104579190613e7a565b612a1c565b005b34801561046a57600080fd5b5061048560048036038101906104809190613e7a565b612c1b565b6040516104929190614488565b60405180910390f35b3480156104a757600080fd5b506104c260048036038101906104bd9190613ed4565b612c74565b6040516104cf9190614718565b60405180910390f35b3480156104e457600080fd5b506104ed613068565b6040516104fb929190614451565b60405180910390f35b61050c613268565b6040516105199190614718565b60405180910390f35b34801561052e57600080fd5b50610537613380565b005b34801561054557600080fd5b5061054e61349a565b005b34801561055c57600080fd5b5061057760048036038101906105729190613e7a565b6139a2565b005b34801561058557600080fd5b5061058e613a9a565b60405161059b91906144fd565b60405180910390f35b600381815481106105b457600080fd5b906000526020600020016000915054906101000a900473ffffffffffffffffffffffffffffffffffffffff1681565b6060600380548060200260200160405190810160405280929190818152602001828054801561066757602002820191906000526020600020905b8160009054906101000a900473ffffffffffffffffffffffffffffffffffffffff1673ffffffffffffffffffffffffffffffffffffffff168152602001906001019080831161061d575b5050505050905090565b60026020528060005260406000206000915090505481565b600081600260003373ffffffffffffffffffffffffffffffffffffffff1673ffffffffffffffffffffffffffffffffffffffff16815260200190815260200160002054101561070d576040517f08c379a000000000000000000000000000000000000000000000000000000000815260040161070490614578565b60405180910390fd5b81600260003373ffffffffffffffffffffffffffffffffffffffff1673ffffffffffffffffffffffffffffffffffffffff168152602001908152602001600020600082825461075c9190614a99565b925050819055503373ffffffffffffffffffffffffffffffffffffffff166108fc839081150290604051600060405180830381858888f193505050501580156107a9573d6000803e3d6000fd5b507ff9226daf630542048a23086c6af599511aac100ec8f532793cc9697d061bed7e3383600260003373ffffffffffffffffffffffffffffffffffffffff1673ffffffffffffffffffffffffffffffffffffffff1681526020019081526020016000205460405161081c939291906143f8565b60405180910390a1600260003373ffffffffffffffffffffffffffffffffffffffff1673ffffffffffffffffffffffffffffffffffffffff168152602001908152602001600020549050919050565b600060608060606000600460008773ffffffffffffffffffffffffffffffffffffffff1673ffffffffffffffffffffffffffffffffffffffff1681526020019081526020016000206003018054905090506000808267ffffffffffffffff8111156108d9576108d8614ccf565b5b6040519080825280602002602001820160405280156109075781602001602082028036833780820191505090505b50905060008367ffffffffffffffff81111561092657610925614ccf565b5b6040519080825280602002602001820160405280156109545781602001602082028036833780820191505090505b50905060008467ffffffffffffffff81111561097357610972614ccf565b5b6040519080825280602002602001820160405280156109a15781602001602082028036833780820191505090505b50905060005b85811015610bcf57600460008c73ffffffffffffffffffffffffffffffffffffffff1673ffffffffffffffffffffffffffffffffffffffff1681526020019081526020016000206003018181548110610a0357610a02614ca0565b5b9060005260206000200160009054906101000a900473ffffffffffffffffffffffffffffffffffffffff16945084848281518110610a4457610a43614ca0565b5b602002602001019073ffffffffffffffffffffffffffffffffffffffff16908173ffffffffffffffffffffffffffffffffffffffff1681525050600460008c73ffffffffffffffffffffffffffffffffffffffff1673ffffffffffffffffffffffffffffffffffffffff16815260200190815260200160002060010160008673ffffffffffffffffffffffffffffffffffffffff1673ffffffffffffffffffffffffffffffffffffffff16815260200190815260200160002054838281518110610b1157610b10614ca0565b5b602002602001018181525050600460008c73ffffffffffffffffffffffffffffffffffffffff1673ffffffffffffffffffffffffffffffffffffffff16815260200190815260200160002060020160008673ffffffffffffffffffffffffffffffffffffffff1673ffffffffffffffffffffffffffffffffffffffff16815260200190815260200160002054828281518110610bb057610baf614ca0565b5b6020026020010181815250508080610bc790614b81565b9150506109a7565b50600460008b73ffffffffffffffffffffffffffffffffffffffff1673ffffffffffffffffffffffffffffffffffffffff16815260200190815260200160002060000160009054906101000a900460ff16838383985098509850985050505050509193509193565b600a81565b600080600160009054906101000a900473ffffffffffffffffffffffffffffffffffffffff1673ffffffffffffffffffffffffffffffffffffffff1663ad5c46486040518163ffffffff1660e01b815260040160206040518083038186803b158015610ca757600080fd5b505afa158015610cbb573d6000803e3d6000fd5b505050506040513d601f19601f82011682018060405250810190610cdf9190613ea7565b90506000600267ffffffffffffffff811115610cfe57610cfd614ccf565b5b604051908082528060200260200182016040528015610d2c5781602001602082028036833780820191505090505b5090508181600081518110610d4457610d43614ca0565b5b602002602001019073ffffffffffffffffffffffffffffffffffffffff16908173ffffffffffffffffffffffffffffffffffffffff16815250508481600181518110610d9357610d92614ca0565b5b602002602001019073ffffffffffffffffffffffffffffffffffffffff16908173ffffffffffffffffffffffffffffffffffffffff16815250508173ffffffffffffffffffffffffffffffffffffffff1663095ea7b3600160009054906101000a900473ffffffffffffffffffffffffffffffffffffffff16866040518363ffffffff1660e01b8152600401610e2a9291906143cf565b602060405180830381600087803b158015610e4457600080fd5b505af1158015610e58573d6000803e3d6000fd5b505050506040513d601f19601f82011682018060405250810190610e7c9190613fd5565b506000600160009054906101000a900473ffffffffffffffffffffffffffffffffffffffff1673ffffffffffffffffffffffffffffffffffffffff1663d06ca61f86846040518363ffffffff1660e01b8152600401610edc929190614733565b60006040518083038186803b158015610ef457600080fd5b505afa158015610f08573d6000803e3d6000fd5b505050506040513d6000823e3d601f19601f82011682018060405250810190610f319190613f8c565b9050600160009054906101000a900473ffffffffffffffffffffffffffffffffffffffff1673ffffffffffffffffffffffffffffffffffffffff16637ff36ab58683600181518110610f8657610f85614ca0565b5b60200260200101518530426040518663ffffffff1660e01b8152600401610fb09493929190614763565b6000604051808303818588803b158015610fc957600080fd5b505af1158015610fdd573d6000803e3d6000fd5b50505050506040513d6000823e3d601f19601f820116820180604052508101906110079190613f8c565b508060018151811061101c5761101b614ca0565b5b6020026020010151935050505092915050565b600080600160009054906101000a900473ffffffffffffffffffffffffffffffffffffffff1673ffffffffffffffffffffffffffffffffffffffff1663ad5c46486040518163ffffffff1660e01b815260040160206040518083038186803b15801561109a57600080fd5b505afa1580156110ae573d6000803e3d6000fd5b505050506040513d601f19601f820116820180604052508101906110d29190613ea7565b90506000600267ffffffffffffffff8111156110f1576110f0614ccf565b5b60405190808252806020026020018201604052801561111f5781602001602082028036833780820191505090505b509050818160008151811061113757611136614ca0565b5b602002602001019073ffffffffffffffffffffffffffffffffffffffff16908173ffffffffffffffffffffffffffffffffffffffff1681525050848160018151811061118657611185614ca0565b5b602002602001019073ffffffffffffffffffffffffffffffffffffffff16908173ffffffffffffffffffffffffffffffffffffffff16815250508173ffffffffffffffffffffffffffffffffffffffff1663095ea7b3600160009054906101000a900473ffffffffffffffffffffffffffffffffffffffff16866040518363ffffffff1660e01b815260040161121d9291906143cf565b602060405180830381600087803b15801561123757600080fd5b505af115801561124b573d6000803e3d6000fd5b505050506040513d601f19601f8201168201806040525081019061126f9190613fd5565b506000600160009054906101000a900473ffffffffffffffffffffffffffffffffffffffff1673ffffffffffffffffffffffffffffffffffffffff1663d06ca61f86846040518363ffffffff1660e01b81526004016112cf929190614733565b60006040518083038186803b1580156112e757600080fd5b505afa1580156112fb573d6000803e3d6000fd5b505050506040513d6000823e3d601f19601f820116820180604052508101906113249190613f8c565b90508060018151811061133a57611339614ca0565b5b6020026020010151935050505092915050565b6000600260003373ffffffffffffffffffffffffffffffffffffffff1673ffffffffffffffffffffffffffffffffffffffff16815260200190815260200160002054116113cf576040517f08c379a00000000000000000000000000000000000000000000000000000000081526004016113c690614578565b60405180910390fd5b600460003373ffffffffffffffffffffffffffffffffffffffff1673ffffffffffffffffffffffffffffffffffffffff16815260200190815260200160002060000160009054906101000a900460ff161561145f576040517f08c379a000000000000000000000000000000000000000000000000000000000815260040161145690614698565b60405180910390fd5b600a60ff16825111156114a7576040517f08c379a000000000000000000000000000000000000000000000000000000000815260040161149e906146b8565b60405180910390fd5b6002825110156114ec576040517f08c379a00000000000000000000000000000000000000000000000000000000081526004016114e3906146f8565b60405180910390fd5b8051825114611530576040517f08c379a0000000000000000000000000000000000000000000000000000000008152600401611527906145f8565b60405180910390fd5b6000805b82518110156115fb57600083828151811061155257611551614ca0565b5b60200260200101511180156115815750606483828151811061157757611576614ca0565b5b6020026020010151105b6115c0576040517f08c379a00000000000000000000000000000000000000000000000000000000081526004016115b790614538565b60405180910390fd5b8281815181106115d3576115d2614ca0565b5b6020026020010151826115e69190614924565b915080806115f390614b81565b915050611534565b506064811461163f576040517f08c379a000000000000000000000000000000000000000000000000000000000815260040161163690614618565b60405180910390fd5b60005b83518110156118355761166e84828151811061166157611660614ca0565b5b6020026020010151613ac0565b6116ad576040517f08c379a00000000000000000000000000000000000000000000000000000000081526004016116a490614518565b60405180910390fd5b8281815181106116c0576116bf614ca0565b5b6020026020010151600460003373ffffffffffffffffffffffffffffffffffffffff1673ffffffffffffffffffffffffffffffffffffffff168152602001908152602001600020600101600086848151811061171f5761171e614ca0565b5b602002602001015173ffffffffffffffffffffffffffffffffffffffff1673ffffffffffffffffffffffffffffffffffffffff16815260200190815260200160002081905550600460003373ffffffffffffffffffffffffffffffffffffffff1673ffffffffffffffffffffffffffffffffffffffff1681526020019081526020016000206003018482815181106117ba576117b9614ca0565b5b60200260200101519080600181540180825580915050600190039060005260206000200160009091909190916101000a81548173ffffffffffffffffffffffffffffffffffffffff021916908373ffffffffffffffffffffffffffffffffffffffff160217905550808061182d90614b81565b915050611642565b506001600460003373ffffffffffffffffffffffffffffffffffffffff1673ffffffffffffffffffffffffffffffffffffffff16815260200190815260200160002060000160006101000a81548160ff0219169083151502179055507ffd81611dac855213e752208be39bc53f2909b14f5ad8c5cdb1e30ea89285b56e83836040516118c2929190614451565b60405180910390a1505050565b60056020528060005260406000206000915090505481565b6118ef613b6b565b73ffffffffffffffffffffffffffffffffffffffff1661190d6129f3565b73ffffffffffffffffffffffffffffffffffffffff1614611963576040517f08c379a000000000000000000000000000000000000000000000000000000000815260040161195a90614678565b60405180910390fd5b61196d6000613b73565b565b60046020528060005260406000206000915090508060000160009054906101000a900460ff16905081565b6000600260003373ffffffffffffffffffffffffffffffffffffffff1673ffffffffffffffffffffffffffffffffffffffff1681526020019081526020016000205411611a1c576040517f08c379a0000000000000000000000000000000000000000000000000000000008152600401611a13906145b8565b60405180910390fd5b600460003373ffffffffffffffffffffffffffffffffffffffff1673ffffffffffffffffffffffffffffffffffffffff16815260200190815260200160002060000160009054906101000a900460ff16611aab576040517f08c379a0000000000000000000000000000000000000000000000000000000008152600401611aa2906145d8565b60405180910390fd5b6000600260003373ffffffffffffffffffffffffffffffffffffffff1673ffffffffffffffffffffffffffffffffffffffff16815260200190815260200160002054905060008060008060005b600460003373ffffffffffffffffffffffffffffffffffffffff1673ffffffffffffffffffffffffffffffffffffffff16815260200190815260200160002060030180549050811015611e8f57600460003373ffffffffffffffffffffffffffffffffffffffff1673ffffffffffffffffffffffffffffffffffffffff1681526020019081526020016000206003018181548110611b9957611b98614ca0565b5b9060005260206000200160009054906101000a900473ffffffffffffffffffffffffffffffffffffffff169150600460003373ffffffffffffffffffffffffffffffffffffffff1673ffffffffffffffffffffffffffffffffffffffff16815260200190815260200160002060010160008373ffffffffffffffffffffffffffffffffffffffff1673ffffffffffffffffffffffffffffffffffffffff16815260200190815260200160002054945060648587611c5691906149ab565b611c60919061497a565b9250600260003373ffffffffffffffffffffffffffffffffffffffff1673ffffffffffffffffffffffffffffffffffffffff16815260200190815260200160002054831115611ce4576040517f08c379a0000000000000000000000000000000000000000000000000000000008152600401611cdb90614598565b60405180910390fd5b611cee8284610c3c565b93508383670de0b6b3a7640000611d0591906149ab565b611d0f919061497a565b6005600060038481548110611d2757611d26614ca0565b5b9060005260206000200160009054906101000a900473ffffffffffffffffffffffffffffffffffffffff1673ffffffffffffffffffffffffffffffffffffffff1673ffffffffffffffffffffffffffffffffffffffff1681526020019081526020016000208190555083600460003373ffffffffffffffffffffffffffffffffffffffff1673ffffffffffffffffffffffffffffffffffffffff16815260200190815260200160002060020160008473ffffffffffffffffffffffffffffffffffffffff1673ffffffffffffffffffffffffffffffffffffffff1681526020019081526020016000206000828254611e1f9190614924565b9250508190555082600260003373ffffffffffffffffffffffffffffffffffffffff1673ffffffffffffffffffffffffffffffffffffffff1681526020019081526020016000206000828254611e759190614a99565b925050819055508080611e8790614b81565b915050611af8565b505050505050565b60008060005b600460003373ffffffffffffffffffffffffffffffffffffffff1673ffffffffffffffffffffffffffffffffffffffff16815260200190815260200160002060030180549050811015611ff057600460003373ffffffffffffffffffffffffffffffffffffffff1673ffffffffffffffffffffffffffffffffffffffff1681526020019081526020016000206003018181548110611f3e57611f3d614ca0565b5b9060005260206000200160009054906101000a900473ffffffffffffffffffffffffffffffffffffffff169250611f7d83670de0b6b3a764000061102f565b9150816ec097ce7bc90715b34b9f1000000000611f9a919061497a565b600560008573ffffffffffffffffffffffffffffffffffffffff1673ffffffffffffffffffffffffffffffffffffffff168152602001908152602001600020819055508080611fe890614b81565b915050611e9d565b50600080600460003373ffffffffffffffffffffffffffffffffffffffff1673ffffffffffffffffffffffffffffffffffffffff1681526020019081526020016000206003018054905067ffffffffffffffff81111561205357612052614ccf565b5b6040519080825280602002602001820160405280156120815781602001602082028036833780820191505090505b5090506000805b600460003373ffffffffffffffffffffffffffffffffffffffff1673ffffffffffffffffffffffffffffffffffffffff1681526020019081526020016000206003018054905081101561229057600460003373ffffffffffffffffffffffffffffffffffffffff1673ffffffffffffffffffffffffffffffffffffffff168152602001908152602001600020600301818154811061212957612128614ca0565b5b9060005260206000200160009054906101000a900473ffffffffffffffffffffffffffffffffffffffff169550600460003373ffffffffffffffffffffffffffffffffffffffff1673ffffffffffffffffffffffffffffffffffffffff16815260200190815260200160002060020160008773ffffffffffffffffffffffffffffffffffffffff1673ffffffffffffffffffffffffffffffffffffffff168152602001908152602001600020549350670de0b6b3a764000084600560008973ffffffffffffffffffffffffffffffffffffffff1673ffffffffffffffffffffffffffffffffffffffff1681526020019081526020016000205461222c91906149ab565b612236919061497a565b83828151811061224957612248614ca0565b5b60200260200101818152505082818151811061226857612267614ca0565b5b60200260200101518261227b9190614924565b9150808061228890614b81565b915050612088565b506000666a94d74f430000905080826122a99190614a99565b91506000806000600460003373ffffffffffffffffffffffffffffffffffffffff1673ffffffffffffffffffffffffffffffffffffffff1681526020019081526020016000206003018054905067ffffffffffffffff81111561230f5761230e614ccf565b5b60405190808252806020026020018201604052801561233d5781602001602082028036833780820191505090505b5090506000600460003373ffffffffffffffffffffffffffffffffffffffff1673ffffffffffffffffffffffffffffffffffffffff1681526020019081526020016000206003018054905067ffffffffffffffff8111156123a1576123a0614ccf565b5b6040519080825280602002602001820160405280156123cf5781602001602082028036833780820191505090505b50905060005b600460003373ffffffffffffffffffffffffffffffffffffffff1673ffffffffffffffffffffffffffffffffffffffff168152602001908152602001600020600301805490508110156125cf57600460003373ffffffffffffffffffffffffffffffffffffffff1673ffffffffffffffffffffffffffffffffffffffff168152602001908152602001600020600301818154811061247657612475614ca0565b5b9060005260206000200160009054906101000a900473ffffffffffffffffffffffffffffffffffffffff169a50600460003373ffffffffffffffffffffffffffffffffffffffff1673ffffffffffffffffffffffffffffffffffffffff16815260200190815260200160002060010160008c73ffffffffffffffffffffffffffffffffffffffff1673ffffffffffffffffffffffffffffffffffffffff16815260200190815260200160002054945087818151811061253857612537614ca0565b5b60200260200101516064868961254e91906149ab565b612558919061497a565b6125629190614a05565b93506000841315612592578382828151811061258157612580614ca0565b5b6020026020010181815250506125bc565b8361259c90614bca565b8382815181106125af576125ae614ca0565b5b6020026020010181815250505b80806125c790614b81565b9150506123d5565b50600080600090505b835181101561280b5760008482815181106125f6576125f5614ca0565b5b602002602001015111156127f857600460003373ffffffffffffffffffffffffffffffffffffffff1673ffffffffffffffffffffffffffffffffffffffff168152602001908152602001600020600301818154811061265857612657614ca0565b5b9060005260206000200160009054906101000a900473ffffffffffffffffffffffffffffffffffffffff169b50600560008d73ffffffffffffffffffffffffffffffffffffffff1673ffffffffffffffffffffffffffffffffffffffff16815260200190815260200160002054670de0b6b3a76400008583815181106126e1576126e0614ca0565b5b60200260200101516126f391906149ab565b6126fd919061497a565b91506127098c83612c74565b9a508a600260003373ffffffffffffffffffffffffffffffffffffffff1673ffffffffffffffffffffffffffffffffffffffff168152602001908152602001600020600082825461275a9190614924565b9250508190555081600460003373ffffffffffffffffffffffffffffffffffffffff1673ffffffffffffffffffffffffffffffffffffffff16815260200190815260200160002060020160008e73ffffffffffffffffffffffffffffffffffffffff1673ffffffffffffffffffffffffffffffffffffffff16815260200190815260200160002060008282546127f09190614a99565b925050819055505b808061280390614b81565b9150506125d8565b5060005b82518110156129e557600083828151811061282d5761282c614ca0565b5b602002602001015111156129d257600460003373ffffffffffffffffffffffffffffffffffffffff1673ffffffffffffffffffffffffffffffffffffffff168152602001908152602001600020600301818154811061288f5761288e614ca0565b5b9060005260206000200160009054906101000a900473ffffffffffffffffffffffffffffffffffffffff169b508281815181106128cf576128ce614ca0565b5b602002602001015191506128e38c83610c3c565b9a508a600460003373ffffffffffffffffffffffffffffffffffffffff1673ffffffffffffffffffffffffffffffffffffffff16815260200190815260200160002060020160008e73ffffffffffffffffffffffffffffffffffffffff1673ffffffffffffffffffffffffffffffffffffffff16815260200190815260200160002060008282546129749190614924565b9250508190555081600260003373ffffffffffffffffffffffffffffffffffffffff1673ffffffffffffffffffffffffffffffffffffffff16815260200190815260200160002060008282546129ca9190614a99565b925050819055505b80806129dd90614b81565b91505061280f565b505050505050505050505050565b60008060009054906101000a900473ffffffffffffffffffffffffffffffffffffffff16905090565b808160006001905060005b600380549050811015612abe578273ffffffffffffffffffffffffffffffffffffffff1660038281548110612a5f57612a5e614ca0565b5b9060005260206000200160009054906101000a900473ffffffffffffffffffffffffffffffffffffffff1673ffffffffffffffffffffffffffffffffffffffff161415612aab57600091505b8080612ab690614b81565b915050612a27565b5080612aff576040517f08c379a0000000000000000000000000000000000000000000000000000000008152600401612af6906146d8565b60405180910390fd5b612b07613b6b565b73ffffffffffffffffffffffffffffffffffffffff16612b256129f3565b73ffffffffffffffffffffffffffffffffffffffff1614612b7b576040517f08c379a0000000000000000000000000000000000000000000000000000000008152600401612b7290614678565b60405180910390fd5b6003849080600181540180825580915050600190039060005260206000200160009091909190916101000a81548173ffffffffffffffffffffffffffffffffffffffff021916908373ffffffffffffffffffffffffffffffffffffffff1602179055507ff59d0ae4e98bf93f09241ca4f8223fb0ecfebf4027c3087280ecec9c18d32f7584604051612c0d91906143b4565b60405180910390a150505050565b6000600460008373ffffffffffffffffffffffffffffffffffffffff1673ffffffffffffffffffffffffffffffffffffffff16815260200190815260200160002060000160009054906101000a900460ff169050919050565b600080600160009054906101000a900473ffffffffffffffffffffffffffffffffffffffff1673ffffffffffffffffffffffffffffffffffffffff1663ad5c46486040518163ffffffff1660e01b815260040160206040518083038186803b158015612cdf57600080fd5b505afa158015612cf3573d6000803e3d6000fd5b505050506040513d601f19601f82011682018060405250810190612d179190613ea7565b90506000600267ffffffffffffffff811115612d3657612d35614ccf565b5b604051908082528060200260200182016040528015612d645781602001602082028036833780820191505090505b5090508481600081518110612d7c57612d7b614ca0565b5b602002602001019073ffffffffffffffffffffffffffffffffffffffff16908173ffffffffffffffffffffffffffffffffffffffff16815250508181600181518110612dcb57612dca614ca0565b5b602002602001019073ffffffffffffffffffffffffffffffffffffffff16908173ffffffffffffffffffffffffffffffffffffffff16815250508473ffffffffffffffffffffffffffffffffffffffff1663095ea7b3600160009054906101000a900473ffffffffffffffffffffffffffffffffffffffff16866040518363ffffffff1660e01b8152600401612e629291906143cf565b602060405180830381600087803b158015612e7c57600080fd5b505af1158015612e90573d6000803e3d6000fd5b505050506040513d601f19601f82011682018060405250810190612eb49190613fd5565b506000600160009054906101000a900473ffffffffffffffffffffffffffffffffffffffff1673ffffffffffffffffffffffffffffffffffffffff1663d06ca61f86846040518363ffffffff1660e01b8152600401612f14929190614733565b60006040518083038186803b158015612f2c57600080fd5b505afa158015612f40573d6000803e3d6000fd5b505050506040513d6000823e3d601f19601f82011682018060405250810190612f699190613f8c565b9050600160009054906101000a900473ffffffffffffffffffffffffffffffffffffffff1673ffffffffffffffffffffffffffffffffffffffff166318cbafe58683600181518110612fbe57612fbd614ca0565b5b60200260200101518530426040518663ffffffff1660e01b8152600401612fe99594939291906147af565b600060405180830381600087803b15801561300357600080fd5b505af1158015613017573d6000803e3d6000fd5b505050506040513d6000823e3d601f19601f820116820180604052508101906130409190613f8c565b508060018151811061305557613054614ca0565b5b6020026020010151935050505092915050565b606080600060038054905067ffffffffffffffff81111561308c5761308b614ccf565b5b6040519080825280602002602001820160405280156130ba5781602001602082028036833780820191505090505b509050600060038054905067ffffffffffffffff8111156130de576130dd614ccf565b5b60405190808252806020026020018201604052801561310c5781602001602082028036833780820191505090505b50905060005b60038054905081101561325b576003818154811061313357613132614ca0565b5b9060005260206000200160009054906101000a900473ffffffffffffffffffffffffffffffffffffffff1683828151811061317157613170614ca0565b5b602002602001019073ffffffffffffffffffffffffffffffffffffffff16908173ffffffffffffffffffffffffffffffffffffffff168152505060056000600383815481106131c3576131c2614ca0565b5b9060005260206000200160009054906101000a900473ffffffffffffffffffffffffffffffffffffffff1673ffffffffffffffffffffffffffffffffffffffff1673ffffffffffffffffffffffffffffffffffffffff1681526020019081526020016000205482828151811061323c5761323b614ca0565b5b602002602001018181525050808061325390614b81565b915050613112565b5081819350935050509091565b60008034116132ac576040517f08c379a00000000000000000000000000000000000000000000000000000000081526004016132a390614658565b60405180910390fd5b34600260003373ffffffffffffffffffffffffffffffffffffffff1673ffffffffffffffffffffffffffffffffffffffff16815260200190815260200160002060008282546132fb9190614924565b925050819055507fa8126f7572bb1fdeae5b5aa9ec126438b91f658a07873f009d041ae690f3a19333346040516133339291906143cf565b60405180910390a1600260003373ffffffffffffffffffffffffffffffffffffffff1673ffffffffffffffffffffffffffffffffffffffff16815260200190815260200160002054905090565b600080600090505b600380549050811015613496576133e5600382815481106133ac576133ab614ca0565b5b9060005260206000200160009054906101000a900473ffffffffffffffffffffffffffffffffffffffff16670de0b6b3a764000061102f565b9150816ec097ce7bc90715b34b9f1000000000613402919061497a565b600560006003848154811061341a57613419614ca0565b5b9060005260206000200160009054906101000a900473ffffffffffffffffffffffffffffffffffffffff1673ffffffffffffffffffffffffffffffffffffffff1673ffffffffffffffffffffffffffffffffffffffff16815260200190815260200160002081905550808061348e90614b81565b915050613388565b5050565b600460003373ffffffffffffffffffffffffffffffffffffffff1673ffffffffffffffffffffffffffffffffffffffff16815260200190815260200160002060000160009054906101000a900460ff16613529576040517f08c379a000000000000000000000000000000000000000000000000000000000815260040161352090614638565b60405180910390fd5b60008060005b600460003373ffffffffffffffffffffffffffffffffffffffff1673ffffffffffffffffffffffffffffffffffffffff1681526020019081526020016000206003018054905081101561390b57600460003373ffffffffffffffffffffffffffffffffffffffff1673ffffffffffffffffffffffffffffffffffffffff16815260200190815260200160002060030181815481106135d0576135cf614ca0565b5b9060005260206000200160009054906101000a900473ffffffffffffffffffffffffffffffffffffffff1691506000600460003373ffffffffffffffffffffffffffffffffffffffff1673ffffffffffffffffffffffffffffffffffffffff16815260200190815260200160002060020160008473ffffffffffffffffffffffffffffffffffffffff1673ffffffffffffffffffffffffffffffffffffffff1681526020019081526020016000205411156138715761370e82600460003373ffffffffffffffffffffffffffffffffffffffff1673ffffffffffffffffffffffffffffffffffffffff16815260200190815260200160002060020160008573ffffffffffffffffffffffffffffffffffffffff1673ffffffffffffffffffffffffffffffffffffffff16815260200190815260200160002054612c74565b925082600260003373ffffffffffffffffffffffffffffffffffffffff1673ffffffffffffffffffffffffffffffffffffffff168152602001908152602001600020600082825461375f9190614924565b925050819055506000600460003373ffffffffffffffffffffffffffffffffffffffff1673ffffffffffffffffffffffffffffffffffffffff16815260200190815260200160002060020160008473ffffffffffffffffffffffffffffffffffffffff1673ffffffffffffffffffffffffffffffffffffffff168152602001908152602001600020819055506000600460003373ffffffffffffffffffffffffffffffffffffffff1673ffffffffffffffffffffffffffffffffffffffff16815260200190815260200160002060010160008473ffffffffffffffffffffffffffffffffffffffff1673ffffffffffffffffffffffffffffffffffffffff168152602001908152602001600020819055505b600460003373ffffffffffffffffffffffffffffffffffffffff1673ffffffffffffffffffffffffffffffffffffffff1681526020019081526020016000206003018054806138c3576138c2614c71565b5b6001900381819060005260206000200160006101000a81549073ffffffffffffffffffffffffffffffffffffffff02191690559055808061390390614b81565b91505061352f565b506000600460003373ffffffffffffffffffffffffffffffffffffffff1673ffffffffffffffffffffffffffffffffffffffff16815260200190815260200160002060000160006101000a81548160ff0219169083151502179055507fb24dcbc2f0ea9133e820ca155e83232c8e2612051982b9edc7234fd0f3692cf93360405161399691906143b4565b60405180910390a15050565b6139aa613b6b565b73ffffffffffffffffffffffffffffffffffffffff166139c86129f3565b73ffffffffffffffffffffffffffffffffffffffff1614613a1e576040517f08c379a0000000000000000000000000000000000000000000000000000000008152600401613a1590614678565b60405180910390fd5b600073ffffffffffffffffffffffffffffffffffffffff168173ffffffffffffffffffffffffffffffffffffffff161415613a8e576040517f08c379a0000000000000000000000000000000000000000000000000000000008152600401613a8590614558565b60405180910390fd5b613a9781613b73565b50565b600160009054906101000a900473ffffffffffffffffffffffffffffffffffffffff1681565b6000805b600380549050811015613b60578273ffffffffffffffffffffffffffffffffffffffff1660038281548110613afc57613afb614ca0565b5b9060005260206000200160009054906101000a900473ffffffffffffffffffffffffffffffffffffffff1673ffffffffffffffffffffffffffffffffffffffff161415613b4d576001915050613b66565b8080613b5890614b81565b915050613ac4565b50600090505b919050565b600033905090565b60008060009054906101000a900473ffffffffffffffffffffffffffffffffffffffff169050816000806101000a81548173ffffffffffffffffffffffffffffffffffffffff021916908373ffffffffffffffffffffffffffffffffffffffff1602179055508173ffffffffffffffffffffffffffffffffffffffff168173ffffffffffffffffffffffffffffffffffffffff167f8be0079c531659141344cd1fd0a4f28419497f9722a3daafe3b4186f6b6457e060405160405180910390a35050565b6000613c4a613c4584614849565b614824565b90508083825260208201905082856020860282011115613c6d57613c6c614d03565b5b60005b85811015613c9d5781613c838882613d87565b845260208401935060208301925050600181019050613c70565b5050509392505050565b6000613cba613cb584614875565b614824565b90508083825260208201905082856020860282011115613cdd57613cdc614d03565b5b60005b85811015613d0d5781613cf38882613e50565b845260208401935060208301925050600181019050613ce0565b5050509392505050565b6000613d2a613d2584614875565b614824565b90508083825260208201905082856020860282011115613d4d57613d4c614d03565b5b60005b85811015613d7d5781613d638882613e65565b845260208401935060208301925050600181019050613d50565b5050509392505050565b600081359050613d9681615097565b92915050565b600081519050613dab81615097565b92915050565b600082601f830112613dc657613dc5614cfe565b5b8135613dd6848260208601613c37565b91505092915050565b600082601f830112613df457613df3614cfe565b5b8135613e04848260208601613ca7565b91505092915050565b600082601f830112613e2257613e21614cfe565b5b8151613e32848260208601613d17565b91505092915050565b600081519050613e4a816150ae565b92915050565b600081359050613e5f816150c5565b92915050565b600081519050613e74816150c5565b92915050565b600060208284031215613e9057613e8f614d0d565b5b6000613e9e84828501613d87565b91505092915050565b600060208284031215613ebd57613ebc614d0d565b5b6000613ecb84828501613d9c565b91505092915050565b60008060408385031215613eeb57613eea614d0d565b5b6000613ef985828601613d87565b9250506020613f0a85828601613e50565b9150509250929050565b60008060408385031215613f2b57613f2a614d0d565b5b600083013567ffffffffffffffff811115613f4957613f48614d08565b5b613f5585828601613db1565b925050602083013567ffffffffffffffff811115613f7657613f75614d08565b5b613f8285828601613ddf565b9150509250929050565b600060208284031215613fa257613fa1614d0d565b5b600082015167ffffffffffffffff811115613fc057613fbf614d08565b5b613fcc84828501613e0d565b91505092915050565b600060208284031215613feb57613fea614d0d565b5b6000613ff984828501613e3b565b91505092915050565b60006020828403121561401857614017614d0d565b5b600061402684828501613e50565b91505092915050565b600061403b838361405f565b60208301905092915050565b60006140538383614387565b60208301905092915050565b61406881614acd565b82525050565b61407781614acd565b82525050565b6000614088826148c1565b61409281856148f1565b935061409d836148a1565b8060005b838110156140ce5781516140b5888261402f565b97506140c0836148d7565b9250506001810190506140a1565b5085935050505092915050565b60006140e6826148cc565b6140f08185614902565b93506140fb836148b1565b8060005b8381101561412c5781516141138882614047565b975061411e836148e4565b9250506001810190506140ff565b5085935050505092915050565b61414281614adf565b82525050565b61415181614b2c565b82525050565b6000614164601183614913565b915061416f82614d23565b602082019050919050565b6000614187602983614913565b915061419282614d4c565b604082019050919050565b60006141aa602683614913565b91506141b582614d9b565b604082019050919050565b60006141cd601083614913565b91506141d882614dea565b602082019050919050565b60006141f0601c83614913565b91506141fb82614e13565b602082019050919050565b6000614213601283614913565b915061421e82614e3c565b602082019050919050565b6000614236601883614913565b915061424182614e65565b602082019050919050565b6000614259602783614913565b915061426482614e8e565b604082019050919050565b600061427c602d83614913565b915061428782614edd565b604082019050919050565b600061429f601583614913565b91506142aa82614f2c565b602082019050919050565b60006142c2602683614913565b91506142cd82614f55565b604082019050919050565b60006142e5602083614913565b91506142f082614fa4565b602082019050919050565b6000614308601883614913565b915061431382614fcd565b602082019050919050565b600061432b601c83614913565b915061433682614ff6565b602082019050919050565b600061434e601883614913565b91506143598261501f565b602082019050919050565b6000614371602183614913565b915061437c82615048565b604082019050919050565b61439081614b15565b82525050565b61439f81614b15565b82525050565b6143ae81614b1f565b82525050565b60006020820190506143c9600083018461406e565b92915050565b60006040820190506143e4600083018561406e565b6143f16020830184614396565b9392505050565b600060608201905061440d600083018661406e565b61441a6020830185614396565b6144276040830184614396565b949350505050565b60006020820190508181036000830152614449818461407d565b905092915050565b6000604082019050818103600083015261446b818561407d565b9050818103602083015261447f81846140db565b90509392505050565b600060208201905061449d6000830184614139565b92915050565b60006080820190506144b86000830187614139565b81810360208301526144ca818661407d565b905081810360408301526144de81856140db565b905081810360608301526144f281846140db565b905095945050505050565b60006020820190506145126000830184614148565b92915050565b6000602082019050818103600083015261453181614157565b9050919050565b600060208201905081810360008301526145518161417a565b9050919050565b600060208201905081810360008301526145718161419d565b9050919050565b60006020820190508181036000830152614591816141c0565b9050919050565b600060208201905081810360008301526145b1816141e3565b9050919050565b600060208201905081810360008301526145d181614206565b9050919050565b600060208201905081810360008301526145f181614229565b9050919050565b600060208201905081810360008301526146118161424c565b9050919050565b600060208201905081810360008301526146318161426f565b9050919050565b6000602082019050818103600083015261465181614292565b9050919050565b60006020820190508181036000830152614671816142b5565b9050919050565b60006020820190508181036000830152614691816142d8565b9050919050565b600060208201905081810360008301526146b1816142fb565b9050919050565b600060208201905081810360008301526146d18161431e565b9050919050565b600060208201905081810360008301526146f181614341565b9050919050565b6000602082019050818103600083015261471181614364565b9050919050565b600060208201905061472d6000830184614396565b92915050565b60006040820190506147486000830185614396565b818103602083015261475a818461407d565b90509392505050565b60006080820190506147786000830187614396565b818103602083015261478a818661407d565b9050614799604083018561406e565b6147a66060830184614396565b95945050505050565b600060a0820190506147c46000830188614396565b6147d16020830187614396565b81810360408301526147e3818661407d565b90506147f2606083018561406e565b6147ff6080830184614396565b9695505050505050565b600060208201905061481e60008301846143a5565b92915050565b600061482e61483f565b905061483a8282614b50565b919050565b6000604051905090565b600067ffffffffffffffff82111561486457614863614ccf565b5b602082029050602081019050919050565b600067ffffffffffffffff8211156148905761488f614ccf565b5b602082029050602081019050919050565b6000819050602082019050919050565b6000819050602082019050919050565b600081519050919050565b600081519050919050565b6000602082019050919050565b6000602082019050919050565b600082825260208201905092915050565b600082825260208201905092915050565b600082825260208201905092915050565b600061492f82614b15565b915061493a83614b15565b9250827fffffffffffffffffffffffffffffffffffffffffffffffffffffffffffffffff0382111561496f5761496e614c13565b5b828201905092915050565b600061498582614b15565b915061499083614b15565b9250826149a05761499f614c42565b5b828204905092915050565b60006149b682614b15565b91506149c183614b15565b9250817fffffffffffffffffffffffffffffffffffffffffffffffffffffffffffffffff04831182151516156149fa576149f9614c13565b5b828202905092915050565b6000614a1082614aeb565b9150614a1b83614aeb565b9250827f800000000000000000000000000000000000000000000000000000000000000001821260008412151615614a5657614a55614c13565b5b827f7fffffffffffffffffffffffffffffffffffffffffffffffffffffffffffffff018213600084121615614a8e57614a8d614c13565b5b828203905092915050565b6000614aa482614b15565b9150614aaf83614b15565b925082821015614ac257614ac1614c13565b5b828203905092915050565b6000614ad882614af5565b9050919050565b60008115159050919050565b6000819050919050565b600073ffffffffffffffffffffffffffffffffffffffff82169050919050565b6000819050919050565b600060ff82169050919050565b6000614b3782614b3e565b9050919050565b6000614b4982614af5565b9050919050565b614b5982614d12565b810181811067ffffffffffffffff82111715614b7857614b77614ccf565b5b80604052505050565b6000614b8c82614b15565b91507fffffffffffffffffffffffffffffffffffffffffffffffffffffffffffffffff821415614bbf57614bbe614c13565b5b600182019050919050565b6000614bd582614aeb565b91507f8000000000000000000000000000000000000000000000000000000000000000821415614c0857614c07614c13565b5b816000039050919050565b7f4e487b7100000000000000000000000000000000000000000000000000000000600052601160045260246000fd5b7f4e487b7100000000000000000000000000000000000000000000000000000000600052601260045260246000fd5b7f4e487b7100000000000000000000000000000000000000000000000000000000600052603160045260246000fd5b7f4e487b7100000000000000000000000000000000000000000000000000000000600052603260045260246000fd5b7f4e487b7100000000000000000000000000000000000000000000000000000000600052604160045260246000fd5b600080fd5b600080fd5b600080fd5b600080fd5b6000601f19601f8301169050919050565b7f4173736574206e6f7420616c6c6f776564000000000000000000000000000000600082015250565b7f5468652070657263656e746167652072616e676520706572206173736574206960008201527f73203120746f2039390000000000000000000000000000000000000000000000602082015250565b7f4f776e61626c653a206e6577206f776e657220697320746865207a65726f206160008201527f6464726573730000000000000000000000000000000000000000000000000000602082015250565b7f4e6f7420656e6f7567682066756e647300000000000000000000000000000000600082015250565b7f52656163686564206d61782062616c616e636520746f207370656e6400000000600082015250565b7f4e6f7420656e6f7567682062616c616e63650000000000000000000000000000600082015250565b7f506f7274666f6c696f206d757374206265207365616c65640000000000000000600082015250565b7f4d697373696e67206461746120666f722061737365747320616e64207065726360008201527f656e746167657300000000000000000000000000000000000000000000000000602082015250565b7f5468652073756d206f6620616c6c207468652070657263656e7461676573206d60008201527f75737420657175616c2031303000000000000000000000000000000000000000602082015250565b7f5468657265206973206e6f20706f7274666f6c696f0000000000000000000000600082015250565b7f4465706f7369742076616c7565206d757374206265206772617465722074686160008201527f6e207a65726f0000000000000000000000000000000000000000000000000000602082015250565b7f4f776e61626c653a2063616c6c6572206973206e6f7420746865206f776e6572600082015250565b7f506f7274666f6c696f20616c7265616479207365616c65640000000000000000600082015250565b7f4d617820616d6f756e74206f6620617373657473207265616368656400000000600082015250565b7f417373657420697320616c6c6f77656420616c72656164790000000000000000600082015250565b7f546865206d696e696d756d20616d6f756e74206f66206173736574732069732060008201527f3200000000000000000000000000000000000000000000000000000000000000602082015250565b6150a081614acd565b81146150ab57600080fd5b50565b6150b781614adf565b81146150c257600080fd5b50565b6150ce81614b15565b81146150d957600080fd5b5056fea26469706673582212208c3aee7305dc14976b7cfd7890b571a262bca7f1382412562398d92073de1fd264736f6c63430008060033",
  "immutableReferences": {},
  "source": "// SPDX-License-Identifier: MIT\npragma solidity 0.8.6;\n\nimport \"@openzeppelin/contracts/access/Ownable.sol\";\nimport './interfaces/IUniswapV2Router02.sol';\nimport './interfaces/IERC20.sol';\n\n/**\n * @title Hold a user portfolio with multiple assets\n * @author Gabriel R. Dias\n * @notice This is an experimental contract, don't use in production environment\n */\ncontract Balancer is Ownable {\n\n    // -----------------------------------------------\n    // Properties\n    // -----------------------------------------------\n\n    IUniswapV2Router02 public router;\n\n    /// @notice Holds an account balance in the contract (not assigned to any asset in a portfolio)\n    mapping(address => uint) public balances;\n\n    /// @notice allowed assets that can be part of a portfolio (to be edited only by contract owner)\n    address[] public allowedAssets;\n\n    /// @notice the required amount of assets an account can add in a portfolio\n    uint8 public constant MAX_PORTFOLIO_ASSETS = 10;\n\n    struct Portfolio {\n        /// @notice once a portfolio is sealed no more changes are allowed in it (it must be deleted)\n        /// @dev sealed is a reserved word\n        bool sealedPortfolio;\n        mapping(address => uint) assetPercentages;\n        mapping(address => uint) assetBalances;\n        /// @dev this array make it easy to iterate over the portfolio assets\n        address[] assets;\n    }\n\n    /// @notice Holds an account portfolio\n    mapping(address => Portfolio) public portfolios;\n\n    // -----------------------------------------------\n    // Events\n    // -----------------------------------------------\n\n    /// @notice Emitted when a new allowed asset is added to the contract\n    /// @param assetAddress The asset address\n    event LogAllowedAssetAdded(address assetAddress);\n\n    /// @notice Emitted when a new deposit is made\n    /// @param accountAddress The deposit address\n    /// @param amount The deposit amount\n    event LogDepositMade(address accountAddress, uint amount);\n\n    /// @notice Emitted when a withdraw is made\n    /// @param accountAddress The withdraw address\n    /// @param withdrawAmount The withdraw amount\n    /// @param newBalance The new balance after the withdraw\n    event LogWithdrawal(\n        address accountAddress,\n        uint withdrawAmount,\n        uint newBalance\n    );\n\n    /// @notice Emitted when a new portfolio is created\n    /// @param assets The assets address\n    /// @param percentages The assigned percentage per asset\n    event LogPortfolioCreated(address[] assets, uint[] percentages);\n\n    /// @notice Emitted when a portfolio is deleted\n    /// @param accountAddress The account which performed the operation\n    event LogPortfolioDeleted(address accountAddress);\n\n    // -----------------------------------------------\n    // Modifiers\n    // -----------------------------------------------\n\n    /// @notice Check is a valid asset\n    /// @param _assetAddress The address of the asset to check\n    modifier isValidAsset(address _assetAddress) {\n        // TODO: check the address is a ERC20 token which supports 18 decimals\n        _;\n    }\n\n    /// @notice Check the asset is not already added to the allowed list\n    /// @param _assetAddress The address of the token to be added\n    modifier isNewAllowedAsset(address _assetAddress) {\n        bool isNew = true;\n        for (uint i; i < allowedAssets.length; i++) {\n            if (allowedAssets[i] == _assetAddress) {\n                isNew = false;\n            }\n        }\n        require(isNew, \"Asset is allowed already\");\n        _;\n    }\n\n    // -----------------------------------------------\n    // Methods\n    // -----------------------------------------------\n\n    constructor (address _router) {\n        // uniswap router\n        router = IUniswapV2Router02(_router);\n    }\n\n    // fallback method\n    receive() external payable {}\n\n    /// @notice Let the contract owner add new allowed tokens\n    /// @param _assetAddress Token address\n    function addAllowedAsset(address _assetAddress)\n    public\n    isValidAsset(_assetAddress)\n    isNewAllowedAsset(_assetAddress)\n    onlyOwner\n    {\n        allowedAssets.push(_assetAddress);\n\n        emit LogAllowedAssetAdded(_assetAddress);\n    }\n    \n    /// @return The allowed assets in the contract\n    function allowedAssetsList() public view returns (address[] memory) {\n        return allowedAssets;\n    }\n\n    /// @notice Reveal an account portfolio\n    /// @param _accountAddress The portfolio account\n    /// @return The account portfolio\n    function fetchPortfolio(address _accountAddress) public view returns\n    (\n        bool,\n        address[] memory,\n        uint[] memory,\n        uint[] memory\n    )\n    {\n        uint count = portfolios[_accountAddress].assets.length;\n\n        address assetAddress;\n        address[] memory assets = new address[](count);\n        uint[] memory percentages = new uint[](count);\n        uint[] memory assetBalances = new uint[](count);\n\n        for (uint i = 0; i < count; i++) {\n            assetAddress = portfolios[_accountAddress].assets[i];\n            assets[i] = assetAddress;\n            percentages[i] = portfolios[_accountAddress].assetPercentages[assetAddress];\n            assetBalances[i] = portfolios[_accountAddress].assetBalances[assetAddress];\n        }\n\n        return (\n            portfolios[_accountAddress].sealedPortfolio,\n            assets,\n            percentages,\n            assetBalances\n        );\n    }\n\n    /// @notice Determines whether a portfolio is sealed or not\n    /// @param _accountAddress The portfolio account\n    /// @return Returns boolean answering the question\n    function isPortfolioSealed(address _accountAddress) public view returns (bool) {\n        return portfolios[_accountAddress].sealedPortfolio;\n    }\n\n    /// @notice Deposit ether in the contract\n    /// @return The balance of the account after the deposit is made\n    function deposit() public payable returns (uint) {\n        require(msg.value > 0, \"Deposit value must be grater than zero\");\n        balances[msg.sender] += msg.value;\n        emit LogDepositMade(msg.sender, msg.value);\n\n        return balances[msg.sender];\n    }\n\n    /// @notice Withdraw ether from the contract\n    /// @dev This does not return any excess ether sent to it\n    /// @param _withdrawAmount amount to withdraw\n    /// @return The balance remaining for the account performing the operation\n    function withdraw(uint _withdrawAmount) public returns (uint) {\n        require(balances[msg.sender] >= _withdrawAmount, \"Not enough funds\");\n        balances[msg.sender] -= _withdrawAmount;\n\n        payable(msg.sender).transfer(_withdrawAmount);\n\n        emit LogWithdrawal(msg.sender, _withdrawAmount, balances[msg.sender]);\n\n        return balances[msg.sender];\n    }\n\n    /// @notice Check if the asset is allowed for use in the contract\n    /// @param _assetAddress The address of the token to be added\n    function isAllowedAsset(address _assetAddress) private view returns (bool) {\n        for (uint i; i < allowedAssets.length; i++) {\n            if (allowedAssets[i] == _assetAddress) {\n                return true;\n            }\n        }\n\n        return false;\n    }\n\n    /// @notice Creates a portfolio and seal it for changes\n    /// @dev The order is relevant, each percentage will be associated with the corresponding asset by order\n    /// @param _assets Assets address (must be an allowed token)\n    /// @param _percentages The allocation percentage for each asset\n    function createPortfolio(\n        address[] memory _assets,\n        uint[] memory _percentages)\n    external {\n        require(balances[msg.sender] > 0, \"Not enough funds\");\n        require(!portfolios[msg.sender].sealedPortfolio, \"Portfolio already sealed\");\n        require(_assets.length <= MAX_PORTFOLIO_ASSETS, \"Max amount of assets reached\");\n        require(_assets.length >= 2, \"The minimum amount of assets is 2\");\n        require(_assets.length == _percentages.length, \"Missing data for assets and percentages\");\n\n        // check total percentage integrity\n        uint total = 0;\n        for (uint i = 0; i < _percentages.length; i++) {\n            require(_percentages[i] > 0 && _percentages[i] < 100, \"The percentage range per asset is 1 to 99\");\n            total += _percentages[i];\n        }\n\n        require(total == 100, \"The sum of all the percentages must equal 100\");\n\n        // check assets integrity and add them to the portfolio\n        for (uint i = 0; i < _assets.length; i++) {\n\n            require(isAllowedAsset(_assets[i]), \"Asset not allowed\");\n\n            portfolios[msg.sender].assetPercentages[_assets[i]] = _percentages[i];\n            portfolios[msg.sender].assets.push(_assets[i]);\n        }\n\n        // finally, let's seal the portfolio\n        portfolios[msg.sender].sealedPortfolio = true;\n\n        emit LogPortfolioCreated(_assets, _percentages);\n    }\n\n    /// @notice Stop the portfolio rebalancing and return the assets balance to ether\n    function deletePortfolio() public {\n        require(portfolios[msg.sender].sealedPortfolio, \"There is no portfolio\");\n\n        uint bought;\n        address assetAddress;\n        for (uint i = 0; i < portfolios[msg.sender].assets.length; i++) {\n\n            assetAddress = portfolios[msg.sender].assets[i];\n            if (portfolios[msg.sender].assetBalances[assetAddress] > 0) {\n                bought = swapTokensForETH(\n                    assetAddress,\n                    portfolios[msg.sender].assetBalances[assetAddress]\n                );\n\n                // increment the account balance with the result of the assets sold\n                balances[msg.sender] += bought;\n                portfolios[msg.sender].assetBalances[assetAddress] = 0;\n                portfolios[msg.sender].assetPercentages[assetAddress] = 0;\n            }\n\n            // delete the asset from the portfolio assets list\n            portfolios[msg.sender].assets.pop();\n        }\n\n        portfolios[msg.sender].sealedPortfolio = false;\n\n        emit LogPortfolioDeleted(msg.sender);\n    }\n\n    /// @notice Run the first asset distribution once the portfolio is sealed\n    function runInitialPortfolioDistribution() public {\n        require(balances[msg.sender] > 0, \"Not enough balance\");\n        require(portfolios[msg.sender].sealedPortfolio, \"Portfolio must be sealed\");\n\n        uint initialBalance = balances[msg.sender];\n        uint percentage;\n        uint bought;\n        uint desiredAmountToSpend;\n        address _assetAddress;\n        for (uint i = 0; i < portfolios[msg.sender].assets.length; i++) {\n            _assetAddress = portfolios[msg.sender].assets[i];\n            percentage = portfolios[msg.sender].assetPercentages[_assetAddress];\n            desiredAmountToSpend = (initialBalance * percentage) / 100;\n\n            require(\n                desiredAmountToSpend <= balances[msg.sender],\n                \"Reached max balance to spend\"\n            );\n\n            bought = swapETHForTokens(_assetAddress, desiredAmountToSpend);\n\n            assetPrices[allowedAssets[i]] = (10**18 * desiredAmountToSpend) / bought;\n            portfolios[msg.sender].assetBalances[_assetAddress] += bought;\n            balances[msg.sender] -= desiredAmountToSpend;\n        }\n    }\n\n    /// @notice Swap ETH amount for tokens\n    /// @param _destTokenAddress The destination token address\n    /// @param _amountIn The amount of ETH to exchange\n    /// @return The amount of tokens bought\n    function swapETHForTokens(address _destTokenAddress, uint _amountIn)\n    public\n    returns (uint)\n    {\n        /// @dev When using ether in the path, the WETH token address is needed because there is no address for ether ;)\n        address origTokenAddress = router.WETH();\n\n        address[] memory path = new address[](2);\n        path[0] = origTokenAddress;\n        path[1] = _destTokenAddress;\n\n        IERC20(origTokenAddress).approve(address(router), _amountIn);\n\n        uint[] memory minOuts = router.getAmountsOut(_amountIn, path);\n\n        router.swapExactETHForTokens{value: _amountIn}(\n            minOuts[1],\n            path,\n            address(this),\n            block.timestamp\n        );\n\n        return minOuts[1];\n    }\n\n    /// @notice Swap tokens amount for ETH\n    /// @param _origTokenAddress The origin token address\n    /// @param _amountIn The amount of tokens to exchange\n    /// @return The amount of ETH bought\n    function swapTokensForETH(address _origTokenAddress, uint _amountIn)\n    public\n    returns (uint)\n    {\n        address destTokenAddress = router.WETH();\n\n        address[] memory path = new address[](2);\n        path[0] = _origTokenAddress;\n        path[1] = destTokenAddress;\n\n        IERC20(_origTokenAddress).approve(address(router), _amountIn);\n\n        uint[] memory minOuts = router.getAmountsOut(_amountIn, path);\n\n        router.swapExactTokensForETH(\n            _amountIn,\n            minOuts[1],\n            path,\n            address(this),\n            block.timestamp\n        );\n\n        return minOuts[1];\n    }\n\n    // -----------------------------------------------\n    // Experimental\n    // -----------------------------------------------\n\n    // we need this to simulate a price change. We need a source to populate these values\n    mapping(address => uint) public assetPrices;\n\n    function fetchAssetsPrices() public view returns (address[] memory, uint[] memory) {\n        address[] memory assets = new address[](allowedAssets.length);\n        uint[] memory prices = new uint[](allowedAssets.length);\n\n        for (uint i; i < allowedAssets.length; i++) {\n            assets[i] = allowedAssets[i];\n            prices[i] = assetPrices[allowedAssets[i]];\n        }\n\n        return (assets, prices);\n    }\n\n    function updateAssetPrices() external {\n        uint bought;\n        for (uint i = 0; i < allowedAssets.length; i++) {\n            bought = checkAmountOut(allowedAssets[i], 10**18);\n            assetPrices[allowedAssets[i]] = (10**18 * 10**18) / bought;\n        }\n    }\n\n    function checkAmountOut(address token2, uint amount)\n    public\n    returns (uint)\n    {\n        address token1 = router.WETH();\n\n        address[] memory path = new address[](2);\n        path[0] = token1;\n        path[1] = token2;\n\n        IERC20(token1).approve(address(router), amount);\n\n        uint[] memory minOuts = router.getAmountsOut(amount, path);\n\n        return minOuts[1];\n    }\n\n    function runPortfolioRebalance() external {\n\n        // 1. update portfolio asset prices\n        address assetAddress;\n        uint bought;\n        for (uint i = 0; i < portfolios[msg.sender].assets.length; i++) {\n            assetAddress = portfolios[msg.sender].assets[i];\n            bought = checkAmountOut(assetAddress, 10**18);\n            assetPrices[assetAddress] = (10**18 * 10**18) / bought;\n        }\n\n        // 2. calculate the new portfolio total value\n        uint currentHolding;\n        uint[] memory newHoldingValue = new uint[](portfolios[msg.sender].assets.length);\n        uint newPortfolioTotalBalance = 0;\n        for (uint i = 0; i < portfolios[msg.sender].assets.length; i++) {\n            assetAddress = portfolios[msg.sender].assets[i];\n\n            // get the current holding for the coin\n            currentHolding = portfolios[msg.sender].assetBalances[assetAddress];\n\n            newHoldingValue[i] = (assetPrices[assetAddress] * currentHolding) / 10**18;\n            newPortfolioTotalBalance += newHoldingValue[i];\n        }\n\n        // TODO: is the new balance is not that grater than the old balance, then stop!\n\n        // 3. Prepare buy and sell orders\n        uint gasReserve = 30000000000000000;\n        newPortfolioTotalBalance = newPortfolioTotalBalance - gasReserve;\n\n        uint percentage;\n        int diff;\n        uint[] memory sellOrders = new uint[](portfolios[msg.sender].assets.length);\n        uint[] memory buyOrders = new uint[](portfolios[msg.sender].assets.length);\n        for (uint i = 0; i < portfolios[msg.sender].assets.length; i++) {\n            assetAddress = portfolios[msg.sender].assets[i];\n\n            // get current percentage\n            percentage = portfolios[msg.sender].assetPercentages[assetAddress];\n            diff =\n            int((newPortfolioTotalBalance * percentage) / 100) -\n            int(newHoldingValue[i]);\n\n            if (diff > 0) {\n                buyOrders[i] = uint(diff);\n            } else {\n                sellOrders[i] = uint(-diff);\n            }\n        }\n\n        // 4. Execute sell orders\n        uint amountToSwap;\n        for (uint i = 0; i < sellOrders.length; i++) {\n            if (sellOrders[i] > 0) {\n                assetAddress = portfolios[msg.sender].assets[i];\n                amountToSwap = (sellOrders[i] * 10**18) / assetPrices[assetAddress];\n\n                bought = swapTokensForETH(assetAddress, amountToSwap);\n                balances[msg.sender] += bought;\n                portfolios[msg.sender].assetBalances[assetAddress] -= amountToSwap;\n            }\n        }\n\n        // 5. Execute buy orders\n        for (uint i = 0; i < buyOrders.length; i++) {\n            if (buyOrders[i] > 0) {\n                assetAddress = portfolios[msg.sender].assets[i];\n                amountToSwap = buyOrders[i];\n\n                bought = swapETHForTokens(assetAddress, amountToSwap);\n\n                portfolios[msg.sender].assetBalances[assetAddress] += bought;\n                balances[msg.sender] -= amountToSwap;\n            }\n        }\n\n        // 6. Handle any remaining balance\n        // TODO: handle the gas reserve properly\n        //balances[msg.sender] += gasReserve;\n    }\n}\n",
  "sourcePath": "/Users/gabrieldias/code/bootcamp_consensys/blockchain-developer-bootcamp-final-project/contracts/Balancer.sol",
  "compiler": {
    "name": "solc",
    "version": "0.8.6+commit.11564f7e.Emscripten.clang"
  },
  "schemaVersion": "3.4.1",
  "updatedAt": "2021-11-28T09:01:33.147Z",
  "devdoc": {
    "author": "Gabriel R. Dias",
    "events": {
      "LogAllowedAssetAdded(address)": {
        "params": {
          "assetAddress": "The asset address"
        }
      },
      "LogDepositMade(address,uint256)": {
        "params": {
          "accountAddress": "The deposit address",
          "amount": "The deposit amount"
        }
      },
      "LogPortfolioCreated(address[],uint256[])": {
        "params": {
          "assets": "The assets address",
          "percentages": "The assigned percentage per asset"
        }
      },
      "LogPortfolioDeleted(address)": {
        "params": {
          "accountAddress": "The account which performed the operation"
        }
      },
      "LogWithdrawal(address,uint256,uint256)": {
        "params": {
          "accountAddress": "The withdraw address",
          "newBalance": "The new balance after the withdraw",
          "withdrawAmount": "The withdraw amount"
        }
      }
    },
    "kind": "dev",
    "methods": {
      "addAllowedAsset(address)": {
        "params": {
          "_assetAddress": "Token address"
        }
      },
      "allowedAssetsList()": {
        "returns": {
          "_0": "The allowed assets in the contract"
        }
      },
      "createPortfolio(address[],uint256[])": {
        "details": "The order is relevant, each percentage will be associated with the corresponding asset by order",
        "params": {
          "_assets": "Assets address (must be an allowed token)",
          "_percentages": "The allocation percentage for each asset"
        }
      },
      "deposit()": {
        "returns": {
          "_0": "The balance of the account after the deposit is made"
        }
      },
      "fetchPortfolio(address)": {
        "params": {
          "_accountAddress": "The portfolio account"
        },
        "returns": {
          "_0": "The account portfolio"
        }
      },
      "isPortfolioSealed(address)": {
        "params": {
          "_accountAddress": "The portfolio account"
        },
        "returns": {
          "_0": "Returns boolean answering the question"
        }
      },
      "owner()": {
        "details": "Returns the address of the current owner."
      },
      "renounceOwnership()": {
        "details": "Leaves the contract without owner. It will not be possible to call `onlyOwner` functions anymore. Can only be called by the current owner. NOTE: Renouncing ownership will leave the contract without an owner, thereby removing any functionality that is only available to the owner."
      },
      "swapETHForTokens(address,uint256)": {
        "params": {
          "_amountIn": "The amount of ETH to exchange",
          "_destTokenAddress": "The destination token address"
        },
        "returns": {
          "_0": "The amount of tokens bought"
        }
      },
      "swapTokensForETH(address,uint256)": {
        "params": {
          "_amountIn": "The amount of tokens to exchange",
          "_origTokenAddress": "The origin token address"
        },
        "returns": {
          "_0": "The amount of ETH bought"
        }
      },
      "transferOwnership(address)": {
        "details": "Transfers ownership of the contract to a new account (`newOwner`). Can only be called by the current owner."
      },
      "withdraw(uint256)": {
        "details": "This does not return any excess ether sent to it",
        "params": {
          "_withdrawAmount": "amount to withdraw"
        },
        "returns": {
          "_0": "The balance remaining for the account performing the operation"
        }
      }
    },
    "title": "Hold a user portfolio with multiple assets",
    "version": 1
  },
  "userdoc": {
    "events": {
      "LogAllowedAssetAdded(address)": {
        "notice": "Emitted when a new allowed asset is added to the contract"
      },
      "LogDepositMade(address,uint256)": {
        "notice": "Emitted when a new deposit is made"
      },
      "LogPortfolioCreated(address[],uint256[])": {
        "notice": "Emitted when a new portfolio is created"
      },
      "LogPortfolioDeleted(address)": {
        "notice": "Emitted when a portfolio is deleted"
      },
      "LogWithdrawal(address,uint256,uint256)": {
        "notice": "Emitted when a withdraw is made"
      }
    },
    "kind": "user",
    "methods": {
      "MAX_PORTFOLIO_ASSETS()": {
        "notice": "the required amount of assets an account can add in a portfolio"
      },
      "addAllowedAsset(address)": {
        "notice": "Let the contract owner add new allowed tokens"
      },
      "allowedAssets(uint256)": {
        "notice": "allowed assets that can be part of a portfolio (to be edited only by contract owner)"
      },
      "balances(address)": {
        "notice": "Holds an account balance in the contract (not assigned to any asset in a portfolio)"
      },
      "createPortfolio(address[],uint256[])": {
        "notice": "Creates a portfolio and seal it for changes"
      },
      "deletePortfolio()": {
        "notice": "Stop the portfolio rebalancing and return the assets balance to ether"
      },
      "deposit()": {
        "notice": "Deposit ether in the contract"
      },
      "fetchPortfolio(address)": {
        "notice": "Reveal an account portfolio"
      },
      "isPortfolioSealed(address)": {
        "notice": "Determines whether a portfolio is sealed or not"
      },
      "portfolios(address)": {
        "notice": "Holds an account portfolio"
      },
      "runInitialPortfolioDistribution()": {
        "notice": "Run the first asset distribution once the portfolio is sealed"
      },
      "swapETHForTokens(address,uint256)": {
        "notice": "Swap ETH amount for tokens"
      },
      "swapTokensForETH(address,uint256)": {
        "notice": "Swap tokens amount for ETH"
      },
      "withdraw(uint256)": {
        "notice": "Withdraw ether from the contract"
      }
    },
    "notice": "This is an experimental contract, don't use in production environment",
    "version": 1
  }
}